{
  "_format": "hh-sol-artifact-1",
  "contractName": "Account",
  "sourceName": "contracts/account-abstraction/Account.sol",
  "abi": [
    {
      "inputs": [
        {
          "internalType": "address",
          "name": "_owner",
          "type": "address"
        }
      ],
      "stateMutability": "nonpayable",
      "type": "constructor"
    },
    {
      "inputs": [],
      "name": "ECDSAInvalidSignature",
      "type": "error"
    },
    {
      "inputs": [
        {
          "internalType": "uint256",
          "name": "length",
          "type": "uint256"
        }
      ],
      "name": "ECDSAInvalidSignatureLength",
      "type": "error"
    },
    {
      "inputs": [
        {
          "internalType": "bytes32",
          "name": "s",
          "type": "bytes32"
        }
      ],
      "name": "ECDSAInvalidSignatureS",
      "type": "error"
    },
    {
      "inputs": [
        {
          "internalType": "address",
          "name": "dest",
          "type": "address"
        },
        {
          "internalType": "uint256",
          "name": "value",
          "type": "uint256"
        },
        {
          "internalType": "bytes",
          "name": "func",
          "type": "bytes"
        }
      ],
      "name": "execute",
      "outputs": [],
      "stateMutability": "nonpayable",
      "type": "function"
    },
    {
      "inputs": [],
      "name": "owner",
      "outputs": [
        {
          "internalType": "address",
          "name": "",
          "type": "address"
        }
      ],
      "stateMutability": "view",
      "type": "function"
    },
    {
      "inputs": [
        {
          "components": [
            {
              "internalType": "address",
              "name": "sender",
              "type": "address"
            },
            {
              "internalType": "uint256",
              "name": "nonce",
              "type": "uint256"
            },
            {
              "internalType": "bytes",
              "name": "initCode",
              "type": "bytes"
            },
            {
              "internalType": "bytes",
              "name": "callData",
              "type": "bytes"
            },
            {
              "internalType": "bytes32",
              "name": "accountGasLimits",
              "type": "bytes32"
            },
            {
              "internalType": "uint256",
              "name": "preVerificationGas",
              "type": "uint256"
            },
            {
              "internalType": "bytes32",
              "name": "gasFees",
              "type": "bytes32"
            },
            {
              "internalType": "bytes",
              "name": "paymasterAndData",
              "type": "bytes"
            },
            {
              "internalType": "bytes",
              "name": "signature",
              "type": "bytes"
            }
          ],
          "internalType": "struct PackedUserOperation",
          "name": "userOp",
          "type": "tuple"
        },
        {
          "internalType": "bytes32",
          "name": "",
          "type": "bytes32"
        },
        {
          "internalType": "uint256",
          "name": "",
          "type": "uint256"
        }
      ],
      "name": "validateUserOp",
      "outputs": [
        {
          "internalType": "uint256",
          "name": "validationData",
          "type": "uint256"
        }
      ],
      "stateMutability": "view",
      "type": "function"
    }
  ],
  "bytecode": "0x608034606f57601f61063338819003918201601f19168301916001600160401b03831184841017607357808492602094604052833981010312606f57516001600160a01b03811690819003606f575f80546001600160a01b0319169190911790556040516105ab90816100888239f35b5f80fd5b634e487b7160e01b5f52604160045260245ffdfe6080806040526004361015610012575f80fd5b5f3560e01c90816319822f7c1461015f575080638da5cb5b146101385763b61d27f61461003d575f80fd5b34610134576060366003190112610134576004356001600160a01b03811681036101345760443567ffffffffffffffff811161013457366023820112156101345780600401359167ffffffffffffffff83116101345736602484840101116101345760245f939283859460405193849301833781018481520391602435905af13d1561012c573d906100ce82610429565b916100dc60405193846103a1565b82523d5f602084013e5b156100ed57005b604460209160405192839162461bcd60e51b83528160048401528051918291826024860152018484015e5f828201840152601f01601f19168101030190fd5b6060906100e6565b5f80fd5b34610134575f366003190112610134575f546040516001600160a01b039091168152602090f35b34610134576060366003190112610134576004359067ffffffffffffffff821161013457816004019180360391610120600319840112610134576308b3779360e21b81526020600482015283356001600160a01b03811690819003610134576024820152602482013560448201526020818061027c61025a61021c6101fd6101ea60448a018c6103d7565b6101206064880152610144870191610409565b61020a60648a018c6103d7565b86830360231901608488015290610409565b608488013560a485015260a488013560c485015260c488013560e485015261024760e489018b6103d7565b8583036023190161010487015290610409565b6102696101048801809a6103d7565b8483036023190161012486015290610409565b0381335afa908115610396575f91610364575b507f19457468657265756d205369676e6564204d6573736167653a0a3332000000005f52601c52603c5f209235916022190182121561013457019060048201359167ffffffffffffffff83116101345760248101918336038313610134576102f684610429565b9161030460405193846103a1565b8483526020600486369301010111610134575f6020856103389661032f968387013784010152610445565b9092919261047f565b5f546001600160a01b0391821691160361035b5760205f5b60ff60405191168152f35b60206001610350565b90506020813d60201161038e575b8161037f602093836103a1565b8101031261013457518461028f565b3d9150610372565b6040513d5f823e3d90fd5b90601f8019910116810190811067ffffffffffffffff8211176103c357604052565b634e487b7160e01b5f52604160045260245ffd5b9035601e198236030181121561013457016020813591019167ffffffffffffffff821161013457813603831361013457565b908060209392818452848401375f828201840152601f01601f1916010190565b67ffffffffffffffff81116103c357601f01601f191660200190565b81519190604183036104755761046e9250602082015190606060408401519301515f1a906104f3565b9192909190565b50505f9160029190565b60048110156104df5780610491575050565b600181036104a85763f645eedf60e01b5f5260045ffd5b600281036104c3575063fce698f760e01b5f5260045260245ffd5b6003146104cd5750565b6335e2f38360e21b5f5260045260245ffd5b634e487b7160e01b5f52602160045260245ffd5b91907f7fffffffffffffffffffffffffffffff5d576e7357a4501ddfe92f46681b20a0841161056a579160209360809260ff5f9560405194855216868401526040830152606082015282805260015afa15610396575f516001600160a01b0381161561056057905f905f90565b505f906001905f90565b5050505f916003919056fea264697066735822122002357ba21fd139c8fb52279d739c7d1c02ddb03c05943e95f534252455cc318d64736f6c634300081c0033",
  "linkReferences": {},
  "deployedLinkReferences": {}
}