{
  "_format": "hh-sol-artifact-1",
  "contractName": "Account",
  "sourceName": "contracts/account-abstraction/Account.sol",
  "abi": [
    {
      "inputs": [
        {
          "internalType": "address",
          "name": "_owner",
          "type": "address"
        }
      ],
      "stateMutability": "nonpayable",
      "type": "constructor"
    },
    {
      "inputs": [],
      "name": "ECDSAInvalidSignature",
      "type": "error"
    },
    {
      "inputs": [
        {
          "internalType": "uint256",
          "name": "length",
          "type": "uint256"
        }
      ],
      "name": "ECDSAInvalidSignatureLength",
      "type": "error"
    },
    {
      "inputs": [
        {
          "internalType": "bytes32",
          "name": "s",
          "type": "bytes32"
        }
      ],
      "name": "ECDSAInvalidSignatureS",
      "type": "error"
    },
    {
      "inputs": [
        {
          "internalType": "address",
          "name": "dest",
          "type": "address"
        },
        {
          "internalType": "uint256",
          "name": "value",
          "type": "uint256"
        },
        {
          "internalType": "bytes",
          "name": "func",
          "type": "bytes"
        }
      ],
      "name": "execute",
      "outputs": [],
      "stateMutability": "nonpayable",
      "type": "function"
    },
    {
      "inputs": [],
      "name": "owner",
      "outputs": [
        {
          "internalType": "address",
          "name": "",
          "type": "address"
        }
      ],
      "stateMutability": "view",
      "type": "function"
    },
    {
      "inputs": [
        {
          "components": [
            {
              "internalType": "address",
              "name": "sender",
              "type": "address"
            },
            {
              "internalType": "uint256",
              "name": "nonce",
              "type": "uint256"
            },
            {
              "internalType": "bytes",
              "name": "initCode",
              "type": "bytes"
            },
            {
              "internalType": "bytes",
              "name": "callData",
              "type": "bytes"
            },
            {
              "internalType": "bytes32",
              "name": "accountGasLimits",
              "type": "bytes32"
            },
            {
              "internalType": "uint256",
              "name": "preVerificationGas",
              "type": "uint256"
            },
            {
              "internalType": "bytes32",
              "name": "gasFees",
              "type": "bytes32"
            },
            {
              "internalType": "bytes",
              "name": "paymasterAndData",
              "type": "bytes"
            },
            {
              "internalType": "bytes",
              "name": "signature",
              "type": "bytes"
            }
          ],
          "internalType": "struct PackedUserOperation",
          "name": "userOp",
          "type": "tuple"
        },
        {
          "internalType": "bytes32",
          "name": "userOpHash",
          "type": "bytes32"
        },
        {
          "internalType": "uint256",
          "name": "",
          "type": "uint256"
        }
      ],
      "name": "validateUserOp",
      "outputs": [
        {
          "internalType": "uint256",
          "name": "validationData",
          "type": "uint256"
        }
      ],
      "stateMutability": "view",
      "type": "function"
    }
  ],
  "bytecode": "0x608034606f57601f6104ab38819003918201601f19168301916001600160401b03831184841017607357808492602094604052833981010312606f57516001600160a01b03811690819003606f575f80546001600160a01b03191691909117905560405161042390816100888239f35b5f80fd5b634e487b7160e01b5f52604160045260245ffdfe60806040526004361015610011575f80fd5b5f3560e01c806319822f7c146101575780638da5cb5b146101305763b61d27f61461003a575f80fd5b3461012c57606036600319011261012c576004356001600160a01b038116810361012c5760443567ffffffffffffffff811161012c573660238201121561012c5780600401359167ffffffffffffffff831161012c57366024848401011161012c5760245f939283859460405193849301833781018481520391602435905af13d15610124573d906100d36100ce83610296565b61025c565b9182523d5f602084013e5b156100e557005b604460209160405192839162461bcd60e51b83528160048401528051918291826024860152018484015e5f828201840152601f01601f19168101030190fd5b6060906100de565b5f80fd5b3461012c575f36600319011261012c575f546040516001600160a01b039091168152602090f35b3461012c57606036600319011261012c5760043567ffffffffffffffff811161012c5780360361012060031982011261012c577f19457468657265756d205369676e6564204d6573736167653a0a3332000000005f52602435601c52603c5f2091610104810135916022190182121561012c57019060048201359167ffffffffffffffff831161012c576024810191833603831361012c576101fb6100ce85610296565b91848352602060048636930101011161012c575f602085610230966102279683870137840101526102b2565b909291926102ec565b5f546001600160a01b039182169116036102535760205f5b60ff60405191168152f35b60206001610248565b6040519190601f01601f1916820167ffffffffffffffff81118382101761028257604052565b634e487b7160e01b5f52604160045260245ffd5b67ffffffffffffffff811161028257601f01601f191660200190565b81519190604183036102e2576102db9250602082015190606060408401519301515f1a90610360565b9192909190565b50505f9160029190565b600481101561034c57806102fe575050565b600181036103155763f645eedf60e01b5f5260045ffd5b60028103610330575063fce698f760e01b5f5260045260245ffd5b60031461033a5750565b6335e2f38360e21b5f5260045260245ffd5b634e487b7160e01b5f52602160045260245ffd5b91907f7fffffffffffffffffffffffffffffff5d576e7357a4501ddfe92f46681b20a084116103e2579160209360809260ff5f9560405194855216868401526040830152606082015282805260015afa156103d7575f516001600160a01b038116156103cd57905f905f90565b505f906001905f90565b6040513d5f823e3d90fd5b5050505f916003919056fea2646970667358221220f16d04c7bc453d93cc0fb647676aca5d8d4a494d5c06364ac921fd3782afce8764736f6c634300081c0033",
  "linkReferences": {},
  "deployedLinkReferences": {}
}