{
  "_format": "hh-sol-artifact-1",
  "contractName": "AccountFactory",
  "sourceName": "contracts/account-abstraction/AccountFactory.sol",
  "abi": [
    {
      "inputs": [
        {
          "internalType": "address",
          "name": "_storage",
          "type": "address"
        },
        {
          "internalType": "address",
          "name": "_master",
          "type": "address"
        },
        {
          "internalType": "bytes32",
          "name": "_key",
          "type": "bytes32"
        }
      ],
      "stateMutability": "nonpayable",
      "type": "constructor"
    },
    {
      "inputs": [],
      "name": "Create2EmptyBytecode",
      "type": "error"
    },
    {
      "inputs": [],
      "name": "FailedDeployment",
      "type": "error"
    },
    {
      "inputs": [
        {
          "internalType": "uint256",
          "name": "balance",
          "type": "uint256"
        },
        {
          "internalType": "uint256",
          "name": "needed",
          "type": "uint256"
        }
      ],
      "name": "InsufficientBalance",
      "type": "error"
    },
    {
      "inputs": [
        {
          "internalType": "address",
          "name": "person",
          "type": "address"
        }
      ],
      "name": "NotAllowedPerson",
      "type": "error"
    },
    {
      "anonymous": false,
      "inputs": [
        {
          "indexed": true,
          "internalType": "address",
          "name": "previousDeveloper",
          "type": "address"
        },
        {
          "indexed": true,
          "internalType": "address",
          "name": "newDeveloper",
          "type": "address"
        }
      ],
      "name": "DeveloperTransferredEvent",
      "type": "event"
    },
    {
      "inputs": [],
      "name": "contractName",
      "outputs": [
        {
          "internalType": "string",
          "name": "",
          "type": "string"
        }
      ],
      "stateMutability": "view",
      "type": "function"
    },
    {
      "inputs": [],
      "name": "contractVersion",
      "outputs": [
        {
          "internalType": "string",
          "name": "",
          "type": "string"
        }
      ],
      "stateMutability": "view",
      "type": "function"
    },
    {
      "inputs": [
        {
          "internalType": "address",
          "name": "owner",
          "type": "address"
        }
      ],
      "name": "createAccount",
      "outputs": [
        {
          "internalType": "address",
          "name": "",
          "type": "address"
        }
      ],
      "stateMutability": "nonpayable",
      "type": "function"
    },
    {
      "inputs": [],
      "name": "developer",
      "outputs": [
        {
          "internalType": "address payable",
          "name": "",
          "type": "address"
        }
      ],
      "stateMutability": "view",
      "type": "function"
    },
    {
      "inputs": [],
      "name": "register",
      "outputs": [],
      "stateMutability": "nonpayable",
      "type": "function"
    },
    {
      "inputs": [
        {
          "internalType": "address payable",
          "name": "newDeveloper",
          "type": "address"
        }
      ],
      "name": "transferDeveloper",
      "outputs": [],
      "stateMutability": "nonpayable",
      "type": "function"
    }
  ],
  "bytecode": "0x608034609b57601f610c5438819003918201601f19168301916001600160401b03831184841017609f57808492606094604052833981010312609b5760428160b3565b506040604f6020830160b3565b910151600180546001600160a01b03199081166001600160a01b039094169384179091555f805482169093179092556002556003805490911633179055604051610b8d90816100c78239f35b5f80fd5b634e487b7160e01b5f52604160045260245ffd5b51906001600160a01b0382168203609b5756fe60806040526004361015610011575f80fd5b5f3560e01c80631aa3a0081461007457806364cb4edb1461006f57806375d0c0dc1461006a5780639859387b14610065578063a0a8e460146100605763ca4b208b1461005b575f80fd5b610373565b610344565b6102e8565b610294565b61014b565b3461012c575f36600319011261012c5761009960018060a01b0360035416331461039b565b60018060a01b035f54166002546100ae610247565b91744163636f756e74466163746f72794665617475726560581b60208401526100d5610321565b90803b1561012c57610101935f80946040519687958694859363163f5abb60e21b8552600485016103e7565b03925af180156101275761011157005b8061011f5f61012593610201565b80610130565b005b610412565b5f80fd5b5f91031261012c57565b6001600160a01b0381160361012c57565b3461012c57602036600319011261012c576004356101688161013a565b6003546001600160a01b0381169161018133841461039b565b6001600160a01b03169182156101c75782907fd734ca01d7ec868e364f3c2cbda207212fa91c58040df183429252e85a48b2b15f80a36001600160a01b03191617600355005b60405162461bcd60e51b815260206004820152601260248201527154686973206164647265737320697320302160701b6044820152606490fd5b90601f8019910116810190811067ffffffffffffffff82111761022357604052565b634e487b7160e01b5f52604160045260245ffd5b906102456040519283610201565b565b60405190610256604083610201565b60158252565b805180835260209291819084018484015e5f828201840152601f01601f1916010190565b90602061029192818152019061025c565b90565b3461012c575f36600319011261012c576102e46040516102b5604082610201565b600e81526d4163636f756e74466163746f727960901b602082015260405191829160208352602083019061025c565b0390f35b3461012c57602036600319011261012c57602061030f60043561030a8161013a565b610486565b6040516001600160a01b039091168152f35b60405190610330604083610201565b60058252640312e302e360dc1b6020830152565b3461012c575f36600319011261012c576102e461035f610321565b60405191829160208352602083019061025c565b3461012c575f36600319011261012c576003546040516001600160a01b039091168152602090f35b156103a257565b60405162461bcd60e51b815260206004820152601b60248201527f4f6e6c792074686520446576656c6f70657220726571756972656400000000006044820152606490fd5b91610404906102919492845260606020850152606084019061025c565b91604081840391015261025c565b6040513d5f823e3d90fd5b6040519061042c604083610201565b600c82526b4f776e65724665617475726560a01b6020830152565b9081602091031261012c57516102918161013a565b9081602091031261012c5751801515810361012c5790565b805191908290602001825e015f815290565b5f546104bc906020906001600160a01b03166104a061041d565b906040518080958194630251382f60e31b835260048301610280565b03915afa908115610127575f91610609575b506040516307b9c93d60e11b81526001600160a01b038381166004830152909160209183916024918391165afa908115610127575f916105da575b50156105bf5761058a906105a260018060a01b038216916105986105626105706104ab9361053960208601610237565b948086526106ad6020870139604080516001600160a01b03909216602083015290928391820190565b03601f198101835282610201565b604051958691610584602084018096610474565b90610474565b03601f198101865285610201565b8351902082610638565b803b6105b9576105b28383610662565b5f5260205ff35b91505090565b63056fdc8960e31b5f526001600160a01b031660045260245ffd5b6105fc915060203d602011610602575b6105f48183610201565b81019061045c565b5f610509565b503d6105ea565b61062b915060203d602011610631575b6106238183610201565b810190610447565b5f6104ce565b503d610619565b90600b9160405191604083015260208201523081520160ff8153605590206001600160a01b031690565b9080511561069d576020815191015ff5903d1519821516610412576001600160a01b0382161561068e57565b63b06ebf3d60e01b5f5260045ffd5b631328927760e21b5f5260045ffdfe608034606f57601f6104ab38819003918201601f19168301916001600160401b03831184841017607357808492602094604052833981010312606f57516001600160a01b03811690819003606f575f80546001600160a01b03191691909117905560405161042390816100888239f35b5f80fd5b634e487b7160e01b5f52604160045260245ffdfe60806040526004361015610011575f80fd5b5f3560e01c806319822f7c146101575780638da5cb5b146101305763b61d27f61461003a575f80fd5b3461012c57606036600319011261012c576004356001600160a01b038116810361012c5760443567ffffffffffffffff811161012c573660238201121561012c5780600401359167ffffffffffffffff831161012c57366024848401011161012c5760245f939283859460405193849301833781018481520391602435905af13d15610124573d906100d36100ce83610296565b61025c565b9182523d5f602084013e5b156100e557005b604460209160405192839162461bcd60e51b83528160048401528051918291826024860152018484015e5f828201840152601f01601f19168101030190fd5b6060906100de565b5f80fd5b3461012c575f36600319011261012c575f546040516001600160a01b039091168152602090f35b3461012c57606036600319011261012c5760043567ffffffffffffffff811161012c5780360361012060031982011261012c577f19457468657265756d205369676e6564204d6573736167653a0a3332000000005f52602435601c52603c5f2091610104810135916022190182121561012c57019060048201359167ffffffffffffffff831161012c576024810191833603831361012c576101fb6100ce85610296565b91848352602060048636930101011161012c575f602085610230966102279683870137840101526102b2565b909291926102ec565b5f546001600160a01b039182169116036102535760205f5b60ff60405191168152f35b60206001610248565b6040519190601f01601f1916820167ffffffffffffffff81118382101761028257604052565b634e487b7160e01b5f52604160045260245ffd5b67ffffffffffffffff811161028257601f01601f191660200190565b81519190604183036102e2576102db9250602082015190606060408401519301515f1a90610360565b9192909190565b50505f9160029190565b600481101561034c57806102fe575050565b600181036103155763f645eedf60e01b5f5260045ffd5b60028103610330575063fce698f760e01b5f5260045260245ffd5b60031461033a5750565b6335e2f38360e21b5f5260045260245ffd5b634e487b7160e01b5f52602160045260245ffd5b91907f7fffffffffffffffffffffffffffffff5d576e7357a4501ddfe92f46681b20a084116103e2579160209360809260ff5f9560405194855216868401526040830152606082015282805260015afa156103d7575f516001600160a01b038116156103cd57905f905f90565b505f906001905f90565b6040513d5f823e3d90fd5b5050505f916003919056fea2646970667358221220f16d04c7bc453d93cc0fb647676aca5d8d4a494d5c06364ac921fd3782afce8764736f6c634300081c0033a264697066735822122096de1d02a0397cac22cfc5daaea69afefccc23f02bc808e5e2171ebe6c48053d64736f6c634300081c0033",
  "linkReferences": {},
  "deployedLinkReferences": {}
}