{
  "_format": "hh-sol-artifact-1",
  "contractName": "Account",
  "sourceName": "contracts/account-abstraction/Account.sol",
  "abi": [
    {
      "inputs": [
        {
          "internalType": "address",
          "name": "_owner",
          "type": "address"
        }
      ],
      "stateMutability": "nonpayable",
      "type": "constructor"
    },
    {
      "inputs": [],
      "name": "ECDSAInvalidSignature",
      "type": "error"
    },
    {
      "inputs": [
        {
          "internalType": "uint256",
          "name": "length",
          "type": "uint256"
        }
      ],
      "name": "ECDSAInvalidSignatureLength",
      "type": "error"
    },
    {
      "inputs": [
        {
          "internalType": "bytes32",
          "name": "s",
          "type": "bytes32"
        }
      ],
      "name": "ECDSAInvalidSignatureS",
      "type": "error"
    },
    {
      "inputs": [
        {
          "internalType": "uint256",
          "name": "balance",
          "type": "uint256"
        }
      ],
      "name": "InsufficientBalance",
      "type": "error"
    },
    {
      "inputs": [
        {
          "internalType": "address",
          "name": "sender",
          "type": "address"
        }
      ],
      "name": "NotOwner",
      "type": "error"
    },
    {
      "inputs": [
        {
          "internalType": "address",
          "name": "dest",
          "type": "address"
        },
        {
          "internalType": "uint256",
          "name": "value",
          "type": "uint256"
        },
        {
          "internalType": "bytes",
          "name": "func",
          "type": "bytes"
        }
      ],
      "name": "execute",
      "outputs": [],
      "stateMutability": "payable",
      "type": "function"
    },
    {
      "inputs": [],
      "name": "owner",
      "outputs": [
        {
          "internalType": "address",
          "name": "",
          "type": "address"
        }
      ],
      "stateMutability": "view",
      "type": "function"
    },
    {
      "inputs": [
        {
          "components": [
            {
              "internalType": "address",
              "name": "sender",
              "type": "address"
            },
            {
              "internalType": "uint256",
              "name": "nonce",
              "type": "uint256"
            },
            {
              "internalType": "bytes",
              "name": "initCode",
              "type": "bytes"
            },
            {
              "internalType": "bytes",
              "name": "callData",
              "type": "bytes"
            },
            {
              "internalType": "bytes32",
              "name": "accountGasLimits",
              "type": "bytes32"
            },
            {
              "internalType": "uint256",
              "name": "preVerificationGas",
              "type": "uint256"
            },
            {
              "internalType": "bytes32",
              "name": "gasFees",
              "type": "bytes32"
            },
            {
              "internalType": "bytes",
              "name": "paymasterAndData",
              "type": "bytes"
            },
            {
              "internalType": "bytes",
              "name": "signature",
              "type": "bytes"
            }
          ],
          "internalType": "struct PackedUserOperation",
          "name": "userOp",
          "type": "tuple"
        },
        {
          "internalType": "bytes32",
          "name": "userOpHash",
          "type": "bytes32"
        },
        {
          "internalType": "uint256",
          "name": "",
          "type": "uint256"
        }
      ],
      "name": "validateUserOp",
      "outputs": [
        {
          "internalType": "uint256",
          "name": "validationData",
          "type": "uint256"
        }
      ],
      "stateMutability": "view",
      "type": "function"
    },
    {
      "inputs": [
        {
          "internalType": "uint256",
          "name": "value",
          "type": "uint256"
        }
      ],
      "name": "withdraw",
      "outputs": [],
      "stateMutability": "nonpayable",
      "type": "function"
    },
    {
      "inputs": [],
      "name": "withdrawAll",
      "outputs": [],
      "stateMutability": "nonpayable",
      "type": "function"
    },
    {
      "stateMutability": "payable",
      "type": "receive"
    }
  ],
  "bytecode": "0x608034606f57601f61058e38819003918201601f19168301916001600160401b03831184841017607357808492602094604052833981010312606f57516001600160a01b03811690819003606f575f80546001600160a01b03191691909117905560405161050690816100888239f35b5f80fd5b634e487b7160e01b5f52604160045260245ffdfe6080604052600436101561001a575b3615610018575f80fd5b005b5f3560e01c806319822f7c146102455780632e1a7d4d146101de578063853828b61461016d5780638da5cb5b146101465763b61d27f60361000e576060366003190112610142576004356001600160a01b03811681036101425760443567ffffffffffffffff811161014257366023820112156101425780600401359167ffffffffffffffff83116101425736602484840101116101425760245f939283859460405193849301833781018481520391602435905af13d1561013a573d906100e96100e483610384565b61034a565b9182523d5f602084013e5b156100fb57005b604460209160405192839162461bcd60e51b83528160048401528051918291826024860152018484015e5f828201840152601f01601f19168101030190fd5b6060906100f4565b5f80fd5b34610142575f366003190112610142575f546040516001600160a01b039091168152602090f35b34610142575f366003190112610142575f546001600160a01b031633811415806101d4575b6101c1575f8080809347908282156101b8575bf1156101ad57005b6040513d5f823e3d90fd5b506108fc6101a5565b63245aecd360e01b5f523360045260245ffd5b5030331415610192565b34610142576020366003190112610142575f54600435906001600160a01b0316338114158061023b575b6101c157478211610228575f80809381938282156101b857f1156101ad57005b47639266535160e01b5f5260045260245ffd5b5030331415610208565b346101425760603660031901126101425760043567ffffffffffffffff811161014257803603610120600319820112610142577f19457468657265756d205369676e6564204d6573736167653a0a3332000000005f52602435601c52603c5f2091610104810135916022190182121561014257019060048201359167ffffffffffffffff83116101425760248101918336038313610142576102e96100e485610384565b918483526020600486369301010111610142575f60208561031e966103159683870137840101526103a0565b909291926103da565b5f546001600160a01b039182169116036103415760205f5b60ff60405191168152f35b60206001610336565b6040519190601f01601f1916820167ffffffffffffffff81118382101761037057604052565b634e487b7160e01b5f52604160045260245ffd5b67ffffffffffffffff811161037057601f01601f191660200190565b81519190604183036103d0576103c99250602082015190606060408401519301515f1a9061044e565b9192909190565b50505f9160029190565b600481101561043a57806103ec575050565b600181036104035763f645eedf60e01b5f5260045ffd5b6002810361041e575063fce698f760e01b5f5260045260245ffd5b6003146104285750565b6335e2f38360e21b5f5260045260245ffd5b634e487b7160e01b5f52602160045260245ffd5b91907f7fffffffffffffffffffffffffffffff5d576e7357a4501ddfe92f46681b20a084116104c5579160209360809260ff5f9560405194855216868401526040830152606082015282805260015afa156101ad575f516001600160a01b038116156104bb57905f905f90565b505f906001905f90565b5050505f916003919056fea264697066735822122002a75378061a3f30c6c6ff6024c0f06a74507f65df8cbbe8cdcab9c17b8ca11d64736f6c634300081c0033",
  "linkReferences": {},
  "deployedLinkReferences": {}
}