{
  "_format": "hh-sol-artifact-1",
  "contractName": "AdminContract",
  "sourceName": "contracts/subcontract/AdminContract.sol",
  "abi": [
    {
      "inputs": [
        {
          "internalType": "address",
          "name": "_storage",
          "type": "address"
        },
        {
          "internalType": "address",
          "name": "_connector",
          "type": "address"
        }
      ],
      "stateMutability": "nonpayable",
      "type": "constructor"
    },
    {
      "anonymous": false,
      "inputs": [
        {
          "indexed": true,
          "internalType": "address",
          "name": "previousDeveloper",
          "type": "address"
        },
        {
          "indexed": true,
          "internalType": "address",
          "name": "newDeveloper",
          "type": "address"
        }
      ],
      "name": "DeveloperTransferredEvent",
      "type": "event"
    },
    {
      "anonymous": false,
      "inputs": [
        {
          "indexed": false,
          "internalType": "address",
          "name": "addr",
          "type": "address"
        },
        {
          "indexed": false,
          "internalType": "uint256",
          "name": "statusId",
          "type": "uint256"
        },
        {
          "indexed": false,
          "internalType": "string",
          "name": "eventText",
          "type": "string"
        }
      ],
      "name": "MasterContractEvent",
      "type": "event"
    },
    {
      "anonymous": false,
      "inputs": [
        {
          "indexed": false,
          "internalType": "address",
          "name": "addr",
          "type": "address"
        },
        {
          "indexed": false,
          "internalType": "uint256",
          "name": "status",
          "type": "uint256"
        },
        {
          "indexed": false,
          "internalType": "string",
          "name": "eventText",
          "type": "string"
        }
      ],
      "name": "WhitelistEvent",
      "type": "event"
    },
    {
      "inputs": [
        {
          "internalType": "address",
          "name": "addr",
          "type": "address"
        }
      ],
      "name": "addAddressToWhitelist",
      "outputs": [
        {
          "internalType": "bool",
          "name": "success",
          "type": "bool"
        }
      ],
      "stateMutability": "nonpayable",
      "type": "function"
    },
    {
      "inputs": [
        {
          "internalType": "address",
          "name": "masterAddr",
          "type": "address"
        },
        {
          "internalType": "address",
          "name": "storageAddr",
          "type": "address"
        }
      ],
      "name": "addMasterContract",
      "outputs": [],
      "stateMutability": "nonpayable",
      "type": "function"
    },
    {
      "inputs": [],
      "name": "contractName",
      "outputs": [
        {
          "internalType": "string",
          "name": "",
          "type": "string"
        }
      ],
      "stateMutability": "view",
      "type": "function"
    },
    {
      "inputs": [],
      "name": "contractVersion",
      "outputs": [
        {
          "internalType": "string",
          "name": "",
          "type": "string"
        }
      ],
      "stateMutability": "view",
      "type": "function"
    },
    {
      "inputs": [],
      "name": "developer",
      "outputs": [
        {
          "internalType": "address payable",
          "name": "",
          "type": "address"
        }
      ],
      "stateMutability": "view",
      "type": "function"
    },
    {
      "inputs": [
        {
          "internalType": "uint256",
          "name": "masterId",
          "type": "uint256"
        }
      ],
      "name": "disableMasterContract",
      "outputs": [],
      "stateMutability": "nonpayable",
      "type": "function"
    },
    {
      "inputs": [
        {
          "internalType": "uint256",
          "name": "masterId",
          "type": "uint256"
        },
        {
          "internalType": "address",
          "name": "memberAddr",
          "type": "address"
        }
      ],
      "name": "getAllCompanyAssetsByMember",
      "outputs": [
        {
          "internalType": "address",
          "name": "",
          "type": "address"
        },
        {
          "internalType": "string",
          "name": "",
          "type": "string"
        },
        {
          "internalType": "string",
          "name": "",
          "type": "string"
        },
        {
          "internalType": "uint256",
          "name": "",
          "type": "uint256"
        },
        {
          "internalType": "uint256",
          "name": "",
          "type": "uint256"
        },
        {
          "internalType": "string",
          "name": "",
          "type": "string"
        },
        {
          "internalType": "uint256",
          "name": "",
          "type": "uint256"
        },
        {
          "internalType": "uint8",
          "name": "",
          "type": "uint8"
        },
        {
          "internalType": "uint256",
          "name": "",
          "type": "uint256"
        }
      ],
      "stateMutability": "view",
      "type": "function"
    },
    {
      "inputs": [
        {
          "internalType": "uint256",
          "name": "masterId",
          "type": "uint256"
        },
        {
          "internalType": "address",
          "name": "memberAddr",
          "type": "address"
        }
      ],
      "name": "getCompanyAssetByMember",
      "outputs": [
        {
          "internalType": "address",
          "name": "",
          "type": "address"
        },
        {
          "internalType": "string",
          "name": "",
          "type": "string"
        },
        {
          "internalType": "string",
          "name": "",
          "type": "string"
        },
        {
          "internalType": "uint256",
          "name": "",
          "type": "uint256"
        },
        {
          "internalType": "uint256",
          "name": "",
          "type": "uint256"
        }
      ],
      "stateMutability": "view",
      "type": "function"
    },
    {
      "inputs": [
        {
          "internalType": "uint256",
          "name": "masterId",
          "type": "uint256"
        }
      ],
      "name": "getCompanyMasterAddress",
      "outputs": [
        {
          "internalType": "address",
          "name": "",
          "type": "address"
        }
      ],
      "stateMutability": "view",
      "type": "function"
    },
    {
      "inputs": [
        {
          "internalType": "uint256",
          "name": "masterId",
          "type": "uint256"
        }
      ],
      "name": "getCompanyStorageAddress",
      "outputs": [
        {
          "internalType": "address",
          "name": "",
          "type": "address"
        }
      ],
      "stateMutability": "view",
      "type": "function"
    },
    {
      "inputs": [
        {
          "internalType": "address",
          "name": "masterAddr",
          "type": "address"
        }
      ],
      "name": "getCompanyWallet",
      "outputs": [
        {
          "internalType": "address",
          "name": "",
          "type": "address"
        }
      ],
      "stateMutability": "view",
      "type": "function"
    },
    {
      "inputs": [
        {
          "internalType": "uint256",
          "name": "masterId",
          "type": "uint256"
        }
      ],
      "name": "getEscrowStatus",
      "outputs": [
        {
          "internalType": "bool",
          "name": "isEscrow",
          "type": "bool"
        }
      ],
      "stateMutability": "view",
      "type": "function"
    },
    {
      "inputs": [
        {
          "internalType": "uint256",
          "name": "masterId",
          "type": "uint256"
        },
        {
          "internalType": "uint256",
          "name": "orderId",
          "type": "uint256"
        }
      ],
      "name": "getMarketOrder",
      "outputs": [
        {
          "internalType": "address",
          "name": "creator",
          "type": "address"
        },
        {
          "internalType": "uint256",
          "name": "amount",
          "type": "uint256"
        },
        {
          "internalType": "uint256",
          "name": "remainder",
          "type": "uint256"
        },
        {
          "internalType": "string",
          "name": "price",
          "type": "string"
        },
        {
          "internalType": "uint256",
          "name": "mode",
          "type": "uint256"
        },
        {
          "internalType": "uint256",
          "name": "startTime",
          "type": "uint256"
        },
        {
          "internalType": "uint256",
          "name": "endTime",
          "type": "uint256"
        },
        {
          "internalType": "bool",
          "name": "isActive",
          "type": "bool"
        }
      ],
      "stateMutability": "view",
      "type": "function"
    },
    {
      "inputs": [
        {
          "internalType": "uint256",
          "name": "masterId",
          "type": "uint256"
        }
      ],
      "name": "getMarketOrderCounter",
      "outputs": [
        {
          "internalType": "uint256",
          "name": "",
          "type": "uint256"
        }
      ],
      "stateMutability": "view",
      "type": "function"
    },
    {
      "inputs": [
        {
          "internalType": "uint256",
          "name": "masterId",
          "type": "uint256"
        },
        {
          "internalType": "uint256",
          "name": "tradeId",
          "type": "uint256"
        }
      ],
      "name": "getMarketTrade",
      "outputs": [
        {
          "internalType": "address",
          "name": "creator",
          "type": "address"
        },
        {
          "internalType": "uint256",
          "name": "orderId",
          "type": "uint256"
        },
        {
          "internalType": "uint256",
          "name": "amount",
          "type": "uint256"
        },
        {
          "internalType": "uint256",
          "name": "startTime",
          "type": "uint256"
        },
        {
          "internalType": "uint256",
          "name": "status",
          "type": "uint256"
        }
      ],
      "stateMutability": "view",
      "type": "function"
    },
    {
      "inputs": [
        {
          "internalType": "uint256",
          "name": "masterId",
          "type": "uint256"
        }
      ],
      "name": "getMarketTradeCounter",
      "outputs": [
        {
          "internalType": "uint256",
          "name": "",
          "type": "uint256"
        }
      ],
      "stateMutability": "view",
      "type": "function"
    },
    {
      "inputs": [
        {
          "internalType": "uint256",
          "name": "masterId",
          "type": "uint256"
        }
      ],
      "name": "getMasterContract",
      "outputs": [
        {
          "internalType": "address",
          "name": "masterAddr",
          "type": "address"
        },
        {
          "internalType": "address",
          "name": "storageAddr",
          "type": "address"
        },
        {
          "internalType": "uint256",
          "name": "regTime",
          "type": "uint256"
        },
        {
          "internalType": "bool",
          "name": "enabled",
          "type": "bool"
        },
        {
          "internalType": "string",
          "name": "tokenName",
          "type": "string"
        },
        {
          "internalType": "string",
          "name": "tokenSymbol",
          "type": "string"
        },
        {
          "internalType": "uint256",
          "name": "tokenTotalsupply",
          "type": "uint256"
        },
        {
          "internalType": "string",
          "name": "tokenBName",
          "type": "string"
        },
        {
          "internalType": "string",
          "name": "tokenBSymbol",
          "type": "string"
        },
        {
          "internalType": "uint256",
          "name": "tokenBTotalsupply",
          "type": "uint256"
        },
        {
          "internalType": "uint8",
          "name": "tokenBDecimals",
          "type": "uint8"
        },
        {
          "internalType": "string",
          "name": "companyName",
          "type": "string"
        },
        {
          "internalType": "address",
          "name": "agent",
          "type": "address"
        },
        {
          "internalType": "bool",
          "name": "hasEscrow",
          "type": "bool"
        }
      ],
      "stateMutability": "view",
      "type": "function"
    },
    {
      "inputs": [],
      "name": "getMasterContractCounter",
      "outputs": [
        {
          "internalType": "uint256",
          "name": "",
          "type": "uint256"
        }
      ],
      "stateMutability": "view",
      "type": "function"
    },
    {
      "inputs": [
        {
          "internalType": "uint256",
          "name": "masterId",
          "type": "uint256"
        },
        {
          "internalType": "uint256",
          "name": "memberId",
          "type": "uint256"
        }
      ],
      "name": "getMember",
      "outputs": [
        {
          "internalType": "address",
          "name": "_addr",
          "type": "address"
        },
        {
          "internalType": "string",
          "name": "_name",
          "type": "string"
        },
        {
          "internalType": "string",
          "name": "_email",
          "type": "string"
        },
        {
          "internalType": "string",
          "name": "_position",
          "type": "string"
        },
        {
          "internalType": "uint256",
          "name": "_time",
          "type": "uint256"
        },
        {
          "internalType": "address",
          "name": "_approver",
          "type": "address"
        },
        {
          "internalType": "bool",
          "name": "_isOwner",
          "type": "bool"
        },
        {
          "internalType": "uint256",
          "name": "_balance",
          "type": "uint256"
        },
        {
          "internalType": "uint256",
          "name": "_freeze",
          "type": "uint256"
        }
      ],
      "stateMutability": "view",
      "type": "function"
    },
    {
      "inputs": [
        {
          "internalType": "uint256",
          "name": "masterId",
          "type": "uint256"
        }
      ],
      "name": "getMemberCounter",
      "outputs": [
        {
          "internalType": "uint256",
          "name": "",
          "type": "uint256"
        }
      ],
      "stateMutability": "view",
      "type": "function"
    },
    {
      "inputs": [
        {
          "internalType": "address",
          "name": "masterAddr",
          "type": "address"
        },
        {
          "internalType": "address",
          "name": "addr",
          "type": "address"
        },
        {
          "internalType": "bytes32",
          "name": "key",
          "type": "bytes32"
        }
      ],
      "name": "isCompanyMemberKey",
      "outputs": [
        {
          "internalType": "bool",
          "name": "",
          "type": "bool"
        }
      ],
      "stateMutability": "view",
      "type": "function"
    },
    {
      "inputs": [
        {
          "internalType": "address",
          "name": "masterAddr",
          "type": "address"
        },
        {
          "internalType": "address",
          "name": "addr",
          "type": "address"
        }
      ],
      "name": "isMember",
      "outputs": [
        {
          "internalType": "bool",
          "name": "",
          "type": "bool"
        }
      ],
      "stateMutability": "view",
      "type": "function"
    },
    {
      "inputs": [
        {
          "internalType": "address",
          "name": "addr",
          "type": "address"
        },
        {
          "internalType": "bytes32",
          "name": "key",
          "type": "bytes32"
        }
      ],
      "name": "isMemberKey",
      "outputs": [
        {
          "internalType": "bool",
          "name": "",
          "type": "bool"
        }
      ],
      "stateMutability": "view",
      "type": "function"
    },
    {
      "inputs": [
        {
          "internalType": "address",
          "name": "masterAddr",
          "type": "address"
        },
        {
          "internalType": "address",
          "name": "addr",
          "type": "address"
        }
      ],
      "name": "isOwner",
      "outputs": [
        {
          "internalType": "bool",
          "name": "",
          "type": "bool"
        }
      ],
      "stateMutability": "view",
      "type": "function"
    },
    {
      "inputs": [
        {
          "internalType": "address",
          "name": "masterAddr",
          "type": "address"
        },
        {
          "internalType": "address",
          "name": "addr",
          "type": "address"
        }
      ],
      "name": "isPerson",
      "outputs": [
        {
          "internalType": "bool",
          "name": "",
          "type": "bool"
        }
      ],
      "stateMutability": "view",
      "type": "function"
    },
    {
      "inputs": [
        {
          "internalType": "address",
          "name": "masterAddr",
          "type": "address"
        },
        {
          "internalType": "address",
          "name": "addr",
          "type": "address"
        }
      ],
      "name": "isReader",
      "outputs": [
        {
          "internalType": "bool",
          "name": "",
          "type": "bool"
        }
      ],
      "stateMutability": "view",
      "type": "function"
    },
    {
      "inputs": [
        {
          "internalType": "address",
          "name": "masterAddr",
          "type": "address"
        },
        {
          "internalType": "address",
          "name": "addr",
          "type": "address"
        }
      ],
      "name": "isTrustedPerson",
      "outputs": [
        {
          "internalType": "bool",
          "name": "",
          "type": "bool"
        }
      ],
      "stateMutability": "view",
      "type": "function"
    },
    {
      "inputs": [
        {
          "internalType": "address",
          "name": "addr",
          "type": "address"
        }
      ],
      "name": "isWhitelistAddress",
      "outputs": [
        {
          "internalType": "bool",
          "name": "success",
          "type": "bool"
        }
      ],
      "stateMutability": "view",
      "type": "function"
    },
    {
      "inputs": [
        {
          "internalType": "address",
          "name": "storageAddr",
          "type": "address"
        }
      ],
      "name": "register",
      "outputs": [],
      "stateMutability": "nonpayable",
      "type": "function"
    },
    {
      "inputs": [
        {
          "internalType": "address",
          "name": "addr",
          "type": "address"
        }
      ],
      "name": "removeAddressFromWhitelist",
      "outputs": [
        {
          "internalType": "bool",
          "name": "success",
          "type": "bool"
        }
      ],
      "stateMutability": "nonpayable",
      "type": "function"
    },
    {
      "inputs": [
        {
          "internalType": "address payable",
          "name": "newDeveloper",
          "type": "address"
        }
      ],
      "name": "transferDeveloper",
      "outputs": [],
      "stateMutability": "nonpayable",
      "type": "function"
    }
  ],
  "bytecode": "0x608034609057601f613d6838819003918201601f19168301916001600160401b038311848410176094578084926040948552833981010312609057604b602060458360a8565b920160a8565b5f8054336001600160a01b031991821617909155600280546001600160a01b0394851690831617905560048054929093169116179055604051613cac90816100bc8239f35b5f80fd5b634e487b7160e01b5f52604160045260245ffd5b51906001600160a01b038216820360905756fe60806040526004361015610011575f80fd5b5f5f3560e01c80631f6810a21461287e578063286dd3f51461278e578063345460cd1461277057806339ac7a08146126985780634420e4861461266f57806344a5c066146125b557806349340570146124855780634c401b6f146123c95780634d79a89314611ce857806364cb4edb14611c345780636702c3d6146116615780636d7369c21461153b5780636f065bbb14610efa57806375d0c0dc14610eaa57806376d5ba5214610e3b57806378f60b0514610d7f5780637b9417c814610c8a5780637ddc02d414610c5d578063868a6f8c14610c095780638e4de0ad14610ba65780639f951be814610b74578063a0a8e46014610b29578063a7ca00f014610690578063ad672880146105f1578063aeee8431146104db578063c087cb7214610494578063c6cac3701461041b578063ca4b208b146103f4578063d7aed245146103b5578063e1399665146102c35763e36dd5e81461016f575f80fd5b346102c05760603660031901126102c057610188612c3a565b6101c16020610195612c50565b9261019e61301f565b906040518080958194630251382f60e31b83528660048401526024830190612c66565b03916001600160a01b03165afa9081156102b557839161026f575b506040516313f2a37d60e31b81526001600160a01b03909216600483015260448035602484015260209183918290819081015b03916001600160a01b03165afa9081156102645760209291610237575b506040519015158152f35b6102579150823d841161025d575b61024f8183612c8a565b810190612f83565b5f61022c565b503d610245565b6040513d84823e3d90fd5b90506020813d6020116102ad575b8161028a60209383612c8a565b810103126102a95761020f916102a1602092612d85565b9150916101dc565b8280fd5b3d915061027d565b6040513d85823e3d90fd5b80fd5b50346102c05760403660031901126102c0576103166102e0612c3a565b60206102ea612c50565b916102f3612f9b565b906040518080968194630251382f60e31b83528660048401526024830190612c66565b03916001600160a01b03165afa9182156102b5578392610377575b5060405163e5f93e9760e01b81526001600160a01b0391821660048201529160209183916024918391165afa908115610264576020929161023757506040519015158152f35b9091506020813d6020116103ad575b8161039360209383612c8a565b810103126102a9576103a6602091612d85565b9190610331565b3d9150610386565b50346102c05760203660031901126102c05760209060ff906040906001600160a01b036103e0612c3a565b168152600184522054166040519015158152f35b50346102c057806003193601126102c057546040516001600160a01b039091168152602090f35b50346102c05760203660031901126102c057338152600160205260ff6040822054168015610481575b156102c057602061046f61046160043561045c61318c565b6135f1565b610469613643565b906138fb565b6040516001600160a01b039091168152f35b5080546001600160a01b03163314610444565b50346102c05760403660031901126102c0576104d36104b1612c3a565b6104b9612c50565b906104ce60018060a01b038554163314612de4565b61366b565b156102c05780f35b50346102c05760203660031901126102c057338152600160205260ff60408220541680156105de575b156102c05761057f90602061052861052060043561045c61318c565b610469613205565b6004546001600160a01b031661054d61053f612d2b565b610547612ffa565b9061362a565b6040516338b2c2a960e11b81526001600160a01b03909316600484015260248301529093849190829081906044820190565b03915afa9081156105d2579061059b575b602090604051908152f35b506020813d6020116105ca575b816105b560209383612c8a565b810103126105c65760209051610590565b5f80fd5b3d91506105a8565b604051903d90823e3d90fd5b5080546001600160a01b03163314610504565b50346102c05760403660031901126102c05761060b612c50565b90338152600160205260ff604082205416801561067d575b156102c05761066e6106378360043561341c565b916106606040969294965196879660018060a01b0316875260a0602088015260a0870190612c66565b908582036040870152612c66565b91606084015260808301520390f35b5080546001600160a01b03163314610623565b50346102c05760403660031901126102c057600435906106ae612c50565b90338152600160205260ff6040822054168015610b16575b156102c0576106d482613ad1565b906106e18461045c61318c565b6001600160a01b03906106f690610469613643565b16926107266020610705613137565b60405180938192630251382f60e31b83528460048401526024830190612c66565b0381885afa9081156102b5578391610adc575b506040516395d89b4160e01b81526001600160a01b039190911695909383856004818a5afa948515610a7f578495610ac0575b506040516318160ddd60e01b8152916020836004818b5afa928315610a40578593610a8a575b5061079e602091613a04565b6040516370a0823160e01b81526001600160a01b0390931660048401529197889060249082905afa968715610a7f578497610a4b575b506107e26020610705613161565b03818a5afa908115610a40578591610a02575b506040516395d89b4160e01b81526001600160a01b039190911695909185836004818a5afa9283156109f75786936109d3575b506040516318160ddd60e01b815296602088600481845afa9788156109c8578798610994575b5060405163313ce56760e01b815295602087600481855afa968715610989578897610957575b506040516370a0823160e01b81526001600160a01b03909116600482015290602090829060249082905afa9687156105d25796610916575b50916020986108e860ff9695936108da610900966101206040519e8f9e8f90815201526101208d0190612c66565b908b820360408d0152612c66565b9260608a0152608089015287820360a0890152612c66565b9360c08601521660e08401526101008301520390f35b949391929095506020853d60201161094f575b8161093660209383612c8a565b810103126105c6579351949293909290919060206108ac565b3d9150610929565b602091975061097b90823d8411610982575b6109738183612c8a565b810190613253565b9690610874565b503d610969565b6040513d8a823e3d90fd5b9097506020813d6020116109c0575b816109b060209383612c8a565b810103126105c65751965f61084e565b3d91506109a3565b6040513d89823e3d90fd5b6109f09193503d8088833e6109e88183612c8a565b8101906130ef565b915f610828565b6040513d88823e3d90fd5b90506020813d602011610a38575b81610a1d60209383612c8a565b81010312610a3457610a2e90612d85565b5f6107f5565b8480fd5b3d9150610a10565b6040513d87823e3d90fd5b9096506020813d602011610a77575b81610a6760209383612c8a565b810103126105c65751955f6107d4565b3d9150610a5a565b6040513d86823e3d90fd5b9092506020813d602011610ab8575b81610aa660209383612c8a565b810103126105c657519161079e610792565b3d9150610a99565b610ad59195503d8086833e6109e88183612c8a565b935f61076c565b90506020813d602011610b0e575b81610af760209383612c8a565b810103126102a957610b0890612d85565b5f610739565b3d9150610aea565b5080546001600160a01b031633146106c6565b50346102c057806003193601126102c05750610b70604051610b4c604082612c8a565b60038152620c8b8d60ea1b6020820152604051918291602083526020830190612c66565b0390f35b50346102c05760403660031901126102c0576020610b9c610b93612c3a565b60243590613311565b6040519015158152f35b50346102c057806003193601126102c057338152600160205260ff6040822054168015610bf6575b156102c0576020610bee610be061318c565b610be8612ffa565b90613982565b604051908152f35b5080546001600160a01b03163314610bce565b50346102c05760203660031901126102c057338152600160205260ff6040822054168015610c4a575b156102c057602061046f61052060043561045c61318c565b5080546001600160a01b03163314610c32565b50346102c05760403660031901126102c0576020610b9c610c7c612c3a565b610c84612c50565b9061326c565b50346102c05760203660031901126102c057610ca4612c3a565b610cb860018060a01b038354163314612de4565b6001600160a01b03168082526001602052604082205482919060ff1615610ce7575b6020826040519015158152f35b60c09150604083827f14a05adbb24ccad61cd43f4b7047c705681e2409c910090d25b258b19dc5c9a79552600160205220600160ff198254161790556040519081526001602082015260606040820152602760608201527f546865206164647265737320686173206265656e20616464656420746f2057686080820152661a5d195b1a5cdd60ca1b60a0820152a1602060015f610cda565b50346102c05760403660031901126102c057610d9c6102e0612c3a565b03916001600160a01b03165afa9182156102b5578392610dfd575b506040516307b9c93d60e11b81526001600160a01b0391821660048201529160209183916024918391165afa908115610264576020929161023757506040519015158152f35b9091506020813d602011610e33575b81610e1960209383612c8a565b810103126102a957610e2c602091612d85565b9190610db7565b3d9150610e0c565b50346102c05760203660031901126102c057338152600160205260ff6040822054168015610e97575b156102c05761057f906020610e8061052060043561045c61318c565b6004546001600160a01b031661054d61053f61304a565b5080546001600160a01b03163314610e64565b50346102c057806003193601126102c057610b70604051610ecc604082612c8a565b600d81526c10591b5a5b90dbdb9d1c9858dd609a1b6020820152604051918291602083526020830190612c66565b50346102c05760203660031901126102c057600435338252600160205260ff6040832054168015611528575b1561151c57610f7d91610f3b8261045c61318c565b6001600160a01b0390610f5090610469613643565b16916020610f5c613137565b60405180968192630251382f60e31b83528460048401526024830190612c66565b0381865afa80156102645782906114e5575b610f9f9394506020610f5c613161565b0381885afa9384156102b55783946114a9575b50610fbf8261045c61318c565b610fd0610fca613205565b826138fb565b94610fe2610fdc613115565b83613982565b926020610fed61322e565b6002546040516001600160a01b0390911695838201926110219183916110139186613611565b03601f198101835282612c8a565b519020602460405180968193633d70e7e560e11b835260048301525afa9283156109f7578693611488575b506040516306fdde0360e01b8152916001600160a01b0391909116908683600481855afa9283156109c857879361146c575b506040516395d89b4160e01b8152918783600481845afa928315610989579060049594939291899361144d575b50602090604051968780926318160ddd60e01b82525afa948515610989578895611419575b506040516306fdde0360e01b81526001600160a01b03919091169490918883600481895afa92831561140e5789936113f2575b506040516395d89b4160e01b81529389856004818a5afa9485156113e7578a956113cb575b506040516318160ddd60e01b8152956020876004818b5afa96871561138b578b97611396575b506020600497986040519889809263313ce56760e01b82525afa96871561138b578b9761136a575b506111808a613a04565b6004546001600160a01b03169a9099908061119961318c565b906111a3916135f1565b6111ab613205565b6111b4916138fb565b8d6111bd612f9b565b906040518091602082019380516020819201865e820190602082015203602001601f19810182526111ee9082612c8a565b5190209c6040809e81516112028382612c8a565b600d81526c5265616465724164647265737360981b60208201526112259161362a565b9051631eb13b5960e21b81526001600160a01b039390931660048401526024830152816044815a93602094fa9d8e1561135f57809e61131d575b505061126a90612e30565b9a80519e8f9e8f918252600160a01b600190031690602001528d0152151560608c015260808b016101c090526101c08b016112a491612c66565b8a810360a08c01526112b591612c66565b9060c08a015288810360e08a01526112cc91612c66565b8781036101008901526112de91612c66565b9161012087015260ff1661014086015284810361016086015261130091612c66565b6001600160a01b0390921661018084015215156101a08301520390f35b90919d506020823d602011611357575b8161133a60209383612c8a565b810103126102c0575061134f61126a91612d85565b9c905f61125f565b3d915061132d565b8d51903d90823e3d90fd5b61138491975060203d602011610982576109738183612c8a565b955f611176565b6040513d8d823e3d90fd5b96506020873d6020116113c3575b816113b160209383612c8a565b810103126105c657955195602061114e565b3d91506113a4565b6113e09195503d808c833e6109e88183612c8a565b935f611128565b6040513d8c823e3d90fd5b6114079193503d808b833e6109e88183612c8a565b915f611103565b6040513d8b823e3d90fd5b9094506020813d602011611445575b8161143560209383612c8a565b810103126105c65751935f6110d0565b3d9150611428565b6020919350611465903d808c833e6109e88183612c8a565b92906110ab565b6114819193503d8089833e6109e88183612c8a565b915f61107e565b6114a291935060203d60201161025d5761024f8183612c8a565b915f61104c565b9093506020813d6020116114dd575b816114c560209383612c8a565b810103126102a9576114d690612d85565b925f610fb2565b3d91506114b8565b506020843d602011611520575b816114ff60209383612c8a565b8101031261151c57611514610f9f9394612d85565b849350610f8f565b5080fd5b3d91506114f2565b5081546001600160a01b03163314610f26565b50346102c05760203660031901126102c057611555612c3a565b33825260016020528160ff604082205416801561164e575b156102c0576020611580926102f361386b565b03916001600160a01b03165afa8015611641578190611607575b604051636bb886b160e11b81529250829060049082906001600160a01b03165afa9081156102645782602093926115e0575b50506040516001600160a01b039091168152f35b6115fc92503d8091833e6115f48183612c8a565b81019061389b565b509150505f806115cc565b506020823d602011611639575b8161162160209383612c8a565b810103126102c057611634600492612d85565b61159a565b3d9150611614565b50604051903d90823e3d90fd5b5080546001600160a01b0316331461156d565b50346102c05761167036612c24565b90338352600160205260ff6040842054168015611c21575b156102a957916116ac6116a36105206116fc9561045c61318c565b9261045c612fc5565b9060018060a01b03600454169060206116cc6116c6612d60565b8561362a565b604051631eb13b5960e21b81526001600160a01b0387166004820152602481019190915295869081906044820190565b0381855afa928315611641578193611be2575b61175795506020611727611721612d99565b8361362a565b6040516338b2c2a960e11b81526001600160a01b0388166004820152602481019190915296879081906044820190565b0381865afa948515610264578295611bac575b6117cc96506040602061179d82516117828482612c8a565b60098152683932b6b0b4b73232b960b91b838201528561362a565b82516338b2c2a960e11b81526001600160a01b0385166004820152602481019190915298899081906044820190565b0381885afa908115611ba3578491611b6d575b61183b98508461180c82516117f48482612c8a565b6005815264707269636560d81b60208201528661362a565b825163e318de7360e01b81526001600160a01b03861660048201526024810191909152998a9081906044820190565b0381895afa928315611b63576118ac969798998694611b47575b50602061187d83516118678582612c8a565b60048152636d6f646560e01b838201528761362a565b83516338b2c2a960e11b81526001600160a01b0384166004820152602481019190915297889081906044820190565b03818b5afa968715611b3d578697611b05575b5061190895969760206118d96118d3612dbd565b8861362a565b84516338b2c2a960e11b81526001600160a01b0385166004820152602481019190915297889081906044820190565b0381845afa958615611afb578896611ac5575b6119799750602061194a85516119318782612c8a565b6007815266656e6454696d6560c81b838201528361362a565b85516338b2c2a960e11b81526001600160a01b0386166004820152602481019190915298899081906044820190565b0381855afa978815611abb578998611a80575b50916020916119be6119ef948651906119a58883612c8a565b6008825267697341637469766560c01b8683015261362a565b8551639d74b37d60e01b81526001600160a01b03909316600484015260248301529092839190829081906044820190565b03915afa968715611a755796611a4c575b509081611a31939251998a9960018060a01b03168a5260208a01528801526101006060880152610100870190612c66565b93608086015260a085015260c0840152151560e08301520390f35b611a319392919650611a6c9060203d60201161025d5761024f8183612c8a565b95909192611a00565b8251903d90823e3d90fd5b91929097506020823d602011611ab3575b81611a9e60209383612c8a565b810103126105c657905196909190602061198c565b3d9150611a91565b84513d8b823e3d90fd5b95506020873d602011611af3575b81611ae060209383612c8a565b810103126105c65761197996519561191b565b3d9150611ad3565b83513d8a823e3d90fd5b9596506020863d602011611b35575b81611b2160209383612c8a565b810103126105c657611908955196956118bf565b3d9150611b14565b82513d88823e3d90fd5b611b5c9194503d8088833e6109e88183612c8a565b925f611855565b81513d87823e3d90fd5b90506020883d602011611b9b575b81611b8860209383612c8a565b810103126105c65761183b9751906117df565b3d9150611b7b565b513d85823e3d90fd5b94506020863d602011611bda575b81611bc760209383612c8a565b810103126105c6576117cc95519461176a565b3d9150611bba565b9250936020813d602011611c19575b81611bfe60209383612c8a565b81010312610a345793611c1361175795612d85565b9261170f565b3d9150611bf1565b5082546001600160a01b03163314611688565b50346102c05760203660031901126102c0576004356001600160a01b0381169081900361151c5781546001600160a01b038116611c72338214612de4565b8215611cae5782907fd734ca01d7ec868e364f3c2cbda207212fa91c58040df183429252e85a48b2b18580a36001600160a01b03191617815580f35b60405162461bcd60e51b815260206004820152601260248201527154686973206164647265737320697320302160701b6044820152606490fd5b50346102c057611cf736612c24565b338352600160205260ff60408420541680156123b6575b156102a957611d9792611d32611d296105208561045c61318c565b9261045c61304a565b60018060a01b0360045416916040936020611d688651611d528882612c8a565b600481526330b2323960e11b838201528561362a565b8651631eb13b5960e21b81526001600160a01b0384166004820152602481019190915297889081906044820190565b0381875afa9384156123ac57829461236f575b611e05975082611dd68751611dbf8982612c8a565b60048152636e616d6560e01b60208201528661362a565b875163e318de7360e01b81526001600160a01b0385166004820152602481019190915298899081906044820190565b0381845afa801561236557611e7398849161234b575b5083611e448851611e2c8a82612c8a565b6005815264195b585a5b60da1b60208201528761362a565b885163e318de7360e01b81526001600160a01b03861660048201526024810191909152998a9081906044820190565b0381855afa90811561234157611ee5998592612325575b5084611eb68951611e9b8b82612c8a565b60088152673837b9b4ba34b7b760c11b60208201528861362a565b895163e318de7360e01b81526001600160a01b038716600482015260248101919091529a8b9081906044820190565b0381865afa92831561231b57611f43969798999a86946122ff575b506020611f14611f0e613115565b8a61362a565b8b516338b2c2a960e11b81526001600160a01b0388166004820152602481019190915297889081906044820190565b0381845afa9687156122f5578a9087986122b9575b50611f8b81611fba9798999a611f72602094519283612c8a565b600882526730b8383937bb32b960c11b8483015261362a565b8b51631eb13b5960e21b81526001600160a01b0389166004820152602481019190915295869081906044820190565b0381845afa9485156122af578795612256575b50611fed89611fe86104616120b79a9b9c9d9e61045c61318c565b61326c565b95611ff6613137565b8c516120226020828d8280830196805191829101885e820190838201520301601f198101835282612c8a565b5190208c516020810191825260608d901b6bffffffffffffffffffffffff1916818f015260348152612055605482612c8a565b51902060208d612088815161206a8382612c8a565b600c81526b546f6b656e42616c616e636560a01b848201528461362a565b90516338b2c2a960e11b81526001600160a01b03851660048201526024810191909152998a9081906044820190565b0381865afa98891561224c57908d9392918b9a61220f575b5091612140939161210c6020948451906120e98683612c8a565b6012825271151bdad95b919c99595e9959105b5bdd5b9d60721b8783015261362a565b92516338b2c2a960e11b81526001600160a01b03909116600482015260248101929092529092839190829081906044820190565b03915afa97881561220457976121c9575b508961219d939261218261218f9361012060209e519e8f9e8f9060018060a01b0316815201526101208d0190612c66565b918b8303908c0152612c66565b9088820360608a0152612c66565b60808701959095526001600160a01b031660a0860152151560c085015260e08401526101008301520390f35b9096506020929192813d6020116121fc575b816121e860209383612c8a565b810103126105c65751959091906020612151565b3d91506121db565b8b51903d90823e3d90fd5b9192935098506020813d602011612244575b8161222e60209383612c8a565b810103126105c65751978c9291906121406120cf565b3d9150612221565b8d513d8c823e3d90fd5b9a945060208b3d6020116122a7575b8161227260209383612c8a565b810103126122a357611fed89611fe86104616122946120b79b9c9d9e9f612d85565b989e9d50505099989750611fcd565b8680fd5b3d9150612265565b8a513d89823e3d90fd5b95969750506020853d6020116122ed575b816122d760209383612c8a565b810103126105c657935195949389611f8b611f58565b3d91506122ca565b8a513d88823e3d90fd5b6123149194503d8088833e6109e88183612c8a565b925f611f00565b88513d87823e3d90fd5b61233a9192503d8087833e6109e88183612c8a565b905f611e8a565b87513d86823e3d90fd5b61235f91503d8086833e6109e88183612c8a565b5f611e1b565b86513d85823e3d90fd5b93506020873d6020116123a4575b8161238a60209383612c8a565b8101031261151c5761239e611e0597612d85565b93611daa565b3d915061237d565b85513d84823e3d90fd5b5082546001600160a01b03163314611d0e565b50346102c05760403660031901126102c0576123e66102e0612c3a565b03916001600160a01b03165afa9182156102b5578392612447575b506040516369a7ddf760e01b81526001600160a01b0391821660048201529160209183916024918391165afa908115610264576020929161023757506040519015158152f35b9091506020813d60201161247d575b8161246360209383612c8a565b810103126102a957612476602091612d85565b9190612401565b3d9150612456565b50346105c65760203660031901126105c6576124ab60018060a01b035f54163314612de4565b6124b960043561045c61318c565b6124c161322e565b6002546040516001600160a01b039091169260208201926124e89183916110139186613611565b519020813b156105c6575f9160448392604051948593849263abfdcced60e01b845260048401528160248401525af180156125aa57612597575b507f79306263e90030066125e5a7cec03018473e69800c06ca4d2f58435cf51f98f460c06040513381526001602082015260606040820152602360608201527f4d6173746572436f6e74726163742061646472657373206861732064697361626080820152621b195960ea1b60a0820152a180f35b6125a391505f90612c8a565b5f5f612522565b6040513d5f823e3d90fd5b346105c65760203660031901126105c657335f52600160205260ff60405f205416801561265c575b156105c65761264160206125f861052060043561045c61318c565b6004546001600160a01b031661260f61053f612fc5565b6040516338b2c2a960e11b81526001600160a01b03909316600484015260248301529092839190829081906044820190565b03915afa80156125aa575f9061059b57602090604051908152f35b505f546001600160a01b031633146125dd565b346105c65760203660031901126105c65761269161268b612c3a565b3361366b565b156105c657005b346105c65760403660031901126105c6576126b46102e0612c3a565b03916001600160a01b03165afa9182156125aa575f92612732575b5060405163288c314960e21b81526001600160a01b0391821660048201529160209183916024918391165afa80156125aa576020915f9161271557506040519015158152f35b61272c9150823d841161025d5761024f8183612c8a565b8261022c565b9091506020813d602011612768575b8161274e60209383612c8a565b810103126105c657612761602091612d85565b91906126cf565b3d9150612741565b346105c65760203660031901126105c6576020610b9c600435612e30565b346105c65760203660031901126105c6576127a7612c3a565b6127bb60018060a01b035f54163314612de4565b6001600160a01b03165f8181526001602052604081205460ff166127e7575b6020906040519015158152f35b5060c0817f14a05adbb24ccad61cd43f4b7047c705681e2409c910090d25b258b19dc5c9a7925f52600160205260405f2060ff1981541690556040519081525f602082015260606040820152602b60608201527f546865206164647265737320686173206265656e2064656c657465642066726f60808201526a1b4815da1a5d195b1a5cdd60aa1b60a0820152a1602060016127da565b346105c65761288c36612c24565b90335f52600160205260ff60405f2054168015612c11575b156105c6576128c76128be6105206129129361045c61318c565b9261045c612d2b565b6004546001600160a01b0316929060206128e2611721612d60565b604051631eb13b5960e21b81526001600160a01b0385166004820152602481019190915293849081906044820190565b0381875afa9283156125aa575f93612bd2575b506129859060406020612956825161293d8482612c8a565b60078152661bdc99195c925960ca1b838201528461362a565b82516338b2c2a960e11b81526001600160a01b0387166004820152602481019190915293849081906044820190565b0381895afa928315612b10575f93612b9c575b506129da929360206129ab6116c6612d99565b83516338b2c2a960e11b81526001600160a01b0384166004820152602481019190915294859081906044820190565b03818a5afa928315612b92575f93612b5c575b612a2e945060206129ff611721612dbd565b84516338b2c2a960e11b81526001600160a01b0385166004820152602481019190915295869081906044820190565b03818b5afa948515612b52575f95612b1a575b5090612aa297612a71602093855190612a5a8783612c8a565b600682526573746174757360d01b8683015261362a565b84516338b2c2a960e11b81526001600160a01b03909316600484015260248301529097889190829081906044820190565b03915afa938415612b10575f94612adb575b81516001600160a01b03909616865260208601528401526060830152608082015260a09150f35b93506020863d602011612b08575b81612af660209383612c8a565b810103126105c65760a0955193612ab4565b3d9150612ae9565b50513d5f823e3d90fd5b919094506020823d602011612b4a575b81612b3760209383612c8a565b810103126105c657905193612aa2612a41565b3d9150612b2a565b83513d5f823e3d90fd5b92506020843d602011612b8a575b81612b7760209383612c8a565b810103126105c657612a2e9351926129ed565b3d9150612b6a565b82513d5f823e3d90fd5b92506020833d602011612bca575b81612bb760209383612c8a565b810103126105c6576129da925192612998565b3d9150612baa565b9092506020813d602011612c09575b81612bee60209383612c8a565b810103126105c657612c0261298591612d85565b9290612925565b3d9150612be1565b505f546001600160a01b031633146128a4565b60409060031901126105c6576004359060243590565b600435906001600160a01b03821682036105c657565b602435906001600160a01b03821682036105c657565b805180835260209291819084018484015e5f828201840152601f01601f1916010190565b90601f8019910116810190811067ffffffffffffffff821117612cac57604052565b634e487b7160e01b5f52604160045260245ffd5b67ffffffffffffffff8111612cac57601f01601f191660200190565b6020604051612cec604082612c8a565b600d8152016c4d61726b65744665617475726560981b8152604051600d6020820192835e5f602d820152600d8152612d25602d82612c8a565b51902090565b612d33612cdc565b604051602081019182526a4d61726b6574547261646560a81b6040820152602b8152612d25604b82612c8a565b60405190612d6f604083612c8a565b600782526631b932b0ba37b960c91b6020830152565b51906001600160a01b03821682036105c657565b60405190612da8604083612c8a565b6006825265185b5bdd5b9d60d21b6020830152565b60405190612dcc604083612c8a565b6009825268737461727454696d6560b81b6020830152565b15612deb57565b60405162461bcd60e51b815260206004820152601b60248201527f4f6e6c792074686520446576656c6f70657220726571756972656400000000006044820152606490fd5b335f52600160205260ff60405f2054168015612f70575b156105c657612e595f9161045c61318c565b6001600160a01b0390612e6e90610469613643565b16612ebe6020604092835190612e848583612c8a565b600d82526c457363726f774665617475726560981b8383015284518080958194630251382f60e31b83528660048401526024830190612c66565b03915afa908115612b92575f91612f36575b506001600160a01b031680612ee457505090565b8151639f9a1f4560e01b8152919250602090829060049082905afa918215612f2d57505f91612f11575090565b612f2a915060203d60201161025d5761024f8183612c8a565b90565b513d5f823e3d90fd5b90506020813d602011612f68575b81612f5160209383612c8a565b810103126105c657612f6290612d85565b5f612ed0565b3d9150612f44565b505f546001600160a01b03163314612e47565b908160209103126105c6575180151581036105c65790565b60405190612faa604083612c8a565b600c82526b4f776e65724665617475726560a01b6020830152565b612fcd612cdc565b604051602081019182526a26b0b935b2ba27b93232b960a91b6040820152602b8152612d25604b82612c8a565b60405190613009604083612c8a565b600782526631b7bab73a32b960c91b6020830152565b6040519061302e604083612c8a565b600d82526c4d656d6265724665617475726560981b6020830152565b61305261301f565b60405161307e6020828180820195805191829101875e81015f838201520301601f198101835282612c8a565b519020604051602081019182526526b2b6b132b960d11b604082015260268152612d25604682612c8a565b81601f820112156105c6578051906130c082612cc0565b926130ce6040519485612c8a565b828452602083830101116105c657815f9260208093018386015e8301015290565b906020828203126105c657815167ffffffffffffffff81116105c657612f2a92016130a9565b60405190613124604083612c8a565b600482526374696d6560e01b6020830152565b60405190613146604083612c8a565b600c82526b546f6b656e4665617475726560a01b6020830152565b60405190613170604083612c8a565b600d82526c546f6b656e424665617475726560981b6020830152565b60406020815161319c8382612c8a565b600c8152016b41646d696e4665617475726560a01b81528151600c6020820192835e5f602c820152600c81526131d3602c82612c8a565b519020906d13585cdd195c90dbdb9d1c9858dd60921b81519160208301938452820152602e8152612d25604e82612c8a565b60405190613214604083612c8a565b600b82526a39ba37b930b3b2a0b2323960a91b6020830152565b6040519061323d604083612c8a565b6007825266195b98589b195960ca1b6020830152565b908160209103126105c6575160ff811681036105c65790565b90602061327b926102f3612f9b565b03916001600160a01b03165afa9182156125aa575f926132d3575b506040516317aa5fb760e11b81526001600160a01b0391821660048201529160209183916024918391165afa9081156125aa575f91612f11575090565b9091506020813d602011613309575b816132ef60209383612c8a565b810103126105c657613302602091612d85565b9190613296565b3d91506132e2565b905f5b61331f610be061318c565b8110156134155761335560206133378361045c61318c565b6001600160a01b039061334c90610469613643565b1661019e61301f565b03915afa9081156125aa575f916133dc575b506040516313f2a37d60e31b81526001600160a01b03858116600483015260248201859052909160209183916044918391165afa9081156125aa575f916133be575b506133b657600101613314565b505050600190565b6133d6915060203d811161025d5761024f8183612c8a565b5f6133a9565b90506020813d821161340d575b816133f660209383612c8a565b810103126105c65761340790612d85565b5f613367565b3d91506133e9565b5050505f90565b919061342790613ad1565b916134376104618261045c61318c565b926134456020610705613137565b03816001600160a01b0389165afa9081156125aa575f916135b7575b506040516370a0823160e01b81526001600160a01b039283166004820152911692602082602481875afa9182156125aa575f92613583575b508115613552576040516395d89b4160e01b8152925f84600481885afa9384156125aa575f94613532575b50602060049495604051958680926318160ddd60e01b82525afa9384156125aa575f946134fc575b506134f690613a04565b93929190565b9093506020813d60201161352a575b8161351860209383612c8a565b810103126105c65751926134f66134ec565b3d915061350b565b6004945061354b6020913d805f833e6109e88183612c8a565b94506134c4565b93505050505f90604051613567602082612c8a565b5f815290604051613579602082612c8a565b5f8152905f905f90565b9091506020813d6020116135af575b8161359f60209383612c8a565b810103126105c65751905f613499565b3d9150613592565b90506020813d6020116135e9575b816135d260209383612c8a565b810103126105c6576135e390612d85565b5f613461565b3d91506135c5565b906040519060208201928352604082015260408152612d25606082612c8a565b602092839282528051928391018483015e01015f815290565b90612d2561101391604051928391602083019586613611565b60405190613652604083612c8a565b600a82526936b0b9ba32b920b2323960b11b6020830152565b9060405160a0810181811067ffffffffffffffff821117612cac576040525f815260208101915f8352604082015f815260608301915f835260808401955f87526136b6610be061318c565b85526001600160a01b039081168652168152428252600185526136d761318c565b906136e0612ffa565b6136eb610be061318c565b9060018201809211613857576137659561370f61373a9361371f9361375497613b94565b61371761318c565b9051906135f1565b95613728613643565b90516001600160a01b03169087613c04565b613742613205565b90516001600160a01b03169085613c04565b61375c613115565b90519083613b94565b61376d61322e565b915115159061101361379560018060a01b036002541694604051928391602083019586613611565b51902090823b156105c65760445f9283604051958694859363abfdcced60e01b8552600485015260248401525af180156125aa57613847575b507f79306263e90030066125e5a7cec03018473e69800c06ca4d2f58435cf51f98f460c06040513381526003602082015260606040820152602560608201527f4d6173746572436f6e74726163742061646472657373206861732072656769736080820152641d195c995960da1b60a0820152a1600190565b5f61385191612c8a565b5f6137ce565b634e487b7160e01b5f52601160045260245ffd5b6040519061387a604083612c8a565b6012825271436f6d70616e79446174614665617475726560701b6020830152565b9190916080818403126105c657805167ffffffffffffffff81116105c657836138c59183016130a9565b9260208201519067ffffffffffffffff82116105c6576138e69183016130a9565b9160606138f560408401612d85565b92015190565b60209061101361392060018060a01b0360025416946040519283918683019586613611565b5190206024604051809481936321f8a72160e01b835260048301525afa9081156125aa575f9161394e575090565b90506020813d60201161397a575b8161396960209383612c8a565b810103126105c657612f2a90612d85565b3d915061395c565b6020906110136139a760018060a01b0360025416946040519283918683019586613611565b51902060246040518094819363bd02d0f560e01b835260048301525afa9081156125aa575f916139d5575090565b90506020813d6020116139fc575b816139f060209383612c8a565b810103126105c6575190565b3d91506139e3565b6020613a15613a339261045c61318c565b6001600160a01b0390613a2a90610469613643565b1661019e61386b565b03915afa9081156125aa575f91613a93575b50604051636bb886b160e11b8152905f90829060049082906001600160a01b03165afa9081156125aa575f91613a79575090565b613a8d91503d805f833e6115f48183612c8a565b50505090565b90506020813d602011613ac9575b81613aae60209383612c8a565b810103126105c6575f613ac2600492612d85565b9150613a45565b3d9150613aa1565b613ada81613af1565b6001600160a01b038116613aec575090565b905090565b803b15613b7b575f80916040516020810190638da5cb5b60e01b825260048152613b1c602482612c8a565b51915afa3d15613b8c573d90613b3182612cc0565b91613b3f6040519384612c8a565b82523d5f602084013e5b158015613b80575b613b7b576020818051810103126105c657602001516001600160a01b038116908190036105c65790565b505f90565b50602081511415613b51565b606090613b49565b6002546040516001600160a01b0390911693926020820192613bbd918391611013919086613611565b51902090823b156105c65760445f92836040519586948593637152429d60e11b8552600485015260248401525af180156125aa57613bf85750565b5f613c0291612c8a565b565b6002546040516001600160a01b0390911693926020820192613c2d918391611013919086613611565b51902090823b156105c65760405163ca446dd960e01b815260048101929092526001600160a01b03166024820152905f908290604490829084905af180156125aa57613bf8575056fea2646970667358221220504ee75caa052d9192fdd17dbf9497f17e0261f50c745c32e791e07fafa44d9e64736f6c634300081c0033",
  "linkReferences": {},
  "deployedLinkReferences": {}
}