{
  "_format": "hh-sol-artifact-1",
  "contractName": "CompanyContract",
  "sourceName": "contracts/subcontract/CompanyContract.sol",
  "abi": [
    {
      "inputs": [
        {
          "internalType": "address",
          "name": "_storage",
          "type": "address"
        },
        {
          "internalType": "address",
          "name": "_master",
          "type": "address"
        },
        {
          "internalType": "bytes32",
          "name": "_key",
          "type": "bytes32"
        }
      ],
      "stateMutability": "nonpayable",
      "type": "constructor"
    },
    {
      "anonymous": false,
      "inputs": [
        {
          "indexed": false,
          "internalType": "address",
          "name": "creator",
          "type": "address"
        },
        {
          "indexed": false,
          "internalType": "string",
          "name": "name",
          "type": "string"
        },
        {
          "indexed": false,
          "internalType": "string",
          "name": "about",
          "type": "string"
        }
      ],
      "name": "CompanyInfoEvent",
      "type": "event"
    },
    {
      "anonymous": false,
      "inputs": [
        {
          "indexed": false,
          "internalType": "uint256",
          "name": "id",
          "type": "uint256"
        },
        {
          "indexed": false,
          "internalType": "address",
          "name": "creator",
          "type": "address"
        },
        {
          "indexed": false,
          "internalType": "string",
          "name": "title",
          "type": "string"
        },
        {
          "indexed": false,
          "internalType": "uint256",
          "name": "time",
          "type": "uint256"
        }
      ],
      "name": "CompanyUpdateEvent",
      "type": "event"
    },
    {
      "anonymous": false,
      "inputs": [
        {
          "indexed": true,
          "internalType": "address",
          "name": "previousDeveloper",
          "type": "address"
        },
        {
          "indexed": true,
          "internalType": "address",
          "name": "newDeveloper",
          "type": "address"
        }
      ],
      "name": "DeveloperTransferredEvent",
      "type": "event"
    },
    {
      "inputs": [
        {
          "internalType": "string",
          "name": "_name",
          "type": "string"
        },
        {
          "internalType": "string",
          "name": "_about",
          "type": "string"
        }
      ],
      "name": "addCompanyInfo",
      "outputs": [
        {
          "internalType": "bool",
          "name": "",
          "type": "bool"
        }
      ],
      "stateMutability": "nonpayable",
      "type": "function"
    },
    {
      "inputs": [
        {
          "internalType": "string",
          "name": "_title",
          "type": "string"
        }
      ],
      "name": "addCompanyUpdate",
      "outputs": [
        {
          "internalType": "bool",
          "name": "",
          "type": "bool"
        }
      ],
      "stateMutability": "nonpayable",
      "type": "function"
    },
    {
      "inputs": [],
      "name": "contractName",
      "outputs": [
        {
          "internalType": "string",
          "name": "",
          "type": "string"
        }
      ],
      "stateMutability": "view",
      "type": "function"
    },
    {
      "inputs": [],
      "name": "contractVersion",
      "outputs": [
        {
          "internalType": "string",
          "name": "",
          "type": "string"
        }
      ],
      "stateMutability": "view",
      "type": "function"
    },
    {
      "inputs": [],
      "name": "developer",
      "outputs": [
        {
          "internalType": "address payable",
          "name": "",
          "type": "address"
        }
      ],
      "stateMutability": "view",
      "type": "function"
    },
    {
      "inputs": [],
      "name": "getCompanyInfo",
      "outputs": [
        {
          "internalType": "string",
          "name": "_name",
          "type": "string"
        },
        {
          "internalType": "string",
          "name": "_about",
          "type": "string"
        },
        {
          "internalType": "address",
          "name": "_addr",
          "type": "address"
        },
        {
          "internalType": "uint256",
          "name": "_token",
          "type": "uint256"
        }
      ],
      "stateMutability": "view",
      "type": "function"
    },
    {
      "inputs": [
        {
          "internalType": "uint256",
          "name": "_id",
          "type": "uint256"
        }
      ],
      "name": "getCompanyUpdate",
      "outputs": [
        {
          "internalType": "address",
          "name": "_creator",
          "type": "address"
        },
        {
          "internalType": "string",
          "name": "_title",
          "type": "string"
        },
        {
          "internalType": "uint256",
          "name": "_time",
          "type": "uint256"
        }
      ],
      "stateMutability": "view",
      "type": "function"
    },
    {
      "inputs": [],
      "name": "getCompanyUpdateCounter",
      "outputs": [
        {
          "internalType": "uint256",
          "name": "",
          "type": "uint256"
        }
      ],
      "stateMutability": "view",
      "type": "function"
    },
    {
      "inputs": [],
      "name": "register",
      "outputs": [],
      "stateMutability": "nonpayable",
      "type": "function"
    },
    {
      "inputs": [
        {
          "internalType": "address payable",
          "name": "newDeveloper",
          "type": "address"
        }
      ],
      "name": "transferDeveloper",
      "outputs": [],
      "stateMutability": "nonpayable",
      "type": "function"
    },
    {
      "stateMutability": "payable",
      "type": "receive"
    }
  ],
  "bytecode": "0x60803460ae57601f61146a38819003918201601f19168301916001600160401b0383118484101760b25780849260609460405283398101031260ae5760428160c6565b906040604f6020830160c6565b910151600180546001600160a01b03199081166001600160a01b039485169081179092555f8054821690921790915560029190915560038054821693909216929092179055600580549091163317905560405161139090816100da8239f35b5f80fd5b634e487b7160e01b5f52604160045260245ffd5b51906001600160a01b038216820360ae5756fe6080604052600436101561001a575b3615610018575f80fd5b005b5f5f3560e01c80631aa3a00814610b64578063308fd11f146107b557806334876e0d1461078757806364cb4edb146106d157806375d0c0dc1461067e578063a0a8e4601461064a578063a28a1c8a14610481578063ca4b208b14610458578063d274a1781461026b5763d7710d6214610093575061000e565b3461026857806003193601126102685780546100e0906020906001600160a01b03166100bd610d7f565b906040518080958194630251382f60e31b83528660048401526024830190610c9f565b03915afa90811561025d57829161023e575b5061010c6100fe610eb7565b610106610eec565b90611189565b90610120610118610eb7565b610106610f0e565b604051633800918160e21b8152916001600160a01b0316602083600481845afa9283156102335785936101fe575b50602060049160405192838092634127231760e01b82525afa9485156101f257946101b8575b509261019f61019194604051958695608087526080870190610c9f565b908582036020870152610c9f565b6001600160a01b03909216604084015260608301520390f35b93506020843d6020116101ea575b816101d360209383610c4d565b810103126101e65792519261019f610174565b5f80fd5b3d91506101c6565b604051903d90823e3d90fd5b6004919350610224602091823d841161022c575b61021c8183610c4d565b810190610d60565b93915061014e565b503d610212565b6040513d87823e3d90fd5b610257915060203d60201161022c5761021c8183610c4d565b5f6100f2565b6040513d84823e3d90fd5b80fd5b5034610268576020366003190112610268576102c261028933610fbb565b82546020906001600160a01b031661029f610e8d565b906040518080968194630251382f60e31b83528660048401526024830190610c9f565b03915afa91821561044d57839261042b575b5060405163e5f93e9760e01b81526001600160a01b0391821660048201529160209183916024918391165afa90811561025d5782916103fc575b501561026857610327600435610322610e31565b611169565b90610330610f31565b602060018060a01b03600354169160405161036181610353858201948986610fdb565b03601f198101835282610c4d565b5190206024604051809481936321f8a72160e01b835260048301525afa9182156101f257916103dd575b506103af6103a061039a610f76565b84611189565b926103a9610f99565b90610ff4565b6103d360405193849360018060a01b03168452606060208501526060840190610c9f565b9060408301520390f35b6103f6915060203d60201161022c5761021c8183610c4d565b5f61038b565b61041e915060203d602011610424575b6104168183610c4d565b810190610da9565b5f61030e565b503d61040c565b602091925061044690823d841161022c5761021c8183610c4d565b91906102d4565b6040513d85823e3d90fd5b50346102685780600319360112610268576005546040516001600160a01b039091168152602090f35b50346102685760403660031901126102685760043567ffffffffffffffff8111610646576104b3903690600401610c1f565b9060243567ffffffffffffffff8111610642576104d4903690600401610c1f565b90936104e261028933610fbb565b03915afa91821561044d578392610620575b506040516317aa5fb760e11b81526001600160a01b0391821660048201529160209183916024918391165afa90811561025d578291610601575b501561026857507feaf3057c9d65cc06383f62aa56b87428f78733dbf458d51744743a515775f3ed936105f3916105e561056733610fbb565b9461058c610573610eb7565b61057b610eec565b610586368b86610dc1565b91611076565b6105aa610597610eb7565b61059f610f0e565b610586368789610dc1565b6105c4866105b6610eb7565b6105be610f31565b906110f7565b60405196879660018060a01b03168752606060208801526060870191610f56565b918483036040860152610f56565b0390a1602060405160018152f35b61061a915060203d602011610424576104168183610c4d565b5f61052e565b602091925061063b90823d841161022c5761021c8183610c4d565b91906104f4565b8380fd5b5080fd5b503461026857806003193601126102685761067a610666610cc3565b604051918291602083526020830190610c9f565b0390f35b50346102685780600319360112610268575061067a6040516106a1604082610c4d565b600f81526e10dbdb5c185b9e50dbdb9d1c9858dd608a1b6020820152604051918291602083526020830190610c9f565b5034610268576020366003190112610268576004356001600160a01b03811690819003610646576005546001600160a01b038116610710338214610ce4565b821561074d5782907fd734ca01d7ec868e364f3c2cbda207212fa91c58040df183429252e85a48b2b18580a36001600160a01b0319161760055580f35b60405162461bcd60e51b815260206004820152601260248201527154686973206164647265737320697320302160701b6044820152606490fd5b503461026857806003193601126102685760206107ad6107a5610e31565b6103a9610e68565b604051908152f35b50346102685760203660031901126102685760043567ffffffffffffffff8111610646576107e7903690600401610c1f565b91906107f233610fbb565b9161084b60018060a01b0382541693604094602086516108128882610c4d565b600d81526c4d656d6265724665617475726560981b82820152875180958192630251382f60e31b83528460048401526024830190610c9f565b0381845afa928315610b1657906108939392918593610b42575b50602090610871610d7f565b9088518080978194630251382f60e31b83528660048401526024830190610c9f565b03915afa928315610b16579060249392918593610b20575b50865163288c314960e21b81526001600160a01b0391821660048201819052909490926020928692918391165afa928315610b16578493610af5575b5082610a76575b505015610268576108fe33610fbb565b908351906080820182811067ffffffffffffffff821117610a625785528082526109586020830194828652868401976060895260608501958487526109446107a5610e31565b86526001600160a01b031687523691610dc1565b86524283526109b461097361096b610e31565b845190611169565b61099061097e610f31565b87516001600160a01b031690836110f7565b6109a461099b610f76565b89519083611076565b6109ac610f99565b8551916112f6565b6109bc610e31565b6109c4610e68565b906109d06107a5610e31565b9260018401809411610a4e575092610a126020989593610a3e937fc6e1e9c67eda6599acc87a671f11f8be7a00c7ab6646855b5ded8386039daa0598966112f6565b519260018060a01b03905116935191519186519485948552888501526080878501526080840190610c9f565b9060608301520390a15160018152f35b634e487b7160e01b81526011600452602490fd5b634e487b7160e01b82526041600452602482fd5b85516370a0823160e01b815260048101919091529150602090829060249082906001600160a01b03165afa908115610aeb578291610ab9575b5015155f806108ee565b90506020813d602011610ae3575b81610ad460209383610c4d565b810103126101e657515f610aaf565b3d9150610ac7565b84513d84823e3d90fd5b610b0f91935060203d602011610424576104168183610c4d565b915f6108e7565b86513d86823e3d90fd5b6020919350610b3b90823d841161022c5761021c8183610c4d565b92906108ab565b6020919350610b5d90823d841161022c5761021c8183610c4d565b9290610865565b50346101e6575f3660031901126101e657610b8a60018060a01b03600554163314610ce4565b60018060a01b035f5416600254610b9f610d30565b90610ba8610cc3565b92803b156101e6575f9283610be493610bf66040519788968795869463163f5abb60e21b86526004860152606060248601526064850190610c9f565b83810360031901604485015290610c9f565b03925af18015610c1457610c08575080f35b61001891505f90610c4d565b6040513d5f823e3d90fd5b9181601f840112156101e65782359167ffffffffffffffff83116101e657602083818601950101116101e657565b90601f8019910116810190811067ffffffffffffffff821117610c6f57604052565b634e487b7160e01b5f52604160045260245ffd5b67ffffffffffffffff8111610c6f57601f01601f191660200190565b805180835260209291819084018484015e5f828201840152601f01601f1916010190565b60405190610cd2604083610c4d565b600382526219171b60e91b6020830152565b15610ceb57565b60405162461bcd60e51b815260206004820152601b60248201527f4f6e6c792074686520446576656c6f70657220726571756972656400000000006044820152606490fd5b60405190610d3f604083610c4d565b6012825271436f6d70616e79446174614665617475726560701b6020830152565b908160209103126101e657516001600160a01b03811681036101e65790565b60405190610d8e604083610c4d565b600c82526b546f6b656e4665617475726560a01b6020830152565b908160209103126101e6575180151581036101e65790565b929192610dcd82610c83565b91610ddb6040519384610c4d565b8294818452818301116101e6578281602093845f960137010152565b610dff610d30565b604051610e2b6020828180820195805191829101875e81015f838201520301601f198101835282610c4d565b51902090565b610e39610df7565b604051602081019182526c436f6d70616e7955706461746560981b6040820152602d8152610e2b604d82610c4d565b60405190610e77604083610c4d565b600782526631b7bab73a32b960c91b6020830152565b60405190610e9c604083610c4d565b600c82526b4f776e65724665617475726560a01b6020830152565b610ebf610df7565b604051602081019182526a436f6d70616e79496e666f60a81b6040820152602b8152610e2b604b82610c4d565b60405190610efb604083610c4d565b60048252636e616d6560e01b6020830152565b60405190610f1d604083610c4d565b600582526418589bdd5d60da1b6020830152565b60405190610f40604083610c4d565b600782526631b932b0ba37b960c91b6020830152565b908060209392818452848401375f828201840152601f01601f1916010190565b60405190610f85604083610c4d565b60058252647469746c6560d81b6020830152565b60405190610fa8604083610c4d565b600482526374696d6560e01b6020830152565b610fc481611253565b6001600160a01b038116610fd6575090565b905090565b602092839282528051928391018483015e01015f815290565b60209061035361101960018060a01b0360035416946040519283918683019586610fdb565b51902060246040518094819363bd02d0f560e01b835260048301525afa908115610c14575f91611047575090565b90506020813d60201161106e575b8161106260209383610c4d565b810103126101e6575190565b3d9150611055565b6003546040516001600160a01b039091169392602082019261109f918391610353919086610fdb565b51902090823b156101e6576110da925f92836040518096819582946306e8995560e41b84526004840152604060248401526044830190610c9f565b03925af18015610c14576110eb5750565b5f6110f591610c4d565b565b6003546040516001600160a01b0390911693926020820192611120918391610353919086610fdb565b51902090823b156101e65760405163ca446dd960e01b815260048101929092526001600160a01b03166024820152905f908290604490829084905af18015610c14576110eb5750565b906040519060208201928352604082015260408152610e2b606082610c4d565b5f906103536111ae60018060a01b036003541694604051928391602083019586610fdb565b519020602460405180948193634c373c8d60e11b835260048301525afa908115610c14575f916111dc575090565b90503d805f833e6111ed8183610c4d565b8101906020818303126101e65780519067ffffffffffffffff82116101e6570181601f820112156101e65780519061122482610c83565b926112326040519485610c4d565b828452602083830101116101e657815f9260208093018386015e8301015290565b803b156112dd575f80916040516020810190638da5cb5b60e01b82526004815261127e602482610c4d565b51915afa3d156112ee573d9061129382610c83565b916112a16040519384610c4d565b82523d5f602084013e5b1580156112e2575b6112dd576020818051810103126101e657602001516001600160a01b038116908190036101e65790565b505f90565b506020815114156112b3565b6060906112ab565b6003546040516001600160a01b039091169392602082019261131f918391610353919086610fdb565b51902090823b156101e65760445f92836040519586948593637152429d60e11b8552600485015260248401525af18015610c14576110eb575056fea2646970667358221220dadaa4bc7ee69aaddd0dd87c20825294f406e24725edae6f9b3fe04b6699915764736f6c634300081c0033",
  "linkReferences": {},
  "deployedLinkReferences": {}
}