{
  "_format": "hh-sol-artifact-1",
  "contractName": "EscrowContract",
  "sourceName": "contracts/subcontract/EscrowContract.sol",
  "abi": [
    {
      "inputs": [
        {
          "internalType": "address",
          "name": "_storage",
          "type": "address"
        },
        {
          "internalType": "address",
          "name": "_master",
          "type": "address"
        },
        {
          "internalType": "bytes32",
          "name": "_key",
          "type": "bytes32"
        },
        {
          "internalType": "address",
          "name": "_bank",
          "type": "address"
        }
      ],
      "stateMutability": "nonpayable",
      "type": "constructor"
    },
    {
      "anonymous": false,
      "inputs": [
        {
          "indexed": true,
          "internalType": "address",
          "name": "previousDeveloper",
          "type": "address"
        },
        {
          "indexed": true,
          "internalType": "address",
          "name": "newDeveloper",
          "type": "address"
        }
      ],
      "name": "DeveloperTransferredEvent",
      "type": "event"
    },
    {
      "anonymous": false,
      "inputs": [
        {
          "indexed": true,
          "internalType": "address",
          "name": "addr",
          "type": "address"
        },
        {
          "indexed": true,
          "internalType": "uint256",
          "name": "id",
          "type": "uint256"
        },
        {
          "indexed": false,
          "internalType": "uint256",
          "name": "status",
          "type": "uint256"
        },
        {
          "indexed": false,
          "internalType": "string",
          "name": "eventText",
          "type": "string"
        }
      ],
      "name": "EscrowTradeEvent",
      "type": "event"
    },
    {
      "anonymous": false,
      "inputs": [
        {
          "indexed": true,
          "internalType": "address",
          "name": "addr",
          "type": "address"
        },
        {
          "indexed": true,
          "internalType": "uint256",
          "name": "id",
          "type": "uint256"
        },
        {
          "indexed": false,
          "internalType": "uint256",
          "name": "status",
          "type": "uint256"
        },
        {
          "indexed": false,
          "internalType": "string",
          "name": "eventText",
          "type": "string"
        }
      ],
      "name": "EscrowTransferEvent",
      "type": "event"
    },
    {
      "inputs": [
        {
          "internalType": "uint256",
          "name": "id",
          "type": "uint256"
        },
        {
          "internalType": "string",
          "name": "descr",
          "type": "string"
        }
      ],
      "name": "approveTokenTransfer",
      "outputs": [
        {
          "internalType": "bool",
          "name": "",
          "type": "bool"
        }
      ],
      "stateMutability": "nonpayable",
      "type": "function"
    },
    {
      "inputs": [
        {
          "internalType": "uint256",
          "name": "id",
          "type": "uint256"
        },
        {
          "internalType": "string",
          "name": "descr",
          "type": "string"
        }
      ],
      "name": "approveTradeTransfer",
      "outputs": [
        {
          "internalType": "bool",
          "name": "",
          "type": "bool"
        }
      ],
      "stateMutability": "nonpayable",
      "type": "function"
    },
    {
      "inputs": [],
      "name": "contractName",
      "outputs": [
        {
          "internalType": "string",
          "name": "",
          "type": "string"
        }
      ],
      "stateMutability": "view",
      "type": "function"
    },
    {
      "inputs": [],
      "name": "contractVersion",
      "outputs": [
        {
          "internalType": "string",
          "name": "",
          "type": "string"
        }
      ],
      "stateMutability": "view",
      "type": "function"
    },
    {
      "inputs": [],
      "name": "developer",
      "outputs": [
        {
          "internalType": "address payable",
          "name": "",
          "type": "address"
        }
      ],
      "stateMutability": "view",
      "type": "function"
    },
    {
      "inputs": [
        {
          "internalType": "uint256",
          "name": "_orderId",
          "type": "uint256"
        }
      ],
      "name": "getActiveTradeCounterByOrder",
      "outputs": [
        {
          "internalType": "uint256",
          "name": "",
          "type": "uint256"
        }
      ],
      "stateMutability": "view",
      "type": "function"
    },
    {
      "inputs": [
        {
          "internalType": "uint256",
          "name": "id",
          "type": "uint256"
        }
      ],
      "name": "getTokenTransfer",
      "outputs": [
        {
          "internalType": "address",
          "name": "from",
          "type": "address"
        },
        {
          "internalType": "address",
          "name": "to",
          "type": "address"
        },
        {
          "internalType": "uint256",
          "name": "amount",
          "type": "uint256"
        },
        {
          "internalType": "uint256",
          "name": "value",
          "type": "uint256"
        },
        {
          "internalType": "uint256",
          "name": "createTime",
          "type": "uint256"
        },
        {
          "internalType": "uint256",
          "name": "resultTime",
          "type": "uint256"
        },
        {
          "internalType": "uint256",
          "name": "status",
          "type": "uint256"
        },
        {
          "internalType": "uint256",
          "name": "transferId",
          "type": "uint256"
        },
        {
          "internalType": "string",
          "name": "description",
          "type": "string"
        }
      ],
      "stateMutability": "view",
      "type": "function"
    },
    {
      "inputs": [],
      "name": "getTokenTransferCounter",
      "outputs": [
        {
          "internalType": "uint256",
          "name": "",
          "type": "uint256"
        }
      ],
      "stateMutability": "view",
      "type": "function"
    },
    {
      "inputs": [
        {
          "internalType": "uint256",
          "name": "id",
          "type": "uint256"
        }
      ],
      "name": "getTradeTransfer",
      "outputs": [
        {
          "internalType": "address",
          "name": "from",
          "type": "address"
        },
        {
          "internalType": "uint256",
          "name": "tradeId",
          "type": "uint256"
        },
        {
          "internalType": "uint256",
          "name": "orderId",
          "type": "uint256"
        },
        {
          "internalType": "uint256",
          "name": "mode",
          "type": "uint256"
        },
        {
          "internalType": "uint256",
          "name": "amount",
          "type": "uint256"
        },
        {
          "internalType": "uint256",
          "name": "value",
          "type": "uint256"
        },
        {
          "internalType": "uint256",
          "name": "createTime",
          "type": "uint256"
        },
        {
          "internalType": "uint256",
          "name": "resultTime",
          "type": "uint256"
        },
        {
          "internalType": "uint256",
          "name": "status",
          "type": "uint256"
        },
        {
          "internalType": "string",
          "name": "description",
          "type": "string"
        }
      ],
      "stateMutability": "view",
      "type": "function"
    },
    {
      "inputs": [],
      "name": "getTradeTransferCounter",
      "outputs": [
        {
          "internalType": "uint256",
          "name": "",
          "type": "uint256"
        }
      ],
      "stateMutability": "view",
      "type": "function"
    },
    {
      "inputs": [],
      "name": "isUsedEscrow",
      "outputs": [
        {
          "internalType": "bool",
          "name": "",
          "type": "bool"
        }
      ],
      "stateMutability": "view",
      "type": "function"
    },
    {
      "inputs": [
        {
          "internalType": "address",
          "name": "from",
          "type": "address"
        },
        {
          "internalType": "address",
          "name": "to",
          "type": "address"
        },
        {
          "internalType": "uint256",
          "name": "amount",
          "type": "uint256"
        }
      ],
      "name": "pendingTokenTransfer",
      "outputs": [
        {
          "internalType": "bool",
          "name": "",
          "type": "bool"
        }
      ],
      "stateMutability": "payable",
      "type": "function"
    },
    {
      "inputs": [
        {
          "internalType": "address",
          "name": "from",
          "type": "address"
        },
        {
          "internalType": "uint256",
          "name": "tradeId",
          "type": "uint256"
        },
        {
          "internalType": "uint256",
          "name": "orderId",
          "type": "uint256"
        },
        {
          "internalType": "uint256",
          "name": "amount",
          "type": "uint256"
        },
        {
          "internalType": "uint256",
          "name": "mode",
          "type": "uint256"
        }
      ],
      "name": "pendingTradeTransfer",
      "outputs": [
        {
          "internalType": "bool",
          "name": "",
          "type": "bool"
        }
      ],
      "stateMutability": "payable",
      "type": "function"
    },
    {
      "inputs": [],
      "name": "register",
      "outputs": [],
      "stateMutability": "nonpayable",
      "type": "function"
    },
    {
      "inputs": [
        {
          "internalType": "uint256",
          "name": "id",
          "type": "uint256"
        },
        {
          "internalType": "string",
          "name": "descr",
          "type": "string"
        }
      ],
      "name": "rejectTokenTransfer",
      "outputs": [
        {
          "internalType": "bool",
          "name": "",
          "type": "bool"
        }
      ],
      "stateMutability": "nonpayable",
      "type": "function"
    },
    {
      "inputs": [
        {
          "internalType": "uint256",
          "name": "id",
          "type": "uint256"
        },
        {
          "internalType": "string",
          "name": "descr",
          "type": "string"
        }
      ],
      "name": "rejectTradeTransfer",
      "outputs": [
        {
          "internalType": "bool",
          "name": "",
          "type": "bool"
        }
      ],
      "stateMutability": "nonpayable",
      "type": "function"
    },
    {
      "inputs": [
        {
          "internalType": "bool",
          "name": "state",
          "type": "bool"
        }
      ],
      "name": "setEscrowState",
      "outputs": [],
      "stateMutability": "nonpayable",
      "type": "function"
    },
    {
      "inputs": [
        {
          "internalType": "address payable",
          "name": "newDeveloper",
          "type": "address"
        }
      ],
      "name": "transferDeveloper",
      "outputs": [],
      "stateMutability": "nonpayable",
      "type": "function"
    },
    {
      "stateMutability": "payable",
      "type": "receive"
    }
  ],
  "bytecode": "0x60803460c557601f61277038819003918201601f19168301916001600160401b0383118484101760c95780849260809460405283398101031260c55760428160dd565b604c6020830160dd565b91605c60606040830151920160dd565b600180546001600160a01b039586166001600160a01b031991821681179092555f80548216909217909155600292909255600380549385169383169390931790925560058054339083161790556006805492909316911617905560405161267f90816100f18239f35b5f80fd5b634e487b7160e01b5f52604160045260245ffd5b51906001600160a01b038216820360c55756fe6080604052600436101561001a575b3615610018575f80fd5b005b5f5f3560e01c806314ffee49146118f85780631677a97c1461183b5780631aa3a008146117835780631dac56fd1461158457806328bcd87c146114045780634dc2ea101461120857806353c3df3414610fed578063553f0dac14610fc85780635f57f81d14610e2d57806364cb4edb14610d7757806375d0c0dc14610d255780637d4aa830146108a45780639f9a1f45146107f8578063a0a8e460146107c4578063aaa30927146106de578063beb4946914610336578063ca4b208b1461030d5763dd8a4d8a146100eb575061000e565b606036600319011261030a576100ff6119b7565b60243591906001600160a01b03831683036103085781546044359390610156906020906001600160a01b0316610133611eb3565b906040518080958194630251382f60e31b835286600484015260248301906119cd565b03915afa9081156102fd5784916102ce575b506001600160a01b031633036102ca576101823483611f22565b156102ca576101918483611f8b565b6101aa61019c611c35565b6101a4611efd565b9061210c565b936101b3611c35565b6101bb611efd565b6101c661019c611c35565b91600183018093116102b6577f78f579358b05a6a0e4619f36d040eac2560fb3e9a14f9463755c302acbced7979593610209610267946080979461024c9461242d565b61023e61021d8a610218611c35565b612080565b936102308761022a611c7c565b87612491565b610238611c9e565b85612491565b610246611cbe565b8361242d565b61025834610246611ce2565b610260611d05565b429161242d565b604080519485526020808601829052908501527f4e657720746f6b656e207472616e7366657220697320696e2070726f6365737360608501526001600160a01b031692a3602060405160018152f35b634e487b7160e01b87526011600452602487fd5b8280fd5b6102f0915060203d6020116102f6575b6102e88183611a45565b810190611bba565b5f610168565b503d6102de565b6040513d86823e3d90fd5b505b80fd5b503461030a578060031936011261030a576005546040516001600160a01b039091168152602090f35b503461030a57610345366119f1565b9061038b61035233611edd565b85546020906001600160a01b0316610368611b90565b906040518080968194630251382f60e31b835286600484015260248301906119cd565b03915afa91821561065b5786926106bc575b506040516369a7ddf760e01b81526001600160a01b0391821660048201529160209183916024918391165afa9081156106b1578591610682575b501561067e5760065460ff8160a01c1661067a5760ff60a01b1916600160a01b1760065561040661019c611e00565b83101561067e57610418913691611dca565b61042133611edd565b61042d83610218611e00565b61043e610438611d55565b8261210c565b61067a57836104f3926104826104fb95610461600361045b611d55565b8761242d565b61047461046c611d2d565b42908761242d565b61047c611da1565b85612503565b7f416409b8771b5c6fe81aadae9ee10232e74da869e539115098056853806b28e06080604051926003845260406020850152601b60408501527f546865206d61726b65742074726164652068617320636c6f7365640000000000606085015260018060a01b031692a36101a4611e6c565b610218612034565b9061050d610507611efd565b8361210c565b91610516611efd565b905f198401938411610666578385939261052f9261242d565b61053881612347565b61054d61054433611edd565b91610218611e00565b9261055f610559611e47565b8561210c565b9161057d61057461056e611e6c565b8761210c565b956101a4611cbe565b8454610597906020906001600160a01b0316610133611bf1565b03915afa90811561065b57869161063c575b506001600160a01b0316803b156106385760a4938692604051988997889663a53f8d5b60e01b885260018060a01b0316600488015260248701526044860152606485015260848401525af1801561062d57610618575b6006805460ff60a01b1916905560405160018152602090f35b610623828092611a45565b61030a57806105ff565b6040513d84823e3d90fd5b8580fd5b610655915060203d6020116102f6576102e88183611a45565b5f6105a9565b6040513d88823e3d90fd5b634e487b7160e01b85526011600452602485fd5b8480fd5b8380fd5b6106a4915060203d6020116106aa575b61069c8183611a45565b810190611bd9565b5f6103d7565b503d610692565b6040513d87823e3d90fd5b60209192506106d790823d84116102f6576102e88183611a45565b919061039d565b503461030a578060031936011261030a576107116106fb33611edd565b82546020906001600160a01b0316610368611b90565b03915afa9182156107b9578392610797575b5060405163e5f93e9760e01b81526001600160a01b0391821660048201529160209183916024918391165afa90811561062d578291610778575b501561030a57602061077061019c611e00565b604051908152f35b610791915060203d6020116106aa5761069c8183611a45565b5f61075d565b60209192506107b290823d84116102f6576102e88183611a45565b9190610723565b6040513d85823e3d90fd5b503461030a578060031936011261030a576107f46107e0611a97565b6040519182916020835260208301906119cd565b0390f35b503461030a578060031936011261030a57610811611b2f565b602061081b611b69565b6003546040516001600160a01b03909116938382019261084f9183916108419186611c1c565b03601f198101835282611a45565b519020602460405180948193633d70e7e560e11b835260048301525afa90811561062d5760209291610887575b506040519015158152f35b61089e9150823d84116106aa5761069c8183611a45565b5f61087c565b503461030a576108b3366119f1565b6108c261035293929333611edd565b03915afa91821561065b578692610d03575b506040516369a7ddf760e01b81526001600160a01b0391821660048201529160209183916024918391165afa9081156106b1578591610ce4575b501561067e5760065460ff8160a01c1661067a5760ff60a01b1916600160a01b1760065561093b33611edd565b9261094761019c611c35565b83101561067a57610959913691611dca565b61096582610218611c35565b90610971610507611d55565b61067a576109a7916109866003610246611d55565b610999610991611d2d565b42908361242d565b6109a1611da1565b90612503565b6109d96109b682610218611c35565b6109d36109ca6109c4611c7c565b836120a0565b916101a4611cbe565b90612567565b6109e581610218611c35565b9183610a046109fb6109f5611c7c565b866120a0565b946101a4611ce2565b610a0f8130876125f7565b50815460408051909691610a6f916020916001600160a01b0316610a338a83611a45565b600f82526e4f7261636c697a654665617475726560881b8383015289518080958194630251382f60e31b835286600484015260248301906119cd565b03915afa908115610cda578491610cbb575b506001600160a01b0316803b1561067e578651635d06805160e01b81526001600160a01b0390921660048301529091839183916024918391905af18015610cb157610c9c575b5050610ad582610218611c35565b93610ae16109f5611c7c565b610af2610aec611c9e565b876120a0565b610b03610afd611cbe565b8861210c565b91610b3d602060018060a01b03865416610b1b611eb3565b908a518080958194630251382f60e31b835286600484015260248301906119cd565b03915afa908115610c92579185608492602095948291610c75575b508a516304ee863560e41b81526001600160a01b03938416600482015294831660248601526044850196909652600160648501529294859384929091165af1918215610c6a5791610c33575b50610bba90602095610bb4611d79565b9061242d565b7f78f579358b05a6a0e4619f36d040eac2560fb3e9a14f9463755c302acbced7976080845192600384528587850152601f868501527f54686520746f6b656e207472616e736665722068617320617070726f76656400606085015260018060a01b031692a36006805460ff60a01b191690555160018152f35b90506020813d602011610c62575b81610c4e60209383611a45565b81010312610c5e57516020610ba4565b5f80fd5b3d9150610c41565b8551903d90823e3d90fd5b610c8c9150863d88116102f6576102e88183611a45565b5f610b58565b88513d87823e3d90fd5b81610ca691611a45565b61067e57835f610ac7565b85513d84823e3d90fd5b610cd4915060203d6020116102f6576102e88183611a45565b5f610a81565b87513d86823e3d90fd5b610cfd915060203d6020116106aa5761069c8183611a45565b5f61090e565b6020919250610d1e90823d84116102f6576102e88183611a45565b91906108d4565b503461030a578060031936011261030a57506107f4604051610d48604082611a45565b600e81526d115cd8dc9bddd0dbdb9d1c9858dd60921b60208201526040519182916020835260208301906119cd565b503461030a57602036600319011261030a576004356001600160a01b03811690819003610308576005546001600160a01b038116610db6338214611ab8565b8215610df35782907fd734ca01d7ec868e364f3c2cbda207212fa91c58040df183429252e85a48b2b18580a36001600160a01b0319161760055580f35b60405162461bcd60e51b815260206004820152601260248201527154686973206164647265737320697320302160701b6044820152606490fd5b503461030a57602036600319011261030a57610e4b6106fb33611edd565b03915afa9182156107b9578392610fa6575b5060405163e5f93e9760e01b81526001600160a01b0391821660048201529160209183916024918391165afa90811561062d578291610f87575b501561030a57610eab600435610218611e00565b610ebc610eb6611c7c565b826120a0565b6107f4610ed0610eca611e47565b8461210c565b92610edc610438611e6c565b90610ee8610438611e91565b610ef3610507611cbe565b610efe610eca611ce2565b610f09610559611d05565b91610f1b610f15611d2d565b8661210c565b93610f39610f2a610afd611d55565b96610f33611da1565b9061218e565b966040519a8b9a60018060a01b03168b5260208b015260408a01526060890152608088015260a087015260c086015260e08501526101008401526101406101208401526101408301906119cd565b610fa0915060203d6020116106aa5761069c8183611a45565b5f610e97565b6020919250610fc190823d84116102f6576102e88183611a45565b9190610e5d565b503461030a57602036600319011261030a57602061077061019c600435610218612034565b503461030a57610ffc366119f1565b61100861035233611edd565b03915afa91821561065b5786926111e6575b506040516369a7ddf760e01b81526001600160a01b0391821660048201529160209183916024918391165afa9081156106b15785916111c7575b501561067e5760065460ff8160a01c1661067a5760ff60a01b1916600160a01b1760065561108361019c611e00565b83101561067e5761109f91611099913691611dca565b82612258565b506110a981612347565b816110bf6110b633611edd565b92610218611e00565b916110cb610eca611ce2565b906110dd6110d7611c7c565b856120a0565b906111116110ec61056e611e47565b9361110a6111016110fb611e6c565b8961210c565b976101a4611cbe565b93806125f7565b50835461112c906020906001600160a01b0316610133611bf1565b03915afa9081156106b15785916111a8575b506001600160a01b031691823b1561067a57608492859160405197889687956339e5524560e21b875260018060a01b031660048701526024860152604485015260648401525af1801561062d57610618576006805460ff60a01b1916905560405160018152602090f35b6111c1915060203d6020116102f6576102e88183611a45565b5f61113e565b6111e0915060203d6020116106aa5761069c8183611a45565b5f611054565b602091925061120190823d84116102f6576102e88183611a45565b919061101a565b503461030a57611217366119f1565b91929061123c61122633611edd565b83546020906001600160a01b0316610368611b90565b03915afa9182156102fd5784926113e2575b506040516369a7ddf760e01b81526001600160a01b0391821660048201529160209183916024918391165afa9081156107b95783916113c3575b50156103085760065460ff8160a01c166102ca5760ff60a01b1916600160a01b176006556112b533611edd565b926112c161019c611c35565b8510156102ca57906112d4913691611dca565b906112e184610218611c35565b906112ed610507611d55565b61030a575090611304916109866001610246611d55565b6113136109b683610218611c35565b61134061132283610218611c35565b6113396113306109c4611c7c565b916101a4611ce2565b90806125f7565b507f78f579358b05a6a0e4619f36d040eac2560fb3e9a14f9463755c302acbced7976080604051926001845260406020850152601f60408501527f54686520746f6b656e207472616e73666572206861732072656a656374656400606085015260018060a01b031692a36006805460ff60a01b1916905560405160018152602090f35b6113dc915060203d6020116106aa5761069c8183611a45565b5f611288565b60209192506113fd90823d84116102f6576102e88183611a45565b919061124e565b503461030a57602036600319011261030a576114226106fb33611edd565b03915afa9182156107b9578392611562575b5060405163e5f93e9760e01b81526001600160a01b0391821660048201529160209183916024918391165afa90811561062d578291611543575b501561030a57611482600435610218611c35565b61148d610eb6611c7c565b6107f46114a161149b611c9e565b846120a0565b926114ad610438611cbe565b906114b9610438611ce2565b6114c4610507611d05565b6114cf610eca611d2d565b906114db610559611d55565b926114f36114ea61056e611d79565b95610f33611da1565b95604051998a9960018060a01b03168a5260018060a01b031660208a015260408901526060880152608087015260a086015260c085015260e08401526101206101008401526101208301906119cd565b61155c915060203d6020116106aa5761069c8183611a45565b5f61146e565b602091925061157d90823d84116102f6576102e88183611a45565b9190611434565b5060a036600319011261030a576115996119b7565b9060443560643590608435936115bc602060018060a01b03865416610133611bf1565b03915afa9081156106b1578591611764575b506001600160a01b0316330361067e576115e790611edd565b916115f23484611f22565b1561067e5760018514611755575b61160c82610218612034565b611617610438611efd565b90611620611efd565b90600183018093116102b65790611637929161242d565b61164261019c611e00565b9461164b611e00565b611653611efd565b61165e61019c611e00565b9160018301809311611741579361023e6116f1946116a56080989561024c957f416409b8771b5c6fe81aadae9ee10232e74da869e539115098056853806b28e09b9961242d565b6116e36116b48c610218611e00565b956116c7896116c1611c7c565b89612491565b6116db6024356116d5611e47565b8961242d565b61045b611e6c565b6116eb611e91565b8561242d565b6040805194855260208501819052601b908501527f4e6577206d61726b65742074726164652069732070726f63657373000000000060608501526001600160a01b031692a3602060405160018152f35b634e487b7160e01b88526011600452602488fd5b61175f8184611f8b565b611600565b61177d915060203d6020116102f6576102e88183611a45565b5f6115ce565b503461030a578060031936011261030a576117a960018060a01b03600554163314611ab8565b805460025482916001600160a01b0316906117c2611b04565b906117cb611a97565b92803b1561067a57849283611807936118196040519788968795869463163f5abb60e21b865260048601526060602486015260648501906119cd565b838103600319016044850152906119cd565b03925af1801561062d5761182a5750f35b8161183491611a45565b61030a5780f35b503461030a578060031936011261030a576118586106fb33611edd565b03915afa9182156107b95783926118d6575b5060405163e5f93e9760e01b81526001600160a01b0391821660048201529160209183916024918391165afa90811561062d5782916118b7575b501561030a57602061077061019c611c35565b6118d0915060203d6020116106aa5761069c8183611a45565b5f6118a4565b60209192506118f190823d84116102f6576102e88183611a45565b919061186a565b5034610c5e576020366003190112610c5e57600435801515809103610c5e5761192c60018060a01b03600554163314611ab8565b611934611b2f565b9061193d611b69565b6003546040516001600160a01b039091169360208201926119649183916108419186611c1c565b51902090823b15610c5e5760445f9283604051958694859363abfdcced60e01b8552600485015260248401525af180156119ac576119a0575080f35b61001891505f90611a45565b6040513d5f823e3d90fd5b600435906001600160a01b0382168203610c5e57565b805180835260209291819084018484015e5f828201840152601f01601f1916010190565b6040600319820112610c5e576004359160243567ffffffffffffffff8111610c5e5782602382011215610c5e5780600401359267ffffffffffffffff8411610c5e5760248483010111610c5e576024019190565b90601f8019910116810190811067ffffffffffffffff821117611a6757604052565b634e487b7160e01b5f52604160045260245ffd5b67ffffffffffffffff8111611a6757601f01601f191660200190565b60405190611aa6604083611a45565b600382526219171b60e91b6020830152565b15611abf57565b60405162461bcd60e51b815260206004820152601b60248201527f4f6e6c792074686520446576656c6f70657220726571756972656400000000006044820152606490fd5b60405190611b13604083611a45565b600d82526c457363726f774665617475726560981b6020830152565b611b37611b04565b604051611b636020828180820195805191829101875e81015f838201520301601f198101835282611a45565b51902090565b60405190611b78604083611a45565b6009825268557365457363726f7760b81b6020830152565b60405190611b9f604083611a45565b600c82526b4f776e65724665617475726560a01b6020830152565b90816020910312610c5e57516001600160a01b0381168103610c5e5790565b90816020910312610c5e57518015158103610c5e5790565b60405190611c00604083611a45565b600d82526c4d61726b65744665617475726560981b6020830152565b602092839282528051928391018483015e01015f815290565b611c3d611b2f565b610841611b63604051611c51604082611a45565b600d81526c2a37b5b2b72a3930b739b332b960991b6020820152604051928391602083019586611c1c565b60405190611c8b604083611a45565b600482526366726f6d60e01b6020830152565b60405190611cad604083611a45565b6002825261746f60f01b6020830152565b60405190611ccd604083611a45565b6006825265185b5bdd5b9d60d21b6020830152565b60405190611cf1604083611a45565b600582526476616c756560d81b6020830152565b60405190611d14604083611a45565b600a82526963726561746554696d6560b01b6020830152565b60405190611d3c604083611a45565b600a825269726573756c7454696d6560b01b6020830152565b60405190611d64604083611a45565b600682526573746174757360d01b6020830152565b60405190611d88604083611a45565b600a8252691d1c985b9cd9995c925960b21b6020830152565b60405190611db0604083611a45565b600b82526a3232b9b1b934b83a34b7b760a91b6020830152565b929192611dd682611a7b565b91611de46040519384611a45565b829481845281830111610c5e578281602093845f960137010152565b611e08611b2f565b610841611b63604051611e1c604082611a45565b600d81526c2a3930b232aa3930b739b332b960991b6020820152604051928391602083019586611c1c565b60405190611e56604083611a45565b60078252661d1c985919525960ca1b6020830152565b60405190611e7b604083611a45565b60078252661bdc99195c925960ca1b6020830152565b60405190611ea0604083611a45565b60048252636d6f646560e01b6020830152565b60405190611ec2604083611a45565b600c82526b546f6b656e4665617475726560a01b6020830152565b611ee68161238a565b6001600160a01b038116611ef8575090565b905090565b60405190611f0c604083611a45565b600782526631b7bab73a32b960c91b6020830152565b81611f2e575050600190565b600654604051631c8046b360e21b81526001600160a01b03928316600482015292602092849260249284929091165af19081156119ac575f91611f6f575090565b611f88915060203d6020116106aa5761069c8183611a45565b90565b5f54611fa5906020906001600160a01b0316610133611eb3565b03915afa9081156119ac575f91612015575b506001600160a01b031691823b15610c5e57604051633646e48960e11b81526001600160a01b0390921660048301526024820152905f908290818381604481015b03925af180156119ac576120095750565b5f61201391611a45565b565b61202e915060203d6020116102f6576102e88183611a45565b5f611fb7565b61203c611b2f565b610841611b63604051612050604082611a45565b601281527120b1ba34bb32aa3930b232a1b7bab73a32b960711b6020820152604051928391602083019586611c1c565b906040519060208201928352604082015260408152611b63606082611a45565b6020906108416120c560018060a01b0360035416946040519283918683019586611c1c565b5190206024604051809481936321f8a72160e01b835260048301525afa9081156119ac575f916120f3575090565b611f88915060203d6020116102f6576102e88183611a45565b60209061084161213160018060a01b0360035416946040519283918683019586611c1c565b51902060246040518094819363bd02d0f560e01b835260048301525afa9081156119ac575f9161215f575090565b90506020813d602011612186575b8161217a60209383611a45565b81010312610c5e575190565b3d915061216d565b5f906108416121b360018060a01b036003541694604051928391602083019586611c1c565b519020602460405180948193634c373c8d60e11b835260048301525afa9081156119ac575f916121e1575090565b90503d805f833e6121f28183611a45565b810190602081830312610c5e5780519067ffffffffffffffff8211610c5e570181601f82011215610c5e5780519061222982611a7b565b926122376040519485611a45565b82845260208383010111610c5e57815f9260208093018386015e8301015290565b9061226233611edd565b9161226f81610218611e00565b9061227b610507611d55565b610c5e57612308936122976104f394610461600161045b611d55565b7f416409b8771b5c6fe81aadae9ee10232e74da869e539115098056853806b28e06080604051926001845260406020850152601b60408501527f546865206d61726b65742074726164652068617320636c6f7365640000000000606085015260018060a01b031692a36101a4611e6c565b612313610438611efd565b9061231c611efd565b905f19830192831161233357611f8891839161242d565b634e487b7160e01b5f52601160045260245ffd5b61235390610218611e00565b61235e610eb6611c7c565b90600161237861236f610eca611cbe565b926101a4611e91565b14612381575050565b61201391612567565b803b15612414575f80916040516020810190638da5cb5b60e01b8252600481526123b5602482611a45565b51915afa3d15612425573d906123ca82611a7b565b916123d86040519384611a45565b82523d5f602084013e5b158015612419575b61241457602081805181010312610c5e57602001516001600160a01b03811690819003610c5e5790565b505f90565b506020815114156123ea565b6060906123e2565b6003546040516001600160a01b0390911693926020820192612456918391610841919086611c1c565b51902090823b15610c5e5760445f92836040519586948593637152429d60e11b8552600485015260248401525af180156119ac576120095750565b6003546040516001600160a01b03909116939260208201926124ba918391610841919086611c1c565b51902090823b15610c5e5760405163ca446dd960e01b815260048101929092526001600160a01b03166024820152905f908290604490829084905af180156119ac576120095750565b6003546040516001600160a01b039091169392602082019261252c918391610841919086611c1c565b51902090823b15610c5e57611ff8925f92836040518096819582946306e8995560e41b845260048401526040602484015260448301906119cd565b5f54612581906020906001600160a01b0316610133611eb3565b03915afa9081156119ac575f916125d8575b506001600160a01b031691823b15610c5e57604051639859abb360e01b81526001600160a01b0390921660048301526024820152905f90829081838160448101611ff8565b6125f1915060203d6020116102f6576102e88183611a45565b5f612593565b600654604051633e23964f60e11b81526001600160a01b039283166004820152928216602484015260448301939093529091602091839160649183915f91165af19081156119ac575f91611f6f57509056fea2646970667358221220ec7c8002cecbc344da58cd375b5819e3d0e5ce17d764328e8e6ba10634f934b864736f6c634300081c0033",
  "linkReferences": {},
  "deployedLinkReferences": {}
}