{
  "_format": "hh-sol-artifact-1",
  "contractName": "FinancialContract",
  "sourceName": "contracts/subcontract/FinancialContract.sol",
  "abi": [
    {
      "inputs": [
        {
          "internalType": "address",
          "name": "_storage",
          "type": "address"
        },
        {
          "internalType": "address",
          "name": "_master",
          "type": "address"
        },
        {
          "internalType": "bytes32",
          "name": "_key",
          "type": "bytes32"
        }
      ],
      "stateMutability": "nonpayable",
      "type": "constructor"
    },
    {
      "anonymous": false,
      "inputs": [
        {
          "indexed": false,
          "internalType": "address",
          "name": "addr",
          "type": "address"
        },
        {
          "indexed": false,
          "internalType": "uint256",
          "name": "statusId",
          "type": "uint256"
        },
        {
          "indexed": false,
          "internalType": "string",
          "name": "eventText",
          "type": "string"
        }
      ],
      "name": "CompanyWalletEvent",
      "type": "event"
    },
    {
      "anonymous": false,
      "inputs": [
        {
          "indexed": true,
          "internalType": "address",
          "name": "previousDeveloper",
          "type": "address"
        },
        {
          "indexed": true,
          "internalType": "address",
          "name": "newDeveloper",
          "type": "address"
        }
      ],
      "name": "DeveloperTransferredEvent",
      "type": "event"
    },
    {
      "anonymous": false,
      "inputs": [
        {
          "indexed": false,
          "internalType": "uint256",
          "name": "id",
          "type": "uint256"
        },
        {
          "indexed": false,
          "internalType": "address",
          "name": "creator",
          "type": "address"
        },
        {
          "indexed": false,
          "internalType": "string",
          "name": "title",
          "type": "string"
        },
        {
          "indexed": false,
          "internalType": "uint256",
          "name": "time",
          "type": "uint256"
        }
      ],
      "name": "FinancialStatementEvent",
      "type": "event"
    },
    {
      "inputs": [
        {
          "internalType": "string",
          "name": "_title",
          "type": "string"
        },
        {
          "internalType": "string",
          "name": "_name",
          "type": "string"
        },
        {
          "internalType": "string",
          "name": "_file",
          "type": "string"
        }
      ],
      "name": "addFinStatement",
      "outputs": [],
      "stateMutability": "nonpayable",
      "type": "function"
    },
    {
      "inputs": [],
      "name": "contractName",
      "outputs": [
        {
          "internalType": "string",
          "name": "",
          "type": "string"
        }
      ],
      "stateMutability": "view",
      "type": "function"
    },
    {
      "inputs": [],
      "name": "contractVersion",
      "outputs": [
        {
          "internalType": "string",
          "name": "",
          "type": "string"
        }
      ],
      "stateMutability": "view",
      "type": "function"
    },
    {
      "inputs": [],
      "name": "developer",
      "outputs": [
        {
          "internalType": "address payable",
          "name": "",
          "type": "address"
        }
      ],
      "stateMutability": "view",
      "type": "function"
    },
    {
      "inputs": [],
      "name": "getBankWallet",
      "outputs": [
        {
          "internalType": "address",
          "name": "_creator",
          "type": "address"
        },
        {
          "internalType": "string",
          "name": "_name",
          "type": "string"
        },
        {
          "internalType": "string",
          "name": "_currency",
          "type": "string"
        },
        {
          "internalType": "string",
          "name": "_value",
          "type": "string"
        },
        {
          "internalType": "uint256",
          "name": "_time",
          "type": "uint256"
        }
      ],
      "stateMutability": "view",
      "type": "function"
    },
    {
      "inputs": [],
      "name": "getBitcoinWallet",
      "outputs": [
        {
          "internalType": "address",
          "name": "_creator",
          "type": "address"
        },
        {
          "internalType": "string",
          "name": "_addr",
          "type": "string"
        },
        {
          "internalType": "uint256",
          "name": "_time",
          "type": "uint256"
        }
      ],
      "stateMutability": "view",
      "type": "function"
    },
    {
      "inputs": [],
      "name": "getEthereumWallet",
      "outputs": [
        {
          "internalType": "address",
          "name": "_creator",
          "type": "address"
        },
        {
          "internalType": "address",
          "name": "_addr",
          "type": "address"
        },
        {
          "internalType": "uint256",
          "name": "_time",
          "type": "uint256"
        }
      ],
      "stateMutability": "view",
      "type": "function"
    },
    {
      "inputs": [
        {
          "internalType": "uint256",
          "name": "_id",
          "type": "uint256"
        }
      ],
      "name": "getFinStatement",
      "outputs": [
        {
          "internalType": "address",
          "name": "_creator",
          "type": "address"
        },
        {
          "internalType": "string",
          "name": "_title",
          "type": "string"
        },
        {
          "internalType": "string",
          "name": "_name",
          "type": "string"
        },
        {
          "internalType": "string",
          "name": "_file",
          "type": "string"
        },
        {
          "internalType": "uint256",
          "name": "_time",
          "type": "uint256"
        }
      ],
      "stateMutability": "view",
      "type": "function"
    },
    {
      "inputs": [],
      "name": "getFinStatementCounter",
      "outputs": [
        {
          "internalType": "uint256",
          "name": "",
          "type": "uint256"
        }
      ],
      "stateMutability": "view",
      "type": "function"
    },
    {
      "inputs": [],
      "name": "register",
      "outputs": [],
      "stateMutability": "nonpayable",
      "type": "function"
    },
    {
      "inputs": [
        {
          "internalType": "string",
          "name": "_name",
          "type": "string"
        },
        {
          "internalType": "string",
          "name": "_currency",
          "type": "string"
        },
        {
          "internalType": "string",
          "name": "_value",
          "type": "string"
        }
      ],
      "name": "setBankWallet",
      "outputs": [],
      "stateMutability": "nonpayable",
      "type": "function"
    },
    {
      "inputs": [
        {
          "internalType": "string",
          "name": "_addr",
          "type": "string"
        }
      ],
      "name": "setBitcoinWallet",
      "outputs": [],
      "stateMutability": "nonpayable",
      "type": "function"
    },
    {
      "inputs": [
        {
          "internalType": "address",
          "name": "_addr",
          "type": "address"
        }
      ],
      "name": "setEthereumWallet",
      "outputs": [],
      "stateMutability": "nonpayable",
      "type": "function"
    },
    {
      "inputs": [
        {
          "internalType": "address payable",
          "name": "newDeveloper",
          "type": "address"
        }
      ],
      "name": "transferDeveloper",
      "outputs": [],
      "stateMutability": "nonpayable",
      "type": "function"
    },
    {
      "stateMutability": "payable",
      "type": "receive"
    }
  ],
  "bytecode": "0x60803460ae57601f611b3838819003918201601f19168301916001600160401b0383118484101760b25780849260609460405283398101031260ae5760428160c6565b906040604f6020830160c6565b910151600180546001600160a01b03199081166001600160a01b039485169081179092555f80548216909217909155600291909155600380548216939092169290921790556005805490911633179055604051611a5e90816100da8239f35b5f80fd5b634e487b7160e01b5f52604160045260245ffd5b51906001600160a01b038216820360ae5756fe6080604052600436101561001a575b3615610018575f80fd5b005b5f5f3560e01c80631aa3a00814610f6d57806320c2e68614610e6a5780633ab9676414610d5c5780635551a93214610c9757806364cb4edb14610be15780636d21c34714610ad057806375d0c0dc14610a7b578063815a4876146108fd5780638490b7f61461064c578063a0a8e4601461061c578063a38ce248146104c0578063ca4b208b14610497578063f8223017146102e85763fb2d7608146100bf575061000e565b346102e5576100cd36611175565b6101156100dc9594953361160f565b88546020906001600160a01b03166100f26112f2565b906040518080968194630251382f60e31b83528660048401526024830190611083565b03915afa9182156102da5789926102a8575b506040516317aa5fb760e11b81526001600160a01b0391821660048201529160209183916024918391165afa90811561029d57889161026e575b501561026a576101f060a095610204946101dc7ffa29b045902a6dc24392a709a75f4b9094af87585a2793d9e590b3c1d94c89bc9961019f3361160f565b986101ba8a6101ac61138d565b6101b46113c1565b9061180e565b6101d66101c561138d565b926101ce6113e6565b923691611594565b91611910565b6101d66101e761138d565b926101ce611408565b6101d66101fb61138d565b926101ce61142e565b61021e61020f61138d565b610217611451565b429161188c565b60405190600180841b031681526003602082015260606040820152601760608201527f42616e6b2077616c6c657420686173206368616e6765640000000000000000006080820152a180f35b8680fd5b610290915060203d602011610296575b61028881836110f5565b81019061133b565b5f610161565b503d61027e565b6040513d8a823e3d90fd5b60209192506102cc90823d84116102d3575b6102c481836110f5565b81019061131c565b9190610127565b503d6102ba565b6040513d8b823e3d90fd5b80fd5b50346102e55760203660031901126102e55760043567ffffffffffffffff81116104935761031a903690600401611147565b9061033d6103273361160f565b84546020906001600160a01b03166100f26112f2565b03915afa918215610488578592610466575b506040516317aa5fb760e11b81526001600160a01b0391821660048201529160209183916024918391165afa90811561045b57849161043c575b5015610438577ffa29b045902a6dc24392a709a75f4b9094af87585a2793d9e590b3c1d94c89bc916103e160a0926103c03361160f565b926103cd846101ac611473565b6101d66103d8611473565b926101ce6114aa565b6103ec61020f611473565b60405190600180841b031681526002602082015260606040820152601a60608201527f426974636f696e2077616c6c657420686173206368616e6765640000000000006080820152a180f35b8280fd5b610455915060203d6020116102965761028881836110f5565b5f610389565b6040513d86823e3d90fd5b602091925061048190823d84116102d3576102c481836110f5565b919061034f565b6040513d87823e3d90fd5b5080fd5b50346102e557806003193601126102e5576005546040516001600160a01b039091168152602090f35b50346102e55760203660031901126102e5576104f46104de3361160f565b82546020906001600160a01b03166100f26112f2565b03915afa9182156106115783926105ef575b5060405163e5f93e9760e01b81526001600160a01b0391821660048201529160209183916024918391165afa9081156105e45782916105c5575b50156102e5576105596004356105546114cc565b6118f0565b61056a6105646113c1565b82611648565b6105c161057e6105786115ca565b846116c2565b9261059061058a6113e6565b826116c2565b906105b46105a561059f6115ed565b836116c2565b916105ae611451565b9061178c565b91604051958695866110a7565b0390f35b6105de915060203d6020116102965761028881836110f5565b5f610540565b6040513d84823e3d90fd5b602091925061060a90823d84116102d3576102c481836110f5565b9190610506565b6040513d85823e3d90fd5b50346102e557806003193601126102e5576105c16106386111ea565b604051918291602083526020830190611083565b50346102e55761065b36611175565b90919261068361066d9796973361160f565b87546020906001600160a01b03166100f26112f2565b03915afa91821561029d5788926108db575b506040516317aa5fb760e11b81526001600160a01b0391821660048201529160209183916024918391165afa9081156108d05787916108b1575b50156108ad576106de3361160f565b936040519760c0890189811067ffffffffffffffff821117610899579361076d8a94610776946107648c999560609c9b996040528a8952602089019b8b8d5260408a019d8e5260608a019a60608c5260808b019a60608c5260a081019d8e526107506107486114cc565b6105ae611537565b90526001600160a01b03168d523691611594565b8b523691611594565b85523691611594565b8152428352865160018101809111610885576108799261083a7f2dfacd0fa97fd9208b9b69fbae885b82264703ae76bb9ee261009e44bf78d7359899936107d061084a946107c26114cc565b6107ca611537565b9061188c565b6108296107e66107de6114cc565b8751906118f0565b936108046107f26113c1565b8b516001600160a01b0316908761180e565b61081861080f6115ca565b8c519087611910565b6108206113e6565b90519085611910565b6108316115ed565b90519083611910565b610842611451565b85519161188c565b519260018060a01b03905116935191519160405194859485526020850152608060408501526080840190611083565b9060608301520390a180f35b634e487b7160e01b87526011600452602487fd5b634e487b7160e01b89526041600452602489fd5b8580fd5b6108ca915060203d6020116102965761028881836110f5565b5f6106cf565b6040513d89823e3d90fd5b60209192506108f690823d84116102d3576102c481836110f5565b9190610695565b50346102e55760203660031901126102e5576004356001600160a01b03811681036104935761094461092e3361160f565b83546020906001600160a01b03166100f26112f2565b03915afa91821561045b578492610a59575b506040516317aa5fb760e11b81526001600160a01b0391821660048201529160209183916024918391165afa908115610611578391610a3a575b50156104935760a07ffa29b045902a6dc24392a709a75f4b9094af87585a2793d9e590b3c1d94c89bc916109e36109c63361160f565b916109d3836101ac61155c565b6109db61155c565b6101b46114aa565b6109ee61020f61155c565b60405190600180841b031681526001602082015260606040820152601b60608201527f457468657265756d2077616c6c657420686173206368616e67656400000000006080820152a180f35b610a53915060203d6020116102965761028881836110f5565b5f610990565b6020919250610a7490823d84116102d3576102c481836110f5565b9190610956565b50346102e557806003193601126102e557506105c1604051610a9e6040826110f5565b6011815270119a5b985b98da585b10dbdb9d1c9858dd607a1b6020820152604051918291602083526020830190611083565b50346102e557806003193601126102e557610aed6104de3361160f565b03915afa918215610611578392610bbf575b5060405163e5f93e9760e01b81526001600160a01b0391821660048201529160209183916024918391165afa9081156105e4578291610ba0575b50156102e5576060610b5a610b4c61155c565b610b546113c1565b90611648565b610b6d610b6561155c565b610b546114aa565b610b80610b7861155c565b6105ae611451565b604080516001600160a01b03948516815293909216602084015290820152f35b610bb9915060203d6020116102965761028881836110f5565b5f610b39565b6020919250610bda90823d84116102d3576102c481836110f5565b9190610aff565b50346102e55760203660031901126102e5576004356001600160a01b03811690819003610493576005546001600160a01b038116610c2033821461120b565b8215610c5d5782907fd734ca01d7ec868e364f3c2cbda207212fa91c58040df183429252e85a48b2b18580a36001600160a01b0319161760055580f35b60405162461bcd60e51b815260206004820152601260248201527154686973206164647265737320697320302160701b6044820152606490fd5b50346102e557806003193601126102e557610cb46104de3361160f565b03915afa918215610611578392610d3a575b5060405163e5f93e9760e01b81526001600160a01b0391821660048201529160209183916024918391165afa9081156105e4578291610d1b575b50156102e5576020610d136107486114cc565b604051908152f35b610d34915060203d6020116102965761028881836110f5565b5f610d00565b6020919250610d5590823d84116102d3576102c481836110f5565b9190610cc6565b50346102e557806003193601126102e557610d796104de3361160f565b03915afa918215610611578392610e48575b5060405163e5f93e9760e01b81526001600160a01b0391821660048201529160209183916024918391165afa9081156105e4578291610e29575b50156102e557610dd6610b4c611473565b610def610de1611473565b610de96114aa565b906116c2565b90610dfb610b78611473565b610e1f60405193849360018060a01b03168452606060208501526060840190611083565b9060408301520390f35b610e42915060203d6020116102965761028881836110f5565b5f610dc5565b6020919250610e6390823d84116102d3576102c481836110f5565b9190610d8b565b50346102e557806003193601126102e557610e876104de3361160f565b03915afa918215610611578392610f4b575b5060405163e5f93e9760e01b81526001600160a01b0391821660048201529160209183916024918391165afa9081156105e4578291610f2c575b50156102e557610ee4610b4c61138d565b610ef7610eef61138d565b610de96113e6565b906105c1610f0e610f0661138d565b610de9611408565b610f21610f1961138d565b610de961142e565b6105b4610b7861138d565b610f45915060203d6020116102965761028881836110f5565b5f610ed3565b6020919250610f6690823d84116102d3576102c481836110f5565b9190610e99565b503461107f575f36600319011261107f57610f9360018060a01b0360055416331461120b565b60018060a01b035f5416600254610fa8611257565b91610fb16111ea565b90803b1561107f57610fdd935f80946040519687958694859363163f5abb60e21b855260048501611292565b03925af1801561107457611061575b50805460025482916001600160a01b0316906110066112c0565b9161100f6111ea565b90803b1561105d5761103b938580946040519687958694859363163f5abb60e21b855260048501611292565b03925af180156105e45761104c5750f35b81611056916110f5565b6102e55780f35b8480fd5b61106d91505f906110f5565b5f5f610fec565b6040513d5f823e3d90fd5b5f80fd5b805180835260209291819084018484015e5f828201840152601f01601f1916010190565b959493906080936110d46110f0946110e29360018060a01b03168a5260a060208b015260a08a0190611083565b9088820360408a0152611083565b908682036060880152611083565b930152565b90601f8019910116810190811067ffffffffffffffff82111761111757604052565b634e487b7160e01b5f52604160045260245ffd5b67ffffffffffffffff811161111757601f01601f191660200190565b9181601f8401121561107f5782359167ffffffffffffffff831161107f576020838186019501011161107f57565b606060031982011261107f5760043567ffffffffffffffff811161107f57816111a091600401611147565b9290929160243567ffffffffffffffff811161107f57816111c391600401611147565b929092916044359067ffffffffffffffff821161107f576111e691600401611147565b9091565b604051906111f96040836110f5565b600382526219171b60e91b6020830152565b1561121257565b60405162461bcd60e51b815260206004820152601b60248201527f4f6e6c792074686520446576656c6f70657220726571756972656400000000006044820152606490fd5b604051906112666040836110f5565b601982527f46696e616e6369616c53746174656d656e7446656174757265000000000000006020830152565b916112af906112bd94928452606060208501526060840190611083565b916040818403910152611083565b90565b604051906112cf6040836110f5565b6014825273436f6d70616e7957616c6c65744665617475726560601b6020830152565b604051906113016040836110f5565b600c82526b4f776e65724665617475726560a01b6020830152565b9081602091031261107f57516001600160a01b038116810361107f5790565b9081602091031261107f5751801515810361107f5790565b61135b6112c0565b6040516113876020828180820195805191829101875e81015f838201520301601f1981018352826110f5565b51902090565b611395611353565b604051602081019182526910985b9ad5d85b1b195d60b21b6040820152602a8152611387604a826110f5565b604051906113d06040836110f5565b600782526631b932b0ba37b960c91b6020830152565b604051906113f56040836110f5565b60048252636e616d6560e01b6020830152565b604051906114176040836110f5565b600882526763757272656e637960c01b6020830152565b6040519061143d6040836110f5565b600582526476616c756560d81b6020830152565b604051906114606040836110f5565b600482526374696d6560e01b6020830152565b61147b611353565b604051602081019182526c109a5d18dbda5b95d85b1b195d609a1b6040820152602d8152611387604d826110f5565b604051906114b96040836110f5565b600482526330b2323960e11b6020830152565b6114d4611257565b6040516115006020828180820195805191829101875e81015f838201520301601f1981018352826110f5565b5190206040516020810191825271119a5b985b98da585b14dd185d195b595b9d60721b6040820152603281526113876052826110f5565b604051906115466040836110f5565b600782526631b7bab73a32b960c91b6020830152565b611564611353565b604051602081019182526d115d1a195c995d5b55d85b1b195d60921b6040820152602e8152611387604e826110f5565b9291926115a08261112b565b916115ae60405193846110f5565b82948184528183011161107f578281602093845f960137010152565b604051906115d96040836110f5565b60058252647469746c6560d81b6020830152565b604051906115fc6040836110f5565b600482526366696c6560e01b6020830152565b61161881611985565b6001600160a01b03811661162a575090565b905090565b602092839282528051928391018483015e01015f815290565b60209061166d61167b60018060a01b036003541694604051928391868301958661162f565b03601f1981018352826110f5565b5190206024604051809481936321f8a72160e01b835260048301525afa908115611074575f916116a9575090565b6112bd915060203d6020116102d3576102c481836110f5565b5f9061166d6116e760018060a01b03600354169460405192839160208301958661162f565b519020602460405180948193634c373c8d60e11b835260048301525afa908115611074575f91611715575090565b90503d805f833e61172681836110f5565b81019060208183031261107f5780519067ffffffffffffffff821161107f570181601f8201121561107f5780519061175d8261112b565b9261176b60405194856110f5565b8284526020838301011161107f57815f9260208093018386015e8301015290565b60209061166d6117b160018060a01b036003541694604051928391868301958661162f565b51902060246040518094819363bd02d0f560e01b835260048301525afa908115611074575f916117df575090565b90506020813d602011611806575b816117fa602093836110f5565b8101031261107f575190565b3d91506117ed565b6003546040516001600160a01b039091169392602082019261183791839161166d91908661162f565b51902090823b1561107f5760405163ca446dd960e01b815260048101929092526001600160a01b03166024820152905f908290604490829084905af18015611074576118805750565b5f61188a916110f5565b565b6003546040516001600160a01b03909116939260208201926118b591839161166d91908661162f565b51902090823b1561107f5760445f92836040519586948593637152429d60e11b8552600485015260248401525af18015611074576118805750565b9060405190602082019283526040820152604081526113876060826110f5565b6003546040516001600160a01b039091169392602082019261193991839161166d91908661162f565b51902090823b1561107f57611974925f92836040518096819582946306e8995560e41b84526004840152604060248401526044830190611083565b03925af18015611074576118805750565b803b15611a0f575f80916040516020810190638da5cb5b60e01b8252600481526119b06024826110f5565b51915afa3d15611a20573d906119c58261112b565b916119d360405193846110f5565b82523d5f602084013e5b158015611a14575b611a0f5760208180518101031261107f57602001516001600160a01b0381169081900361107f5790565b505f90565b506020815114156119e5565b6060906119dd56fea2646970667358221220933c4f6f10caf86ca9a86d7a149f0b813b7d6d621a66ac3b5795b12bae0ceffc64736f6c634300081c0033",
  "linkReferences": {},
  "deployedLinkReferences": {}
}