{
  "_format": "hh-sol-artifact-1",
  "contractName": "LegalContract",
  "sourceName": "contracts/subcontract/LegalContract.sol",
  "abi": [
    {
      "inputs": [
        {
          "internalType": "address",
          "name": "_storage",
          "type": "address"
        },
        {
          "internalType": "address",
          "name": "_master",
          "type": "address"
        },
        {
          "internalType": "bytes32",
          "name": "_key",
          "type": "bytes32"
        }
      ],
      "stateMutability": "nonpayable",
      "type": "constructor"
    },
    {
      "anonymous": false,
      "inputs": [
        {
          "indexed": true,
          "internalType": "address",
          "name": "previousDeveloper",
          "type": "address"
        },
        {
          "indexed": true,
          "internalType": "address",
          "name": "newDeveloper",
          "type": "address"
        }
      ],
      "name": "DeveloperTransferredEvent",
      "type": "event"
    },
    {
      "anonymous": false,
      "inputs": [
        {
          "indexed": false,
          "internalType": "uint256",
          "name": "id",
          "type": "uint256"
        },
        {
          "indexed": false,
          "internalType": "address",
          "name": "creator",
          "type": "address"
        },
        {
          "indexed": false,
          "internalType": "string",
          "name": "title",
          "type": "string"
        },
        {
          "indexed": false,
          "internalType": "uint256",
          "name": "time",
          "type": "uint256"
        }
      ],
      "name": "LegalDocumentEvent",
      "type": "event"
    },
    {
      "inputs": [
        {
          "internalType": "string",
          "name": "_title",
          "type": "string"
        },
        {
          "internalType": "string",
          "name": "_name",
          "type": "string"
        },
        {
          "internalType": "string",
          "name": "_file",
          "type": "string"
        }
      ],
      "name": "addLegalDocument",
      "outputs": [],
      "stateMutability": "nonpayable",
      "type": "function"
    },
    {
      "inputs": [],
      "name": "contractName",
      "outputs": [
        {
          "internalType": "string",
          "name": "",
          "type": "string"
        }
      ],
      "stateMutability": "view",
      "type": "function"
    },
    {
      "inputs": [],
      "name": "contractVersion",
      "outputs": [
        {
          "internalType": "string",
          "name": "",
          "type": "string"
        }
      ],
      "stateMutability": "view",
      "type": "function"
    },
    {
      "inputs": [],
      "name": "developer",
      "outputs": [
        {
          "internalType": "address payable",
          "name": "",
          "type": "address"
        }
      ],
      "stateMutability": "view",
      "type": "function"
    },
    {
      "inputs": [
        {
          "internalType": "uint256",
          "name": "_id",
          "type": "uint256"
        }
      ],
      "name": "getLegalDocument",
      "outputs": [
        {
          "internalType": "address",
          "name": "_creator",
          "type": "address"
        },
        {
          "internalType": "string",
          "name": "_title",
          "type": "string"
        },
        {
          "internalType": "string",
          "name": "_name",
          "type": "string"
        },
        {
          "internalType": "string",
          "name": "_file",
          "type": "string"
        },
        {
          "internalType": "uint256",
          "name": "_time",
          "type": "uint256"
        }
      ],
      "stateMutability": "view",
      "type": "function"
    },
    {
      "inputs": [],
      "name": "getLegalDocumentCounter",
      "outputs": [
        {
          "internalType": "uint256",
          "name": "",
          "type": "uint256"
        }
      ],
      "stateMutability": "view",
      "type": "function"
    },
    {
      "inputs": [],
      "name": "register",
      "outputs": [],
      "stateMutability": "nonpayable",
      "type": "function"
    },
    {
      "inputs": [
        {
          "internalType": "address payable",
          "name": "newDeveloper",
          "type": "address"
        }
      ],
      "name": "transferDeveloper",
      "outputs": [],
      "stateMutability": "nonpayable",
      "type": "function"
    },
    {
      "stateMutability": "payable",
      "type": "receive"
    }
  ],
  "bytecode": "0x60803460ae57601f6110a538819003918201601f19168301916001600160401b0383118484101760b25780849260609460405283398101031260ae5760428160c6565b906040604f6020830160c6565b910151600180546001600160a01b03199081166001600160a01b039485169081179092555f80548216909217909155600291909155600380548216939092169290921790556005805490911633179055604051610fcb90816100da8239f35b5f80fd5b634e487b7160e01b5f52604160045260245ffd5b51906001600160a01b038216820360ae5756fe6080604052600436101561001a575b3615610018575f80fd5b005b5f5f3560e01c806318b8f8f5146105c55780631aa3a008146105095780634dbdf9031461032957806364cb4edb1461026f57806372a92eb71461012d57806375d0c0dc146100dc578063a0a8e460146100a85763ca4b208b1461007d575061000e565b346100a557806003193601126100a5576005546040516001600160a01b039091168152602090f35b80fd5b50346100a557806003193601126100a5576100d86100c46109f3565b604051918291602083526020830190610991565b0390f35b50346100a557806003193601126100a557506100d86040516100ff6040826109b5565b600d81526c131959d85b10dbdb9d1c9858dd609a1b6020820152604051918291602083526020830190610991565b50346100a557806003193601126100a55761018361014a33610c68565b82546020906001600160a01b0316610160610a14565b906040518080968194630251382f60e31b83528660048401526024830190610991565b03915afa918215610264578392610232575b5060405163e5f93e9760e01b81526001600160a01b0391821660048201529160209183916024918391165afa9081156102275782916101f8575b50156100a55760206101f06101e2610b29565b6101ea610c43565b90610d8b565b604051908152f35b61021a915060203d602011610220575b61021281836109b5565b810190610a5d565b5f6101cf565b503d610208565b6040513d84823e3d90fd5b602091925061025690823d841161025d575b61024e81836109b5565b810190610a3e565b9190610195565b503d610244565b6040513d85823e3d90fd5b50346100a55760203660031901126100a5576004356001600160a01b03811690819003610325576005546001600160a01b0381166102ae338214610aab565b82156102eb5782907fd734ca01d7ec868e364f3c2cbda207212fa91c58040df183429252e85a48b2b18580a36001600160a01b0319161760055580f35b60405162461bcd60e51b815260206004820152601260248201527154686973206164647265737320697320302160701b6044820152606490fd5b5080fd5b50346100a55760203660031901126100a55761034761014a33610c68565b03915afa9182156102645783926104e7575b5060405163e5f93e9760e01b81526001600160a01b0391821660048201529160209183916024918391165afa9081156102275782916104c8575b50156100a5576103ac6004356103a7610b29565b610c88565b906103b5610b95565b602060018060a01b0360035416916040516103e6816103d8858201948986610ca8565b03601f1981018352826109b5565b5190206024604051809481936321f8a72160e01b835260048301525afa9182156104bc579161049d575b5061042261041c610bba565b83610cc1565b9161049361043161041c610bdd565b91610485610452610449610443610bff565b84610cc1565b926101ea610c21565b9361047760405197889760018060a01b0316885260a0602089015260a0880190610991565b908682036040880152610991565b908482036060860152610991565b9060808301520390f35b6104b6915060203d60201161025d5761024e81836109b5565b5f610410565b604051903d90823e3d90fd5b6104e1915060203d6020116102205761021281836109b5565b5f610393565b602091925061050290823d841161025d5761024e81836109b5565b9190610359565b50346100a557806003193601126100a55761052f60018060a01b03600554163314610aab565b805460025482916001600160a01b031690610548610af7565b906105516109f3565b92803b156105c15784928361058d9361059f6040519788968795869463163f5abb60e21b86526004860152606060248601526064850190610991565b83810360031901604485015290610991565b03925af18015610227576105b05750f35b816105ba916109b5565b6100a55780f35b8480fd5b50346108f65760603660031901126108f65760043567ffffffffffffffff81116108f6576105f7903690600401610963565b919060243567ffffffffffffffff81116108f657610619903690600401610963565b9060443567ffffffffffffffff81116108f65761063a903690600401610963565b9561065d61064733610c68565b5f546020906001600160a01b0316610160610a14565b03915afa9182156108eb575f92610941575b5060405163e5f93e9760e01b81526001600160a01b0391821660048201529160209183916024918391165afa9081156108eb575f91610922575b50156108f6576106b833610c68565b926040519260c0840198848a1067ffffffffffffffff8b111761090e576107376107409360609b6040525f875260208701985f8a5261072e604089019b8e8d528e8a019e8f5260808a019860608a5260a08b019b5f8d5261071a6101e2610b29565b8c526001600160a01b03168d523691610a75565b8b523691610a75565b8a523691610a75565b81524283528151600181018091116108fa5761076c9061075e610b29565b610766610c43565b90610eb0565b61077f610777610b29565b835190610c88565b90610788610b95565b60018060a01b0386511660018060a01b0360035416916040516107b4816103d860208201948986610ca8565b51902090823b156108f65760445f9283604051958694859363ca446dd960e01b8552600485015260248401525af180156108eb576108a1575b506108959291610856610866926108457f8672bb6823e1d396d658313a611074ee4860b593c14d96735308fc1140cd66c89a9b61083461082b610bba565b8c519087610f20565b61083c610bdd565b90519085610f20565b61084d610bff565b90519083610f20565b61085e610c21565b855191610eb0565b519260018060a01b03905116935191519160405194859485526020850152608060408501526080840190610991565b9060608301520390a180f35b7f8672bb6823e1d396d658313a611074ee4860b593c14d96735308fc1140cd66c8975091610856610866926108da5f61089597966109b5565b6108455f9a505092505091926107ed565b6040513d5f823e3d90fd5b5f80fd5b634e487b7160e01b5f52601160045260245ffd5b634e487b7160e01b5f52604160045260245ffd5b61093b915060203d6020116102205761021281836109b5565b5f6106a9565b602091925061095c90823d841161025d5761024e81836109b5565b919061066f565b9181601f840112156108f65782359167ffffffffffffffff83116108f657602083818601950101116108f657565b805180835260209291819084018484015e5f828201840152601f01601f1916010190565b90601f8019910116810190811067ffffffffffffffff82111761090e57604052565b67ffffffffffffffff811161090e57601f01601f191660200190565b60405190610a026040836109b5565b600382526219171b60e91b6020830152565b60405190610a236040836109b5565b600c82526b4f776e65724665617475726560a01b6020830152565b908160209103126108f657516001600160a01b03811681036108f65790565b908160209103126108f6575180151581036108f65790565b929192610a81826109d7565b91610a8f60405193846109b5565b8294818452818301116108f6578281602093845f960137010152565b15610ab257565b60405162461bcd60e51b815260206004820152601b60248201527f4f6e6c792074686520446576656c6f70657220726571756972656400000000006044820152606490fd5b60405190610b066040836109b5565b60148252734c6567616c446f63756d656e744665617475726560601b6020830152565b610b31610af7565b604051610b5d6020828180820195805191829101875e81015f838201520301601f1981018352826109b5565b519020604051602081019182526c131959d85b111bd8dd5b595b9d609a1b6040820152602d8152610b8f604d826109b5565b51902090565b60405190610ba46040836109b5565b600782526631b932b0ba37b960c91b6020830152565b60405190610bc96040836109b5565b60058252647469746c6560d81b6020830152565b60405190610bec6040836109b5565b60048252636e616d6560e01b6020830152565b60405190610c0e6040836109b5565b600482526366696c6560e01b6020830152565b60405190610c306040836109b5565b600482526374696d6560e01b6020830152565b60405190610c526040836109b5565b600782526631b7bab73a32b960c91b6020830152565b610c7181610e0d565b6001600160a01b038116610c83575090565b905090565b906040519060208201928352604082015260408152610b8f6060826109b5565b602092839282528051928391018483015e01015f815290565b5f906103d8610ce660018060a01b036003541694604051928391602083019586610ca8565b519020602460405180948193634c373c8d60e11b835260048301525afa9081156108eb575f91610d14575090565b90503d805f833e610d2581836109b5565b8101906020818303126108f65780519067ffffffffffffffff82116108f6570181601f820112156108f657805190610d5c826109d7565b92610d6a60405194856109b5565b828452602083830101116108f657815f9260208093018386015e8301015290565b6020906103d8610db060018060a01b0360035416946040519283918683019586610ca8565b51902060246040518094819363bd02d0f560e01b835260048301525afa9081156108eb575f91610dde575090565b90506020813d602011610e05575b81610df9602093836109b5565b810103126108f6575190565b3d9150610dec565b803b15610e97575f80916040516020810190638da5cb5b60e01b825260048152610e386024826109b5565b51915afa3d15610ea8573d90610e4d826109d7565b91610e5b60405193846109b5565b82523d5f602084013e5b158015610e9c575b610e97576020818051810103126108f657602001516001600160a01b038116908190036108f65790565b505f90565b50602081511415610e6d565b606090610e65565b6003546040516001600160a01b0390911693926020820192610ed99183916103d8919086610ca8565b51902090823b156108f65760445f92836040519586948593637152429d60e11b8552600485015260248401525af180156108eb57610f145750565b5f610f1e916109b5565b565b6003546040516001600160a01b0390911693926020820192610f499183916103d8919086610ca8565b51902090823b156108f657610f84925f92836040518096819582946306e8995560e41b84526004840152604060248401526044830190610991565b03925af180156108eb57610f14575056fea264697066735822122060da0f34c208772f2af8989aae7fa4a8447beb88fedd62a9d224a5aee75d6b1164736f6c634300081c0033",
  "linkReferences": {},
  "deployedLinkReferences": {}
}