{
  "_format": "hh-sol-artifact-1",
  "contractName": "MarketContract",
  "sourceName": "contracts/subcontract/MarketContract.sol",
  "abi": [
    {
      "inputs": [
        {
          "internalType": "address",
          "name": "_storage",
          "type": "address"
        },
        {
          "internalType": "address",
          "name": "_master",
          "type": "address"
        },
        {
          "internalType": "bytes32",
          "name": "_key",
          "type": "bytes32"
        },
        {
          "internalType": "address",
          "name": "_bank",
          "type": "address"
        }
      ],
      "stateMutability": "nonpayable",
      "type": "constructor"
    },
    {
      "anonymous": false,
      "inputs": [
        {
          "indexed": true,
          "internalType": "address",
          "name": "previousDeveloper",
          "type": "address"
        },
        {
          "indexed": true,
          "internalType": "address",
          "name": "newDeveloper",
          "type": "address"
        }
      ],
      "name": "DeveloperTransferredEvent",
      "type": "event"
    },
    {
      "anonymous": false,
      "inputs": [
        {
          "indexed": true,
          "internalType": "address",
          "name": "addr",
          "type": "address"
        },
        {
          "indexed": false,
          "internalType": "uint256",
          "name": "orderId",
          "type": "uint256"
        },
        {
          "indexed": false,
          "internalType": "uint256",
          "name": "status",
          "type": "uint256"
        }
      ],
      "name": "MarketOrderEvent",
      "type": "event"
    },
    {
      "anonymous": false,
      "inputs": [
        {
          "indexed": true,
          "internalType": "address",
          "name": "addr",
          "type": "address"
        },
        {
          "indexed": false,
          "internalType": "uint256",
          "name": "tradeId",
          "type": "uint256"
        },
        {
          "indexed": false,
          "internalType": "uint256",
          "name": "status",
          "type": "uint256"
        }
      ],
      "name": "MarketTradeEvent",
      "type": "event"
    },
    {
      "inputs": [
        {
          "internalType": "uint256",
          "name": "_mode",
          "type": "uint256"
        },
        {
          "internalType": "uint256",
          "name": "_amount",
          "type": "uint256"
        },
        {
          "internalType": "string",
          "name": "_price",
          "type": "string"
        }
      ],
      "name": "addMarketOrder",
      "outputs": [],
      "stateMutability": "payable",
      "type": "function"
    },
    {
      "inputs": [
        {
          "internalType": "uint256",
          "name": "_orderId",
          "type": "uint256"
        },
        {
          "internalType": "uint256",
          "name": "_amount",
          "type": "uint256"
        }
      ],
      "name": "addMarketTrade",
      "outputs": [],
      "stateMutability": "payable",
      "type": "function"
    },
    {
      "inputs": [
        {
          "internalType": "address",
          "name": "_approver",
          "type": "address"
        },
        {
          "internalType": "uint256",
          "name": "_tradeId",
          "type": "uint256"
        },
        {
          "internalType": "uint256",
          "name": "_orderId",
          "type": "uint256"
        },
        {
          "internalType": "uint256",
          "name": "_amount",
          "type": "uint256"
        },
        {
          "internalType": "uint256",
          "name": "_counter",
          "type": "uint256"
        }
      ],
      "name": "approveMarketTrade",
      "outputs": [],
      "stateMutability": "nonpayable",
      "type": "function"
    },
    {
      "inputs": [
        {
          "internalType": "uint256",
          "name": "_orderId",
          "type": "uint256"
        }
      ],
      "name": "cancelMarketOrder",
      "outputs": [],
      "stateMutability": "nonpayable",
      "type": "function"
    },
    {
      "inputs": [],
      "name": "contractName",
      "outputs": [
        {
          "internalType": "string",
          "name": "",
          "type": "string"
        }
      ],
      "stateMutability": "view",
      "type": "function"
    },
    {
      "inputs": [],
      "name": "contractVersion",
      "outputs": [
        {
          "internalType": "string",
          "name": "",
          "type": "string"
        }
      ],
      "stateMutability": "view",
      "type": "function"
    },
    {
      "inputs": [
        {
          "internalType": "uint256",
          "name": "_orderId",
          "type": "uint256"
        },
        {
          "internalType": "uint256",
          "name": "_amount",
          "type": "uint256"
        }
      ],
      "name": "countTokenPaymentByOrderId",
      "outputs": [
        {
          "internalType": "uint256",
          "name": "deal",
          "type": "uint256"
        },
        {
          "internalType": "uint256",
          "name": "fees",
          "type": "uint256"
        }
      ],
      "stateMutability": "view",
      "type": "function"
    },
    {
      "inputs": [],
      "name": "developer",
      "outputs": [
        {
          "internalType": "address payable",
          "name": "",
          "type": "address"
        }
      ],
      "stateMutability": "view",
      "type": "function"
    },
    {
      "inputs": [
        {
          "internalType": "uint256",
          "name": "_id",
          "type": "uint256"
        }
      ],
      "name": "getMarketOrder",
      "outputs": [
        {
          "internalType": "address",
          "name": "creator",
          "type": "address"
        },
        {
          "internalType": "uint256",
          "name": "amount",
          "type": "uint256"
        },
        {
          "internalType": "uint256",
          "name": "remainder",
          "type": "uint256"
        },
        {
          "internalType": "string",
          "name": "price",
          "type": "string"
        },
        {
          "internalType": "uint256",
          "name": "mode",
          "type": "uint256"
        },
        {
          "internalType": "uint256",
          "name": "startTime",
          "type": "uint256"
        },
        {
          "internalType": "uint256",
          "name": "endTime",
          "type": "uint256"
        },
        {
          "internalType": "bool",
          "name": "isActive",
          "type": "bool"
        }
      ],
      "stateMutability": "view",
      "type": "function"
    },
    {
      "inputs": [],
      "name": "getMarketOrderCounter",
      "outputs": [
        {
          "internalType": "uint256",
          "name": "",
          "type": "uint256"
        }
      ],
      "stateMutability": "view",
      "type": "function"
    },
    {
      "inputs": [
        {
          "internalType": "uint256",
          "name": "_orderId",
          "type": "uint256"
        }
      ],
      "name": "getMarketOrderCreator",
      "outputs": [
        {
          "internalType": "address",
          "name": "",
          "type": "address"
        }
      ],
      "stateMutability": "view",
      "type": "function"
    },
    {
      "inputs": [
        {
          "internalType": "uint256",
          "name": "_id",
          "type": "uint256"
        }
      ],
      "name": "getMarketTrade",
      "outputs": [
        {
          "internalType": "address",
          "name": "creator",
          "type": "address"
        },
        {
          "internalType": "uint256",
          "name": "orderId",
          "type": "uint256"
        },
        {
          "internalType": "uint256",
          "name": "amount",
          "type": "uint256"
        },
        {
          "internalType": "uint256",
          "name": "startTime",
          "type": "uint256"
        },
        {
          "internalType": "uint256",
          "name": "status",
          "type": "uint256"
        }
      ],
      "stateMutability": "view",
      "type": "function"
    },
    {
      "inputs": [],
      "name": "getMarketTradeCounter",
      "outputs": [
        {
          "internalType": "uint256",
          "name": "",
          "type": "uint256"
        }
      ],
      "stateMutability": "view",
      "type": "function"
    },
    {
      "inputs": [
        {
          "internalType": "uint256",
          "name": "_orderId",
          "type": "uint256"
        },
        {
          "internalType": "uint256",
          "name": "_id",
          "type": "uint256"
        }
      ],
      "name": "getTradeIdOfOrder",
      "outputs": [
        {
          "internalType": "uint256",
          "name": "",
          "type": "uint256"
        }
      ],
      "stateMutability": "view",
      "type": "function"
    },
    {
      "inputs": [
        {
          "internalType": "uint256",
          "name": "_orderId",
          "type": "uint256"
        }
      ],
      "name": "getTradesOfOrderCounter",
      "outputs": [
        {
          "internalType": "uint256",
          "name": "",
          "type": "uint256"
        }
      ],
      "stateMutability": "view",
      "type": "function"
    },
    {
      "inputs": [],
      "name": "register",
      "outputs": [],
      "stateMutability": "nonpayable",
      "type": "function"
    },
    {
      "inputs": [
        {
          "internalType": "address",
          "name": "_rejecter",
          "type": "address"
        },
        {
          "internalType": "uint256",
          "name": "_tradeId",
          "type": "uint256"
        },
        {
          "internalType": "uint256",
          "name": "_orderId",
          "type": "uint256"
        },
        {
          "internalType": "uint256",
          "name": "_amount",
          "type": "uint256"
        }
      ],
      "name": "rejectMarketTrade",
      "outputs": [],
      "stateMutability": "nonpayable",
      "type": "function"
    },
    {
      "inputs": [
        {
          "internalType": "address payable",
          "name": "newDeveloper",
          "type": "address"
        }
      ],
      "name": "transferDeveloper",
      "outputs": [],
      "stateMutability": "nonpayable",
      "type": "function"
    },
    {
      "stateMutability": "payable",
      "type": "receive"
    }
  ],
  "bytecode": "0x6080346100d957601f612cc038819003918201601f19168301916001600160401b038311848410176100dd578084926080946040528339810103126100d957610047816100f1565b610053602083016100f1565b916100656060604083015192016100f1565b600180546001600160a01b03199081166001600160a01b039687169081179092555f80548216909217909155600292909255600380548316938516939093179092556005805490911633179055600680546001600160a81b03191692909116919091179055604051612bba90816101068239f35b5f80fd5b634e487b7160e01b5f52604160045260245ffd5b51906001600160a01b03821682036100d95756fe6080604052600436101561001a575b3615610018575f80fd5b005b5f5f3560e01c806308532833146117345780630c44c156146116935780631aa3a008146115d857806334d4e580146110925780633c26dce614610fc25780634971e90514610efa5780634e40792514610e2657806364cb4edb14610d7057806375d0c0dc14610d1e57806385f47b9c14610be457806386a2c686146108e75780639fa4944d1461081c578063a0a8e460146107e8578063a53f8d5b14610402578063c89fad41146103bd578063ca4b208b14610394578063e7954914146102ab5763eb3721be146100eb575061000e565b3461022c57602036600319011261022c57610105336121ef565b6101156101106118ba565b61222e565b6001600160a01b036101286101106118e4565b6001600160a01b039093169216821491821561022f575b50501561022c57610159600435610154612103565b6122e8565b61016a610164611adb565b82612321565b61017b610175611b25565b83612374565b9161018d610187612138565b82612374565b61019e61019861215f565b836128c8565b916101aa610187612182565b926102116101bf6101b9611b49565b84612374565b916101e36101d46101ce6121a4565b86612374565b946101dd6121c9565b90612992565b9460405198899860018060a01b0316895260208901526040880152610100606088015261010087019061185f565b93608086015260a085015260c0840152151560e08301520390f35b80fd5b60405163e5f93e9760e01b815260048101919091529150602090829060249082906001600160a01b03165afa9081156102a0578291610271575b505f8061013f565b610293915060203d602011610299575b61028b818361180d565b81019061190f565b5f610269565b503d610281565b6040513d84823e3d90fd5b503461022c57608036600319011261022c576102c56118a4565b602435906001600160a01b036102dc6101106118e4565b163303610390576102ec906121ef565b6102fa604435610154612103565b610305610187612138565b90606435820180921161037c57916103496040927fe2a6ee22d9341390c54772ccd7a057ec736c430373564fd75b453e5783aa2a3694610343612138565b90612adc565b610362600161035a86610154611aa6565b610343611b70565b8151938452600160208501526001600160a01b031692a280f35b634e487b7160e01b85526011600452602485fd5b8280fd5b503461022c578060031936011261022c576005546040516001600160a01b039091168152602090f35b503461022c57602036600319011261022c5760206103f06103e2600435610154612103565b6103ea611adb565b90612321565b6040516001600160a01b039091168152f35b503461022c5760a036600319011261022c5761041c6118a4565b6044359060643590602435906001600160a01b0361043b6101106118e4565b1633036107285761045f61045185610154612103565b610459612182565b90612374565b60026104706103e285610154611aa6565b91600181146107d8575b146104d1575b50610494925061048f906121ef565b61287a565b6104ab6104a382610154612103565b610459612138565b15806104c7575b6104ba575080f35b6104c490306123f6565b80f35b50608435156104b2565b6104dc610110611a42565b906104e8610110611927565b6104f76103e288610154612103565b92610543604061051a61050c8b610154612103565b61051461215f565b906128c8565b815163eb920a1d60e01b81526001600160a01b03909516949283918291908c8a6004850161196a565b0381865afa9081156107cd578a908b9261079b575b50600654604051633e23964f60e11b81526001600160a01b038781166004830152306024830152604482018490529091602091839116818f816064810103925af1801561079057610771575b508a8080806105bc8660018060a01b038c16966124cf565b855af16105c761284b565b501561072c57838b943b1561072857602485926040519485938492635d06805160e01b845260048401525af1908115610704578391610713575b50506001600160a01b031692833b1561070f57604051639859abb360e01b81526001600160a01b038216600482015260248101889052828160448183895af18015610704576106e2575b506040516304ee863560e41b81526001600160a01b039182166004820152921660248301526044820195909552600260648201529360209185916084918391905af19081156106d7576104949361048f926106a8575b5090610480565b6106c99060203d6020116106d0575b6106c1818361180d565b810190611a33565b505f6106a1565b503d6106b7565b6040513d87823e3d90fd5b916106f28180999593969461180d565b61070057919590925f61064b565b8680fd5b6040513d85823e3d90fd5b5080fd5b8161071d9161180d565b61070f57815f610601565b8480fd5b60405162461bcd60e51b815260206004820152601a60248201527f5472616e7366657220746f2063726561746f72206661696c65640000000000006044820152606490fd5b6107899060203d6020116102995761028b818361180d565b505f6105a4565b6040513d8e823e3d90fd5b90506107bf915060403d6040116107c6575b6107b7818361180d565b810190611954565b905f610558565b503d6107ad565b6040513d8c823e3d90fd5b6107e38688856125d0565b61047a565b503461022c578060031936011261022c57610818610804611883565b60405191829160208352602083019061185f565b0390f35b50610826366117f7565b61082f336121ef565b60206001600160a01b03610844610110611a08565b60405163288c314960e21b81526001600160a01b03909416600485015283916024918391165afa9081156108dc5784916108bd575b5015610390576006549160ff8360a01c166108b95760ff60a01b19909216600160a01b176006556108a991611bab565b6006805460ff60a01b1916905580f35b8380fd5b6108d6915060203d6020116102995761028b818361180d565b5f610879565b6040513d86823e3d90fd5b503461022c57602036600319011261022c57600435610905336121ef565b6109146103e283610154612103565b9061092c61092484610154612103565b6101dd6121c9565b6001600160a01b0391821691909216149081610bdc575b501561070f57610952336121ef565b9061096261092482610154612103565b80610b63575b15610390578261097d61045183610154612103565b80151580610b59575b1561070f5760018114610a3b575b60029150146109a7575b6104c4916123f6565b826109b76103e283610154612103565b6109c66104a384610154612103565b906001600160a01b036109da610110611a42565b1691823b156108b957604051639859abb360e01b81526001600160a01b0392909216600483015260248201529082908290604490829084905af180156102a057610a26575b505061099e565b81610a309161180d565b61039057825f610a1f565b610a866020610a4b610110611927565b610a5a61050c87610154612103565b90610a6a6104a388610154612103565b60405180958194829363c4e2347960e01b845260048401611b94565b03916001600160a01b03165afa908115610704578391610b1c575b50600654604051633e23964f60e11b81526001600160a01b0387811660048301819052602483015260448201939093529360209285921690829081606481015b03925af19182156106d757600292610afd575b50849150610994565b610b159060203d6020116102995761028b818361180d565b505f610af4565b9250506020823d602011610b51575b81610b386020938361180d565b81010312610b4d579051849190610ae1610aa1565b5f80fd5b3d9150610b2b565b5060038110610986565b50602460206001600160a01b03610b7b6101106118e4565b166040519283809263154fc36b60e21b82528660048301525afa9081156108dc578491610baa575b5015610968565b90506020813d602011610bd4575b81610bc56020938361180d565b81010312610b4d57515f610ba3565b3d9150610bb8565b90505f610943565b503461022c57602036600319011261022c57610bff336121ef565b610c0a6101106118ba565b6001600160a01b03610c1d6101106118e4565b6001600160a01b0390931692168214918215610cbd575b50501561022c57610c49600435610154611aa6565b610c54610164611adb565b610818610c626101b9611b00565b92610c6e610187611b25565b90610c86610c7d610175611b49565b91610459611b70565b604080516001600160a01b0390961686526020860196909652948401919091526060830152608082019290925290819060a0820190565b60405163e5f93e9760e01b815260048101919091529150602090829060249082906001600160a01b03165afa9081156102a0578291610cff575b505f80610c34565b610d18915060203d6020116102995761028b818361180d565b5f610cf7565b503461022c578060031936011261022c5750610818604051610d4160408261180d565b600e81526d13585c9ad95d10dbdb9d1c9858dd60921b602082015260405191829160208352602083019061185f565b503461022c57602036600319011261022c576004356001600160a01b0381169081900361070f576005546001600160a01b038116610daf338214611991565b8215610dec5782907fd734ca01d7ec868e364f3c2cbda207212fa91c58040df183429252e85a48b2b18580a36001600160a01b0319161760055580f35b60405162461bcd60e51b815260206004820152601260248201527154686973206164647265737320697320302160701b6044820152606490fd5b503461022c578060031936011261022c57610e40336121ef565b610e4b6101106118ba565b6001600160a01b03610e5e6101106118e4565b6001600160a01b0390931692168214918215610e99575b50501561022c576020610e91610e89612103565b61045961229e565b604051908152f35b60405163e5f93e9760e01b815260048101919091529150602090829060249082906001600160a01b03165afa9081156102a0578291610edb575b505f80610e75565b610ef4915060203d6020116102995761028b818361180d565b5f610ed3565b503461022c57602036600319011261022c57610f15336121ef565b610f206101106118ba565b6001600160a01b03610f336101106118e4565b6001600160a01b0390931692168214918215610f61575b50501561022c576020610e91610e89600435612b40565b60405163e5f93e9760e01b815260048101919091529150602090829060249082906001600160a01b03165afa9081156102a0578291610fa3575b505f80610f4a565b610fbc915060203d6020116102995761028b818361180d565b5f610f9b565b503461022c57610fd1366117f7565b91610fdb336121ef565b610fe66101106118ba565b6001600160a01b03610ff96101106118e4565b6001600160a01b0390931692168214918215611031575b50501561022c576020610e916110298561015486612b40565b6104596122c3565b60405163e5f93e9760e01b815260048101919091529150602090829060249082906001600160a01b03165afa9081156102a0578291611073575b505f80611010565b61108c915060203d6020116102995761028b818361180d565b5f61106b565b50606036600319011261022c5760443560043560243567ffffffffffffffff83116108b957366023840112156108b95782600401359167ffffffffffffffff83116107285760248401936024843692010111610728576110f1336121ef565b60206001600160a01b03611106610110611a08565b60405163288c314960e21b81526001600160a01b03909416600485015283916024918391165afa9081156115cd5786916115ae575b501561072857846006549360ff8560a01c1661070f5760ff60a01b198516600160a01b1760065561116b336121ef565b94831515806115a4575b1561039057600184146114a4575b50600283146113cd575b808061119a602093611843565b976111a8604051998a61180d565b81895283890137860101526111be610e89612103565b93600185018086116113b957906111e2879493926111da612103565b61034361229e565b6112246111f187610154612103565b93611204876111fe611adb565b87612a60565b61121681611210611b25565b87612adc565b61121e612138565b85612adc565b61122c61215f565b9060018060a01b03600354169160405161125d8161124f60208201948986612308565b03601f19810183528261180d565b51902090823b156113b557611298928692836040518096819582946306e8995560e41b8452600484015260406024840152604483019061185f565b03925af19081156108dc5784916113a0575b50506112be906112b8612182565b83612adc565b6112d16112c9611b49565b429083612adc565b6112d96121c9565b6003546040516001600160a01b0390911692602082019261130091839161124f9186612308565b519020813b1561039057829160448392604051948593849263abfdcced60e01b84526004840152600160248401525af180156102a05761138b575b505060408051928352600360208401526001600160a01b03909116917f91a5fb63fec422b7d9bab0aa59ed42d2a2e0b65de9547e46eb80c8614e5894329190a26006805460ff60a01b1916905580f35b816113959161180d565b61039057825f61133b565b816113aa9161180d565b61039057825f6112aa565b8580fd5b634e487b7160e01b87526011600452602487fd5b6001600160a01b036113e0610110611a42565b60405163ac24bcdf60e01b81526001600160a01b038816600482015260248101879052911690602081604481855afa9081156108dc578491611485575b501561039057803b1561039057604051633646e48960e11b81526001600160a01b0387166004820152602481018690529083908290604490829084905af1908115610704578391611470575b505061118d565b8161147a9161180d565b61070f57815f611469565b61149e915060203d6020116102995761028b818361180d565b5f61141d565b6001600160a01b036114b7610110611927565b16906020604051809363c4e2347960e01b825288600483015260406024830152856044830152858b6064840137866064878401015281606481601f19601f8a011681010301915afa9182156108dc57849261156d575b503482036108b957604051631c8046b360e21b81526001600160a01b0388811660048301529092602092849260249284929091165af180156107045715611183576115669060203d6020116102995761028b818361180d565b505f611183565b935090506020833d60201161159c575b8161158a6020938361180d565b81010312610b4d57879251905f61150d565b3d915061157d565b5060038410611175565b6115c7915060203d6020116102995761028b818361180d565b5f61113b565b6040513d88823e3d90fd5b5034610b4d575f366003190112610b4d576115fe60018060a01b03600554163314611991565b60018060a01b035f54166002546116136119dd565b9061161c611883565b92803b15610b4d575f92836116589361166a6040519788968795869463163f5abb60e21b8652600486015260606024860152606485019061185f565b8381036003190160448501529061185f565b03925af180156116885761167c575080f35b61001891505f9061180d565b6040513d5f823e3d90fd5b34610b4d576116e860406116a6366117f7565b906116b0336121ef565b916116cb61050c6116c2610110611927565b93610154612103565b845163eb920a1d60e01b815295869485938493916004850161196a565b03916001600160a01b03165afa908115611688576040915f915f91611715575b5082519182526020820152f35b905061172e9150823d84116107c6576107b7818361180d565b83611708565b34610b4d575f366003190112610b4d5761174d336121ef565b6117586101106118ba565b6001600160a01b0361176b6101106118e4565b6001600160a01b0390931692168214918215611796575b505015610b4d576020610e91610e89611aa6565b60405163e5f93e9760e01b815260048101919091529150602090829060249082906001600160a01b03165afa908115611688575f916117d8575b508180611782565b6117f1915060203d6020116102995761028b818361180d565b816117d0565b6040906003190112610b4d576004359060243590565b90601f8019910116810190811067ffffffffffffffff82111761182f57604052565b634e487b7160e01b5f52604160045260245ffd5b67ffffffffffffffff811161182f57601f01601f191660200190565b805180835260209291819084018484015e5f828201840152601f01601f1916010190565b6040519061189260408361180d565b600382526219171b60e91b6020830152565b600435906001600160a01b0382168203610b4d57565b604051906118c960408361180d565b600c82526b4f776e65724665617475726560a01b6020830152565b604051906118f360408361180d565b600d82526c457363726f774665617475726560981b6020830152565b90816020910312610b4d57518015158103610b4d5790565b6040519061193660408361180d565b600f82526e4f7261636c697a654665617475726560881b6020830152565b9190826040910312610b4d576020825192015190565b61198e939260609260018060a01b031682526020820152816040820152019061185f565b90565b1561199857565b60405162461bcd60e51b815260206004820152601b60248201527f4f6e6c792074686520446576656c6f70657220726571756972656400000000006044820152606490fd5b604051906119ec60408361180d565b600d82526c4d61726b65744665617475726560981b6020830152565b60405190611a1760408361180d565b600d82526c4d656d6265724665617475726560981b6020830152565b90816020910312610b4d575190565b60405190611a5160408361180d565b600c82526b546f6b656e4665617475726560a01b6020830152565b611a746119dd565b604051611aa06020828180820195805191829101875e81015f838201520301601f19810183528261180d565b51902090565b611aae611a6c565b604051602081019182526a4d61726b6574547261646560a81b6040820152602b8152611aa0604b8261180d565b60405190611aea60408361180d565b600782526631b932b0ba37b960c91b6020830152565b60405190611b0f60408361180d565b60078252661bdc99195c925960ca1b6020830152565b60405190611b3460408361180d565b6006825265185b5bdd5b9d60d21b6020830152565b60405190611b5860408361180d565b6009825268737461727454696d6560b81b6020830152565b60405190611b7f60408361180d565b600682526573746174757360d01b6020830152565b60409061198e93928152816020820152019061185f565b90611bb5336121ef565b5f611bc561092485610154612103565b806120eb575b806120c7575b15610b4d57611be561045185610154612103565b91821515806120bd575b15610b4d57611bff610e89611aa6565b91611c08611aa6565b611c1061229e565b611c1b610e89611aa6565b90600182018092116120a957611c3092612adc565b611c78611c3f84610154611aa6565b611c5184611c4b611adb565b83612a60565b611c5d886112b8611b00565b611c69876112b8611b25565b611c71611b49565b4291612adc565b611c8186612b40565b611c8d610e8988612b40565b611ca385611c9b83856122e8565b6103436122c3565b611cab61229e565b600182018092116120a957611cbf92612adc565b60408051848152600360208201526001600160a01b038416917fe2a6ee22d9341390c54772ccd7a057ec736c430373564fd75b453e5783aa2a3691a2611d0a6104a387610154612103565b93611d37611d1a88610154612103565b611d2e88611d296101b9612138565b6124cf565b90610343612138565b60018114612016575b60028114611d69575b505090611d559161287a565b14611d5d5750565b611d6790306123f6565b565b611da56020611d79610110611927565b611d8861050c8b610154612103565b90604051808095819463c4e2347960e01b83528d60048401611b94565b03916001600160a01b03165afa908115611688575f91611fe4575b503403610b4d57611dcf6124dc565b611fd55750611ddf610110611a42565b90611deb610110611927565b91611dfb6103e289610154612103565b92611e396040611e1061050c8c610154612103565b815163eb920a1d60e01b81526001600160a01b03909416939283918291908d8a6004850161196a565b0381855afa918215611688575f915f93611fb2575b505f808080611e668760018060a01b038c16976124cf565b865af1611e7161284b565b501561072c57803b15610b4d5760245f926040519485938492635d06805160e01b845260048401525af1801561168857611f9d575b506001600160a01b0316803b1561070f57604051639859abb360e01b81526001600160a01b03841660048201526024810188905292828460448183865af18015610704578892918691611f80575b6040516304ee863560e41b81526001600160a01b039182166004820152911660248201526044810192909252600260648301529092506020908390608490829085905af1908115611f74575090611d55939291611f55575b81929350611d49565b611f6d9060203d6020116106d0576106c1818361180d565b505f611f4c565b604051903d90823e3d90fd5b92505091611f8f81809561180d565b610390578291848892611ef4565b611faa9192505f9061180d565b5f905f611ea6565b909250611fce915060403d6040116107c6576107b7818361180d565b915f611e4e565b9493505090611d679491612531565b90506020813d60201161200e575b81611fff6020938361180d565b81010312610b4d57515f611dc0565b3d9150611ff2565b6001600160a01b03612029610110611a42565b60405163ac24bcdf60e01b81526001600160a01b0386166004820152602481018990529160209183916044918391165afa908115611688575f9161208a575b5015610b4d576120766124dc565b611fd5576120858688856125d0565b611d40565b6120a3915060203d6020116102995761028b818361180d565b5f612068565b634e487b7160e01b5f52601160045260245ffd5b5060038310611bef565b506120d76103e285610154612103565b6001600160a01b0383811691161415611bd1565b50826120fc6104a386610154612103565b1015611bcb565b61210b611a6c565b604051602081019182526a26b0b935b2ba27b93232b960a91b6040820152602b8152611aa0604b8261180d565b6040519061214760408361180d565b60098252683932b6b0b4b73232b960b91b6020830152565b6040519061216e60408361180d565b6005825264707269636560d81b6020830152565b6040519061219160408361180d565b60048252636d6f646560e01b6020830152565b604051906121b360408361180d565b6007825266656e6454696d6560c81b6020830152565b604051906121d860408361180d565b6008825267697341637469766560c01b6020830152565b6121f8816129e5565b6001600160a01b03811661220a575090565b905090565b90816020910312610b4d57516001600160a01b0381168103610b4d5790565b60206122609160018060a01b035f54166040518080958194630251382f60e31b8352866004840152602483019061185f565b03915afa908115611688575f91612275575090565b61198e915060203d602011612297575b61228f818361180d565b81019061220f565b503d612285565b604051906122ad60408361180d565b600782526631b7bab73a32b960c91b6020830152565b604051906122d260408361180d565b60078252661d1c985919525960ca1b6020830152565b906040519060208201928352604082015260408152611aa060608261180d565b602092839282528051928391018483015e01015f815290565b60209061124f61234660018060a01b0360035416946040519283918683019586612308565b5190206024604051809481936321f8a72160e01b835260048301525afa908115611688575f91612275575090565b60209061124f61239960018060a01b0360035416946040519283918683019586612308565b51902060246040518094819363bd02d0f560e01b835260048301525afa908115611688575f916123c7575090565b90506020813d6020116123ee575b816123e26020938361180d565b81010312610b4d575190565b3d91506123d5565b61240282610154612103565b9061241661240e6121a4565b429084612adc565b61241e6121c9565b6003546040516001600160a01b0390911693602082019261244591839161124f9186612308565b519020823b15610b4d575f9260448492604051958693849263abfdcced60e01b845260048401528160248401525af1908115611688577f91a5fb63fec422b7d9bab0aa59ed42d2a2e0b65de9547e46eb80c8614e589432926040926124bf575b508151938452600160208501526001600160a01b031692a2565b5f6124c99161180d565b5f6124a5565b919082039182116120a957565b600460206001600160a01b036124f36101106118e4565b1660405192838092639f9a1f4560e01b82525afa908115611688575f91612518575090565b61198e915060203d6020116102995761028b818361180d565b92936020939091906125956001600160a01b0361254f6101106118e4565b169360405197889687958695631dac56fd60e01b8752600487019192608093969594919660a084019760018060a01b031684526020840152604083015260608201520152565b039134905af1908115611688575f916125b1575b5015610b4d57565b6125ca915060203d6020116102995761028b818361180d565b5f6125a9565b90612637926125e0610110611a42565b6125eb610110611927565b925f93604061260e61050c6126056103e286610154612103565b94610154612103565b815163eb920a1d60e01b8152986001600160a01b03909316928991829190888b6004850161196a565b0381845afa968715611688575f905f98612821575b506006546126a9916020916001600160a01b03169061266c908b906124cf565b604051633e23964f60e11b81526001600160a01b0380881660048301528b16602482015260448101919091529283919082905f9082906064820190565b03925af1801561168857612804575b5086612796575b803b15610b4d57604051635d06805160e01b81526001600160a01b0387166004820152965f9188916024918391905af19586156116885761274a96612781575b506040516304ee863560e41b81526001600160a01b03958616600482015294166024850152604484019190915260026064840152919290916020918491908290859082906084820190565b03926001600160a01b03165af1908115611f7457506127665750565b61277e9060203d6020116106d0576106c1818361180d565b50565b602094505f61278f9161180d565b5f936126ff565b600654604051633e23964f60e11b81526001600160a01b038481166004830152306024830152604482018a90529091602091839160649183915f91165af18015611688576127e5575b506126bf565b6127fd9060203d6020116102995761028b818361180d565b505f6127df565b61281c9060203d6020116102995761028b818361180d565b6126b8565b602098506126a991506128429060403d6040116107c6576107b7818361180d565b9890915061264c565b3d15612875573d9061285c82611843565b9161286a604051938461180d565b82523d5f602084013e565b606090565b60407fe2a6ee22d9341390c54772ccd7a057ec736c430373564fd75b453e5783aa2a36916128af600361035a86610154611aa6565b8151938452600160208501526001600160a01b031692a2565b5f9061124f6128ed60018060a01b036003541694604051928391602083019586612308565b519020602460405180948193634c373c8d60e11b835260048301525afa908115611688575f9161291b575090565b90503d805f833e61292c818361180d565b810190602081830312610b4d5780519067ffffffffffffffff8211610b4d570181601f82011215610b4d5780519061296382611843565b92612971604051948561180d565b82845260208383010111610b4d57815f9260208093018386015e8301015290565b60209061124f6129b760018060a01b0360035416946040519283918683019586612308565b519020602460405180948193633d70e7e560e11b835260048301525afa908115611688575f91612518575090565b803b15612a4f575f80916040516020810190638da5cb5b60e01b825260048152612a1060248261180d565b51915afa612a1c61284b565b90158015612a54575b612a4f57602081805181010312610b4d57602001516001600160a01b03811690819003610b4d5790565b505f90565b50602081511415612a25565b6003546040516001600160a01b0390911693926020820192612a8991839161124f919086612308565b51902090823b15610b4d5760405163ca446dd960e01b815260048101929092526001600160a01b03166024820152905f908290604490829084905af1801561168857612ad25750565b5f611d679161180d565b6003546040516001600160a01b0390911693926020820192612b0591839161124f919086612308565b51902090823b15610b4d5760445f92836040519586948593637152429d60e11b8552600485015260248401525af1801561168857612ad25750565b612b4c90610154612103565b61124f611aa0604051612b6060408261180d565b600681526574726164657360d01b602082015260405192839160208301958661230856fea2646970667358221220abf0bb8d3c901041a6218749bf9ca472b9c9145a86f2192379dbd14dbbcf58fe64736f6c634300081c0033",
  "linkReferences": {},
  "deployedLinkReferences": {}
}