{
  "_format": "hh-sol-artifact-1",
  "contractName": "MemberContract",
  "sourceName": "contracts/subcontract/MemberContract.sol",
  "abi": [
    {
      "inputs": [
        {
          "internalType": "address",
          "name": "_storage",
          "type": "address"
        },
        {
          "internalType": "address",
          "name": "_master",
          "type": "address"
        },
        {
          "internalType": "bytes32",
          "name": "_key",
          "type": "bytes32"
        }
      ],
      "stateMutability": "nonpayable",
      "type": "constructor"
    },
    {
      "anonymous": false,
      "inputs": [
        {
          "indexed": true,
          "internalType": "address",
          "name": "previousDeveloper",
          "type": "address"
        },
        {
          "indexed": true,
          "internalType": "address",
          "name": "newDeveloper",
          "type": "address"
        }
      ],
      "name": "DeveloperTransferredEvent",
      "type": "event"
    },
    {
      "anonymous": false,
      "inputs": [
        {
          "indexed": false,
          "internalType": "address",
          "name": "addr",
          "type": "address"
        },
        {
          "indexed": false,
          "internalType": "uint256",
          "name": "status",
          "type": "uint256"
        },
        {
          "indexed": false,
          "internalType": "string",
          "name": "eventText",
          "type": "string"
        }
      ],
      "name": "MemberEvent",
      "type": "event"
    },
    {
      "anonymous": false,
      "inputs": [
        {
          "indexed": false,
          "internalType": "address",
          "name": "addr",
          "type": "address"
        },
        {
          "indexed": false,
          "internalType": "uint256",
          "name": "status",
          "type": "uint256"
        },
        {
          "indexed": false,
          "internalType": "string",
          "name": "eventText",
          "type": "string"
        }
      ],
      "name": "WaitingEvent",
      "type": "event"
    },
    {
      "inputs": [
        {
          "internalType": "string",
          "name": "_name",
          "type": "string"
        },
        {
          "internalType": "string",
          "name": "_email",
          "type": "string"
        }
      ],
      "name": "addFirstOwner",
      "outputs": [],
      "stateMutability": "nonpayable",
      "type": "function"
    },
    {
      "inputs": [
        {
          "internalType": "address",
          "name": "_addr",
          "type": "address"
        },
        {
          "internalType": "string",
          "name": "_name",
          "type": "string"
        },
        {
          "internalType": "string",
          "name": "_email",
          "type": "string"
        }
      ],
      "name": "addOwner",
      "outputs": [],
      "stateMutability": "nonpayable",
      "type": "function"
    },
    {
      "inputs": [
        {
          "internalType": "uint256",
          "name": "_waitingId",
          "type": "uint256"
        }
      ],
      "name": "approveMembership",
      "outputs": [
        {
          "internalType": "bool",
          "name": "",
          "type": "bool"
        }
      ],
      "stateMutability": "nonpayable",
      "type": "function"
    },
    {
      "inputs": [],
      "name": "contractName",
      "outputs": [
        {
          "internalType": "string",
          "name": "",
          "type": "string"
        }
      ],
      "stateMutability": "view",
      "type": "function"
    },
    {
      "inputs": [],
      "name": "contractVersion",
      "outputs": [
        {
          "internalType": "string",
          "name": "",
          "type": "string"
        }
      ],
      "stateMutability": "view",
      "type": "function"
    },
    {
      "inputs": [],
      "name": "developer",
      "outputs": [
        {
          "internalType": "address payable",
          "name": "",
          "type": "address"
        }
      ],
      "stateMutability": "view",
      "type": "function"
    },
    {
      "inputs": [],
      "name": "generateServiceKey",
      "outputs": [],
      "stateMutability": "nonpayable",
      "type": "function"
    },
    {
      "inputs": [
        {
          "internalType": "uint256",
          "name": "_id",
          "type": "uint256"
        }
      ],
      "name": "getMember",
      "outputs": [
        {
          "internalType": "address",
          "name": "_addr",
          "type": "address"
        },
        {
          "internalType": "string",
          "name": "_name",
          "type": "string"
        },
        {
          "internalType": "string",
          "name": "_email",
          "type": "string"
        },
        {
          "internalType": "string",
          "name": "_position",
          "type": "string"
        },
        {
          "internalType": "uint256",
          "name": "_time",
          "type": "uint256"
        },
        {
          "internalType": "address",
          "name": "_approver",
          "type": "address"
        }
      ],
      "stateMutability": "view",
      "type": "function"
    },
    {
      "inputs": [],
      "name": "getMemberCounter",
      "outputs": [
        {
          "internalType": "uint256",
          "name": "",
          "type": "uint256"
        }
      ],
      "stateMutability": "view",
      "type": "function"
    },
    {
      "inputs": [],
      "name": "getMemberKey",
      "outputs": [
        {
          "internalType": "bytes32",
          "name": "",
          "type": "bytes32"
        }
      ],
      "stateMutability": "view",
      "type": "function"
    },
    {
      "inputs": [
        {
          "internalType": "address",
          "name": "_addr",
          "type": "address"
        }
      ],
      "name": "getMemberPic",
      "outputs": [
        {
          "internalType": "string",
          "name": "_aname",
          "type": "string"
        },
        {
          "internalType": "string",
          "name": "_adata",
          "type": "string"
        }
      ],
      "stateMutability": "view",
      "type": "function"
    },
    {
      "inputs": [],
      "name": "getMembers",
      "outputs": [
        {
          "internalType": "address[]",
          "name": "",
          "type": "address[]"
        }
      ],
      "stateMutability": "view",
      "type": "function"
    },
    {
      "inputs": [],
      "name": "getServiceKey",
      "outputs": [
        {
          "internalType": "bytes32",
          "name": "",
          "type": "bytes32"
        }
      ],
      "stateMutability": "view",
      "type": "function"
    },
    {
      "inputs": [
        {
          "internalType": "uint256",
          "name": "_id",
          "type": "uint256"
        }
      ],
      "name": "getWaiting",
      "outputs": [
        {
          "internalType": "address",
          "name": "_addr",
          "type": "address"
        },
        {
          "internalType": "string",
          "name": "_name",
          "type": "string"
        },
        {
          "internalType": "string",
          "name": "_email",
          "type": "string"
        }
      ],
      "stateMutability": "view",
      "type": "function"
    },
    {
      "inputs": [],
      "name": "getWaitingCounter",
      "outputs": [
        {
          "internalType": "uint256",
          "name": "",
          "type": "uint256"
        }
      ],
      "stateMutability": "view",
      "type": "function"
    },
    {
      "inputs": [
        {
          "internalType": "address",
          "name": "_addr",
          "type": "address"
        },
        {
          "internalType": "string",
          "name": "_name",
          "type": "string"
        },
        {
          "internalType": "string",
          "name": "_email",
          "type": "string"
        },
        {
          "internalType": "uint256",
          "name": "_value",
          "type": "uint256"
        }
      ],
      "name": "initTreasuryWallet",
      "outputs": [],
      "stateMutability": "nonpayable",
      "type": "function"
    },
    {
      "inputs": [
        {
          "internalType": "address",
          "name": "_addr",
          "type": "address"
        }
      ],
      "name": "isMember",
      "outputs": [
        {
          "internalType": "bool",
          "name": "",
          "type": "bool"
        }
      ],
      "stateMutability": "view",
      "type": "function"
    },
    {
      "inputs": [
        {
          "internalType": "address",
          "name": "addr",
          "type": "address"
        },
        {
          "internalType": "bytes32",
          "name": "key",
          "type": "bytes32"
        }
      ],
      "name": "isMemberKey",
      "outputs": [
        {
          "internalType": "bool",
          "name": "",
          "type": "bool"
        }
      ],
      "stateMutability": "view",
      "type": "function"
    },
    {
      "inputs": [
        {
          "internalType": "address",
          "name": "_addr",
          "type": "address"
        }
      ],
      "name": "isWaiting",
      "outputs": [
        {
          "internalType": "bool",
          "name": "",
          "type": "bool"
        }
      ],
      "stateMutability": "view",
      "type": "function"
    },
    {
      "inputs": [],
      "name": "register",
      "outputs": [],
      "stateMutability": "nonpayable",
      "type": "function"
    },
    {
      "inputs": [
        {
          "internalType": "string",
          "name": "_name",
          "type": "string"
        },
        {
          "internalType": "string",
          "name": "_email",
          "type": "string"
        },
        {
          "internalType": "string",
          "name": "_pname",
          "type": "string"
        },
        {
          "internalType": "string",
          "name": "_pdata",
          "type": "string"
        }
      ],
      "name": "requestMembership",
      "outputs": [
        {
          "internalType": "bool",
          "name": "",
          "type": "bool"
        }
      ],
      "stateMutability": "nonpayable",
      "type": "function"
    },
    {
      "inputs": [
        {
          "internalType": "string",
          "name": "_aname",
          "type": "string"
        },
        {
          "internalType": "string",
          "name": "_adata",
          "type": "string"
        }
      ],
      "name": "setMemberPic",
      "outputs": [],
      "stateMutability": "nonpayable",
      "type": "function"
    },
    {
      "inputs": [
        {
          "internalType": "address payable",
          "name": "newDeveloper",
          "type": "address"
        }
      ],
      "name": "transferDeveloper",
      "outputs": [],
      "stateMutability": "nonpayable",
      "type": "function"
    },
    {
      "inputs": [
        {
          "internalType": "string",
          "name": "_aname",
          "type": "string"
        },
        {
          "internalType": "string",
          "name": "_adata",
          "type": "string"
        },
        {
          "internalType": "string",
          "name": "_name",
          "type": "string"
        },
        {
          "internalType": "string",
          "name": "_email",
          "type": "string"
        },
        {
          "internalType": "string",
          "name": "_position",
          "type": "string"
        }
      ],
      "name": "updateMember",
      "outputs": [],
      "stateMutability": "nonpayable",
      "type": "function"
    },
    {
      "stateMutability": "payable",
      "type": "receive"
    }
  ],
  "bytecode": "0x608080604052346100f757606081613a8d803803809161001f82856100fb565b8339810103126100f75761003281610132565b90604061004160208301610132565b910151600180546001600160a01b039384166001600160a01b031991821681179092555f805482169092179091556002919091556003805493909216928116929092179055600580543392168217905561009a90610146565b6001600160a01b0381166100f25750335b604051602081019142835244604083015260018060601b03199060601b166060820152605481526100dd6074826100fb565b51902060065560405161389b90816101f28239f35b6100ab565b5f80fd5b601f909101601f19168101906001600160401b0382119082101761011e57604052565b634e487b7160e01b5f52604160045260245ffd5b51906001600160a01b03821682036100f757565b5f80916040516020810190638da5cb5b60e01b82526004815261016a6024826100fb565b51915afa3d156101e9573d906001600160401b03821161011e576040519161019c601f8201601f1916602001846100fb565b82523d5f602084013e5b1580156101dd575b6101d8576020818051810103126100f757602001516001600160a01b038116908190036100f75790565b505f90565b506020815114156101ae565b6060906101a656fe6080604052600436101561001a575b3615610018575f80fd5b005b5f5f3560e01c80630ade8f90146120355780631aa3a00814611f7a578063434a62ec14611e3857806362f61401146117b357806364cb4edb1461173357806375d0c0dc146116e157806380fb948c146115785780638d07ac2f146115525780638eea25651461151f57806391a3c7d2146115015780639d74689f146113f75780639eab5253146111e35780639f951be8146111bb578063a0a8e46014611187578063a230c52414611163578063a86e5ffd14610f0b578063ab3545e514610ce8578063ae1885ee14610a24578063b0622f6014610728578063c476951714610522578063ca4b208b146104f9578063ce458581146104cb578063d2629bbb1461019a5763d5a285cb1461012d575061000e565b3461019757806003193601126101975761015260018060a01b03600554163314612455565b61015b336127aa565b60405160208101914283524460408301526001600160601b03199060601b1660608201526054815261018e607482612227565b51902060065580f35b80fd5b50346101975760a0366003190112610197576004356001600160401b0381116104c7576101cb9036906004016121fa565b906024356001600160401b0381116104c3576101eb9036906004016121fa565b91906044356001600160401b0381116104bf5761020c9036906004016121fa565b91906064356001600160401b0381116104bb5761022d9036906004016121fa565b6084356001600160401b0381116104b75761024c9036906004016121fa565b939095610258336127aa565b61026181612620565b90816103a6575b50156103a2577f83ae3199aebc0967c282db500ee53f0d089a35e030891c73584d243e4c0b6bc69960a09961029c336127aa565b996102a68b61308b565b9860018311610381575b5050505060018111610364575b505060018111610347575b505060018111610322575b50505060405190600180841b031681526002602082015260606040820152601760608201527f4d656d62657220696e666f20686173206368616e6765640000000000000000006080820152a180f35b61033961033f93610331612714565b9236916124a1565b916130e6565b5f80806102d3565b61035661035d926103316126f1565b90846130e6565b5f806102c8565b61037361037a926103316126cf565b90866130e6565b5f806102bd565b610331610393926103999536916124a1565b906129c2565b5f8080806102b0565b8a80fd5b8c546103e492506020906001600160a01b03166103c16122e8565b906040518080968194630251382f60e31b835286600484015260248301906121d6565b03915afa9182156104ac578d9261047a575b506040516370a0823160e01b81526001600160a01b0391821660048201529160209183916024918391165afa90811561046f578c91610439575b5015155f610268565b90506020813d602011610467575b8161045460209383612227565b8101031261046357515f610430565b5f80fd5b3d9150610447565b6040513d8e823e3d90fd5b602091925061049e90823d84116104a5575b6104968183612227565b810190612312565b91906103f6565b503d61048c565b6040513d8f823e3d90fd5b8980fd5b8780fd5b8580fd5b8380fd5b5080fd5b50346101975760203660031901126101975760206104ef6104ea6121c0565b612782565b6040519015158152f35b50346101975780600319360112610197576005546040516001600160a01b039091168152602090f35b503461019757602036600319011261019757600435610559610543336127aa565b83546020906001600160a01b03166103c1612331565b03915afa9182156106d1578492610706575b506040516317aa5fb760e11b81526001600160a01b0391821660048201529160209183916024918391165afa9081156106fb5783916106dc575b50156104c7576105fd6105b7336127aa565b916105de6105d96105d36105ca84612a93565b92909195612f91565b84612be9565b612683565b6105e781612d9e565b83546020906001600160a01b03166103c16122e8565b03915afa80156106d15761064c9360209386926106b2575b5060405163222471df60e21b81526001600160a01b0391821660048201529216602483015290928391908290869082906044820190565b03926001600160a01b03165af19081156106a7578291610678575b501561019757602060405160018152f35b61069a915060203d6020116106a0575b6106928183612227565b81019061235b565b5f610667565b503d610688565b6040513d84823e3d90fd5b6106ca919250843d86116104a5576104968183612227565b905f610615565b6040513d86823e3d90fd5b6106f5915060203d6020116106a0576106928183612227565b5f6105a5565b6040513d85823e3d90fd5b602091925061072190823d84116104a5576104968183612227565b919061056b565b5034610197578061073836612277565b9161075b610745336127aa565b86546020906001600160a01b03166103c1612331565b03915afa918215610a195787926109f7575b506040516317aa5fb760e11b81526001600160a01b0391821660048201529160209183916024918391165afa9081156109ec5786916109cd575b50156109c9576107b6336127aa565b92811515806109c0575b156104bf576107de6107e59361033161081b976105d99536916124a1565b9084612be9565b82546001600160a01b031660206107fa612331565b60405180958192630251382f60e31b835284600484015260248301906121d6565b0381845afa9283156106d157849361099a575b5060206108609161083d6122e8565b906040518080958194630251382f60e31b835286600484015260248301906121d6565b03915afa9081156106d157849161097b575b50604051631a67241360e11b81526001600160a01b03919091169290602081600481875afa908115610970578591610951575b501561094c576001600160a01b0316803b1561094c57838091600460405180948193630744af5160e11b83525af19081156106d1578491610937575b5050813b156109335760405163056b1d0f60e11b81526001600160a01b0390911660048201529082908290602490829084905af180156106a7576109225750f35b8161092c91612227565b6101975780f35b5050fd5b8161094191612227565b61093357825f6108e1565b505050fd5b61096a915060203d6020116106a0576106928183612227565b5f6108a5565b6040513d87823e3d90fd5b610994915060203d6020116104a5576104968183612227565b5f610872565b6108609193506109b8602091823d84116104a5576104968183612227565b93915061082e565b508015156107c0565b8480fd5b6109e6915060203d6020116106a0576106928183612227565b5f6107a7565b6040513d88823e3d90fd5b6020919250610a1290823d84116104a5576104968183612227565b919061076d565b6040513d89823e3d90fd5b503461019757606036600319011261019757610a3e6121c0565b6024356001600160401b038111610c4d57610a5d9036906004016121fa565b6044356001600160401b0381116109c957610a7c9036906004016121fa565b610aa1610a8b939293336127aa565b87546020906001600160a01b03166103c1612331565b03915afa918215610cdd578892610cbb575b506040516317aa5fb760e11b81526001600160a01b0391821660048201529160209183916024918391165afa908115610a19578791610c9c575b50156104bf57610b05610aff336127aa565b956127aa565b9382151580610c93575b15610c8f57610b2a936103316107de926105d99536916124a1565b8254610b44906020906001600160a01b031661083d612331565b03915afa9081156106d1578491610c70575b50604051636145ee5360e11b81526001600160a01b03838116600483015284811660248301529091602091839160449183918991165af19081156106d1578491610c51575b5015610c4d578254610bbc91906020906001600160a01b03166103c16122e8565b03915afa80156106d157610c0a9360209386926106b2575060405163222471df60e21b81526001600160a01b0391821660048201529216602483015290928391908290869082906044820190565b03926001600160a01b03165af19081156106a7578291610c2e575b50156101975780f35b610c47915060203d6020116106a0576106928183612227565b5f610c25565b8280fd5b610c6a915060203d6020116106a0576106928183612227565b5f610b9b565b610c89915060203d6020116104a5576104968183612227565b5f610b56565b8680fd5b50811515610b0f565b610cb5915060203d6020116106a0576106928183612227565b5f610aed565b6020919250610cd690823d84116104a5576104968183612227565b9190610ab3565b6040513d8a823e3d90fd5b503461019757602036600319011261019757610d03336127aa565b81546001600160a01b031690610d3d6020610d1c6122e8565b60405180938192630251382f60e31b835284600484015260248301906121d6565b0381865afa9081156106d1578491610eec575b506001600160a01b03163314918215610e47575b50501561019757610d7e600435610d7961239e565b612b5d565b610d8f610d896125ce565b82612b7d565b610da0610d9a6126cf565b83612811565b91610db2610dac6126f1565b82612811565b610e2d610dc6610dc0612714565b84612811565b610e1f610dec610ddd610dd761273a565b87612adb565b95610de661275c565b90612b7d565b93610e1160405198899860018060a01b0316895260c060208a015260c08901906121d6565b9087820360408901526121d6565b9085820360608701526121d6565b60808401929092526001600160a01b031660a08301520390f35b610e5792506020906103c1612331565b03915afa9182156106fb578392610eca575b5060405163e5f93e9760e01b81526001600160a01b0391821660048201529160209183916024918391165afa9081156106a7578291610eab575b505f80610d64565b610ec4915060203d6020116106a0576106928183612227565b5f610ea3565b6020919250610ee590823d84116104a5576104968183612227565b9190610e69565b610f05915060203d6020116104a5576104968183612227565b5f610d50565b503461019757608036600319011261019757610f256121c0565b6024356001600160401b038111610c4d57610f449036906004016121fa565b916044356001600160401b0381116109c957610f649036906004016121fa565b929091610f73610a8b336127aa565b03915afa918215610cdd578892611141575b506040516317aa5fb760e11b81526001600160a01b0391821660048201529160209183916024918391165afa908115610a19578791611122575b50156104bf57610fce336127aa565b92610fd8826127aa565b6001600160a01b0381169690610fef881515612551565b81151580611119575b156111155761100681612620565b1580611105575b156110c05761103a9661102f611035946103316105e7986105d99636916124a1565b91612be9565b612d9e565b03915afa9182156106d157849261109d575b5060405163ebcaeda560e01b815260048101939093526064803560248501526001600160a01b039182166044850152602092849283918791165af19081156106a7578291610c2e5750156101975780f35b602092506110b9606491843d86116104a5576104968183612227565b925061104c565b60405162461bcd60e51b815260206004820152601b60248201527f4e6f7420616c6c6f7765642074726561737572792077616c6c657400000000006044820152606490fd5b5061110f81612782565b1561100d565b8880fd5b50861515610ff8565b61113b915060203d6020116106a0576106928183612227565b5f610fbf565b602091925061115c90823d84116104a5576104968183612227565b9190610f85565b50346101975760203660031901126101975760206104ef6111826121c0565b612620565b50346101975780600319360112610197576111b76111a36122c7565b6040519182916020835260208301906121d6565b0390f35b50346101975760403660031901126101975760206104ef6111da6121c0565b602435906125f0565b50346101975780600319360112610197576111fd336127aa565b81546001600160a01b0316906112166020610d1c6122e8565b0381865afa9081156106d15784916113d8575b506001600160a01b03163314918215611333575b5050156101975761125d61124f61239e565b611257612592565b90612adb565b61127f611269826125b7565b916112776040519384612227565b8083526125b7565b602082019190601f1901368337825b81518110156112e7576112ae6112a682610d7961239e565b610de66125ce565b82518210156112d3576001600160a01b0316600582901b83016020015260010161128e565b634e487b7160e01b85526032600452602485fd5b5090604051928392602084019060208552518091526040840192915b818110611311575050500390f35b82516001600160a01b0316845285945060209384019390920191600101611303565b61134392506020906103c1612331565b03915afa9182156106fb5783926113b6575b5060405163e5f93e9760e01b81526001600160a01b0391821660048201529160209183916024918391165afa9081156106a7578291611397575b505f8061123d565b6113b0915060203d6020116106a0576106928183612227565b5f61138f565b60209192506113d190823d84116104a5576104968183612227565b9190611355565b6113f1915060203d6020116104a5576104968183612227565b5f611229565b50346101975761140636612277565b919290611412336127aa565b61141b81612620565b908161143d575b50156109c9576103316103939261143a9536916124a1565b80f35b865461145892506020906001600160a01b03166103c16122e8565b03915afa918215610a195787926114df575b506040516370a0823160e01b81526001600160a01b0391821660048201529160209183916024918391165afa9081156109ec5786916114ad575b5015155f611422565b90506020813d6020116114d7575b816114c860209383612227565b8101031261046357515f6114a4565b3d91506114bb565b60209192506114fa90823d84116104a5576104968183612227565b919061146a565b50346101975780600319360112610197576020600854604051908152f35b503461019757806003193601126101975761154560018060a01b03600554163314612455565b6020600654604051908152f35b5034610197578060031936011261019757602061157061124f61239e565b604051908152f35b503461019757602036600319011261019757611593336127aa565b81546001600160a01b0316906115ac6020610d1c6122e8565b0381865afa9081156106d15784916116c2575b506001600160a01b0316331491821561161d575b505015610197576111b76115e8600435612a93565b61160f60409492945194859460018060a01b031685526060602086015260608501906121d6565b9083820360408501526121d6565b61162d92506020906103c1612331565b03915afa9182156106fb5783926116a0575b5060405163e5f93e9760e01b81526001600160a01b0391821660048201529160209183916024918391165afa9081156106a7578291611681575b505f806115d3565b61169a915060203d6020116106a0576106928183612227565b5f611679565b60209192506116bb90823d84116104a5576104968183612227565b919061163f565b6116db915060203d6020116104a5576104968183612227565b5f6115bf565b5034610197578060031936011261019757506111b7604051611704604082612227565b600e81526d13595b58995c90dbdb9d1c9858dd60921b60208201526040519182916020835260208301906121d6565b5034610197576020366003190112610197576004356001600160a01b038116908190036104c757600554816001600160a01b038216611773338214612455565b61177e821515612551565b7fd734ca01d7ec868e364f3c2cbda207212fa91c58040df183429252e85a48b2b18580a36001600160a01b0319161760055580f35b5034610197576080366003190112610197576004356001600160401b0381116104c7576117e49036906004016121fa565b916024356001600160401b0381116104c7576118049036906004016121fa565b916044356001600160401b0381116104c7576118249036906004016121fa565b9590936064356001600160401b0381116104c3576118469036906004016121fa565b9690946001600160a01b0361185a336127aa565b163303611dfa5784546001600160a01b03166118796020610d1c612331565b0381855afa908115610a19576004916020918991611ddd575b5060405163158425f560e01b815292839182906001600160a01b03165afa908115610a19578791611dbe575b5015611d795784151580611d70575b156104bf576118db33612620565b1580611d60575b156104bf5760206118f59161083d6122e8565b03915afa9081156109ec576004916020918891611d43575b50604051633800918160e21b815292839182906001600160a01b03165afa9081156109ec578691611d24575b506001600160a01b03163314611cd55760405192606084018481106001600160401b03821117611cc1579061199492916040526060855261198b602086019460608652604087019789895236916124a1565b855236916124a1565b81526001835233845260076020526040842091518051906001600160401b038211611c1b576119c384546124d7565b601f8111611c91575b50602090601f8311600114611c2f576119fc9291879183611b6f575b50508160011b915f199060031b1c19161790565b82555b51805160018301916001600160401b038211611c1b57611a1f83546124d7565b601f8111611be0575b50602090601f8311600114611b7a579180611a5c9260029695948992611b6f5750508160011b915f199060031b1c19161790565b90555b019051151560ff801983541691161790556008549068010000000000000000821015611b5b5750611a99816001611ab79301600855612525565b81546001600160a01b0360039290921b91821b19163390911b179055565b82611b40575b7f29a9ed85f99c79d7f19ec2146c4ac32deea27e27512051779b4321bd9e97631860c06040513381526003602082015260606040820152602a60608201527f4e65772077616974696e67206861732073656e742072657175657374206f662060808201526906d656d626572736869760b41b60a0820152a1602060405160018152f35b61033161039392611b529536916124a1565b5f808080611abd565b634e487b7160e01b81526041600452602490fd5b015190505f806119e8565b8387528187209190601f198416885b818110611bc8575091600193918560029897969410611bb0575b505050811b019055611a5f565b01515f1960f88460031b161c191690555f8080611ba3565b92936020600181928786015181550195019301611b89565b611c0b9084885260208820601f850160051c81019160208610611c11575b601f0160051c019061250f565b5f611a28565b9091508190611bfe565b634e487b7160e01b86526041600452602486fd5b8487528187209190601f198416885b818110611c795750908460019594939210611c61575b505050811b0182556119ff565b01515f1960f88460031b161c191690555f8080611c54565b92936020600181928786015181550195019301611c3e565b611cbb9085885260208820601f850160051c81019160208610611c1157601f0160051c019061250f565b5f6119cc565b634e487b7160e01b87526041600452602487fd5b60405162461bcd60e51b815260206004820152602160248201527f4572726f722c206974206973207468652054726561737572792057616c6c65746044820152602160f81b6064820152608490fd5b611d3d915060203d6020116104a5576104968183612227565b5f611939565b611d5a9150823d84116104a5576104968183612227565b5f61190d565b50611d6a33612782565b156118e2565b508315156118cd565b60405162461bcd60e51b815260206004820152601860248201527f4f776e657273206d75737420626520696e6974696174656400000000000000006044820152606490fd5b611dd7915060203d6020116106a0576106928183612227565b5f6118be565b611df49150823d84116104a5576104968183612227565b5f611892565b60405162461bcd60e51b815260206004820152601660248201527513db9b1e481153d0481d5cd95c9cc8185b1b1bddd95960521b6044820152606490fd5b5034610197578060031936011261019757611e52336127aa565b81546001600160a01b031690611e6b6020610d1c6122e8565b0381865afa9081156106d1578491611f5b575b506001600160a01b03163314918215611eb6575b505015610197576020611eac611ea7336127aa565b6128e8565b9050604051908152f35b611ec692506020906103c1612331565b03915afa9182156106fb578392611f39575b5060405163e5f93e9760e01b81526001600160a01b0391821660048201529160209183916024918391165afa9081156106a7578291611f1a575b505f80611e92565b611f33915060203d6020116106a0576106928183612227565b5f611f12565b6020919250611f5490823d84116104a5576104968183612227565b9190611ed8565b611f74915060203d6020116104a5576104968183612227565b5f611e7e565b5034610463575f36600319011261046357611fa060018060a01b03600554163314612455565b60018060a01b035f5416600254611fb5612373565b90611fbe6122c7565b92803b15610463575f9283611ffa9361200c6040519788968795869463163f5abb60e21b865260048601526060602486015260648501906121d6565b838103600319016044850152906121d6565b03925af1801561202a5761201e575080f35b61001891505f90612227565b6040513d5f823e3d90fd5b346104635760203660031901126104635761204e6121c0565b612057336127aa565b5f546001600160a01b0316906120706020610d1c6122e8565b0381865afa90811561202a575f916121a1575b506001600160a01b031633149182156120fc575b505015610463576120ba6120ad6120ee926127aa565b6120b561239e565b6127ca565b6111b76120da6120cb610dc0612403565b926120d461242c565b90612811565b6040519384936040855260408501906121d6565b9083820360208501526121d6565b61210c92506020906103c1612331565b03915afa91821561202a575f9261217f575b5060405163e5f93e9760e01b81526001600160a01b0391821660048201529160209183916024918391165afa90811561202a575f91612160575b508280612097565b612179915060203d6020116106a0576106928183612227565b82612158565b602091925061219a90823d84116104a5576104968183612227565b919061211e565b6121ba915060203d6020116104a5576104968183612227565b84612083565b600435906001600160a01b038216820361046357565b805180835260209291819084018484015e5f828201840152601f01601f1916010190565b9181601f84011215610463578235916001600160401b038311610463576020838186019501011161046357565b90601f801991011681019081106001600160401b0382111761224857604052565b634e487b7160e01b5f52604160045260245ffd5b6001600160401b03811161224857601f01601f191660200190565b6040600319820112610463576004356001600160401b03811161046357816122a1916004016121fa565b92909291602435906001600160401b038211610463576122c3916004016121fa565b9091565b604051906122d6604083612227565b600382526219171b60e91b6020830152565b604051906122f7604083612227565b600c82526b546f6b656e4665617475726560a01b6020830152565b9081602091031261046357516001600160a01b03811681036104635790565b60405190612340604083612227565b600c82526b4f776e65724665617475726560a01b6020830152565b90816020910312610463575180151581036104635790565b60405190612382604083612227565b600d82526c4d656d6265724665617475726560981b6020830152565b6123a6612373565b6040516123d26020828180820195805191829101875e81015f838201520301601f198101835282612227565b519020604051602081019182526526b2b6b132b960d11b6040820152602681526123fd604682612227565b51902090565b60405190612412604083612227565b600b82526a706963747572654e616d6560a81b6020830152565b6040519061243b604083612227565b600b82526a706963747572654461746160a81b6020830152565b1561245c57565b60405162461bcd60e51b815260206004820152601b60248201527f4f6e6c792074686520446576656c6f70657220726571756972656400000000006044820152606490fd5b9291926124ad8261225c565b916124bb6040519384612227565b829481845281830111610463578281602093845f960137010152565b90600182811c92168015612505575b60208310146124f157565b634e487b7160e01b5f52602260045260245ffd5b91607f16916124e6565b81811061251a575050565b5f815560010161250f565b60085481101561253d5760085f5260205f2001905f90565b634e487b7160e01b5f52603260045260245ffd5b1561255857565b60405162461bcd60e51b815260206004820152601260248201527154686973206164647265737320697320302160701b6044820152606490fd5b604051906125a1604083612227565b600782526631b7bab73a32b960c91b6020830152565b6001600160401b0381116122485760051b60200190565b604051906125dd604083612227565b600482526330b2323960e11b6020830152565b6125fd611ea783926127aa565b9214918215612616575b5050612611575f90565b600190565b1490505f80612607565b612629906127aa565b6001600160a01b03165f5b61263f61124f61239e565b81101561267d578161265382610d7961239e565b6001600160a01b039061266890610de66125ce565b161461267657600101612634565b5050600190565b50505f90565b1561268a57565b60405162461bcd60e51b815260206004820152601860248201527f4661696c656420746f20616464206e6577206d656d62657200000000000000006044820152606490fd5b604051906126de604083612227565b60048252636e616d6560e01b6020830152565b60405190612700604083612227565b6005825264195b585a5b60da1b6020830152565b60405190612723604083612227565b60088252673837b9b4ba34b7b760c11b6020830152565b60405190612749604083612227565b600482526374696d6560e01b6020830152565b6040519061276b604083612227565b600882526730b8383937bb32b960c11b6020830152565b6001600160a01b0390612794906127aa565b165f52600760205260ff600260405f2001541690565b6127b381613165565b6001600160a01b0381166127c5575090565b905090565b9060405190602082019283526001600160601b03199060601b166040820152603481526123fd605482612227565b602092839282528051928391018483015e01015f815290565b5f9061283661284460018060a01b0360035416946040519283916020830195866127f8565b03601f198101835282612227565b519020602460405180948193634c373c8d60e11b835260048301525afa90811561202a575f91612872575090565b90503d805f833e6128838183612227565b810190602081830312610463578051906001600160401b038211610463570181601f82011215610463578051906128b98261225c565b926128c76040519485612227565b8284526020838301011161046357815f9260208093018386015e8301015290565b90620f42404204600181018091116129ae57620f4240810290808204620f424014901517156129ae5780924282038281116129ae57620493e011612999575b6123fd600654926040516129638161283686602083019589879160549391835260208301526001600160601b03199060601b1660408201520190565b519020946128366040519384926020840196879160549391835260208301526001600160601b03199060601b1660408201520190565b9250620f424081018082116129ae5792612927565b634e487b7160e01b5f52601160045260245ffd5b906129f3916129e56129d66120ad336127aa565b916129df612403565b836130e6565b6129ed61242c565b906130e6565b565b9060405191825f825492612a08846124d7565b8084529360018116908115612a715750600114612a2d575b506129f392500383612227565b90505f9291925260205f20905f915b818310612a555750509060206129f3928201015f612a20565b6020919350806001915483858901015201910190918492612a3c565b9050602092506129f394915060ff191682840152151560051b8201015f612a20565b612a9c90612525565b60018060a01b0391549060031b1c1690815f526007602052612ac060405f206129f5565b90825f526007602052612ad8600160405f20016129f5565b90565b602090612836612b0060018060a01b03600354169460405192839186830195866127f8565b51902060246040518094819363bd02d0f560e01b835260048301525afa90811561202a575f91612b2e575090565b90506020813d602011612b55575b81612b4960209383612227565b81010312610463575190565b3d9150612b3c565b9060405190602082019283526040820152604081526123fd606082612227565b602090612836612ba260018060a01b03600354169460405192839186830195866127f8565b5190206024604051809481936321f8a72160e01b835260048301525afa90811561202a575f91612bd0575090565b612ad8915060203d6020116104a5576104968183612227565b919091612bf5336127aa565b916040519260e084018481106001600160401b03821117612248576040525f845260208401935f8552604081019060608252606081019260608452608082016060905260a08201945f865260c08301965f8852612c5061239e565b612c58612592565b612c6191612adb565b84526001600160a01b03908116808a52998552908552428652168552612c8561239e565b9051612c9091612b5d565b94612c996125ce565b9051612cb1916001600160a01b039091169087613201565b612cb96126cf565b9051612cc591866130e6565b612ccd6126f1565b9051612cd991856130e6565b612ce161273a565b9051612ced9184613273565b612cf561275c565b9051612d0d926001600160a01b039091169190613201565b612d1561239e565b612d1d612592565b612d2691612adb565b600181018091116129ae577f83ae3199aebc0967c282db500ee53f0d089a35e030891c73584d243e4c0b6bc691612d6f60a092612d6161239e565b612d69612592565b90613273565b60405190815260036020820152606060408201526005606082015264185919195960da1b6080820152a1600190565b5f5460408051612e03939192602091906001600160a01b0316612dc18583612227565b60158252744163636f756e74466163746f72794665617475726560581b8383015284518080978194630251382f60e31b835286600484015260248301906121d6565b03915afa928315612f39575f93612f18575b5060018060a01b0316600b61058e835190612e336020820183612227565b80825260208201906132d88239612e8b8551916020808401878152818552612e5b8986612227565b885194859383850197518091895e840190838201905f8252519283915e01015f815203601f198101835282612227565b519020835190848201528260208201528481520160ff8153605590206001600160a01b03163b15612ebb57505050565b8151639859387b60e01b8152600481019190915291602090839060249082905f906001600160a01b03165af1908115612f0f5750612ef7575b50565b612ef49060203d6020116104a5576104968183612227565b513d5f823e3d90fd5b612f3291935060203d6020116104a5576104968183612227565b915f612e15565b82513d5f823e3d90fd5b612f4d81546124d7565b9081612f57575050565b81601f5f9311600114612f68575055565b81835260208320612f8491601f0160051c81019060010161250f565b8082528160208120915555565b600854811015612ef457612fa481612525565b60018060a01b0391549060031b1c165f5260076020525f600260408220612fca81612f43565b612fd660018201612f43565b01555b6008545f1981019081116129ae578110156130495760018101908181116129ae57613043613008600193612525565b848060a01b0391549060031b1c1661301f83612525565b81546001600160a01b0393841660039290921b91821b9390911b1916919091179055565b01612fd9565b506008548015613077575f190161305f81612525565b81549060018060a01b039060031b1b19169055600855565b634e487b7160e01b5f52603160045260245ffd5b5f90815b61309a61124f61239e565b8310156130e057506130ae82610d7961239e565b916130c06130ba6125ce565b84612b7d565b6001600160a01b038381169116146130db576001019161308f565b505090565b92915050565b6003546040516001600160a01b039091169392602082019261310f9183916128369190866127f8565b51902090823b156104635761314a925f92836040518096819582946306e8995560e41b845260048401526040602484015260448301906121d6565b03925af1801561202a5761315b5750565b5f6129f391612227565b5f80916040516020810190638da5cb5b60e01b825260048152613189602482612227565b51915afa3d156131f9573d9061319e8261225c565b916131ac6040519384612227565b82523d5f602084013e5b1580156131ed575b6131e85760208180518101031261046357602001516001600160a01b038116908190036104635790565b505f90565b506020815114156131be565b6060906131b6565b6003546040516001600160a01b039091169392602082019261322a9183916128369190866127f8565b51902090823b156104635760405163ca446dd960e01b815260048101929092526001600160a01b03166024820152905f908290604490829084905af1801561202a5761315b5750565b6003546040516001600160a01b039091169392602082019261329c9183916128369190866127f8565b51902090823b156104635760445f92836040519586948593637152429d60e11b8552600485015260248401525af1801561202a5761315b575056fe608034606f57601f61058e38819003918201601f19168301916001600160401b03831184841017607357808492602094604052833981010312606f57516001600160a01b03811690819003606f575f80546001600160a01b03191691909117905560405161050690816100888239f35b5f80fd5b634e487b7160e01b5f52604160045260245ffdfe6080604052600436101561001a575b3615610018575f80fd5b005b5f3560e01c806319822f7c146102455780632e1a7d4d146101de578063853828b61461016d5780638da5cb5b146101465763b61d27f60361000e576060366003190112610142576004356001600160a01b03811681036101425760443567ffffffffffffffff811161014257366023820112156101425780600401359167ffffffffffffffff83116101425736602484840101116101425760245f939283859460405193849301833781018481520391602435905af13d1561013a573d906100e96100e483610384565b61034a565b9182523d5f602084013e5b156100fb57005b604460209160405192839162461bcd60e51b83528160048401528051918291826024860152018484015e5f828201840152601f01601f19168101030190fd5b6060906100f4565b5f80fd5b34610142575f366003190112610142575f546040516001600160a01b039091168152602090f35b34610142575f366003190112610142575f546001600160a01b031633811415806101d4575b6101c1575f8080809347908282156101b8575bf1156101ad57005b6040513d5f823e3d90fd5b506108fc6101a5565b63245aecd360e01b5f523360045260245ffd5b5030331415610192565b34610142576020366003190112610142575f54600435906001600160a01b0316338114158061023b575b6101c157478211610228575f80809381938282156101b857f1156101ad57005b47639266535160e01b5f5260045260245ffd5b5030331415610208565b346101425760603660031901126101425760043567ffffffffffffffff811161014257803603610120600319820112610142577f19457468657265756d205369676e6564204d6573736167653a0a3332000000005f52602435601c52603c5f2091610104810135916022190182121561014257019060048201359167ffffffffffffffff83116101425760248101918336038313610142576102e96100e485610384565b918483526020600486369301010111610142575f60208561031e966103159683870137840101526103a0565b909291926103da565b5f546001600160a01b039182169116036103415760205f5b60ff60405191168152f35b60206001610336565b6040519190601f01601f1916820167ffffffffffffffff81118382101761037057604052565b634e487b7160e01b5f52604160045260245ffd5b67ffffffffffffffff811161037057601f01601f191660200190565b81519190604183036103d0576103c99250602082015190606060408401519301515f1a9061044e565b9192909190565b50505f9160029190565b600481101561043a57806103ec575050565b600181036104035763f645eedf60e01b5f5260045ffd5b6002810361041e575063fce698f760e01b5f5260045260245ffd5b6003146104285750565b6335e2f38360e21b5f5260045260245ffd5b634e487b7160e01b5f52602160045260245ffd5b91907f7fffffffffffffffffffffffffffffff5d576e7357a4501ddfe92f46681b20a084116104c5579160209360809260ff5f9560405194855216868401526040830152606082015282805260015afa156101ad575f516001600160a01b038116156104bb57905f905f90565b505f906001905f90565b5050505f916003919056fea264697066735822122002a75378061a3f30c6c6ff6024c0f06a74507f65df8cbbe8cdcab9c17b8ca11d64736f6c634300081c0033a264697066735822122020494fc90c3ba16b677ca90bcd25a3f5aa6bb2161c3a50a8ecbc940cf06cd92364736f6c634300081c0033",
  "linkReferences": {},
  "deployedLinkReferences": {}
}