{
  "_format": "hh-sol-artifact-1",
  "contractName": "MemberContract",
  "sourceName": "contracts/subcontract/MemberContract.sol",
  "abi": [
    {
      "inputs": [
        {
          "internalType": "address",
          "name": "_storage",
          "type": "address"
        },
        {
          "internalType": "address",
          "name": "_master",
          "type": "address"
        },
        {
          "internalType": "bytes32",
          "name": "_key",
          "type": "bytes32"
        }
      ],
      "stateMutability": "nonpayable",
      "type": "constructor"
    },
    {
      "anonymous": false,
      "inputs": [
        {
          "indexed": true,
          "internalType": "address",
          "name": "previousDeveloper",
          "type": "address"
        },
        {
          "indexed": true,
          "internalType": "address",
          "name": "newDeveloper",
          "type": "address"
        }
      ],
      "name": "DeveloperTransferredEvent",
      "type": "event"
    },
    {
      "anonymous": false,
      "inputs": [
        {
          "indexed": false,
          "internalType": "address",
          "name": "addr",
          "type": "address"
        },
        {
          "indexed": false,
          "internalType": "uint256",
          "name": "status",
          "type": "uint256"
        },
        {
          "indexed": false,
          "internalType": "string",
          "name": "eventText",
          "type": "string"
        }
      ],
      "name": "MemberEvent",
      "type": "event"
    },
    {
      "anonymous": false,
      "inputs": [
        {
          "indexed": false,
          "internalType": "address",
          "name": "addr",
          "type": "address"
        },
        {
          "indexed": false,
          "internalType": "uint256",
          "name": "status",
          "type": "uint256"
        },
        {
          "indexed": false,
          "internalType": "string",
          "name": "eventText",
          "type": "string"
        }
      ],
      "name": "WaitingEvent",
      "type": "event"
    },
    {
      "inputs": [
        {
          "internalType": "string",
          "name": "_name",
          "type": "string"
        },
        {
          "internalType": "string",
          "name": "_email",
          "type": "string"
        }
      ],
      "name": "addFirstOwner",
      "outputs": [],
      "stateMutability": "nonpayable",
      "type": "function"
    },
    {
      "inputs": [
        {
          "internalType": "address",
          "name": "_addr",
          "type": "address"
        },
        {
          "internalType": "string",
          "name": "_name",
          "type": "string"
        },
        {
          "internalType": "string",
          "name": "_email",
          "type": "string"
        }
      ],
      "name": "addOwner",
      "outputs": [],
      "stateMutability": "nonpayable",
      "type": "function"
    },
    {
      "inputs": [
        {
          "internalType": "uint256",
          "name": "_waitingId",
          "type": "uint256"
        }
      ],
      "name": "approveMembership",
      "outputs": [
        {
          "internalType": "bool",
          "name": "",
          "type": "bool"
        }
      ],
      "stateMutability": "nonpayable",
      "type": "function"
    },
    {
      "inputs": [],
      "name": "contractName",
      "outputs": [
        {
          "internalType": "string",
          "name": "",
          "type": "string"
        }
      ],
      "stateMutability": "view",
      "type": "function"
    },
    {
      "inputs": [],
      "name": "contractVersion",
      "outputs": [
        {
          "internalType": "string",
          "name": "",
          "type": "string"
        }
      ],
      "stateMutability": "view",
      "type": "function"
    },
    {
      "inputs": [],
      "name": "developer",
      "outputs": [
        {
          "internalType": "address payable",
          "name": "",
          "type": "address"
        }
      ],
      "stateMutability": "view",
      "type": "function"
    },
    {
      "inputs": [],
      "name": "generateServiceKey",
      "outputs": [],
      "stateMutability": "nonpayable",
      "type": "function"
    },
    {
      "inputs": [
        {
          "internalType": "uint256",
          "name": "_id",
          "type": "uint256"
        }
      ],
      "name": "getMember",
      "outputs": [
        {
          "internalType": "address",
          "name": "_addr",
          "type": "address"
        },
        {
          "internalType": "string",
          "name": "_name",
          "type": "string"
        },
        {
          "internalType": "string",
          "name": "_email",
          "type": "string"
        },
        {
          "internalType": "string",
          "name": "_position",
          "type": "string"
        },
        {
          "internalType": "uint256",
          "name": "_time",
          "type": "uint256"
        },
        {
          "internalType": "address",
          "name": "_approver",
          "type": "address"
        }
      ],
      "stateMutability": "view",
      "type": "function"
    },
    {
      "inputs": [],
      "name": "getMemberCounter",
      "outputs": [
        {
          "internalType": "uint256",
          "name": "",
          "type": "uint256"
        }
      ],
      "stateMutability": "view",
      "type": "function"
    },
    {
      "inputs": [],
      "name": "getMemberKey",
      "outputs": [
        {
          "internalType": "bytes32",
          "name": "",
          "type": "bytes32"
        }
      ],
      "stateMutability": "view",
      "type": "function"
    },
    {
      "inputs": [
        {
          "internalType": "address",
          "name": "_addr",
          "type": "address"
        }
      ],
      "name": "getMemberPic",
      "outputs": [
        {
          "internalType": "string",
          "name": "_aname",
          "type": "string"
        },
        {
          "internalType": "string",
          "name": "_adata",
          "type": "string"
        }
      ],
      "stateMutability": "view",
      "type": "function"
    },
    {
      "inputs": [],
      "name": "getMembers",
      "outputs": [
        {
          "internalType": "address[]",
          "name": "",
          "type": "address[]"
        }
      ],
      "stateMutability": "view",
      "type": "function"
    },
    {
      "inputs": [],
      "name": "getServiceKey",
      "outputs": [
        {
          "internalType": "bytes32",
          "name": "",
          "type": "bytes32"
        }
      ],
      "stateMutability": "view",
      "type": "function"
    },
    {
      "inputs": [
        {
          "internalType": "uint256",
          "name": "_id",
          "type": "uint256"
        }
      ],
      "name": "getWaiting",
      "outputs": [
        {
          "internalType": "address",
          "name": "_addr",
          "type": "address"
        },
        {
          "internalType": "string",
          "name": "_name",
          "type": "string"
        },
        {
          "internalType": "string",
          "name": "_email",
          "type": "string"
        }
      ],
      "stateMutability": "view",
      "type": "function"
    },
    {
      "inputs": [],
      "name": "getWaitingCounter",
      "outputs": [
        {
          "internalType": "uint256",
          "name": "",
          "type": "uint256"
        }
      ],
      "stateMutability": "view",
      "type": "function"
    },
    {
      "inputs": [
        {
          "internalType": "address",
          "name": "_addr",
          "type": "address"
        },
        {
          "internalType": "string",
          "name": "_name",
          "type": "string"
        },
        {
          "internalType": "string",
          "name": "_email",
          "type": "string"
        },
        {
          "internalType": "uint256",
          "name": "_value",
          "type": "uint256"
        }
      ],
      "name": "initTreasuryWallet",
      "outputs": [],
      "stateMutability": "nonpayable",
      "type": "function"
    },
    {
      "inputs": [
        {
          "internalType": "address",
          "name": "_addr",
          "type": "address"
        }
      ],
      "name": "isMember",
      "outputs": [
        {
          "internalType": "bool",
          "name": "",
          "type": "bool"
        }
      ],
      "stateMutability": "view",
      "type": "function"
    },
    {
      "inputs": [
        {
          "internalType": "address",
          "name": "addr",
          "type": "address"
        },
        {
          "internalType": "bytes32",
          "name": "key",
          "type": "bytes32"
        }
      ],
      "name": "isMemberKey",
      "outputs": [
        {
          "internalType": "bool",
          "name": "",
          "type": "bool"
        }
      ],
      "stateMutability": "view",
      "type": "function"
    },
    {
      "inputs": [
        {
          "internalType": "address",
          "name": "_addr",
          "type": "address"
        }
      ],
      "name": "isWaiting",
      "outputs": [
        {
          "internalType": "bool",
          "name": "",
          "type": "bool"
        }
      ],
      "stateMutability": "view",
      "type": "function"
    },
    {
      "inputs": [],
      "name": "register",
      "outputs": [],
      "stateMutability": "nonpayable",
      "type": "function"
    },
    {
      "inputs": [
        {
          "internalType": "string",
          "name": "_name",
          "type": "string"
        },
        {
          "internalType": "string",
          "name": "_email",
          "type": "string"
        },
        {
          "internalType": "string",
          "name": "_pname",
          "type": "string"
        },
        {
          "internalType": "string",
          "name": "_pdata",
          "type": "string"
        }
      ],
      "name": "requestMembership",
      "outputs": [
        {
          "internalType": "bool",
          "name": "",
          "type": "bool"
        }
      ],
      "stateMutability": "nonpayable",
      "type": "function"
    },
    {
      "inputs": [
        {
          "internalType": "string",
          "name": "_aname",
          "type": "string"
        },
        {
          "internalType": "string",
          "name": "_adata",
          "type": "string"
        }
      ],
      "name": "setMemberPic",
      "outputs": [],
      "stateMutability": "nonpayable",
      "type": "function"
    },
    {
      "inputs": [
        {
          "internalType": "address payable",
          "name": "newDeveloper",
          "type": "address"
        }
      ],
      "name": "transferDeveloper",
      "outputs": [],
      "stateMutability": "nonpayable",
      "type": "function"
    },
    {
      "inputs": [
        {
          "internalType": "string",
          "name": "_aname",
          "type": "string"
        },
        {
          "internalType": "string",
          "name": "_adata",
          "type": "string"
        },
        {
          "internalType": "string",
          "name": "_name",
          "type": "string"
        },
        {
          "internalType": "string",
          "name": "_email",
          "type": "string"
        },
        {
          "internalType": "string",
          "name": "_position",
          "type": "string"
        }
      ],
      "name": "updateMember",
      "outputs": [],
      "stateMutability": "nonpayable",
      "type": "function"
    },
    {
      "stateMutability": "payable",
      "type": "receive"
    }
  ],
  "bytecode": "0x608080604052346100f757606081613351803803809161001f82856100fb565b8339810103126100f75761003281610132565b90604061004160208301610132565b910151600180546001600160a01b039384166001600160a01b031991821681179092555f805482169092179091556002919091556003805493909216928116929092179055600580543392168217905561009a90610146565b6001600160a01b0381166100f25750335b604051602081019142835244604083015260018060601b03199060601b166060820152605481526100dd6074826100fb565b51902060065560405161315890816101f98239f35b6100ab565b5f80fd5b601f909101601f19168101906001600160401b0382119082101761011e57604052565b634e487b7160e01b5f52604160045260245ffd5b51906001600160a01b03821682036100f757565b803b156101df575f80916040516020810190638da5cb5b60e01b8252600481526101716024826100fb565b51915afa3d156101f0573d906001600160401b03821161011e57604051916101a3601f8201601f1916602001846100fb565b82523d5f602084013e5b1580156101e4575b6101df576020818051810103126100f757602001516001600160a01b038116908190036100f75790565b505f90565b506020815114156101b5565b6060906101ad56fe6080604052600436101561001a575b3615610018575f80fd5b005b5f5f3560e01c80630ade8f901461201b5780631aa3a00814611f60578063434a62ec14611e1e57806362f614011461179957806364cb4edb1461171957806375d0c0dc146116c757806380fb948c1461155e5780638d07ac2f146115385780638eea25651461150557806391a3c7d2146114e75780639d74689f146113dd5780639eab5253146111c95780639f951be8146111a1578063a0a8e4601461116d578063a230c52414611149578063a86e5ffd14610f02578063ab3545e514610cdf578063ae1885ee14610a1b578063b0622f601461071f578063c476951714610522578063ca4b208b146104f9578063ce458581146104cb578063d2629bbb1461019a5763d5a285cb1461012d575061000e565b3461019757806003193601126101975761015260018060a01b0360055416331461243b565b61015b33612790565b60405160208101914283524460408301526001600160601b03199060601b1660608201526054815261018e60748261220d565b51902060065580f35b80fd5b50346101975760a0366003190112610197576004356001600160401b0381116104c7576101cb9036906004016121e0565b906024356001600160401b0381116104c3576101eb9036906004016121e0565b91906044356001600160401b0381116104bf5761020c9036906004016121e0565b91906064356001600160401b0381116104bb5761022d9036906004016121e0565b6084356001600160401b0381116104b75761024c9036906004016121e0565b93909561025833612790565b61026181612606565b90816103a6575b50156103a2577f83ae3199aebc0967c282db500ee53f0d089a35e030891c73584d243e4c0b6bc69960a09961029c33612790565b996102a68b612ecf565b9860018311610381575b5050505060018111610364575b505060018111610347575b505060018111610322575b50505060405190600180841b031681526002602082015260606040820152601760608201527f4d656d62657220696e666f20686173206368616e6765640000000000000000006080820152a180f35b61033961033f936103316126fa565b923691612487565b91612f2a565b5f80806102d3565b61035661035d926103316126d7565b9084612f2a565b5f806102c8565b61037361037a926103316126b5565b9086612f2a565b5f806102bd565b61033161039392610399953691612487565b906129a8565b5f8080806102b0565b8a80fd5b8c546103e492506020906001600160a01b03166103c16122ce565b906040518080968194630251382f60e31b835286600484015260248301906121bc565b03915afa9182156104ac578d9261047a575b506040516370a0823160e01b81526001600160a01b0391821660048201529160209183916024918391165afa90811561046f578c91610439575b5015155f610268565b90506020813d602011610467575b816104546020938361220d565b8101031261046357515f610430565b5f80fd5b3d9150610447565b6040513d8e823e3d90fd5b602091925061049e90823d84116104a5575b610496818361220d565b8101906122f8565b91906103f6565b503d61048c565b6040513d8f823e3d90fd5b8980fd5b8780fd5b8580fd5b8380fd5b5080fd5b50346101975760203660031901126101975760206104ef6104ea6121a6565b612768565b6040519015158152f35b50346101975780600319360112610197576005546040516001600160a01b039091168152602090f35b50346101975760203660031901126101975760043561055961054333612790565b83546020906001600160a01b03166103c1612317565b03915afa9182156106c85784926106fd575b506040516317aa5fb760e11b81526001600160a01b0391821660048201529160209183916024918391165afa9081156106f25783916106d3575b50156104c7576105f46105b733612790565b916105de6105d96105d36105ca84612a79565b92909195612dd2565b84612bcf565b612669565b83546020906001600160a01b03166103c16122ce565b03915afa80156106c8576106439360209386926106a9575b5060405163222471df60e21b81526001600160a01b0391821660048201529216602483015290928391908290869082906044820190565b03926001600160a01b03165af190811561069e57829161066f575b501561019757602060405160018152f35b610691915060203d602011610697575b610689818361220d565b810190612341565b5f61065e565b503d61067f565b6040513d84823e3d90fd5b6106c1919250843d86116104a557610496818361220d565b905f61060c565b6040513d86823e3d90fd5b6106ec915060203d60201161069757610689818361220d565b5f6105a5565b6040513d85823e3d90fd5b602091925061071890823d84116104a557610496818361220d565b919061056b565b5034610197578061072f3661225d565b9161075261073c33612790565b86546020906001600160a01b03166103c1612317565b03915afa918215610a105787926109ee575b506040516317aa5fb760e11b81526001600160a01b0391821660048201529160209183916024918391165afa9081156109e35786916109c4575b50156109c0576107ad33612790565b92811515806109b7575b156104bf576107d56107dc93610331610812976105d9953691612487565b9084612bcf565b82546001600160a01b031660206107f1612317565b60405180958192630251382f60e31b835284600484015260248301906121bc565b0381845afa9283156106c8578493610991575b506020610857916108346122ce565b906040518080958194630251382f60e31b835286600484015260248301906121bc565b03915afa9081156106c8578491610972575b50604051631a67241360e11b81526001600160a01b03919091169290602081600481875afa908115610967578591610948575b5015610943576001600160a01b0316803b1561094357838091600460405180948193630744af5160e11b83525af19081156106c857849161092e575b5050813b1561092a5760405163056b1d0f60e11b81526001600160a01b0390911660048201529082908290602490829084905af1801561069e576109195750f35b816109239161220d565b6101975780f35b5050fd5b816109389161220d565b61092a57825f6108d8565b505050fd5b610961915060203d60201161069757610689818361220d565b5f61089c565b6040513d87823e3d90fd5b61098b915060203d6020116104a557610496818361220d565b5f610869565b6108579193506109af602091823d84116104a557610496818361220d565b939150610825565b508015156107b7565b8480fd5b6109dd915060203d60201161069757610689818361220d565b5f61079e565b6040513d88823e3d90fd5b6020919250610a0990823d84116104a557610496818361220d565b9190610764565b6040513d89823e3d90fd5b503461019757606036600319011261019757610a356121a6565b6024356001600160401b038111610c4457610a549036906004016121e0565b6044356001600160401b0381116109c057610a739036906004016121e0565b610a98610a8293929333612790565b87546020906001600160a01b03166103c1612317565b03915afa918215610cd4578892610cb2575b506040516317aa5fb760e11b81526001600160a01b0391821660048201529160209183916024918391165afa908115610a10578791610c93575b50156104bf57610afc610af633612790565b95612790565b9382151580610c8a575b15610c8657610b21936103316107d5926105d9953691612487565b8254610b3b906020906001600160a01b0316610834612317565b03915afa9081156106c8578491610c67575b50604051636145ee5360e11b81526001600160a01b03838116600483015284811660248301529091602091839160449183918991165af19081156106c8578491610c48575b5015610c44578254610bb391906020906001600160a01b03166103c16122ce565b03915afa80156106c857610c019360209386926106a9575060405163222471df60e21b81526001600160a01b0391821660048201529216602483015290928391908290869082906044820190565b03926001600160a01b03165af190811561069e578291610c25575b50156101975780f35b610c3e915060203d60201161069757610689818361220d565b5f610c1c565b8280fd5b610c61915060203d60201161069757610689818361220d565b5f610b92565b610c80915060203d6020116104a557610496818361220d565b5f610b4d565b8680fd5b50811515610b06565b610cac915060203d60201161069757610689818361220d565b5f610ae4565b6020919250610ccd90823d84116104a557610496818361220d565b9190610aaa565b6040513d8a823e3d90fd5b503461019757602036600319011261019757610cfa33612790565b81546001600160a01b031690610d346020610d136122ce565b60405180938192630251382f60e31b835284600484015260248301906121bc565b0381865afa9081156106c8578491610ee3575b506001600160a01b03163314918215610e3e575b50501561019757610d75600435610d70612384565b612b43565b610d86610d806125b4565b82612b63565b610d97610d916126b5565b836127f7565b91610da9610da36126d7565b826127f7565b610e24610dbd610db76126fa565b846127f7565b610e16610de3610dd4610dce612720565b87612ac1565b95610ddd612742565b90612b63565b93610e0860405198899860018060a01b0316895260c060208a015260c08901906121bc565b9087820360408901526121bc565b9085820360608701526121bc565b60808401929092526001600160a01b031660a08301520390f35b610e4e92506020906103c1612317565b03915afa9182156106f2578392610ec1575b5060405163e5f93e9760e01b81526001600160a01b0391821660048201529160209183916024918391165afa90811561069e578291610ea2575b505f80610d5b565b610ebb915060203d60201161069757610689818361220d565b5f610e9a565b6020919250610edc90823d84116104a557610496818361220d565b9190610e60565b610efc915060203d6020116104a557610496818361220d565b5f610d47565b503461019757608036600319011261019757610f1c6121a6565b6024356001600160401b038111610c4457610f3b9036906004016121e0565b916044356001600160401b0381116109c057610f5b9036906004016121e0565b93610f68610a8233612790565b03915afa918215610cd4578892611127575b506040516317aa5fb760e11b81526001600160a01b0391821660048201529160209183916024918391165afa908115610a10578791611108575b50156104bf57610fcc610fc633612790565b93612790565b6001600160a01b03811695610fe2871515612537565b821515806110ff575b156104bb57610ff982612606565b15806110ef575b156110aa5761101e6105de94610331611024986105d9963691612487565b91612bcf565b03915afa9182156106c8578492611087575b5060405163ebcaeda560e01b815260048101939093526064803560248501526001600160a01b039182166044850152602092849283918791165af190811561069e578291610c255750156101975780f35b602092506110a3606491843d86116104a557610496818361220d565b9250611036565b60405162461bcd60e51b815260206004820152601b60248201527f4e6f7420616c6c6f7765642074726561737572792077616c6c657400000000006044820152606490fd5b506110f982612768565b15611000565b50801515610feb565b611121915060203d60201161069757610689818361220d565b5f610fb4565b602091925061114290823d84116104a557610496818361220d565b9190610f7a565b50346101975760203660031901126101975760206104ef6111686121a6565b612606565b503461019757806003193601126101975761119d6111896122ad565b6040519182916020835260208301906121bc565b0390f35b50346101975760403660031901126101975760206104ef6111c06121a6565b602435906125d6565b50346101975780600319360112610197576111e333612790565b81546001600160a01b0316906111fc6020610d136122ce565b0381865afa9081156106c85784916113be575b506001600160a01b03163314918215611319575b50501561019757611243611235612384565b61123d612578565b90612ac1565b61126561124f8261259d565b9161125d604051938461220d565b80835261259d565b602082019190601f1901368337825b81518110156112cd5761129461128c82610d70612384565b610ddd6125b4565b82518210156112b9576001600160a01b0316600582901b830160200152600101611274565b634e487b7160e01b85526032600452602485fd5b5090604051928392602084019060208552518091526040840192915b8181106112f7575050500390f35b82516001600160a01b03168452859450602093840193909201916001016112e9565b61132992506020906103c1612317565b03915afa9182156106f257839261139c575b5060405163e5f93e9760e01b81526001600160a01b0391821660048201529160209183916024918391165afa90811561069e57829161137d575b505f80611223565b611396915060203d60201161069757610689818361220d565b5f611375565b60209192506113b790823d84116104a557610496818361220d565b919061133b565b6113d7915060203d6020116104a557610496818361220d565b5f61120f565b5034610197576113ec3661225d565b9192906113f833612790565b61140181612606565b9081611423575b50156109c05761033161039392611420953691612487565b80f35b865461143e92506020906001600160a01b03166103c16122ce565b03915afa918215610a105787926114c5575b506040516370a0823160e01b81526001600160a01b0391821660048201529160209183916024918391165afa9081156109e3578691611493575b5015155f611408565b90506020813d6020116114bd575b816114ae6020938361220d565b8101031261046357515f61148a565b3d91506114a1565b60209192506114e090823d84116104a557610496818361220d565b9190611450565b50346101975780600319360112610197576020600854604051908152f35b503461019757806003193601126101975761152b60018060a01b0360055416331461243b565b6020600654604051908152f35b50346101975780600319360112610197576020611556611235612384565b604051908152f35b50346101975760203660031901126101975761157933612790565b81546001600160a01b0316906115926020610d136122ce565b0381865afa9081156106c85784916116a8575b506001600160a01b03163314918215611603575b5050156101975761119d6115ce600435612a79565b6115f560409492945194859460018060a01b031685526060602086015260608501906121bc565b9083820360408501526121bc565b61161392506020906103c1612317565b03915afa9182156106f2578392611686575b5060405163e5f93e9760e01b81526001600160a01b0391821660048201529160209183916024918391165afa90811561069e578291611667575b505f806115b9565b611680915060203d60201161069757610689818361220d565b5f61165f565b60209192506116a190823d84116104a557610496818361220d565b9190611625565b6116c1915060203d6020116104a557610496818361220d565b5f6115a5565b50346101975780600319360112610197575061119d6040516116ea60408261220d565b600e81526d13595b58995c90dbdb9d1c9858dd60921b60208201526040519182916020835260208301906121bc565b5034610197576020366003190112610197576004356001600160a01b038116908190036104c757600554816001600160a01b03821661175933821461243b565b611764821515612537565b7fd734ca01d7ec868e364f3c2cbda207212fa91c58040df183429252e85a48b2b18580a36001600160a01b0319161760055580f35b5034610197576080366003190112610197576004356001600160401b0381116104c7576117ca9036906004016121e0565b916024356001600160401b0381116104c7576117ea9036906004016121e0565b916044356001600160401b0381116104c75761180a9036906004016121e0565b9590936064356001600160401b0381116104c35761182c9036906004016121e0565b9690946001600160a01b0361184033612790565b163303611de05784546001600160a01b031661185f6020610d13612317565b0381855afa908115610a10576004916020918991611dc3575b5060405163158425f560e01b815292839182906001600160a01b03165afa908115610a10578791611da4575b5015611d5f5784151580611d56575b156104bf576118c133612606565b1580611d46575b156104bf5760206118db916108346122ce565b03915afa9081156109e3576004916020918891611d29575b50604051633800918160e21b815292839182906001600160a01b03165afa9081156109e3578691611d0a575b506001600160a01b03163314611cbb5760405192606084018481106001600160401b03821117611ca7579061197a92916040526060855261197160208601946060865260408701978989523691612487565b85523691612487565b81526001835233845260076020526040842091518051906001600160401b038211611c01576119a984546124bd565b601f8111611c77575b50602090601f8311600114611c15576119e29291879183611b55575b50508160011b915f199060031b1c19161790565b82555b51805160018301916001600160401b038211611c0157611a0583546124bd565b601f8111611bc6575b50602090601f8311600114611b60579180611a429260029695948992611b555750508160011b915f199060031b1c19161790565b90555b019051151560ff801983541691161790556008549068010000000000000000821015611b415750611a7f816001611a9d930160085561250b565b81546001600160a01b0360039290921b91821b19163390911b179055565b82611b26575b7f29a9ed85f99c79d7f19ec2146c4ac32deea27e27512051779b4321bd9e97631860c06040513381526003602082015260606040820152602a60608201527f4e65772077616974696e67206861732073656e742072657175657374206f662060808201526906d656d626572736869760b41b60a0820152a1602060405160018152f35b61033161039392611b38953691612487565b5f808080611aa3565b634e487b7160e01b81526041600452602490fd5b015190505f806119ce565b8387528187209190601f198416885b818110611bae575091600193918560029897969410611b96575b505050811b019055611a45565b01515f1960f88460031b161c191690555f8080611b89565b92936020600181928786015181550195019301611b6f565b611bf19084885260208820601f850160051c81019160208610611bf7575b601f0160051c01906124f5565b5f611a0e565b9091508190611be4565b634e487b7160e01b86526041600452602486fd5b8487528187209190601f198416885b818110611c5f5750908460019594939210611c47575b505050811b0182556119e5565b01515f1960f88460031b161c191690555f8080611c3a565b92936020600181928786015181550195019301611c24565b611ca19085885260208820601f850160051c81019160208610611bf757601f0160051c01906124f5565b5f6119b2565b634e487b7160e01b87526041600452602487fd5b60405162461bcd60e51b815260206004820152602160248201527f4572726f722c206974206973207468652054726561737572792057616c6c65746044820152602160f81b6064820152608490fd5b611d23915060203d6020116104a557610496818361220d565b5f61191f565b611d409150823d84116104a557610496818361220d565b5f6118f3565b50611d5033612768565b156118c8565b508315156118b3565b60405162461bcd60e51b815260206004820152601860248201527f4f776e657273206d75737420626520696e6974696174656400000000000000006044820152606490fd5b611dbd915060203d60201161069757610689818361220d565b5f6118a4565b611dda9150823d84116104a557610496818361220d565b5f611878565b60405162461bcd60e51b815260206004820152601660248201527513db9b1e481153d0481d5cd95c9cc8185b1b1bddd95960521b6044820152606490fd5b5034610197578060031936011261019757611e3833612790565b81546001600160a01b031690611e516020610d136122ce565b0381865afa9081156106c8578491611f41575b506001600160a01b03163314918215611e9c575b505015610197576020611e92611e8d33612790565b6128ce565b9050604051908152f35b611eac92506020906103c1612317565b03915afa9182156106f2578392611f1f575b5060405163e5f93e9760e01b81526001600160a01b0391821660048201529160209183916024918391165afa90811561069e578291611f00575b505f80611e78565b611f19915060203d60201161069757610689818361220d565b5f611ef8565b6020919250611f3a90823d84116104a557610496818361220d565b9190611ebe565b611f5a915060203d6020116104a557610496818361220d565b5f611e64565b5034610463575f36600319011261046357611f8660018060a01b0360055416331461243b565b60018060a01b035f5416600254611f9b612359565b90611fa46122ad565b92803b15610463575f9283611fe093611ff26040519788968795869463163f5abb60e21b865260048601526060602486015260648501906121bc565b838103600319016044850152906121bc565b03925af1801561201057612004575080f35b61001891505f9061220d565b6040513d5f823e3d90fd5b34610463576020366003190112610463576120346121a6565b61203d33612790565b5f546001600160a01b0316906120566020610d136122ce565b0381865afa908115612010575f91612187575b506001600160a01b031633149182156120e2575b505015610463576120a06120936120d492612790565b61209b612384565b6127b0565b61119d6120c06120b1610db76123e9565b926120ba612412565b906127f7565b6040519384936040855260408501906121bc565b9083820360208501526121bc565b6120f292506020906103c1612317565b03915afa918215612010575f92612165575b5060405163e5f93e9760e01b81526001600160a01b0391821660048201529160209183916024918391165afa908115612010575f91612146575b50828061207d565b61215f915060203d60201161069757610689818361220d565b8261213e565b602091925061218090823d84116104a557610496818361220d565b9190612104565b6121a0915060203d6020116104a557610496818361220d565b84612069565b600435906001600160a01b038216820361046357565b805180835260209291819084018484015e5f828201840152601f01601f1916010190565b9181601f84011215610463578235916001600160401b038311610463576020838186019501011161046357565b90601f801991011681019081106001600160401b0382111761222e57604052565b634e487b7160e01b5f52604160045260245ffd5b6001600160401b03811161222e57601f01601f191660200190565b6040600319820112610463576004356001600160401b0381116104635781612287916004016121e0565b92909291602435906001600160401b038211610463576122a9916004016121e0565b9091565b604051906122bc60408361220d565b600382526219171b60e91b6020830152565b604051906122dd60408361220d565b600c82526b546f6b656e4665617475726560a01b6020830152565b9081602091031261046357516001600160a01b03811681036104635790565b6040519061232660408361220d565b600c82526b4f776e65724665617475726560a01b6020830152565b90816020910312610463575180151581036104635790565b6040519061236860408361220d565b600d82526c4d656d6265724665617475726560981b6020830152565b61238c612359565b6040516123b86020828180820195805191829101875e81015f838201520301601f19810183528261220d565b519020604051602081019182526526b2b6b132b960d11b6040820152602681526123e360468261220d565b51902090565b604051906123f860408361220d565b600b82526a706963747572654e616d6560a81b6020830152565b6040519061242160408361220d565b600b82526a706963747572654461746160a81b6020830152565b1561244257565b60405162461bcd60e51b815260206004820152601b60248201527f4f6e6c792074686520446576656c6f70657220726571756972656400000000006044820152606490fd5b92919261249382612242565b916124a1604051938461220d565b829481845281830111610463578281602093845f960137010152565b90600182811c921680156124eb575b60208310146124d757565b634e487b7160e01b5f52602260045260245ffd5b91607f16916124cc565b818110612500575050565b5f81556001016124f5565b6008548110156125235760085f5260205f2001905f90565b634e487b7160e01b5f52603260045260245ffd5b1561253e57565b60405162461bcd60e51b815260206004820152601260248201527154686973206164647265737320697320302160701b6044820152606490fd5b6040519061258760408361220d565b600782526631b7bab73a32b960c91b6020830152565b6001600160401b03811161222e5760051b60200190565b604051906125c360408361220d565b600482526330b2323960e11b6020830152565b6125e3611e8d8392612790565b92149182156125fc575b50506125f7575f90565b600190565b1490505f806125ed565b61260f90612790565b6001600160a01b03165f5b612625611235612384565b811015612663578161263982610d70612384565b6001600160a01b039061264e90610ddd6125b4565b161461265c5760010161261a565b5050600190565b50505f90565b1561267057565b60405162461bcd60e51b815260206004820152601860248201527f4661696c656420746f20616464206e6577206d656d62657200000000000000006044820152606490fd5b604051906126c460408361220d565b60048252636e616d6560e01b6020830152565b604051906126e660408361220d565b6005825264195b585a5b60da1b6020830152565b6040519061270960408361220d565b60088252673837b9b4ba34b7b760c11b6020830152565b6040519061272f60408361220d565b600482526374696d6560e01b6020830152565b6040519061275160408361220d565b600882526730b8383937bb32b960c11b6020830152565b6001600160a01b039061277a90612790565b165f52600760205260ff600260405f2001541690565b61279981612fa9565b6001600160a01b0381166127ab575090565b905090565b9060405190602082019283526001600160601b03199060601b166040820152603481526123e360548261220d565b602092839282528051928391018483015e01015f815290565b5f9061281c61282a60018060a01b0360035416946040519283916020830195866127de565b03601f19810183528261220d565b519020602460405180948193634c373c8d60e11b835260048301525afa908115612010575f91612858575090565b90503d805f833e612869818361220d565b810190602081830312610463578051906001600160401b038211610463570181601f820112156104635780519061289f82612242565b926128ad604051948561220d565b8284526020838301011161046357815f9260208093018386015e8301015290565b90620f424042046001810180911161299457620f4240810290808204620f4240149015171561299457809242820382811161299457620493e01161297f575b6123e3600654926040516129498161281c86602083019589879160549391835260208301526001600160601b03199060601b1660408201520190565b5190209461281c6040519384926020840196879160549391835260208301526001600160601b03199060601b1660408201520190565b9250620f42408101808211612994579261290d565b634e487b7160e01b5f52601160045260245ffd5b906129d9916129cb6129bc61209333612790565b916129c56123e9565b83612f2a565b6129d3612412565b90612f2a565b565b9060405191825f8254926129ee846124bd565b8084529360018116908115612a575750600114612a13575b506129d99250038361220d565b90505f9291925260205f20905f915b818310612a3b5750509060206129d9928201015f612a06565b6020919350806001915483858901015201910190918492612a22565b9050602092506129d994915060ff191682840152151560051b8201015f612a06565b612a829061250b565b60018060a01b0391549060031b1c1690815f526007602052612aa660405f206129db565b90825f526007602052612abe600160405f20016129db565b90565b60209061281c612ae660018060a01b03600354169460405192839186830195866127de565b51902060246040518094819363bd02d0f560e01b835260048301525afa908115612010575f91612b14575090565b90506020813d602011612b3b575b81612b2f6020938361220d565b81010312610463575190565b3d9150612b22565b9060405190602082019283526040820152604081526123e360608261220d565b60209061281c612b8860018060a01b03600354169460405192839186830195866127de565b5190206024604051809481936321f8a72160e01b835260048301525afa908115612010575f91612bb6575090565b612abe915060203d6020116104a557610496818361220d565b919091612bdb33612790565b916040519260e084018481106001600160401b0382111761222e576040525f845260208401935f8552604081019060608252606081019260608452608082016060905260a08201945f865260c08301965f8852612c36612384565b612c3e612578565b612c4791612ac1565b84526001600160a01b03908116808a52998552908552428652168552612c6b612384565b9051612c7691612b43565b94612c7f6125b4565b9051612c97916001600160a01b03909116908761304c565b612c9f6126b5565b9051612cab9186612f2a565b612cb36126d7565b9051612cbf9185612f2a565b612cc7612720565b9051612cd391846130be565b612cdb612742565b9051612cf3926001600160a01b03909116919061304c565b612cfb612384565b612d03612578565b612d0c91612ac1565b60018101809111612994577f83ae3199aebc0967c282db500ee53f0d089a35e030891c73584d243e4c0b6bc691612d5560a092612d47612384565b612d4f612578565b906130be565b60405190815260036020820152606060408201526005606082015264185919195960da1b6080820152a1600190565b612d8e81546124bd565b9081612d98575050565b81601f5f9311600114612da9575055565b81835260208320612dc591601f0160051c8101906001016124f5565b8082528160208120915555565b600854811015612ecc57612de58161250b565b60018060a01b0391549060031b1c165f5260076020525f600260408220612e0b81612d84565b612e1760018201612d84565b01555b6008545f19810190811161299457811015612e8a57600181019081811161299457612e84612e4960019361250b565b848060a01b0391549060031b1c16612e608361250b565b81546001600160a01b0393841660039290921b91821b9390911b1916919091179055565b01612e1a565b506008548015612eb8575f1901612ea08161250b565b81549060018060a01b039060031b1b19169055600855565b634e487b7160e01b5f52603160045260245ffd5b50565b5f90815b612ede611235612384565b831015612f245750612ef282610d70612384565b91612f04612efe6125b4565b84612b63565b6001600160a01b03838116911614612f1f5760010191612ed3565b505090565b92915050565b6003546040516001600160a01b0390911693926020820192612f5391839161281c9190866127de565b51902090823b1561046357612f8e925f92836040518096819582946306e8995560e41b845260048401526040602484015260448301906121bc565b03925af1801561201057612f9f5750565b5f6129d99161220d565b803b15613033575f80916040516020810190638da5cb5b60e01b825260048152612fd460248261220d565b51915afa3d15613044573d90612fe982612242565b91612ff7604051938461220d565b82523d5f602084013e5b158015613038575b6130335760208180518101031261046357602001516001600160a01b038116908190036104635790565b505f90565b50602081511415613009565b606090613001565b6003546040516001600160a01b039091169392602082019261307591839161281c9190866127de565b51902090823b156104635760405163ca446dd960e01b815260048101929092526001600160a01b03166024820152905f908290604490829084905af1801561201057612f9f5750565b6003546040516001600160a01b03909116939260208201926130e791839161281c9190866127de565b51902090823b156104635760445f92836040519586948593637152429d60e11b8552600485015260248401525af1801561201057612f9f575056fea2646970667358221220d2f4d93566dad5f060fa1a1e20cd1893129730044b0cd2ad1e9d9268378c8daf64736f6c634300081c0033",
  "linkReferences": {},
  "deployedLinkReferences": {}
}