{
  "_format": "hh-sol-artifact-1",
  "contractName": "OraclizeContract",
  "sourceName": "contracts/subcontract/OraclizeContract.sol",
  "abi": [
    {
      "inputs": [
        {
          "internalType": "address",
          "name": "_storage",
          "type": "address"
        },
        {
          "internalType": "address",
          "name": "_master",
          "type": "address"
        },
        {
          "internalType": "bytes32",
          "name": "_key",
          "type": "bytes32"
        },
        {
          "internalType": "address",
          "name": "_oracleETHUSD",
          "type": "address"
        },
        {
          "internalType": "address",
          "name": "_oracleEURUSD",
          "type": "address"
        }
      ],
      "stateMutability": "nonpayable",
      "type": "constructor"
    },
    {
      "anonymous": false,
      "inputs": [
        {
          "indexed": true,
          "internalType": "address",
          "name": "previousDeveloper",
          "type": "address"
        },
        {
          "indexed": true,
          "internalType": "address",
          "name": "newDeveloper",
          "type": "address"
        }
      ],
      "name": "DeveloperTransferredEvent",
      "type": "event"
    },
    {
      "anonymous": false,
      "inputs": [
        {
          "indexed": false,
          "internalType": "address",
          "name": "initiator",
          "type": "address"
        },
        {
          "indexed": false,
          "internalType": "uint256",
          "name": "newData",
          "type": "uint256"
        },
        {
          "indexed": false,
          "internalType": "string",
          "name": "name",
          "type": "string"
        }
      ],
      "name": "FiatConnectorDataChanged",
      "type": "event"
    },
    {
      "anonymous": false,
      "inputs": [
        {
          "indexed": false,
          "internalType": "string",
          "name": "infoText",
          "type": "string"
        }
      ],
      "name": "LogOraclize",
      "type": "event"
    },
    {
      "anonymous": false,
      "inputs": [
        {
          "indexed": false,
          "internalType": "string",
          "name": "infoText",
          "type": "string"
        }
      ],
      "name": "LogPriceUpdated",
      "type": "event"
    },
    {
      "anonymous": false,
      "inputs": [
        {
          "indexed": false,
          "internalType": "string",
          "name": "infoText",
          "type": "string"
        },
        {
          "indexed": false,
          "internalType": "uint256",
          "name": "feeValue",
          "type": "uint256"
        },
        {
          "indexed": false,
          "internalType": "address",
          "name": "addr",
          "type": "address"
        }
      ],
      "name": "LogSendFee",
      "type": "event"
    },
    {
      "anonymous": false,
      "inputs": [
        {
          "indexed": false,
          "internalType": "address",
          "name": "initiator",
          "type": "address"
        },
        {
          "indexed": false,
          "internalType": "address",
          "name": "newAddress",
          "type": "address"
        },
        {
          "indexed": false,
          "internalType": "string",
          "name": "name",
          "type": "string"
        }
      ],
      "name": "PriceFeedChanged",
      "type": "event"
    },
    {
      "inputs": [],
      "name": "MIN_ETH_PRICE",
      "outputs": [
        {
          "internalType": "uint256",
          "name": "",
          "type": "uint256"
        }
      ],
      "stateMutability": "view",
      "type": "function"
    },
    {
      "inputs": [],
      "name": "MIN_EUR_RATE",
      "outputs": [
        {
          "internalType": "uint256",
          "name": "",
          "type": "uint256"
        }
      ],
      "stateMutability": "view",
      "type": "function"
    },
    {
      "inputs": [
        {
          "internalType": "address",
          "name": "_addr",
          "type": "address"
        }
      ],
      "name": "changeFiatProvider",
      "outputs": [],
      "stateMutability": "nonpayable",
      "type": "function"
    },
    {
      "inputs": [],
      "name": "contractName",
      "outputs": [
        {
          "internalType": "string",
          "name": "",
          "type": "string"
        }
      ],
      "stateMutability": "view",
      "type": "function"
    },
    {
      "inputs": [],
      "name": "contractVersion",
      "outputs": [
        {
          "internalType": "string",
          "name": "",
          "type": "string"
        }
      ],
      "stateMutability": "view",
      "type": "function"
    },
    {
      "inputs": [
        {
          "internalType": "uint256",
          "name": "amount",
          "type": "uint256"
        },
        {
          "internalType": "string",
          "name": "price",
          "type": "string"
        }
      ],
      "name": "countDeal",
      "outputs": [
        {
          "internalType": "uint256",
          "name": "",
          "type": "uint256"
        }
      ],
      "stateMutability": "pure",
      "type": "function"
    },
    {
      "inputs": [
        {
          "internalType": "address",
          "name": "addr",
          "type": "address"
        },
        {
          "internalType": "uint256",
          "name": "amount",
          "type": "uint256"
        }
      ],
      "name": "countFees",
      "outputs": [
        {
          "internalType": "uint256",
          "name": "",
          "type": "uint256"
        }
      ],
      "stateMutability": "view",
      "type": "function"
    },
    {
      "inputs": [
        {
          "internalType": "address",
          "name": "addr",
          "type": "address"
        },
        {
          "internalType": "uint256",
          "name": "amount",
          "type": "uint256"
        },
        {
          "internalType": "string",
          "name": "price",
          "type": "string"
        }
      ],
      "name": "countPayment",
      "outputs": [
        {
          "internalType": "uint256",
          "name": "deal",
          "type": "uint256"
        },
        {
          "internalType": "uint256",
          "name": "fees",
          "type": "uint256"
        }
      ],
      "stateMutability": "view",
      "type": "function"
    },
    {
      "inputs": [],
      "name": "developer",
      "outputs": [
        {
          "internalType": "address payable",
          "name": "",
          "type": "address"
        }
      ],
      "stateMutability": "view",
      "type": "function"
    },
    {
      "inputs": [],
      "name": "getFeesIndex",
      "outputs": [
        {
          "internalType": "string",
          "name": "",
          "type": "string"
        }
      ],
      "stateMutability": "view",
      "type": "function"
    },
    {
      "inputs": [],
      "name": "getFeesWallet",
      "outputs": [
        {
          "internalType": "address",
          "name": "",
          "type": "address"
        }
      ],
      "stateMutability": "view",
      "type": "function"
    },
    {
      "inputs": [],
      "name": "getTransferCount",
      "outputs": [
        {
          "internalType": "uint256",
          "name": "",
          "type": "uint256"
        }
      ],
      "stateMutability": "view",
      "type": "function"
    },
    {
      "inputs": [
        {
          "internalType": "address",
          "name": "_addr",
          "type": "address"
        }
      ],
      "name": "getTransferCountForAddress",
      "outputs": [
        {
          "internalType": "uint256",
          "name": "_value",
          "type": "uint256"
        }
      ],
      "stateMutability": "view",
      "type": "function"
    },
    {
      "inputs": [],
      "name": "getUseEuro",
      "outputs": [
        {
          "internalType": "bool",
          "name": "",
          "type": "bool"
        }
      ],
      "stateMutability": "view",
      "type": "function"
    },
    {
      "inputs": [
        {
          "internalType": "uint256",
          "name": "_ftc",
          "type": "uint256"
        },
        {
          "internalType": "bool",
          "name": "_eu",
          "type": "bool"
        },
        {
          "internalType": "address",
          "name": "_fw",
          "type": "address"
        },
        {
          "internalType": "string",
          "name": "_fi",
          "type": "string"
        }
      ],
      "name": "init",
      "outputs": [],
      "stateMutability": "nonpayable",
      "type": "function"
    },
    {
      "inputs": [],
      "name": "oneETHtoEUR",
      "outputs": [
        {
          "internalType": "uint256",
          "name": "",
          "type": "uint256"
        }
      ],
      "stateMutability": "view",
      "type": "function"
    },
    {
      "inputs": [],
      "name": "oneETHtoUSD",
      "outputs": [
        {
          "internalType": "uint256",
          "name": "",
          "type": "uint256"
        }
      ],
      "stateMutability": "view",
      "type": "function"
    },
    {
      "inputs": [],
      "name": "oneEURtoETH",
      "outputs": [
        {
          "internalType": "uint256",
          "name": "",
          "type": "uint256"
        }
      ],
      "stateMutability": "view",
      "type": "function"
    },
    {
      "inputs": [],
      "name": "oneEURtoUSD",
      "outputs": [
        {
          "internalType": "uint256",
          "name": "",
          "type": "uint256"
        }
      ],
      "stateMutability": "view",
      "type": "function"
    },
    {
      "inputs": [],
      "name": "oneUSDtoETH",
      "outputs": [
        {
          "internalType": "uint256",
          "name": "",
          "type": "uint256"
        }
      ],
      "stateMutability": "view",
      "type": "function"
    },
    {
      "inputs": [],
      "name": "register",
      "outputs": [],
      "stateMutability": "nonpayable",
      "type": "function"
    },
    {
      "inputs": [
        {
          "internalType": "address",
          "name": "addr",
          "type": "address"
        }
      ],
      "name": "sendFees",
      "outputs": [],
      "stateMutability": "payable",
      "type": "function"
    },
    {
      "inputs": [
        {
          "internalType": "uint256",
          "name": "_minETHPrice",
          "type": "uint256"
        }
      ],
      "name": "setMinETHPrice",
      "outputs": [],
      "stateMutability": "nonpayable",
      "type": "function"
    },
    {
      "inputs": [
        {
          "internalType": "uint256",
          "name": "_minEURRate",
          "type": "uint256"
        }
      ],
      "name": "setMinEURRate",
      "outputs": [],
      "stateMutability": "nonpayable",
      "type": "function"
    },
    {
      "inputs": [
        {
          "internalType": "address",
          "name": "_oracleETHUSD",
          "type": "address"
        }
      ],
      "name": "setPriceFeedETHUSD",
      "outputs": [],
      "stateMutability": "nonpayable",
      "type": "function"
    },
    {
      "inputs": [
        {
          "internalType": "address",
          "name": "_oracleEURUSD",
          "type": "address"
        }
      ],
      "name": "setPriceFeedEURUSD",
      "outputs": [],
      "stateMutability": "nonpayable",
      "type": "function"
    },
    {
      "inputs": [
        {
          "internalType": "address payable",
          "name": "newDeveloper",
          "type": "address"
        }
      ],
      "name": "transferDeveloper",
      "outputs": [],
      "stateMutability": "nonpayable",
      "type": "function"
    },
    {
      "stateMutability": "payable",
      "type": "receive"
    }
  ],
  "bytecode": "0x6080346100ff57601f61153338819003918201601f19168301916001600160401b038311848410176101035780849260a0946040528339810103126100ff5761004781610117565b9061005460208201610117565b916040820151610072608061006b60608601610117565b9401610117565b5f80546001600160a01b031990811633179091556002805482166001600160a01b0397881690811790915560018054831690911790556003929092556004805483169386169390931790925566038d7ea4c680006008556305f5e10060095560068054821693851693909317909255600780549092169216919091179055604051611407908161012c8239f35b5f80fd5b634e487b7160e01b5f52604160045260245ffd5b51906001600160a01b03821682036100ff5756fe608080604052600436101561001c575b50361561001a575f80fd5b005b5f905f3560e01c908163040e55f514610c5a5750806312c0e66f14610c2c578063139f122d14610c095780631aa3a00814610b4a5780633a68ca7814610ac95780634d05c01c14610a4757806350c1295f14610a2c578063528faffe1461085a578063530030601461083c57806353f882f4146107a857806354bef47a1461078c5780635c9f87c8146107615780635d068051146105ed57806364cb4edb14610535578063678294df1461051a5780636aded5861461047a57806375d0c0dc146104265780638f2064ab146104035780639b9ecc99146103e5578063a0a8e460146103b1578063b639081014610311578063ba70f7ad146102a4578063c4e234791461025b578063ca4b208b14610234578063dc713af2146101ef578063ea8a4593146101c65763eb920a1d0361000f57346101c35760603660031901126101c357610166610c74565b602435916044359067ffffffffffffffff82116101c35760406101a36101b6866101b0876101a88361019b3660048c01610c8a565b979093611038565b6111d0565b943691611002565b90611271565b9082519182526020820152f35b80fd5b50346101c357806003193601126101c357600b546040516001600160a01b039091168152602090f35b50346101c357806003193601126101c357600754610215906001600160a01b0316611140565b90508015610229576020905b604051908152f35b506020600954610221565b50346101c357806003193601126101c357546040516001600160a01b039091168152602090f35b50346101c35760403660031901126101c3576024359067ffffffffffffffff82116101c357602061022161029c6102953660048701610c8a565b3691611002565b600435611271565b50346101c357806003193601126101c3576006546102ca906001600160a01b0316611140565b80156102dc5760209150604051908152f35b506008549081156102fd57506020906a52b7d2dcc80cd2e400000004610221565b634e487b7160e01b81526012600452602490fd5b50346101c35760203660031901126101c3577ffc1b4cfdb03bbcf87ef57076c1f1631fb7f60889e7f090402eee769b77348ca260a061034e610c74565b610361600180841b038554163314610d4f565b600180831b0316806001600160601b03831b600654161760065560405190338252602082015260606040820152600f60608201526e1c1c9a58d9519959591155121554d1608a1b6080820152a180f35b50346101c357806003193601126101c3576103e16103cd610d2e565b604051918291602083526020830190610cb8565b0390f35b50346101c357806003193601126101c3576020600854604051908152f35b50346101c357806003193601126101c357602060ff600d54166040519015158152f35b50346101c357806003193601126101c357506103e1604051610449604082610cdc565b601081526f13dc9858db1a5e9950dbdb9d1c9858dd60821b6020820152604051918291602083526020830190610cb8565b50346101c35760203660031901126101c3577ffc1b4cfdb03bbcf87ef57076c1f1631fb7f60889e7f090402eee769b77348ca260a06104b7610c74565b6104ca600180841b038554163314610d4f565b600180831b0316806001600160601b03831b600754161760075560405190338252602082015260606040820152600f60608201526e1c1c9a58d9519959591155549554d1608a1b6080820152a180f35b50346101c357806003193601126101c3576020610221610f9d565b50346101c35760203660031901126101c3576004356001600160a01b038116908190036105e95781546001600160a01b038116610573338214610d4f565b82156105af5782907fd734ca01d7ec868e364f3c2cbda207212fa91c58040df183429252e85a48b2b18580a36001600160a01b03191617815580f35b60405162461bcd60e51b815260206004820152601260248201527154686973206164647265737320697320302160701b6044820152606490fd5b5080fd5b5060203660031901126101c35761060a610605610c74565b611038565b9061061482610d9b565b9181341580156106b3575b50506001830180931161069f57600454919283926001600160a01b03169161064690611058565b90823b1561069a5760448492836040519586948593637152429d60e11b8552600485015260248401525af1801561068f5761067e5750f35b8161068891610cdc565b6101c35780f35b6040513d84823e3d90fd5b505050fd5b634e487b7160e01b82526011600452602482fd5b600b5482918291829182916001600160a01b031690610757575b3491f11561074a577f1e39f8a3ff0435001686d2ce22c0716fa01e82f5ea942b84b1f6a39856880aa560a0600180821b03600b54166040519060608252601c60608301527f466565206861732073656e64656420746f206665657357616c6c65740000000060808301523460208301526040820152a1815f61061f565b50604051903d90823e3d90fd5b6108fc91506106cd565b50346101c35760403660031901126101c3576020610221610780610c74565b6101a360243591611038565b50346101c357806003193601126101c3576103e16103cd610ef9565b50346101c357806003193601126101c3576007546107ce906001600160a01b0316611140565b6006549091906107e6906001600160a01b0316611140565b9082151580610833575b1561081057506108076020926305f5e10092610ed2565b04604051908152f35b9150506008549081156102fd57506020906a52b7d2dcc80cd2e400000004610221565b508115156107f0565b50346101c357806003193601126101c3576020600954604051908152f35b50346101c35760803660031901126101c357602435908115158092036101c3576044356001600160a01b038116908190036105e95760643567ffffffffffffffff8111610a28576108af903690600401610c8a565b9190936108c660018060a01b038554163314610d4f565b600435600a5560ff8019600d5416911617600d556001600160601b0360a01b600b541617600b5567ffffffffffffffff8111610a1457610907600c54610e9a565b601f81116109b0575b5081601f821160011461094957829382939261093e575b50508160011b915f199060031b1c191617600c5580f35b013590505f80610927565b601f198216935f5160206113b25f395f51905f5291845b868110610998575083600195961061097f575b505050811b01600c5580f35b01355f19600384901b60f8161c191690555f8080610973565b90926020600181928686013581550194019101610960565b601f820160051c5f5160206113b25f395f51905f520190602083106109ff575b601f0160051c5f5160206113b25f395f51905f5201905b8181106109f45750610910565b8381556001016109e7565b5f5160206113b25f395f51905f5291506109d0565b634e487b7160e01b82526041600452602482fd5b8280fd5b50346101c357806003193601126101c3576020610221610e62565b50346101c35760203660031901126101c3577ef4f3fe233f7db392361208f93835a82ed69e16d275f34157a086215fa8125460a0600435610a91600180841b038554163314610d4f565b8060085560405190338252602082015260606040820152600d60608201526c4d494e5f4554485f505249434560981b6080820152a180f35b50346101c35760203660031901126101c3577ef4f3fe233f7db392361208f93835a82ed69e16d275f34157a086215fa8125460a0600435610b13600180841b038554163314610d4f565b8060095560405190338252602082015260606040820152600c60608201526b4d494e5f4555525f5241544560a01b6080820152a180f35b5034610c05575f366003190112610c0557610b6f60018060a01b035f54163314610d4f565b60018060a01b0360015416600354610b85610e17565b90610b8e610d2e565b92803b15610c05575f9283610bca93610bdc6040519788968795869463163f5abb60e21b86526004860152606060248601526064850190610cb8565b83810360031901604485015290610cb8565b03925af18015610bfa57610bee575080f35b61001a91505f90610cdc565b6040513d5f823e3d90fd5b5f80fd5b34610c05576020366003190112610c05576020610221610c27610c74565b610d9b565b34610c05576020366003190112610c0557610c45610c74565b5061001a60018060a01b035f54163314610d4f565b34610c05575f366003190112610c0557602090600a548152f35b600435906001600160a01b0382168203610c0557565b9181601f84011215610c055782359167ffffffffffffffff8311610c055760208381860195010111610c0557565b805180835260209291819084018484015e5f828201840152601f01601f1916010190565b90601f8019910116810190811067ffffffffffffffff821117610cfe57604052565b634e487b7160e01b5f52604160045260245ffd5b67ffffffffffffffff8111610cfe57601f01601f191660200190565b60405190610d3d604083610cdc565b6003825262322e3560e81b6020830152565b15610d5657565b60405162461bcd60e51b815260206004820152601b60248201527f4f6e6c792074686520446576656c6f70657220726571756972656400000000006044820152606490fd5b610da490611038565b6004546001600160a01b031690602090610dbd90611058565b60246040518094819363bd02d0f560e01b835260048301525afa908115610bfa575f91610de8575090565b90506020813d602011610e0f575b81610e0360209383610cdc565b81010312610c05575190565b3d9150610df6565b60405190610e26604083610cdc565b600f82526e4f7261636c697a654665617475726560881b6020830152565b8115610e4e570490565b634e487b7160e01b5f52601260045260245ffd5b600654610e77906001600160a01b0316611140565b801580610e9257610e4e576a52b7d2dcc80cd2e40000000490565b505060085490565b90600182811c92168015610ec8575b6020831014610eb457565b634e487b7160e01b5f52602260045260245ffd5b91607f1691610ea9565b81810292918115918404141715610ee557565b634e487b7160e01b5f52601160045260245ffd5b604051905f82600c5491610f0c83610e9a565b8083529260018116908115610f7e5750600114610f32575b610f3092500383610cdc565b565b50600c5f90815290915f5160206113b25f395f51905f525b818310610f62575050906020610f3092820101610f24565b6020919350806001915483858901015201910190918492610f4a565b60209250610f3094915060ff191682840152151560051b820101610f24565b600754610fb2906001600160a01b0316611140565b600654610fc7906001600160a01b0316611140565b9080151580610ff9575b15610e9257610fdf91610ed2565b8015610e4e576e01ed09bead87c0378d8e64000000000490565b50811515610fd1565b92919261100e82610d12565b9161101c6040519384610cdc565b829481845281830111610c05578281602093845f960137010152565b611041816112a1565b6001600160a01b038116611053575090565b905090565b611060610e17565b60405161108c6020828180820195805191829101875e81015f838201520301601f198101835282610cdc565b5190206040516020810191825271467265655472616e73666572436f756e747360701b6040820152603281526110c3605282610cdc565b5190209060405190602082019283526001600160601b03199060601b166040820152603481526110f4605482610cdc565b51902090565b3d15611124573d9061110b82610d12565b916111196040519384610cdc565b82523d5f602084013e565b606090565b519069ffffffffffffffffffff82168203610c0557565b5f80916040516020810190633fabe5a360e21b825260048152611164602482610cdc565b51916001600160a01b03165afa6111796110fa565b90806111c4575b61118957505f90565b60a081805181010312610c05576111a260208201611129565b506111b460a060408301519201611129565b505f81136111c157505f90565b90565b50602081511015611180565b6111d990610d9b565b600a541161125e576111f16111ec610ef9565b611317565b919060ff600d54165f14611243576112269261122061121a61121593611215610f9d565b610ed2565b91611263565b90610e44565b6103e98102908082046103e91490151715610ee5576103e8900490565b6112599261122061121a61121593611215610e62565b611226565b505f90565b604d8111610ee557600a0a90565b9061127b90611317565b670de0b6b3a7640000808302939290840403610ee5576111c19261122061121592611263565b803b1561125e575f80916040516020810190638da5cb5b60e01b8252600481526112cc602482610cdc565b51915afa6112d86110fa565b9015801561130b575b61125e57602081805181010312610c0557602001516001600160a01b03811690819003610c055790565b506020815114156112e1565b5f5f5f5b83518110156113ab576020818501015160f81c6030811015806113a0575b61136d575b602e1461134e575b60010161131b565b90508251818103908111610ee5575f198101908111610ee55790611346565b92600a810290808204600a1490151715610ee55783602f19810111610ee557602f1984820101809111610ee5579261133e565b506039811115611339565b5091509156fedf6966c971051c3d54ec59162606531493a51404a002842f56009d7e5cf4a8c7a2646970667358221220aa2ae881a6472d140caca4f3a7d6a21aef475da840a1e0899387c628d80b86a664736f6c634300081c0033",
  "linkReferences": {},
  "deployedLinkReferences": {}
}