{
  "_format": "hh-sol-artifact-1",
  "contractName": "OwnerContract",
  "sourceName": "contracts/subcontract/OwnerContract.sol",
  "abi": [
    {
      "inputs": [
        {
          "internalType": "address",
          "name": "_storage",
          "type": "address"
        },
        {
          "internalType": "address",
          "name": "_master",
          "type": "address"
        },
        {
          "internalType": "bytes32",
          "name": "_key",
          "type": "bytes32"
        }
      ],
      "stateMutability": "nonpayable",
      "type": "constructor"
    },
    {
      "anonymous": false,
      "inputs": [
        {
          "indexed": true,
          "internalType": "address",
          "name": "previousDeveloper",
          "type": "address"
        },
        {
          "indexed": true,
          "internalType": "address",
          "name": "newDeveloper",
          "type": "address"
        }
      ],
      "name": "DeveloperTransferredEvent",
      "type": "event"
    },
    {
      "anonymous": false,
      "inputs": [
        {
          "indexed": false,
          "internalType": "address",
          "name": "addr",
          "type": "address"
        },
        {
          "indexed": false,
          "internalType": "address",
          "name": "who",
          "type": "address"
        },
        {
          "indexed": false,
          "internalType": "uint256",
          "name": "status",
          "type": "uint256"
        },
        {
          "indexed": false,
          "internalType": "string",
          "name": "eventText",
          "type": "string"
        }
      ],
      "name": "OwnerEvent",
      "type": "event"
    },
    {
      "inputs": [
        {
          "internalType": "address",
          "name": "addr",
          "type": "address"
        },
        {
          "internalType": "address",
          "name": "who",
          "type": "address"
        }
      ],
      "name": "addAddressToOwnerList",
      "outputs": [
        {
          "internalType": "bool",
          "name": "",
          "type": "bool"
        }
      ],
      "stateMutability": "nonpayable",
      "type": "function"
    },
    {
      "inputs": [
        {
          "internalType": "address",
          "name": "addr",
          "type": "address"
        }
      ],
      "name": "approveOwner",
      "outputs": [],
      "stateMutability": "nonpayable",
      "type": "function"
    },
    {
      "inputs": [
        {
          "internalType": "address",
          "name": "_old",
          "type": "address"
        },
        {
          "internalType": "address",
          "name": "_new",
          "type": "address"
        }
      ],
      "name": "changeOwner",
      "outputs": [
        {
          "internalType": "bool",
          "name": "",
          "type": "bool"
        }
      ],
      "stateMutability": "nonpayable",
      "type": "function"
    },
    {
      "inputs": [],
      "name": "contractName",
      "outputs": [
        {
          "internalType": "string",
          "name": "",
          "type": "string"
        }
      ],
      "stateMutability": "view",
      "type": "function"
    },
    {
      "inputs": [],
      "name": "contractVersion",
      "outputs": [
        {
          "internalType": "string",
          "name": "",
          "type": "string"
        }
      ],
      "stateMutability": "view",
      "type": "function"
    },
    {
      "inputs": [],
      "name": "developer",
      "outputs": [
        {
          "internalType": "address payable",
          "name": "",
          "type": "address"
        }
      ],
      "stateMutability": "view",
      "type": "function"
    },
    {
      "inputs": [],
      "name": "getActiveOwnerCounter",
      "outputs": [
        {
          "internalType": "uint256",
          "name": "",
          "type": "uint256"
        }
      ],
      "stateMutability": "view",
      "type": "function"
    },
    {
      "inputs": [
        {
          "internalType": "uint256",
          "name": "_id",
          "type": "uint256"
        }
      ],
      "name": "getOwner",
      "outputs": [
        {
          "internalType": "uint256",
          "name": "status",
          "type": "uint256"
        },
        {
          "internalType": "address",
          "name": "addr",
          "type": "address"
        },
        {
          "internalType": "address",
          "name": "proposer",
          "type": "address"
        },
        {
          "internalType": "address",
          "name": "blocker",
          "type": "address"
        },
        {
          "internalType": "uint256",
          "name": "regTime",
          "type": "uint256"
        },
        {
          "internalType": "address[]",
          "name": "approvers",
          "type": "address[]"
        }
      ],
      "stateMutability": "view",
      "type": "function"
    },
    {
      "inputs": [],
      "name": "getOwnerCounter",
      "outputs": [
        {
          "internalType": "uint256",
          "name": "",
          "type": "uint256"
        }
      ],
      "stateMutability": "view",
      "type": "function"
    },
    {
      "inputs": [
        {
          "internalType": "address",
          "name": "addr",
          "type": "address"
        }
      ],
      "name": "init",
      "outputs": [],
      "stateMutability": "nonpayable",
      "type": "function"
    },
    {
      "inputs": [],
      "name": "initiateFirstOwner",
      "outputs": [],
      "stateMutability": "nonpayable",
      "type": "function"
    },
    {
      "inputs": [],
      "name": "initiateOwners",
      "outputs": [],
      "stateMutability": "nonpayable",
      "type": "function"
    },
    {
      "inputs": [],
      "name": "isInitiatedFirstOwner",
      "outputs": [
        {
          "internalType": "bool",
          "name": "",
          "type": "bool"
        }
      ],
      "stateMutability": "view",
      "type": "function"
    },
    {
      "inputs": [],
      "name": "isInitiatedOwners",
      "outputs": [
        {
          "internalType": "bool",
          "name": "",
          "type": "bool"
        }
      ],
      "stateMutability": "view",
      "type": "function"
    },
    {
      "inputs": [
        {
          "internalType": "address",
          "name": "addr",
          "type": "address"
        }
      ],
      "name": "isMember",
      "outputs": [
        {
          "internalType": "bool",
          "name": "",
          "type": "bool"
        }
      ],
      "stateMutability": "view",
      "type": "function"
    },
    {
      "inputs": [
        {
          "internalType": "address",
          "name": "addr",
          "type": "address"
        }
      ],
      "name": "isOwner",
      "outputs": [
        {
          "internalType": "bool",
          "name": "",
          "type": "bool"
        }
      ],
      "stateMutability": "view",
      "type": "function"
    },
    {
      "inputs": [
        {
          "internalType": "address",
          "name": "addr",
          "type": "address"
        }
      ],
      "name": "isPerson",
      "outputs": [
        {
          "internalType": "bool",
          "name": "",
          "type": "bool"
        }
      ],
      "stateMutability": "view",
      "type": "function"
    },
    {
      "inputs": [
        {
          "internalType": "address",
          "name": "addr",
          "type": "address"
        }
      ],
      "name": "isReader",
      "outputs": [
        {
          "internalType": "bool",
          "name": "",
          "type": "bool"
        }
      ],
      "stateMutability": "view",
      "type": "function"
    },
    {
      "inputs": [
        {
          "internalType": "address",
          "name": "addr",
          "type": "address"
        }
      ],
      "name": "isTrustedPerson",
      "outputs": [
        {
          "internalType": "bool",
          "name": "",
          "type": "bool"
        }
      ],
      "stateMutability": "view",
      "type": "function"
    },
    {
      "inputs": [],
      "name": "register",
      "outputs": [],
      "stateMutability": "nonpayable",
      "type": "function"
    },
    {
      "inputs": [
        {
          "internalType": "address",
          "name": "addr",
          "type": "address"
        }
      ],
      "name": "rejectAddressFromOwnerList",
      "outputs": [
        {
          "internalType": "bool",
          "name": "",
          "type": "bool"
        }
      ],
      "stateMutability": "nonpayable",
      "type": "function"
    },
    {
      "inputs": [
        {
          "internalType": "address",
          "name": "addr",
          "type": "address"
        }
      ],
      "name": "setReader",
      "outputs": [],
      "stateMutability": "nonpayable",
      "type": "function"
    },
    {
      "inputs": [
        {
          "internalType": "address payable",
          "name": "newDeveloper",
          "type": "address"
        }
      ],
      "name": "transferDeveloper",
      "outputs": [],
      "stateMutability": "nonpayable",
      "type": "function"
    }
  ],
  "bytecode": "0x60803460ae57601f61210a38819003918201601f19168301916001600160401b0383118484101760b25780849260609460405283398101031260ae5760428160c6565b906040604f6020830160c6565b910151600180546001600160a01b03199081166001600160a01b039485169081179092555f8054821690921790915560029190915560038054821693909216929092179055600580549091163317905560405161203090816100da8239f35b5f80fd5b634e487b7160e01b5f52604160045260245ffd5b51906001600160a01b038216820360ae5756fe60806040526004361015610011575f80fd5b5f5f3560e01c80630557927a14610d7a5780630e895ea214610bfc5780630f73927a14610bd9578063158425f514610bbc57806319ab453c14610af75780631aa3a00814610a365780632f54bf6e14610a1257806364cb4edb1461099257806369a7ddf71461096e57806375d0c0dc1461091e57806381595842146108a05780639598da7f14610844578063a0a8e46014610810578063a230c524146107ec578063ac9f5ac91461067d578063b648ee2d14610649578063c28bdca6146104fe578063c41a360a14610359578063ca4b208b14610330578063e50fdc5e146102fc578063e5f93e97146102d8578063f00d4b5d1461014f5763f439d0d814610117575f80fd5b3461014c578060031936011261014c576020610142610134610fbb565b61013c610ff5565b90611851565b6040519015158152f35b80fd5b503461014c57604036600319011261014c57610169610e76565b90610172610e8c565b81549092906101af906001600160a01b0316602061018e610f1d565b60405180948192630251382f60e31b83528460048401526024830190610ed8565b0381845afa9182156102a75784926102b2575b5060206101f4916101d1610f66565b906040518080958194630251382f60e31b83528660048401526024830190610ed8565b03915afa9081156102a7578491610278575b50610210336110e6565b918215610265575b508115610252575b501561024e5761022f906116fb565b1561014c5761023e33836118a4565b1561014c57602061014283611a9d565b5080fd5b6001600160a01b0316331490505f610220565b6001600160a01b0316331491505f610218565b61029a915060203d6020116102a0575b6102928183610ea2565b810190610f47565b5f610206565b503d610288565b6040513d86823e3d90fd5b6101f49192506102d0602091823d84116102a0576102928183610ea2565b9291506101c2565b503461014c57602036600319011261014c5760206101426102f7610e76565b611513565b503461014c578060031936011261014c57602061032861031a611206565b610322611c80565b90611cc5565b604051908152f35b503461014c578060031936011261014c576005546040516001600160a01b039091168152602090f35b503461014c57602036600319011261014c5760043561037733611513565b1561024e5761038d81610388611206565b611ca5565b9061039f610399611235565b83611cc5565b906103b16103ab6113bc565b84611db9565b6103c26103bc6114a6565b85611db9565b936103e06103d76103d16114cc565b83611db9565b916103226114f1565b936103f061031a85610388611206565b946104136103fd87611e51565b9661040b6040519889610ea2565b808852611e51565b602087019390601f1901368537885b87518110156104855761044c61043e826103888a610388611206565b610446611e25565b90611db9565b8851821015610471576001600160a01b0316600582901b890160200152600101610422565b634e487b7160e01b8b52603260045260248bfd5b50604080519384526001600160a01b039586166020850152888616908401529093166060820152608081019290925260c060a083018190528451908301819052829160e0830191885b8181106104dc575050500390f35b82516001600160a01b03168452859450602093840193909201916001016104ce565b503461014c57604036600319011261014c57610518610e76565b90610521610e8c565b815461053a906001600160a01b0316602061018e610f1d565b0381845afa9182156102a7578492610623575b50602061055c916101d1610f66565b03915afa9081156102a7578491610604575b50610578336110e6565b9182156105f1575b5081156105de575b501561024e57610599610134610fbb565b806105c4575b1561024e576105ad816110e6565b156105bd575b61023e90836118a4565b50336105b3565b506105d86105d0610fbb565b61013c61106d565b1561059f565b6001600160a01b0316331490505f610588565b6001600160a01b0316331491505f610580565b61061d915060203d6020116102a0576102928183610ea2565b5f61056e565b61055c919250610641602091823d84116102a0576102928183610ea2565b92915061054d565b503461014c57602036600319011261014c57610663610e76565b61066c336110e6565b1561024e5761067a906113de565b80f35b503461014c578060031936011261014c5780546106a7906001600160a01b0316602061018e610f1d565b0381845afa9182156107bb5783926107c6575b5060206106c9916101d1610f66565b03915afa9081156107bb57839161079c575b506106e5336110e6565b918215610789575b508115610776575b501561014c576107066105d0610fbb565b61014c57610723610715610fbb565b61071d61106d565b906117d7565b5f516020611fdb5f395f51905f5260c0604051338152336020820152600c60408201526080606082015260156080820152741bdddb995c9cc81a185d99481a5b9a5d1a585d1959605a1b60a0820152a180f35b6001600160a01b0316331490505f6106f5565b6001600160a01b0316331491505f6106ed565b6107b5915060203d6020116102a0576102928183610ea2565b5f6106db565b6040513d85823e3d90fd5b6106c99192506107e4602091823d84116102a0576102928183610ea2565b9291506106ba565b503461014c57602036600319011261014c57602061014261080b610e76565b61129c565b503461014c578060031936011261014c5761084061082c610efc565b604051918291602083526020830190610ed8565b0390f35b503461014c57602036600319011261014c5761067a610861610e76565b61087660018060a01b0360055416331461109a565b61088a6001600160a01b0382161515611148565b610892610fbb565b61089a611259565b90611d47565b503461014c578060031936011261014c5780805b6108bf61031a611206565b8110156109135760036108df6108d783610388611206565b610322611235565b146108ed575b6001016108b4565b915f1981146108ff57600101916108e5565b634e487b7160e01b82526011600452602482fd5b602083604051908152f35b503461014c578060031936011261014c57610840604051610940604082610ea2565b600d81526c13dddb995c90dbdb9d1c9858dd609a1b6020820152604051918291602083526020830190610ed8565b503461014c57602036600319011261014c57602061014261098d610e76565b611189565b503461014c57602036600319011261014c576004356001600160a01b0381169081900361024e57600554816001600160a01b0382166109d233821461109a565b6109dd821515611148565b7fd734ca01d7ec868e364f3c2cbda207212fa91c58040df183429252e85a48b2b18580a36001600160a01b0319161760055580f35b503461014c57602036600319011261014c576020610142610a31610e76565b6110e6565b5034610af3575f366003190112610af357610a5c60018060a01b0360055416331461109a565b60018060a01b035f5416600254610a71610f91565b90610a7a610efc565b92803b15610af3575f9283610ab693610ac86040519788968795869463163f5abb60e21b86526004860152606060248601526064850190610ed8565b83810360031901604485015290610ed8565b03925af18015610ae857610ada575080f35b610ae691505f90610ea2565b005b6040513d5f823e3d90fd5b5f80fd5b34610af3576020366003190112610af357610b10610e76565b610b2560018060a01b0360055416331461109a565b610b2f33826118a4565b15610b8957610b3d90611a9d565b15610b4457005b60405162461bcd60e51b815260206004820152601860248201527f6661696c65642061646420746f207768697465206c69737400000000000000006044820152606490fd5b60405162461bcd60e51b815260206004820152600b60248201526a1a5b9a5d0819985a5b195960aa1b6044820152606490fd5b34610af3575f366003190112610af35760206101426105d0610fbb565b34610af3576020366003190112610af3576020610142610bf7610e76565b611026565b34610af3575f366003190112610af3575f54610c25906001600160a01b0316602061018e610f1d565b0381845afa918215610ae8575f92610d54575b506020610c47916101d1610f66565b03915afa908115610ae8575f91610d35575b50610c63336110e6565b918215610d22575b508115610d0f575b5015610af357610c84610134610fbb565b1580610cfd575b15610af357610ca3610c9b610fbb565b61071d610ff5565b5f516020611fdb5f395f51905f5260c0604051338152336020820152600b604082015260806060820152601960808201527f6669727374206f776e65722068617320696e697469617465640000000000000060a0820152a1005b50610d096105d0610fbb565b15610c8b565b6001600160a01b03163314905081610c73565b6001600160a01b03163314915082610c6b565b610d4e915060203d6020116102a0576102928183610ea2565b82610c59565b610c47919250610d72602091823d84116102a0576102928183610ea2565b929150610c38565b34610af3576020366003190112610af357610d93610e76565b5f54610dac906001600160a01b0316602061018e610f1d565b0381845afa918215610ae8575f92610e50575b506020610dce916101d1610f66565b03915afa908115610ae8575f91610e31575b50610dea336110e6565b918215610e1e575b508115610e0b575b5015610af3576101426020916116fb565b6001600160a01b03163314905082610dfa565b6001600160a01b03163314915083610df2565b610e4a915060203d6020116102a0576102928183610ea2565b83610de0565b610dce919250610e6e602091823d84116102a0576102928183610ea2565b929150610dbf565b600435906001600160a01b0382168203610af357565b602435906001600160a01b0382168203610af357565b90601f8019910116810190811067ffffffffffffffff821117610ec457604052565b634e487b7160e01b5f52604160045260245ffd5b805180835260209291819084018484015e5f828201840152601f01601f1916010190565b60405190610f0b604083610ea2565b600382526219171b60e91b6020830152565b60405190610f2c604083610ea2565b600c82526b546f6b656e4665617475726560a01b6020830152565b90816020910312610af357516001600160a01b0381168103610af35790565b60405190610f75604083610ea2565b600d82526c4d656d6265724665617475726560981b6020830152565b60405190610fa0604083610ea2565b600c82526b4f776e65724665617475726560a01b6020830152565b610fc3610f91565b604051610fef6020828180820195805191829101875e81015f838201520301601f198101835282610ea2565b51902090565b60405190611004604083610ea2565b601382527224b734ba34b0ba32b22334b939ba27bbb732b960691b6020830152565b61102f816110e6565b90811561105c575b811561104c575b50611047575f90565b600190565b611056915061129c565b5f61103e565b905061106781611189565b90611037565b6040519061107c604083610ea2565b600f82526e496e697469617465644f776e65727360881b6020830152565b156110a157565b60405162461bcd60e51b815260206004820152601b60248201527f4f6e6c792074686520446576656c6f70657220726571756972656400000000006044820152606490fd5b6001600160a01b0381161561114357600361110082611bb2565b1461113d5761110e90611bd2565b6001600160a01b038116151590816111295750611047575f90565b6003915061113690611bb2565b145f61103e565b50600190565b505f90565b1561114f57565b60405162461bcd60e51b815260206004820152601260248201527154686973206164647265737320697320302160701b6044820152606490fd5b6001600160a01b0381168015611200576111a1610fbb565b6001600160a01b03906111b690610446611259565b161461113d576001600160a01b03906111ce90611bd2565b1680151590816111dc575090565b90506111e6610fbb565b6001600160a01b03906111fb90610446611259565b161490565b50505f90565b61120e610fbb565b604051602081019182526427bbb732b960d91b604082015260258152610fef604582610ea2565b60405190611244604083610ea2565b600682526573746174757360d01b6020830152565b60405190611268604083610ea2565b600d82526c5265616465724164647265737360981b6020830152565b90816020910312610af357518015158103610af35790565b5f546112b6906020906001600160a01b03166101d1610f66565b03915afa908115610ae8575f9161139d575b5060405163288c314960e21b81526001600160a01b038381166004830152919091169190602081602481865afa908115610ae8575f9161137e575b5061137757611313602091611bd2565b60405163288c314960e21b81526001600160a01b03909116600482015291829060249082905afa908115610ae8575f9161134b575090565b61136d915060203d602011611370575b6113658183610ea2565b810190611284565b90565b503d61135b565b5050600190565b611397915060203d602011611370576113658183610ea2565b5f611303565b6113b6915060203d6020116102a0576102928183610ea2565b5f6112c8565b604051906113cb604083610ea2565b600482526330b2323960e11b6020830152565b906113e933836118a4565b15610af3575f915b6113fc61031a611206565b831015611498579061141b61141384610388611206565b6104466113bc565b5f926001600160a01b039091169190835b61143b61031a87610388611206565b81101561148057836114538261038889610388611206565b6001600160a01b039061146890610446611e25565b1614611477575b60010161142c565b6001945061146f565b50939150911561149357600101916113f1565b509050565b6114a3919250611a9d565b50565b604051906114b5604083610ea2565b6008825267383937b837b9b2b960c11b6020830152565b604051906114db604083610ea2565b6007825266313637b1b5b2b960c91b6020830152565b60405190611500604083610ea2565b600482526374696d6560e01b6020830152565b5f5461155191906020906001600160a01b031661152e610f1d565b906040518080968194630251382f60e31b83528660048401526024830190610ed8565b03915afa918215610ae8575f926116da575b5061156d816110e6565b80156116cb575b611377576115818161129c565b61158b5750505f90565b6001600160a01b0361159c82611bd2565b168061161457506040516370a0823160e01b81526001600160a01b0391821660048201529160209183916024918391165afa908115610ae8575f916115e2575b50151590565b90506020813d60201161160c575b816115fd60209383610ea2565b81010312610af357515f6115dc565b3d91506115f0565b6040516370a0823160e01b8152600481019190915290916001600160a01b031690602081602481855afa908115610ae8575f91611699575b50159182159261165b57505090565b6040516370a0823160e01b81526001600160a01b0390911660048201529150602090829060249082905afa908115610ae8575f916115e25750151590565b90506020813d6020116116c3575b816116b460209383610ea2565b81010312610af357515f61164c565b3d91506116a7565b506116d581611189565b611574565b6116f491925060203d6020116102a0576102928183610ea2565b905f611563565b6001600160a01b03811690611711821515611148565b61171a816110e6565b15610af3575f516020611fdb5f395f51905f529161178661177861173f60c094611e69565b905061177061175082610388611206565b61176161175b611235565b82611eb7565b6117696114cc565b3391611d47565b610388611206565b611780611c80565b90611eb7565b604051908152336020820152600160408201526080606082015260086080820152671c995a9958dd195960c21b60a0820152a1600190565b602092839282528051928391018483015e01015f815290565b6117fa61180860035460018060a01b0316936040519283916020830195866117be565b03601f198101835282610ea2565b519020813b15610af3575f9160448392604051948593849263abfdcced60e01b84526004840152600160248401525af18015610ae8576118455750565b5f61184f91610ea2565b565b6020906117fa61187660018060a01b03600354169460405192839186830195866117be565b519020602460405180948193633d70e7e560e11b835260048301525afa908115610ae8575f9161134b575090565b906118ae82611e69565b9015611a38576118c081610388611206565b9260036118d46118ce611235565b86611cc5565b14610af3575f5b6118ea61031a84610388611206565b8110156119275761190461043e8261038886610388611206565b6001600160a01b0385811691161461191e576001016118db565b50505050505f90565b509091928361193b61031a85610388611206565b15611a14575b50505b61196e8361196661195a61031a86610388611206565b61038886610388611206565b61089a611e25565b61197a82610388611206565b9261199261031a611989611c80565b94610388611206565b9360018501809511611a00575f516020611fdb5f395f51905f529460c0946119b992611f76565b6040519160018060a01b0316825260018060a01b0316602082015260026040820152608060608201526008608082015267185c1c1c9bdd995960c21b60a0820152a1600190565b634e487b7160e01b5f52601160045260245ffd5b611a3191611a29611a23611235565b82611f16565b61089a6114a6565b5f83611941565b5090611a4561031a611206565b90611a7383611a5684610388611206565b611a61611a23611235565b611a2984611a6d6113bc565b83611d47565b60018201808311611a0057611a9890611a8a611206565b611a92611c80565b90611f76565b611944565b5f90611aa881611e69565b90611ab257505090565b611ac0919250610388611206565b906003611ad4611ace611235565b84611cc5565b14610af357611ae1611235565b9060018060a01b036003541691604051611b04816117fa602082019488866117be565b519020823b15610af3575f92604484926040519586938492637152429d60e11b84526004840152600360248401525af18015610ae8575f516020611fdb5f395f51905f529360c093611b6592611ba2575b50611b5e6114f1565b4291611f76565b6040519060018060a01b0316815233602082015260036040820152608060608201526005608082015264185919195960da1b60a0820152a1600190565b5f611bac91610ea2565b5f611b55565b611bbb90611e69565b90611bc35790565b6108d761136d91610388611206565b803b15611143575f80916040516020810190638da5cb5b60e01b825260048152611bfd602482610ea2565b51915afa3d15611c78573d9067ffffffffffffffff8211610ec45760405191611c30601f8201601f191660200184610ea2565b82523d5f602084013e5b158015611c6c575b61114357602081805181010312610af357602001516001600160a01b03811690819003610af35790565b50602081511415611c42565b606090611c3a565b60405190611c8f604083610ea2565b600782526631b7bab73a32b960c91b6020830152565b906040519060208201928352604082015260408152610fef606082610ea2565b6020906117fa611cea60018060a01b03600354169460405192839186830195866117be565b51902060246040518094819363bd02d0f560e01b835260048301525afa908115610ae8575f91611d18575090565b90506020813d602011611d3f575b81611d3360209383610ea2565b81010312610af3575190565b3d9150611d26565b6003546040516001600160a01b0390911693926020820192611d709183916117fa9190866117be565b51902090823b15610af35760405163ca446dd960e01b815260048101929092526001600160a01b03166024820152905f908290604490829084905af18015610ae8576118455750565b6020906117fa611dde60018060a01b03600354169460405192839186830195866117be565b5190206024604051809481936321f8a72160e01b835260048301525afa908115610ae8575f91611e0c575090565b61136d915060203d6020116102a0576102928183610ea2565b60405190611e34604083610ea2565b600e82526d4f776e6572417070726f7665727360901b6020830152565b67ffffffffffffffff8111610ec45760051b60200190565b905f5b611e7761031a611206565b811015611eae57611e8d61141382610388611206565b6001600160a01b03848116911614611ea757600101611e6c565b6001925090565b505f91505f1990565b6117fa611eda60018060a01b0360035416936040519283916020830195866117be565b519020813b15610af3575f91604483926040519485938492637152429d60e11b845260048401528160248401525af18015610ae8576118455750565b6117fa611f3960035460018060a01b0316936040519283916020830195866117be565b519020813b15610af3575f91604483926040519485938492637152429d60e11b84526004840152600160248401525af18015610ae8576118455750565b6003546040516001600160a01b0390911693926020820192611f9f9183916117fa9190866117be565b51902090823b15610af35760445f92836040519586948593637152429d60e11b8552600485015260248401525af18015610ae857611845575056feea0b3574a7fa9afe9053826b10d37d8cea2fbcab0f22885db2c3a87519d1e962a264697066735822122013d9333af96bbc513903508ef760f829541e19ca722f8e509242e5c8af82de6d64736f6c634300081c0033",
  "linkReferences": {},
  "deployedLinkReferences": {}
}