{
  "_format": "hh-sol-artifact-1",
  "contractName": "OwnerContract",
  "sourceName": "contracts/subcontract/OwnerContract.sol",
  "abi": [
    {
      "inputs": [
        {
          "internalType": "address",
          "name": "_storage",
          "type": "address"
        },
        {
          "internalType": "address",
          "name": "_master",
          "type": "address"
        },
        {
          "internalType": "bytes32",
          "name": "_key",
          "type": "bytes32"
        }
      ],
      "stateMutability": "nonpayable",
      "type": "constructor"
    },
    {
      "anonymous": false,
      "inputs": [
        {
          "indexed": true,
          "internalType": "address",
          "name": "previousDeveloper",
          "type": "address"
        },
        {
          "indexed": true,
          "internalType": "address",
          "name": "newDeveloper",
          "type": "address"
        }
      ],
      "name": "DeveloperTransferredEvent",
      "type": "event"
    },
    {
      "anonymous": false,
      "inputs": [
        {
          "indexed": false,
          "internalType": "address",
          "name": "addr",
          "type": "address"
        },
        {
          "indexed": false,
          "internalType": "address",
          "name": "who",
          "type": "address"
        },
        {
          "indexed": false,
          "internalType": "uint256",
          "name": "status",
          "type": "uint256"
        },
        {
          "indexed": false,
          "internalType": "string",
          "name": "eventText",
          "type": "string"
        }
      ],
      "name": "OwnerEvent",
      "type": "event"
    },
    {
      "inputs": [
        {
          "internalType": "address",
          "name": "addr",
          "type": "address"
        },
        {
          "internalType": "address",
          "name": "who",
          "type": "address"
        }
      ],
      "name": "addAddressToOwnerList",
      "outputs": [
        {
          "internalType": "bool",
          "name": "",
          "type": "bool"
        }
      ],
      "stateMutability": "nonpayable",
      "type": "function"
    },
    {
      "inputs": [
        {
          "internalType": "address",
          "name": "addr",
          "type": "address"
        }
      ],
      "name": "approveOwner",
      "outputs": [],
      "stateMutability": "nonpayable",
      "type": "function"
    },
    {
      "inputs": [
        {
          "internalType": "address",
          "name": "_old",
          "type": "address"
        },
        {
          "internalType": "address",
          "name": "_new",
          "type": "address"
        }
      ],
      "name": "changeOwner",
      "outputs": [
        {
          "internalType": "bool",
          "name": "",
          "type": "bool"
        }
      ],
      "stateMutability": "nonpayable",
      "type": "function"
    },
    {
      "inputs": [],
      "name": "contractName",
      "outputs": [
        {
          "internalType": "string",
          "name": "",
          "type": "string"
        }
      ],
      "stateMutability": "view",
      "type": "function"
    },
    {
      "inputs": [],
      "name": "contractVersion",
      "outputs": [
        {
          "internalType": "string",
          "name": "",
          "type": "string"
        }
      ],
      "stateMutability": "view",
      "type": "function"
    },
    {
      "inputs": [],
      "name": "developer",
      "outputs": [
        {
          "internalType": "address payable",
          "name": "",
          "type": "address"
        }
      ],
      "stateMutability": "view",
      "type": "function"
    },
    {
      "inputs": [],
      "name": "getActiveOwnerCounter",
      "outputs": [
        {
          "internalType": "uint256",
          "name": "",
          "type": "uint256"
        }
      ],
      "stateMutability": "view",
      "type": "function"
    },
    {
      "inputs": [
        {
          "internalType": "uint256",
          "name": "_id",
          "type": "uint256"
        }
      ],
      "name": "getOwner",
      "outputs": [
        {
          "internalType": "uint256",
          "name": "status",
          "type": "uint256"
        },
        {
          "internalType": "address",
          "name": "addr",
          "type": "address"
        },
        {
          "internalType": "address",
          "name": "proposer",
          "type": "address"
        },
        {
          "internalType": "address",
          "name": "blocker",
          "type": "address"
        },
        {
          "internalType": "uint256",
          "name": "regTime",
          "type": "uint256"
        },
        {
          "internalType": "address[]",
          "name": "approvers",
          "type": "address[]"
        }
      ],
      "stateMutability": "view",
      "type": "function"
    },
    {
      "inputs": [],
      "name": "getOwnerCounter",
      "outputs": [
        {
          "internalType": "uint256",
          "name": "",
          "type": "uint256"
        }
      ],
      "stateMutability": "view",
      "type": "function"
    },
    {
      "inputs": [],
      "name": "getReader",
      "outputs": [
        {
          "internalType": "address",
          "name": "",
          "type": "address"
        }
      ],
      "stateMutability": "view",
      "type": "function"
    },
    {
      "inputs": [
        {
          "internalType": "address",
          "name": "addr",
          "type": "address"
        }
      ],
      "name": "init",
      "outputs": [],
      "stateMutability": "nonpayable",
      "type": "function"
    },
    {
      "inputs": [],
      "name": "initiateFirstOwner",
      "outputs": [],
      "stateMutability": "nonpayable",
      "type": "function"
    },
    {
      "inputs": [],
      "name": "initiateOwners",
      "outputs": [],
      "stateMutability": "nonpayable",
      "type": "function"
    },
    {
      "inputs": [],
      "name": "isInitiatedFirstOwner",
      "outputs": [
        {
          "internalType": "bool",
          "name": "",
          "type": "bool"
        }
      ],
      "stateMutability": "view",
      "type": "function"
    },
    {
      "inputs": [],
      "name": "isInitiatedOwners",
      "outputs": [
        {
          "internalType": "bool",
          "name": "",
          "type": "bool"
        }
      ],
      "stateMutability": "view",
      "type": "function"
    },
    {
      "inputs": [
        {
          "internalType": "address",
          "name": "addr",
          "type": "address"
        }
      ],
      "name": "isMember",
      "outputs": [
        {
          "internalType": "bool",
          "name": "",
          "type": "bool"
        }
      ],
      "stateMutability": "view",
      "type": "function"
    },
    {
      "inputs": [
        {
          "internalType": "address",
          "name": "addr",
          "type": "address"
        }
      ],
      "name": "isOwner",
      "outputs": [
        {
          "internalType": "bool",
          "name": "",
          "type": "bool"
        }
      ],
      "stateMutability": "view",
      "type": "function"
    },
    {
      "inputs": [
        {
          "internalType": "address",
          "name": "addr",
          "type": "address"
        }
      ],
      "name": "isPerson",
      "outputs": [
        {
          "internalType": "bool",
          "name": "",
          "type": "bool"
        }
      ],
      "stateMutability": "view",
      "type": "function"
    },
    {
      "inputs": [
        {
          "internalType": "address",
          "name": "addr",
          "type": "address"
        }
      ],
      "name": "isReader",
      "outputs": [
        {
          "internalType": "bool",
          "name": "",
          "type": "bool"
        }
      ],
      "stateMutability": "view",
      "type": "function"
    },
    {
      "inputs": [
        {
          "internalType": "address",
          "name": "addr",
          "type": "address"
        }
      ],
      "name": "isTrustedPerson",
      "outputs": [
        {
          "internalType": "bool",
          "name": "",
          "type": "bool"
        }
      ],
      "stateMutability": "view",
      "type": "function"
    },
    {
      "inputs": [],
      "name": "register",
      "outputs": [],
      "stateMutability": "nonpayable",
      "type": "function"
    },
    {
      "inputs": [
        {
          "internalType": "address",
          "name": "addr",
          "type": "address"
        }
      ],
      "name": "rejectAddressFromOwnerList",
      "outputs": [
        {
          "internalType": "bool",
          "name": "",
          "type": "bool"
        }
      ],
      "stateMutability": "nonpayable",
      "type": "function"
    },
    {
      "inputs": [
        {
          "internalType": "address",
          "name": "addr",
          "type": "address"
        }
      ],
      "name": "setReader",
      "outputs": [],
      "stateMutability": "nonpayable",
      "type": "function"
    },
    {
      "inputs": [
        {
          "internalType": "address payable",
          "name": "newDeveloper",
          "type": "address"
        }
      ],
      "name": "transferDeveloper",
      "outputs": [],
      "stateMutability": "nonpayable",
      "type": "function"
    }
  ],
  "bytecode": "0x60803460ae57601f6128b638819003918201601f19168301916001600160401b0383118484101760b25780849260609460405283398101031260ae5760428160c6565b906040604f6020830160c6565b910151600180546001600160a01b03199081166001600160a01b039485169081179092555f805482169092179091556002919091556003805482169390921692909217905560058054909116331790556040516127dc90816100da8239f35b5f80fd5b634e487b7160e01b5f52604160045260245ffd5b51906001600160a01b038216820360ae5756fe60806040526004361015610011575f80fd5b5f5f3560e01c80630557927a14610df15780630e895ea214610c735780630f73927a14610c50578063158425f514610c3357806319ab453c14610b675780631aa3a00814610aa65780632f54bf6e14610a8257806364cb4edb14610a0257806369a7ddf7146109de57806375d0c0dc1461098e57806381595842146109105780639598da7f146108ab578063a0a8e46014610877578063a230c52414610853578063ac9f5ac9146106e4578063acb97a52146106ac578063b648ee2d14610678578063c28bdca61461052e578063c41a360a14610389578063ca4b208b14610360578063e50fdc5e1461032c578063e5f93e9714610308578063f00d4b5d1461015a5763f439d0d814610122575f80fd5b34610157578060031936011261015757602061014d61013f611032565b61014761106c565b906118cf565b6040519015158152f35b80fd5b503461015757604036600319011261015757610174610eed565b61017c610f03565b82549091906101b9906001600160a01b03166020610198610f94565b60405180948192630251382f60e31b83528460048401526024830190610f4f565b0381845afa9182156102d75785926102e2575b5060206101fe916101db610fdd565b906040518080958194630251382f60e31b83528660048401526024830190610f4f565b03915afa9081156102d75785916102a8575b5061021a3361115d565b918215610295575b508115610282575b501561027e576102399061177b565b1561027a576102483382611922565b1561027a5780610259602092611b1b565b908161026b575b506040519015158152f35b61027490611c30565b82610260565b5080fd5b8280fd5b6001600160a01b0316331490505f61022a565b6001600160a01b0316331491505f610222565b6102ca915060203d6020116102d0575b6102c28183610f19565b810190610fbe565b5f610210565b503d6102b8565b6040513d87823e3d90fd5b6101fe919250610300602091823d84116102d0576102c28183610f19565b9291506101cc565b503461015757602036600319011261015757602061014d610327610eed565b611593565b5034610157578060031936011261015757602061035861034a61127d565b610352611e9e565b90611ee3565b604051908152f35b50346101575780600319360112610157576005546040516001600160a01b039091168152602090f35b5034610157576020366003190112610157576004356103a733611593565b1561027a576103bd816103b861127d565b611ec3565b906103cf6103c96112ac565b83611ee3565b906103e16103db611433565b84611fd7565b6103f26103ec611526565b85611fd7565b9361041061040761040161154c565b83611fd7565b91610352611571565b9361042061034a856103b861127d565b9461044361042d8761206f565b9661043b6040519889610f19565b80885261206f565b602087019390601f1901368537885b87518110156104b55761047c61046e826103b88a6103b861127d565b610476612043565b90611fd7565b88518210156104a1576001600160a01b0316600582901b890160200152600101610452565b634e487b7160e01b8b52603260045260248bfd5b50604080519384526001600160a01b039586166020850152888616908401529093166060820152608081019290925260c060a083018190528451908301819052829160e0830191885b81811061050c575050500390f35b82516001600160a01b03168452859450602093840193909201916001016104fe565b503461015757604036600319011261015757610548610eed565b610550610f03565b8254610569906001600160a01b03166020610198610f94565b0381845afa9182156102d7578592610652575b50602061058b916101db610fdd565b03915afa9081156102d7578591610633575b506105a73361115d565b918215610620575b50811561060d575b501561027e576105c861013f611032565b806105f3575b1561027e576105dc8161115d565b156105ec575b6102489082611922565b50336105e2565b506106076105ff611032565b6101476110e4565b156105ce565b6001600160a01b0316331490505f6105b7565b6001600160a01b0316331491505f6105af565b61064c915060203d6020116102d0576102c28183610f19565b5f61059d565b61058b919250610670602091823d84116102d0576102c28183610f19565b92915061057c565b503461015757602036600319011261015757610692610eed565b61069b3361115d565b1561027a576106a990611455565b80f35b503461015757806003193601126101575760206106d26106ca611032565b6104766112d0565b6040516001600160a01b039091168152f35b5034610157578060031936011261015757805461070e906001600160a01b03166020610198610f94565b0381845afa91821561082257839261082d575b506020610730916101db610fdd565b03915afa908115610822578391610803575b5061074c3361115d565b9182156107f0575b5081156107dd575b50156101575761076d6105ff611032565b6101575761078a61077c611032565b6107846110e4565b90611857565b5f5160206127875f395f51905f5260c0604051338152336020820152600c60408201526080606082015260156080820152741bdddb995c9cc81a185d99481a5b9a5d1a585d1959605a1b60a0820152a180f35b6001600160a01b0316331490505f61075c565b6001600160a01b0316331491505f610754565b61081c915060203d6020116102d0576102c28183610f19565b5f610742565b6040513d85823e3d90fd5b61073091925061084b602091823d84116102d0576102c28183610f19565b929150610721565b503461015757602036600319011261015757602061014d610872610eed565b611313565b50346101575780600319360112610157576108a7610893610f73565b604051918291602083526020830190610f4f565b0390f35b5034610157576020366003190112610157576106a96108c8610eed565b6108dd60018060a01b03600554163314611111565b6108f16001600160a01b03821615156111bf565b61090b816108fd611032565b6109056112d0565b90611f65565b611c30565b503461015757806003193601126101575780805b61092f61034a61127d565b81101561098357600361094f610947836103b861127d565b6103526112ac565b1461095d575b600101610924565b915f19811461096f5760010191610955565b634e487b7160e01b82526011600452602482fd5b602083604051908152f35b50346101575780600319360112610157576108a76040516109b0604082610f19565b600d81526c13dddb995c90dbdb9d1c9858dd609a1b6020820152604051918291602083526020830190610f4f565b503461015757602036600319011261015757602061014d6109fd610eed565b611200565b5034610157576020366003190112610157576004356001600160a01b0381169081900361027a57600554816001600160a01b038216610a42338214611111565b610a4d8215156111bf565b7fd734ca01d7ec868e364f3c2cbda207212fa91c58040df183429252e85a48b2b18580a36001600160a01b0319161760055580f35b503461015757602036600319011261015757602061014d610aa1610eed565b61115d565b5034610b63575f366003190112610b6357610acc60018060a01b03600554163314611111565b60018060a01b035f5416600254610ae1611008565b90610aea610f73565b92803b15610b63575f9283610b2693610b386040519788968795869463163f5abb60e21b86526004860152606060248601526064850190610f4f565b83810360031901604485015290610f4f565b03925af18015610b5857610b4a575080f35b610b5691505f90610f19565b005b6040513d5f823e3d90fd5b5f80fd5b34610b63576020366003190112610b6357610b80610eed565b610b9560018060a01b03600554163314611111565b610b9f3382611922565b15610c0057610bad81611b1b565b15610bbb57610b5690611c30565b60405162461bcd60e51b815260206004820152601860248201527f6661696c65642061646420746f207768697465206c69737400000000000000006044820152606490fd5b60405162461bcd60e51b815260206004820152600b60248201526a1a5b9a5d0819985a5b195960aa1b6044820152606490fd5b34610b63575f366003190112610b6357602061014d6105ff611032565b34610b63576020366003190112610b6357602061014d610c6e610eed565b61109d565b34610b63575f366003190112610b63575f54610c9c906001600160a01b03166020610198610f94565b0381845afa918215610b58575f92610dcb575b506020610cbe916101db610fdd565b03915afa908115610b58575f91610dac575b50610cda3361115d565b918215610d99575b508115610d86575b5015610b6357610cfb61013f611032565b1580610d74575b15610b6357610d1a610d12611032565b61078461106c565b5f5160206127875f395f51905f5260c0604051338152336020820152600b604082015260806060820152601960808201527f6669727374206f776e65722068617320696e697469617465640000000000000060a0820152a1005b50610d806105ff611032565b15610d02565b6001600160a01b03163314905081610cea565b6001600160a01b03163314915082610ce2565b610dc5915060203d6020116102d0576102c28183610f19565b82610cd0565b610cbe919250610de9602091823d84116102d0576102c28183610f19565b929150610caf565b34610b63576020366003190112610b6357610e0a610eed565b5f54610e23906001600160a01b03166020610198610f94565b0381845afa918215610b58575f92610ec7575b506020610e45916101db610fdd565b03915afa908115610b58575f91610ea8575b50610e613361115d565b918215610e95575b508115610e82575b5015610b635761014d60209161177b565b6001600160a01b03163314905082610e71565b6001600160a01b03163314915083610e69565b610ec1915060203d6020116102d0576102c28183610f19565b83610e57565b610e45919250610ee5602091823d84116102d0576102c28183610f19565b929150610e36565b600435906001600160a01b0382168203610b6357565b602435906001600160a01b0382168203610b6357565b90601f8019910116810190811067ffffffffffffffff821117610f3b57604052565b634e487b7160e01b5f52604160045260245ffd5b805180835260209291819084018484015e5f828201840152601f01601f1916010190565b60405190610f82604083610f19565b600382526219171b60e91b6020830152565b60405190610fa3604083610f19565b600c82526b546f6b656e4665617475726560a01b6020830152565b90816020910312610b6357516001600160a01b0381168103610b635790565b60405190610fec604083610f19565b600d82526c4d656d6265724665617475726560981b6020830152565b60405190611017604083610f19565b600c82526b4f776e65724665617475726560a01b6020830152565b61103a611008565b6040516110666020828180820195805191829101875e81015f838201520301601f198101835282610f19565b51902090565b6040519061107b604083610f19565b601382527224b734ba34b0ba32b22334b939ba27bbb732b960691b6020830152565b6110a68161115d565b9081156110d3575b81156110c3575b506110be575f90565b600190565b6110cd9150611313565b5f6110b5565b90506110de81611200565b906110ae565b604051906110f3604083610f19565b600f82526e496e697469617465644f776e65727360881b6020830152565b1561111857565b60405162461bcd60e51b815260206004820152601b60248201527f4f6e6c792074686520446576656c6f70657220726571756972656400000000006044820152606490fd5b6001600160a01b038116156111ba57600361117782611dd7565b146111b45761118590611df7565b6001600160a01b038116151590816111a057506110be575f90565b600391506111ad90611dd7565b145f6110b5565b50600190565b505f90565b156111c657565b60405162461bcd60e51b815260206004820152601260248201527154686973206164647265737320697320302160701b6044820152606490fd5b6001600160a01b038116801561127757611218611032565b6001600160a01b039061122d906104766112d0565b16146111b4576001600160a01b039061124590611df7565b168015159081611253575090565b905061125d611032565b6001600160a01b0390611272906104766112d0565b161490565b50505f90565b611285611032565b604051602081019182526427bbb732b960d91b604082015260258152611066604582610f19565b604051906112bb604083610f19565b600682526573746174757360d01b6020830152565b604051906112df604083610f19565b600d82526c5265616465724164647265737360981b6020830152565b90816020910312610b6357518015158103610b635790565b5f5461132d906020906001600160a01b03166101db610fdd565b03915afa908115610b58575f91611414575b5060405163288c314960e21b81526001600160a01b038381166004830152919091169190602081602481865afa908115610b58575f916113f5575b506113ee5761138a602091611df7565b60405163288c314960e21b81526001600160a01b03909116600482015291829060249082905afa908115610b58575f916113c2575090565b6113e4915060203d6020116113e7575b6113dc8183610f19565b8101906112fb565b90565b503d6113d2565b5050600190565b61140e915060203d6020116113e7576113dc8183610f19565b5f61137a565b61142d915060203d6020116102d0576102c28183610f19565b5f61133f565b60405190611442604083610f19565b600482526330b2323960e11b6020830152565b906114603383611922565b15610b63575f915b61147361034a61127d565b83101561150f579061149261148a846103b861127d565b610476611433565b5f926001600160a01b039091169190835b6114b261034a876103b861127d565b8110156114f757836114ca826103b8896103b861127d565b6001600160a01b03906114df90610476612043565b16146114ee575b6001016114a3565b600194506114e6565b50939150911561150a5760010191611468565b509050565b61152491925061151e81611b1b565b50611c30565b565b60405190611535604083610f19565b6008825267383937b837b9b2b960c11b6020830152565b6040519061155b604083610f19565b6007825266313637b1b5b2b960c91b6020830152565b60405190611580604083610f19565b600482526374696d6560e01b6020830152565b5f546115d191906020906001600160a01b03166115ae610f94565b906040518080968194630251382f60e31b83528660048401526024830190610f4f565b03915afa918215610b58575f9261175a575b506115ed8161115d565b801561174b575b6113ee5761160181611313565b61160b5750505f90565b6001600160a01b0361161c82611df7565b168061169457506040516370a0823160e01b81526001600160a01b0391821660048201529160209183916024918391165afa908115610b58575f91611662575b50151590565b90506020813d60201161168c575b8161167d60209383610f19565b81010312610b6357515f61165c565b3d9150611670565b6040516370a0823160e01b8152600481019190915290916001600160a01b031690602081602481855afa908115610b58575f91611719575b5015918215926116db57505090565b6040516370a0823160e01b81526001600160a01b0390911660048201529150602090829060249082905afa908115610b58575f916116625750151590565b90506020813d602011611743575b8161173460209383610f19565b81010312610b6357515f6116cc565b3d9150611727565b5061175581611200565b6115f4565b61177491925060203d6020116102d0576102c28183610f19565b905f6115e3565b6001600160a01b038116906117918215156111bf565b61179a8161115d565b15610b63575f5160206127875f395f51905f52916118066117f86117bf60c094612087565b90506117f06117d0826103b861127d565b6117e16117db6112ac565b826120d5565b6117e961154c565b3391611f65565b6103b861127d565b611800611e9e565b906120d5565b604051908152336020820152600160408201526080606082015260086080820152671c995a9958dd195960c21b60a0820152a1600190565b602092839282528051928391018483015e01015f815290565b61187a61188860035460018060a01b03169360405192839160208301958661183e565b03601f198101835282610f19565b519020813b15610b63575f9160448392604051948593849263abfdcced60e01b84526004840152600160248401525af18015610b58576118c55750565b5f61152491610f19565b60209061187a6118f460018060a01b036003541694604051928391868301958661183e565b519020602460405180948193633d70e7e560e11b835260048301525afa908115610b58575f916113c2575090565b9061192c82612087565b9015611ab65761193e816103b861127d565b92600361195261194c6112ac565b86611ee3565b14610b63575f5b61196861034a846103b861127d565b8110156119a55761198261046e826103b8866103b861127d565b6001600160a01b0385811691161461199c57600101611959565b50505050505f90565b50909192836119b961034a856103b861127d565b15611a92575b50505b6119ec836119e46119d861034a866103b861127d565b6103b8866103b861127d565b610905612043565b6119f8826103b861127d565b92611a1061034a611a07611e9e565b946103b861127d565b9360018501809511611a7e575f5160206127875f395f51905f529460c094611a3792612194565b6040519160018060a01b0316825260018060a01b0316602082015260026040820152608060608201526008608082015267185c1c1c9bdd995960c21b60a0820152a1600190565b634e487b7160e01b5f52601160045260245ffd5b611aaf91611aa7611aa16112ac565b82612134565b610905611526565b5f836119bf565b5090611ac361034a61127d565b90611af183611ad4846103b861127d565b611adf611aa16112ac565b611aa784611aeb611433565b83611f65565b60018201808311611a7e57611b1690611b0861127d565b611b10611e9e565b90612194565b6119c2565b5f90611b2681612087565b90611b3057505090565b611b3e9192506103b861127d565b906003611b52611b4c6112ac565b84611ee3565b14610b6357611b5f6112ac565b9060018060a01b036003541691604051611b828161187a6020820194888661183e565b519020823b15610b63575f92604484926040519586938492637152429d60e11b84526004840152600360248401525af18015610b58575f5160206127875f395f51905f529360c093611be392611c20575b50611bdc611571565b4291612194565b6040519060018060a01b0316815233602082015260036040820152608060608201526005608082015264185919195960da1b60a0820152a1600190565b5f611c2a91610f19565b5f611bd3565b5f5460408051611c95939192602091906001600160a01b0316611c538583610f19565b60158252744163636f756e74466163746f72794665617475726560581b8383015284518080978194630251382f60e31b83528660048401526024830190610f4f565b03915afa928315611dcd575f93611dac575b5060018060a01b0316600b61058e835190611cc56020820183610f19565b80825260208201906121f98239611d1d8551916020808401878152818552611ced8986610f19565b885194859383850197518091895e840190838201905f8252519283915e01015f815203601f198101835282610f19565b519020835190848201528260208201528481520160ff8153605590206001600160a01b03163b15611d4d57505050565b8151639859387b60e01b8152600481019190915291602090839060249082905f906001600160a01b03165af1908115611da35750611d885750565b611da09060203d6020116102d0576102c28183610f19565b50565b513d5f823e3d90fd5b611dc691935060203d6020116102d0576102c28183610f19565b915f611ca7565b82513d5f823e3d90fd5b611de090612087565b90611de85790565b6109476113e4916103b861127d565b5f80916040516020810190638da5cb5b60e01b825260048152611e1b602482610f19565b51915afa3d15611e96573d9067ffffffffffffffff8211610f3b5760405191611e4e601f8201601f191660200184610f19565b82523d5f602084013e5b158015611e8a575b6111ba57602081805181010312610b6357602001516001600160a01b03811690819003610b635790565b50602081511415611e60565b606090611e58565b60405190611ead604083610f19565b600782526631b7bab73a32b960c91b6020830152565b906040519060208201928352604082015260408152611066606082610f19565b60209061187a611f0860018060a01b036003541694604051928391868301958661183e565b51902060246040518094819363bd02d0f560e01b835260048301525afa908115610b58575f91611f36575090565b90506020813d602011611f5d575b81611f5160209383610f19565b81010312610b63575190565b3d9150611f44565b6003546040516001600160a01b0390911693926020820192611f8e91839161187a91908661183e565b51902090823b15610b635760405163ca446dd960e01b815260048101929092526001600160a01b03166024820152905f908290604490829084905af18015610b58576118c55750565b60209061187a611ffc60018060a01b036003541694604051928391868301958661183e565b5190206024604051809481936321f8a72160e01b835260048301525afa908115610b58575f9161202a575090565b6113e4915060203d6020116102d0576102c28183610f19565b60405190612052604083610f19565b600e82526d4f776e6572417070726f7665727360901b6020830152565b67ffffffffffffffff8111610f3b5760051b60200190565b905f5b61209561034a61127d565b8110156120cc576120ab61148a826103b861127d565b6001600160a01b038481169116146120c55760010161208a565b6001925090565b505f91505f1990565b61187a6120f860018060a01b03600354169360405192839160208301958661183e565b519020813b15610b63575f91604483926040519485938492637152429d60e11b845260048401528160248401525af18015610b58576118c55750565b61187a61215760035460018060a01b03169360405192839160208301958661183e565b519020813b15610b63575f91604483926040519485938492637152429d60e11b84526004840152600160248401525af18015610b58576118c55750565b6003546040516001600160a01b03909116939260208201926121bd91839161187a91908661183e565b51902090823b15610b635760445f92836040519586948593637152429d60e11b8552600485015260248401525af18015610b58576118c5575056fe608034606f57601f61058e38819003918201601f19168301916001600160401b03831184841017607357808492602094604052833981010312606f57516001600160a01b03811690819003606f575f80546001600160a01b03191691909117905560405161050690816100888239f35b5f80fd5b634e487b7160e01b5f52604160045260245ffdfe6080604052600436101561001a575b3615610018575f80fd5b005b5f3560e01c806319822f7c146102455780632e1a7d4d146101de578063853828b61461016d5780638da5cb5b146101465763b61d27f60361000e576060366003190112610142576004356001600160a01b03811681036101425760443567ffffffffffffffff811161014257366023820112156101425780600401359167ffffffffffffffff83116101425736602484840101116101425760245f939283859460405193849301833781018481520391602435905af13d1561013a573d906100e96100e483610384565b61034a565b9182523d5f602084013e5b156100fb57005b604460209160405192839162461bcd60e51b83528160048401528051918291826024860152018484015e5f828201840152601f01601f19168101030190fd5b6060906100f4565b5f80fd5b34610142575f366003190112610142575f546040516001600160a01b039091168152602090f35b34610142575f366003190112610142575f546001600160a01b031633811415806101d4575b6101c1575f8080809347908282156101b8575bf1156101ad57005b6040513d5f823e3d90fd5b506108fc6101a5565b63245aecd360e01b5f523360045260245ffd5b5030331415610192565b34610142576020366003190112610142575f54600435906001600160a01b0316338114158061023b575b6101c157478211610228575f80809381938282156101b857f1156101ad57005b47639266535160e01b5f5260045260245ffd5b5030331415610208565b346101425760603660031901126101425760043567ffffffffffffffff811161014257803603610120600319820112610142577f19457468657265756d205369676e6564204d6573736167653a0a3332000000005f52602435601c52603c5f2091610104810135916022190182121561014257019060048201359167ffffffffffffffff83116101425760248101918336038313610142576102e96100e485610384565b918483526020600486369301010111610142575f60208561031e966103159683870137840101526103a0565b909291926103da565b5f546001600160a01b039182169116036103415760205f5b60ff60405191168152f35b60206001610336565b6040519190601f01601f1916820167ffffffffffffffff81118382101761037057604052565b634e487b7160e01b5f52604160045260245ffd5b67ffffffffffffffff811161037057601f01601f191660200190565b81519190604183036103d0576103c99250602082015190606060408401519301515f1a9061044e565b9192909190565b50505f9160029190565b600481101561043a57806103ec575050565b600181036104035763f645eedf60e01b5f5260045ffd5b6002810361041e575063fce698f760e01b5f5260045260245ffd5b6003146104285750565b6335e2f38360e21b5f5260045260245ffd5b634e487b7160e01b5f52602160045260245ffd5b91907f7fffffffffffffffffffffffffffffff5d576e7357a4501ddfe92f46681b20a084116104c5579160209360809260ff5f9560405194855216868401526040830152606082015282805260015afa156101ad575f516001600160a01b038116156104bb57905f905f90565b505f906001905f90565b5050505f916003919056fea264697066735822122002a75378061a3f30c6c6ff6024c0f06a74507f65df8cbbe8cdcab9c17b8ca11d64736f6c634300081c0033ea0b3574a7fa9afe9053826b10d37d8cea2fbcab0f22885db2c3a87519d1e962a2646970667358221220434ce230184d61feaaeda13f026f39fcf824e17bdf79b9395e6426a94571de9064736f6c634300081c0033",
  "linkReferences": {},
  "deployedLinkReferences": {}
}