{
  "_format": "hh-sol-artifact-1",
  "contractName": "OwnerContract",
  "sourceName": "contracts/subcontract/OwnerContract.sol",
  "abi": [
    {
      "inputs": [
        {
          "internalType": "address",
          "name": "_storage",
          "type": "address"
        },
        {
          "internalType": "address",
          "name": "_master",
          "type": "address"
        },
        {
          "internalType": "bytes32",
          "name": "_key",
          "type": "bytes32"
        }
      ],
      "stateMutability": "nonpayable",
      "type": "constructor"
    },
    {
      "anonymous": false,
      "inputs": [
        {
          "indexed": true,
          "internalType": "address",
          "name": "previousDeveloper",
          "type": "address"
        },
        {
          "indexed": true,
          "internalType": "address",
          "name": "newDeveloper",
          "type": "address"
        }
      ],
      "name": "DeveloperTransferredEvent",
      "type": "event"
    },
    {
      "anonymous": false,
      "inputs": [
        {
          "indexed": false,
          "internalType": "address",
          "name": "addr",
          "type": "address"
        },
        {
          "indexed": false,
          "internalType": "address",
          "name": "who",
          "type": "address"
        },
        {
          "indexed": false,
          "internalType": "uint256",
          "name": "status",
          "type": "uint256"
        },
        {
          "indexed": false,
          "internalType": "string",
          "name": "eventText",
          "type": "string"
        }
      ],
      "name": "OwnerEvent",
      "type": "event"
    },
    {
      "inputs": [
        {
          "internalType": "address",
          "name": "addr",
          "type": "address"
        },
        {
          "internalType": "address",
          "name": "who",
          "type": "address"
        }
      ],
      "name": "addAddressToOwnerList",
      "outputs": [
        {
          "internalType": "bool",
          "name": "",
          "type": "bool"
        }
      ],
      "stateMutability": "nonpayable",
      "type": "function"
    },
    {
      "inputs": [
        {
          "internalType": "address",
          "name": "addr",
          "type": "address"
        }
      ],
      "name": "approveOwner",
      "outputs": [],
      "stateMutability": "nonpayable",
      "type": "function"
    },
    {
      "inputs": [
        {
          "internalType": "address",
          "name": "_old",
          "type": "address"
        },
        {
          "internalType": "address",
          "name": "_new",
          "type": "address"
        }
      ],
      "name": "changeOwner",
      "outputs": [
        {
          "internalType": "bool",
          "name": "",
          "type": "bool"
        }
      ],
      "stateMutability": "nonpayable",
      "type": "function"
    },
    {
      "inputs": [],
      "name": "contractName",
      "outputs": [
        {
          "internalType": "string",
          "name": "",
          "type": "string"
        }
      ],
      "stateMutability": "view",
      "type": "function"
    },
    {
      "inputs": [],
      "name": "contractVersion",
      "outputs": [
        {
          "internalType": "string",
          "name": "",
          "type": "string"
        }
      ],
      "stateMutability": "view",
      "type": "function"
    },
    {
      "inputs": [],
      "name": "developer",
      "outputs": [
        {
          "internalType": "address payable",
          "name": "",
          "type": "address"
        }
      ],
      "stateMutability": "view",
      "type": "function"
    },
    {
      "inputs": [],
      "name": "getActiveOwnerCounter",
      "outputs": [
        {
          "internalType": "uint256",
          "name": "",
          "type": "uint256"
        }
      ],
      "stateMutability": "view",
      "type": "function"
    },
    {
      "inputs": [
        {
          "internalType": "uint256",
          "name": "_id",
          "type": "uint256"
        }
      ],
      "name": "getOwner",
      "outputs": [
        {
          "internalType": "uint256",
          "name": "status",
          "type": "uint256"
        },
        {
          "internalType": "address",
          "name": "addr",
          "type": "address"
        },
        {
          "internalType": "address",
          "name": "proposer",
          "type": "address"
        },
        {
          "internalType": "address",
          "name": "blocker",
          "type": "address"
        },
        {
          "internalType": "uint256",
          "name": "regTime",
          "type": "uint256"
        },
        {
          "internalType": "address[]",
          "name": "approvers",
          "type": "address[]"
        }
      ],
      "stateMutability": "view",
      "type": "function"
    },
    {
      "inputs": [],
      "name": "getOwnerCounter",
      "outputs": [
        {
          "internalType": "uint256",
          "name": "",
          "type": "uint256"
        }
      ],
      "stateMutability": "view",
      "type": "function"
    },
    {
      "inputs": [
        {
          "internalType": "address",
          "name": "addr",
          "type": "address"
        }
      ],
      "name": "init",
      "outputs": [],
      "stateMutability": "nonpayable",
      "type": "function"
    },
    {
      "inputs": [],
      "name": "initiateFirstOwner",
      "outputs": [],
      "stateMutability": "nonpayable",
      "type": "function"
    },
    {
      "inputs": [],
      "name": "initiateOwners",
      "outputs": [],
      "stateMutability": "nonpayable",
      "type": "function"
    },
    {
      "inputs": [],
      "name": "isInitiatedFirstOwner",
      "outputs": [
        {
          "internalType": "bool",
          "name": "",
          "type": "bool"
        }
      ],
      "stateMutability": "view",
      "type": "function"
    },
    {
      "inputs": [],
      "name": "isInitiatedOwners",
      "outputs": [
        {
          "internalType": "bool",
          "name": "",
          "type": "bool"
        }
      ],
      "stateMutability": "view",
      "type": "function"
    },
    {
      "inputs": [
        {
          "internalType": "address",
          "name": "addr",
          "type": "address"
        }
      ],
      "name": "isMember",
      "outputs": [
        {
          "internalType": "bool",
          "name": "",
          "type": "bool"
        }
      ],
      "stateMutability": "view",
      "type": "function"
    },
    {
      "inputs": [
        {
          "internalType": "address",
          "name": "addr",
          "type": "address"
        }
      ],
      "name": "isOwner",
      "outputs": [
        {
          "internalType": "bool",
          "name": "",
          "type": "bool"
        }
      ],
      "stateMutability": "view",
      "type": "function"
    },
    {
      "inputs": [
        {
          "internalType": "address",
          "name": "addr",
          "type": "address"
        }
      ],
      "name": "isPerson",
      "outputs": [
        {
          "internalType": "bool",
          "name": "",
          "type": "bool"
        }
      ],
      "stateMutability": "view",
      "type": "function"
    },
    {
      "inputs": [
        {
          "internalType": "address",
          "name": "addr",
          "type": "address"
        }
      ],
      "name": "isReader",
      "outputs": [
        {
          "internalType": "bool",
          "name": "",
          "type": "bool"
        }
      ],
      "stateMutability": "view",
      "type": "function"
    },
    {
      "inputs": [
        {
          "internalType": "address",
          "name": "addr",
          "type": "address"
        }
      ],
      "name": "isTrustedPerson",
      "outputs": [
        {
          "internalType": "bool",
          "name": "",
          "type": "bool"
        }
      ],
      "stateMutability": "view",
      "type": "function"
    },
    {
      "inputs": [],
      "name": "register",
      "outputs": [],
      "stateMutability": "nonpayable",
      "type": "function"
    },
    {
      "inputs": [
        {
          "internalType": "address",
          "name": "addr",
          "type": "address"
        }
      ],
      "name": "rejectAddressFromOwnerList",
      "outputs": [
        {
          "internalType": "bool",
          "name": "",
          "type": "bool"
        }
      ],
      "stateMutability": "nonpayable",
      "type": "function"
    },
    {
      "inputs": [
        {
          "internalType": "address",
          "name": "addr",
          "type": "address"
        }
      ],
      "name": "setReader",
      "outputs": [],
      "stateMutability": "nonpayable",
      "type": "function"
    },
    {
      "inputs": [
        {
          "internalType": "address payable",
          "name": "newDeveloper",
          "type": "address"
        }
      ],
      "name": "transferDeveloper",
      "outputs": [],
      "stateMutability": "nonpayable",
      "type": "function"
    }
  ],
  "bytecode": "0x60803460ae57601f61287338819003918201601f19168301916001600160401b0383118484101760b25780849260609460405283398101031260ae5760428160c6565b906040604f6020830160c6565b910151600180546001600160a01b03199081166001600160a01b039485169081179092555f8054821690921790915560029190915560038054821693909216929092179055600580549091163317905560405161279990816100da8239f35b5f80fd5b634e487b7160e01b5f52604160045260245ffd5b51906001600160a01b038216820360ae5756fe60806040526004361015610011575f80fd5b5f5f3560e01c80630557927a14610dae5780630e895ea214610c305780630f73927a14610c0d578063158425f514610bf057806319ab453c14610b245780631aa3a00814610a635780632f54bf6e14610a3f57806364cb4edb146109bf57806369a7ddf71461099b57806375d0c0dc1461094b57806381595842146108cd5780639598da7f14610868578063a0a8e46014610834578063a230c52414610810578063ac9f5ac9146106a1578063b648ee2d1461066d578063c28bdca614610523578063c41a360a1461037e578063ca4b208b14610355578063e50fdc5e14610321578063e5f93e97146102fd578063f00d4b5d1461014f5763f439d0d814610117575f80fd5b3461014c578060031936011261014c576020610142610134610fef565b61013c611029565b9061188c565b6040519015158152f35b80fd5b503461014c57604036600319011261014c57610169610eaa565b610171610ec0565b82549091906101ae906001600160a01b0316602061018d610f51565b60405180948192630251382f60e31b83528460048401526024830190610f0c565b0381845afa9182156102cc5785926102d7575b5060206101f3916101d0610f9a565b906040518080958194630251382f60e31b83528660048401526024830190610f0c565b03915afa9081156102cc57859161029d575b5061020f3361111a565b91821561028a575b508115610277575b50156102735761022e90611738565b1561026f5761023d33826118df565b1561026f578061024e602092611ad8565b9081610260575b506040519015158152f35b61026990611bed565b82610255565b5080fd5b8280fd5b6001600160a01b0316331490505f61021f565b6001600160a01b0316331491505f610217565b6102bf915060203d6020116102c5575b6102b78183610ed6565b810190610f7b565b5f610205565b503d6102ad565b6040513d87823e3d90fd5b6101f39192506102f5602091823d84116102c5576102b78183610ed6565b9291506101c1565b503461014c57602036600319011261014c57602061014261031c610eaa565b611550565b503461014c578060031936011261014c57602061034d61033f61123a565b610347611e5b565b90611ea0565b604051908152f35b503461014c578060031936011261014c576005546040516001600160a01b039091168152602090f35b503461014c57602036600319011261014c5760043561039c33611550565b1561026f576103b2816103ad61123a565b611e80565b906103c46103be611269565b83611ea0565b906103d66103d06113f0565b84611f94565b6103e76103e16114e3565b85611f94565b936104056103fc6103f6611509565b83611f94565b9161034761152e565b9361041561033f856103ad61123a565b946104386104228761202c565b966104306040519889610ed6565b80885261202c565b602087019390601f1901368537885b87518110156104aa57610471610463826103ad8a6103ad61123a565b61046b612000565b90611f94565b8851821015610496576001600160a01b0316600582901b890160200152600101610447565b634e487b7160e01b8b52603260045260248bfd5b50604080519384526001600160a01b039586166020850152888616908401529093166060820152608081019290925260c060a083018190528451908301819052829160e0830191885b818110610501575050500390f35b82516001600160a01b03168452859450602093840193909201916001016104f3565b503461014c57604036600319011261014c5761053d610eaa565b610545610ec0565b825461055e906001600160a01b0316602061018d610f51565b0381845afa9182156102cc578592610647575b506020610580916101d0610f9a565b03915afa9081156102cc578591610628575b5061059c3361111a565b918215610615575b508115610602575b5015610273576105bd610134610fef565b806105e8575b15610273576105d18161111a565b156105e1575b61023d90826118df565b50336105d7565b506105fc6105f4610fef565b61013c6110a1565b156105c3565b6001600160a01b0316331490505f6105ac565b6001600160a01b0316331491505f6105a4565b610641915060203d6020116102c5576102b78183610ed6565b5f610592565b610580919250610665602091823d84116102c5576102b78183610ed6565b929150610571565b503461014c57602036600319011261014c57610687610eaa565b6106903361111a565b1561026f5761069e90611412565b80f35b503461014c578060031936011261014c5780546106cb906001600160a01b0316602061018d610f51565b0381845afa9182156107df5783926107ea575b5060206106ed916101d0610f9a565b03915afa9081156107df5783916107c0575b506107093361111a565b9182156107ad575b50811561079a575b501561014c5761072a6105f4610fef565b61014c57610747610739610fef565b6107416110a1565b90611814565b5f5160206127445f395f51905f5260c0604051338152336020820152600c60408201526080606082015260156080820152741bdddb995c9cc81a185d99481a5b9a5d1a585d1959605a1b60a0820152a180f35b6001600160a01b0316331490505f610719565b6001600160a01b0316331491505f610711565b6107d9915060203d6020116102c5576102b78183610ed6565b5f6106ff565b6040513d85823e3d90fd5b6106ed919250610808602091823d84116102c5576102b78183610ed6565b9291506106de565b503461014c57602036600319011261014c57602061014261082f610eaa565b6112d0565b503461014c578060031936011261014c57610864610850610f30565b604051918291602083526020830190610f0c565b0390f35b503461014c57602036600319011261014c5761069e610885610eaa565b61089a60018060a01b036005541633146110ce565b6108ae6001600160a01b038216151561117c565b6108c8816108ba610fef565b6108c261128d565b90611f22565b611bed565b503461014c578060031936011261014c5780805b6108ec61033f61123a565b81101561094057600361090c610904836103ad61123a565b610347611269565b1461091a575b6001016108e1565b915f19811461092c5760010191610912565b634e487b7160e01b82526011600452602482fd5b602083604051908152f35b503461014c578060031936011261014c5761086460405161096d604082610ed6565b600d81526c13dddb995c90dbdb9d1c9858dd609a1b6020820152604051918291602083526020830190610f0c565b503461014c57602036600319011261014c5760206101426109ba610eaa565b6111bd565b503461014c57602036600319011261014c576004356001600160a01b0381169081900361026f57600554816001600160a01b0382166109ff3382146110ce565b610a0a82151561117c565b7fd734ca01d7ec868e364f3c2cbda207212fa91c58040df183429252e85a48b2b18580a36001600160a01b0319161760055580f35b503461014c57602036600319011261014c576020610142610a5e610eaa565b61111a565b5034610b20575f366003190112610b2057610a8960018060a01b036005541633146110ce565b60018060a01b035f5416600254610a9e610fc5565b90610aa7610f30565b92803b15610b20575f9283610ae393610af56040519788968795869463163f5abb60e21b86526004860152606060248601526064850190610f0c565b83810360031901604485015290610f0c565b03925af18015610b1557610b07575080f35b610b1391505f90610ed6565b005b6040513d5f823e3d90fd5b5f80fd5b34610b20576020366003190112610b2057610b3d610eaa565b610b5260018060a01b036005541633146110ce565b610b5c33826118df565b15610bbd57610b6a81611ad8565b15610b7857610b1390611bed565b60405162461bcd60e51b815260206004820152601860248201527f6661696c65642061646420746f207768697465206c69737400000000000000006044820152606490fd5b60405162461bcd60e51b815260206004820152600b60248201526a1a5b9a5d0819985a5b195960aa1b6044820152606490fd5b34610b20575f366003190112610b205760206101426105f4610fef565b34610b20576020366003190112610b20576020610142610c2b610eaa565b61105a565b34610b20575f366003190112610b20575f54610c59906001600160a01b0316602061018d610f51565b0381845afa918215610b15575f92610d88575b506020610c7b916101d0610f9a565b03915afa908115610b15575f91610d69575b50610c973361111a565b918215610d56575b508115610d43575b5015610b2057610cb8610134610fef565b1580610d31575b15610b2057610cd7610ccf610fef565b610741611029565b5f5160206127445f395f51905f5260c0604051338152336020820152600b604082015260806060820152601960808201527f6669727374206f776e65722068617320696e697469617465640000000000000060a0820152a1005b50610d3d6105f4610fef565b15610cbf565b6001600160a01b03163314905081610ca7565b6001600160a01b03163314915082610c9f565b610d82915060203d6020116102c5576102b78183610ed6565b82610c8d565b610c7b919250610da6602091823d84116102c5576102b78183610ed6565b929150610c6c565b34610b20576020366003190112610b2057610dc7610eaa565b5f54610de0906001600160a01b0316602061018d610f51565b0381845afa918215610b15575f92610e84575b506020610e02916101d0610f9a565b03915afa908115610b15575f91610e65575b50610e1e3361111a565b918215610e52575b508115610e3f575b5015610b2057610142602091611738565b6001600160a01b03163314905082610e2e565b6001600160a01b03163314915083610e26565b610e7e915060203d6020116102c5576102b78183610ed6565b83610e14565b610e02919250610ea2602091823d84116102c5576102b78183610ed6565b929150610df3565b600435906001600160a01b0382168203610b2057565b602435906001600160a01b0382168203610b2057565b90601f8019910116810190811067ffffffffffffffff821117610ef857604052565b634e487b7160e01b5f52604160045260245ffd5b805180835260209291819084018484015e5f828201840152601f01601f1916010190565b60405190610f3f604083610ed6565b600382526219171b60e91b6020830152565b60405190610f60604083610ed6565b600c82526b546f6b656e4665617475726560a01b6020830152565b90816020910312610b2057516001600160a01b0381168103610b205790565b60405190610fa9604083610ed6565b600d82526c4d656d6265724665617475726560981b6020830152565b60405190610fd4604083610ed6565b600c82526b4f776e65724665617475726560a01b6020830152565b610ff7610fc5565b6040516110236020828180820195805191829101875e81015f838201520301601f198101835282610ed6565b51902090565b60405190611038604083610ed6565b601382527224b734ba34b0ba32b22334b939ba27bbb732b960691b6020830152565b6110638161111a565b908115611090575b8115611080575b5061107b575f90565b600190565b61108a91506112d0565b5f611072565b905061109b816111bd565b9061106b565b604051906110b0604083610ed6565b600f82526e496e697469617465644f776e65727360881b6020830152565b156110d557565b60405162461bcd60e51b815260206004820152601b60248201527f4f6e6c792074686520446576656c6f70657220726571756972656400000000006044820152606490fd5b6001600160a01b0381161561117757600361113482611d94565b146111715761114290611db4565b6001600160a01b0381161515908161115d575061107b575f90565b6003915061116a90611d94565b145f611072565b50600190565b505f90565b1561118357565b60405162461bcd60e51b815260206004820152601260248201527154686973206164647265737320697320302160701b6044820152606490fd5b6001600160a01b0381168015611234576111d5610fef565b6001600160a01b03906111ea9061046b61128d565b1614611171576001600160a01b039061120290611db4565b168015159081611210575090565b905061121a610fef565b6001600160a01b039061122f9061046b61128d565b161490565b50505f90565b611242610fef565b604051602081019182526427bbb732b960d91b604082015260258152611023604582610ed6565b60405190611278604083610ed6565b600682526573746174757360d01b6020830152565b6040519061129c604083610ed6565b600d82526c5265616465724164647265737360981b6020830152565b90816020910312610b2057518015158103610b205790565b5f546112ea906020906001600160a01b03166101d0610f9a565b03915afa908115610b15575f916113d1575b5060405163288c314960e21b81526001600160a01b038381166004830152919091169190602081602481865afa908115610b15575f916113b2575b506113ab57611347602091611db4565b60405163288c314960e21b81526001600160a01b03909116600482015291829060249082905afa908115610b15575f9161137f575090565b6113a1915060203d6020116113a4575b6113998183610ed6565b8101906112b8565b90565b503d61138f565b5050600190565b6113cb915060203d6020116113a4576113998183610ed6565b5f611337565b6113ea915060203d6020116102c5576102b78183610ed6565b5f6112fc565b604051906113ff604083610ed6565b600482526330b2323960e11b6020830152565b9061141d33836118df565b15610b20575f915b61143061033f61123a565b8310156114cc579061144f611447846103ad61123a565b61046b6113f0565b5f926001600160a01b039091169190835b61146f61033f876103ad61123a565b8110156114b45783611487826103ad896103ad61123a565b6001600160a01b039061149c9061046b612000565b16146114ab575b600101611460565b600194506114a3565b5093915091156114c75760010191611425565b509050565b6114e19192506114db81611ad8565b50611bed565b565b604051906114f2604083610ed6565b6008825267383937b837b9b2b960c11b6020830152565b60405190611518604083610ed6565b6007825266313637b1b5b2b960c91b6020830152565b6040519061153d604083610ed6565b600482526374696d6560e01b6020830152565b5f5461158e91906020906001600160a01b031661156b610f51565b906040518080968194630251382f60e31b83528660048401526024830190610f0c565b03915afa918215610b15575f92611717575b506115aa8161111a565b8015611708575b6113ab576115be816112d0565b6115c85750505f90565b6001600160a01b036115d982611db4565b168061165157506040516370a0823160e01b81526001600160a01b0391821660048201529160209183916024918391165afa908115610b15575f9161161f575b50151590565b90506020813d602011611649575b8161163a60209383610ed6565b81010312610b2057515f611619565b3d915061162d565b6040516370a0823160e01b8152600481019190915290916001600160a01b031690602081602481855afa908115610b15575f916116d6575b50159182159261169857505090565b6040516370a0823160e01b81526001600160a01b0390911660048201529150602090829060249082905afa908115610b15575f9161161f5750151590565b90506020813d602011611700575b816116f160209383610ed6565b81010312610b2057515f611689565b3d91506116e4565b50611712816111bd565b6115b1565b61173191925060203d6020116102c5576102b78183610ed6565b905f6115a0565b6001600160a01b0381169061174e82151561117c565b6117578161111a565b15610b20575f5160206127445f395f51905f52916117c36117b561177c60c094612044565b90506117ad61178d826103ad61123a565b61179e611798611269565b82612092565b6117a6611509565b3391611f22565b6103ad61123a565b6117bd611e5b565b90612092565b604051908152336020820152600160408201526080606082015260086080820152671c995a9958dd195960c21b60a0820152a1600190565b602092839282528051928391018483015e01015f815290565b61183761184560035460018060a01b0316936040519283916020830195866117fb565b03601f198101835282610ed6565b519020813b15610b20575f9160448392604051948593849263abfdcced60e01b84526004840152600160248401525af18015610b15576118825750565b5f6114e191610ed6565b6020906118376118b160018060a01b03600354169460405192839186830195866117fb565b519020602460405180948193633d70e7e560e11b835260048301525afa908115610b15575f9161137f575090565b906118e982612044565b9015611a73576118fb816103ad61123a565b92600361190f611909611269565b86611ea0565b14610b20575f5b61192561033f846103ad61123a565b8110156119625761193f610463826103ad866103ad61123a565b6001600160a01b0385811691161461195957600101611916565b50505050505f90565b509091928361197661033f856103ad61123a565b15611a4f575b50505b6119a9836119a161199561033f866103ad61123a565b6103ad866103ad61123a565b6108c2612000565b6119b5826103ad61123a565b926119cd61033f6119c4611e5b565b946103ad61123a565b9360018501809511611a3b575f5160206127445f395f51905f529460c0946119f492612151565b6040519160018060a01b0316825260018060a01b0316602082015260026040820152608060608201526008608082015267185c1c1c9bdd995960c21b60a0820152a1600190565b634e487b7160e01b5f52601160045260245ffd5b611a6c91611a64611a5e611269565b826120f1565b6108c26114e3565b5f8361197c565b5090611a8061033f61123a565b90611aae83611a91846103ad61123a565b611a9c611a5e611269565b611a6484611aa86113f0565b83611f22565b60018201808311611a3b57611ad390611ac561123a565b611acd611e5b565b90612151565b61197f565b5f90611ae381612044565b90611aed57505090565b611afb9192506103ad61123a565b906003611b0f611b09611269565b84611ea0565b14610b2057611b1c611269565b9060018060a01b036003541691604051611b3f81611837602082019488866117fb565b519020823b15610b20575f92604484926040519586938492637152429d60e11b84526004840152600360248401525af18015610b15575f5160206127445f395f51905f529360c093611ba092611bdd575b50611b9961152e565b4291612151565b6040519060018060a01b0316815233602082015260036040820152608060608201526005608082015264185919195960da1b60a0820152a1600190565b5f611be791610ed6565b5f611b90565b5f5460408051611c52939192602091906001600160a01b0316611c108583610ed6565b60158252744163636f756e74466163746f72794665617475726560581b8383015284518080978194630251382f60e31b83528660048401526024830190610f0c565b03915afa928315611d8a575f93611d69575b5060018060a01b0316600b61058e835190611c826020820183610ed6565b80825260208201906121b68239611cda8551916020808401878152818552611caa8986610ed6565b885194859383850197518091895e840190838201905f8252519283915e01015f815203601f198101835282610ed6565b519020835190848201528260208201528481520160ff8153605590206001600160a01b03163b15611d0a57505050565b8151639859387b60e01b8152600481019190915291602090839060249082905f906001600160a01b03165af1908115611d605750611d455750565b611d5d9060203d6020116102c5576102b78183610ed6565b50565b513d5f823e3d90fd5b611d8391935060203d6020116102c5576102b78183610ed6565b915f611c64565b82513d5f823e3d90fd5b611d9d90612044565b90611da55790565b6109046113a1916103ad61123a565b5f80916040516020810190638da5cb5b60e01b825260048152611dd8602482610ed6565b51915afa3d15611e53573d9067ffffffffffffffff8211610ef85760405191611e0b601f8201601f191660200184610ed6565b82523d5f602084013e5b158015611e47575b61117757602081805181010312610b2057602001516001600160a01b03811690819003610b205790565b50602081511415611e1d565b606090611e15565b60405190611e6a604083610ed6565b600782526631b7bab73a32b960c91b6020830152565b906040519060208201928352604082015260408152611023606082610ed6565b602090611837611ec560018060a01b03600354169460405192839186830195866117fb565b51902060246040518094819363bd02d0f560e01b835260048301525afa908115610b15575f91611ef3575090565b90506020813d602011611f1a575b81611f0e60209383610ed6565b81010312610b20575190565b3d9150611f01565b6003546040516001600160a01b0390911693926020820192611f4b9183916118379190866117fb565b51902090823b15610b205760405163ca446dd960e01b815260048101929092526001600160a01b03166024820152905f908290604490829084905af18015610b15576118825750565b602090611837611fb960018060a01b03600354169460405192839186830195866117fb565b5190206024604051809481936321f8a72160e01b835260048301525afa908115610b15575f91611fe7575090565b6113a1915060203d6020116102c5576102b78183610ed6565b6040519061200f604083610ed6565b600e82526d4f776e6572417070726f7665727360901b6020830152565b67ffffffffffffffff8111610ef85760051b60200190565b905f5b61205261033f61123a565b81101561208957612068611447826103ad61123a565b6001600160a01b0384811691161461208257600101612047565b6001925090565b505f91505f1990565b6118376120b560018060a01b0360035416936040519283916020830195866117fb565b519020813b15610b20575f91604483926040519485938492637152429d60e11b845260048401528160248401525af18015610b15576118825750565b61183761211460035460018060a01b0316936040519283916020830195866117fb565b519020813b15610b20575f91604483926040519485938492637152429d60e11b84526004840152600160248401525af18015610b15576118825750565b6003546040516001600160a01b039091169392602082019261217a9183916118379190866117fb565b51902090823b15610b205760445f92836040519586948593637152429d60e11b8552600485015260248401525af18015610b1557611882575056fe608034606f57601f61058e38819003918201601f19168301916001600160401b03831184841017607357808492602094604052833981010312606f57516001600160a01b03811690819003606f575f80546001600160a01b03191691909117905560405161050690816100888239f35b5f80fd5b634e487b7160e01b5f52604160045260245ffdfe6080604052600436101561001a575b3615610018575f80fd5b005b5f3560e01c806319822f7c146102455780632e1a7d4d146101de578063853828b61461016d5780638da5cb5b146101465763b61d27f60361000e576060366003190112610142576004356001600160a01b03811681036101425760443567ffffffffffffffff811161014257366023820112156101425780600401359167ffffffffffffffff83116101425736602484840101116101425760245f939283859460405193849301833781018481520391602435905af13d1561013a573d906100e96100e483610384565b61034a565b9182523d5f602084013e5b156100fb57005b604460209160405192839162461bcd60e51b83528160048401528051918291826024860152018484015e5f828201840152601f01601f19168101030190fd5b6060906100f4565b5f80fd5b34610142575f366003190112610142575f546040516001600160a01b039091168152602090f35b34610142575f366003190112610142575f546001600160a01b031633811415806101d4575b6101c1575f8080809347908282156101b8575bf1156101ad57005b6040513d5f823e3d90fd5b506108fc6101a5565b63245aecd360e01b5f523360045260245ffd5b5030331415610192565b34610142576020366003190112610142575f54600435906001600160a01b0316338114158061023b575b6101c157478211610228575f80809381938282156101b857f1156101ad57005b47639266535160e01b5f5260045260245ffd5b5030331415610208565b346101425760603660031901126101425760043567ffffffffffffffff811161014257803603610120600319820112610142577f19457468657265756d205369676e6564204d6573736167653a0a3332000000005f52602435601c52603c5f2091610104810135916022190182121561014257019060048201359167ffffffffffffffff83116101425760248101918336038313610142576102e96100e485610384565b918483526020600486369301010111610142575f60208561031e966103159683870137840101526103a0565b909291926103da565b5f546001600160a01b039182169116036103415760205f5b60ff60405191168152f35b60206001610336565b6040519190601f01601f1916820167ffffffffffffffff81118382101761037057604052565b634e487b7160e01b5f52604160045260245ffd5b67ffffffffffffffff811161037057601f01601f191660200190565b81519190604183036103d0576103c99250602082015190606060408401519301515f1a9061044e565b9192909190565b50505f9160029190565b600481101561043a57806103ec575050565b600181036104035763f645eedf60e01b5f5260045ffd5b6002810361041e575063fce698f760e01b5f5260045260245ffd5b6003146104285750565b6335e2f38360e21b5f5260045260245ffd5b634e487b7160e01b5f52602160045260245ffd5b91907f7fffffffffffffffffffffffffffffff5d576e7357a4501ddfe92f46681b20a084116104c5579160209360809260ff5f9560405194855216868401526040830152606082015282805260015afa156101ad575f516001600160a01b038116156104bb57905f905f90565b505f906001905f90565b5050505f916003919056fea264697066735822122002a75378061a3f30c6c6ff6024c0f06a74507f65df8cbbe8cdcab9c17b8ca11d64736f6c634300081c0033ea0b3574a7fa9afe9053826b10d37d8cea2fbcab0f22885db2c3a87519d1e962a264697066735822122088b9630feef793b8d0e516f5ad6260cc06828e9a1f5618521bcb3bd19108563e64736f6c634300081c0033",
  "linkReferences": {},
  "deployedLinkReferences": {}
}