{
  "_format": "hh-sol-artifact-1",
  "contractName": "PaymasterContract",
  "sourceName": "contracts/account-abstraction/Paymaster.sol",
  "abi": [
    {
      "inputs": [
        {
          "internalType": "address",
          "name": "_entryPoint",
          "type": "address"
        },
        {
          "internalType": "address",
          "name": "_storage",
          "type": "address"
        },
        {
          "internalType": "address",
          "name": "_master",
          "type": "address"
        },
        {
          "internalType": "bytes32",
          "name": "_key",
          "type": "bytes32"
        }
      ],
      "stateMutability": "nonpayable",
      "type": "constructor"
    },
    {
      "inputs": [
        {
          "internalType": "address",
          "name": "person",
          "type": "address"
        }
      ],
      "name": "NotAllowedPerson",
      "type": "error"
    },
    {
      "inputs": [],
      "name": "NotFromEntryPoint",
      "type": "error"
    },
    {
      "anonymous": false,
      "inputs": [
        {
          "indexed": true,
          "internalType": "address",
          "name": "previousDeveloper",
          "type": "address"
        },
        {
          "indexed": true,
          "internalType": "address",
          "name": "newDeveloper",
          "type": "address"
        }
      ],
      "name": "DeveloperTransferredEvent",
      "type": "event"
    },
    {
      "anonymous": false,
      "inputs": [
        {
          "indexed": true,
          "internalType": "address",
          "name": "from",
          "type": "address"
        },
        {
          "indexed": false,
          "internalType": "uint256",
          "name": "amount",
          "type": "uint256"
        },
        {
          "indexed": false,
          "internalType": "uint32",
          "name": "delay",
          "type": "uint32"
        }
      ],
      "name": "EntryPointAddStake",
      "type": "event"
    },
    {
      "anonymous": false,
      "inputs": [
        {
          "indexed": true,
          "internalType": "address",
          "name": "from",
          "type": "address"
        },
        {
          "indexed": false,
          "internalType": "uint256",
          "name": "amount",
          "type": "uint256"
        }
      ],
      "name": "EntryPointDeposit",
      "type": "event"
    },
    {
      "anonymous": false,
      "inputs": [
        {
          "indexed": true,
          "internalType": "address",
          "name": "from",
          "type": "address"
        }
      ],
      "name": "EntryPointUnlockStake",
      "type": "event"
    },
    {
      "anonymous": false,
      "inputs": [
        {
          "indexed": true,
          "internalType": "address",
          "name": "who",
          "type": "address"
        },
        {
          "indexed": true,
          "internalType": "address",
          "name": "to",
          "type": "address"
        },
        {
          "indexed": false,
          "internalType": "uint256",
          "name": "amount",
          "type": "uint256"
        }
      ],
      "name": "EntryPointWithdrawDeposit",
      "type": "event"
    },
    {
      "anonymous": false,
      "inputs": [
        {
          "indexed": true,
          "internalType": "address",
          "name": "who",
          "type": "address"
        },
        {
          "indexed": true,
          "internalType": "address",
          "name": "to",
          "type": "address"
        },
        {
          "indexed": false,
          "internalType": "uint112",
          "name": "amount",
          "type": "uint112"
        }
      ],
      "name": "EntryPointWithdrawStake",
      "type": "event"
    },
    {
      "anonymous": false,
      "inputs": [
        {
          "indexed": true,
          "internalType": "address",
          "name": "sender",
          "type": "address"
        },
        {
          "indexed": true,
          "internalType": "address",
          "name": "owner",
          "type": "address"
        },
        {
          "indexed": false,
          "internalType": "uint256",
          "name": "amount",
          "type": "uint256"
        },
        {
          "indexed": false,
          "internalType": "uint256",
          "name": "entryPointBalance",
          "type": "uint256"
        }
      ],
      "name": "GasPaidFor",
      "type": "event"
    },
    {
      "anonymous": false,
      "inputs": [
        {
          "indexed": false,
          "internalType": "uint256",
          "name": "balance",
          "type": "uint256"
        }
      ],
      "name": "LowBalanceDetected",
      "type": "event"
    },
    {
      "anonymous": false,
      "inputs": [
        {
          "indexed": true,
          "internalType": "address",
          "name": "who",
          "type": "address"
        },
        {
          "indexed": false,
          "internalType": "uint256",
          "name": "value",
          "type": "uint256"
        }
      ],
      "name": "MinBalanceSet",
      "type": "event"
    },
    {
      "inputs": [
        {
          "internalType": "uint32",
          "name": "_unstakeDelaySec",
          "type": "uint32"
        }
      ],
      "name": "addStakeToEntryPoint",
      "outputs": [],
      "stateMutability": "payable",
      "type": "function"
    },
    {
      "inputs": [],
      "name": "contractName",
      "outputs": [
        {
          "internalType": "string",
          "name": "",
          "type": "string"
        }
      ],
      "stateMutability": "view",
      "type": "function"
    },
    {
      "inputs": [],
      "name": "contractVersion",
      "outputs": [
        {
          "internalType": "string",
          "name": "",
          "type": "string"
        }
      ],
      "stateMutability": "view",
      "type": "function"
    },
    {
      "inputs": [],
      "name": "depositToEntryPoint",
      "outputs": [],
      "stateMutability": "payable",
      "type": "function"
    },
    {
      "inputs": [],
      "name": "developer",
      "outputs": [
        {
          "internalType": "address payable",
          "name": "",
          "type": "address"
        }
      ],
      "stateMutability": "view",
      "type": "function"
    },
    {
      "inputs": [],
      "name": "entryPointBalance",
      "outputs": [
        {
          "internalType": "uint256",
          "name": "",
          "type": "uint256"
        }
      ],
      "stateMutability": "view",
      "type": "function"
    },
    {
      "inputs": [],
      "name": "getDepositInfo",
      "outputs": [
        {
          "components": [
            {
              "internalType": "uint256",
              "name": "deposit",
              "type": "uint256"
            },
            {
              "internalType": "bool",
              "name": "staked",
              "type": "bool"
            },
            {
              "internalType": "uint112",
              "name": "stake",
              "type": "uint112"
            },
            {
              "internalType": "uint32",
              "name": "unstakeDelaySec",
              "type": "uint32"
            },
            {
              "internalType": "uint48",
              "name": "withdrawTime",
              "type": "uint48"
            }
          ],
          "internalType": "struct IStakeManager.DepositInfo",
          "name": "info",
          "type": "tuple"
        }
      ],
      "stateMutability": "view",
      "type": "function"
    },
    {
      "inputs": [],
      "name": "getEntryPoint",
      "outputs": [
        {
          "internalType": "address",
          "name": "",
          "type": "address"
        }
      ],
      "stateMutability": "view",
      "type": "function"
    },
    {
      "inputs": [],
      "name": "getMinBalance",
      "outputs": [
        {
          "internalType": "uint256",
          "name": "",
          "type": "uint256"
        }
      ],
      "stateMutability": "view",
      "type": "function"
    },
    {
      "inputs": [],
      "name": "isLowBalance",
      "outputs": [
        {
          "internalType": "bool",
          "name": "",
          "type": "bool"
        }
      ],
      "stateMutability": "view",
      "type": "function"
    },
    {
      "inputs": [
        {
          "internalType": "enum IPaymaster.PostOpMode",
          "name": "",
          "type": "uint8"
        },
        {
          "internalType": "bytes",
          "name": "context",
          "type": "bytes"
        },
        {
          "internalType": "uint256",
          "name": "actualGasCost",
          "type": "uint256"
        },
        {
          "internalType": "uint256",
          "name": "",
          "type": "uint256"
        }
      ],
      "name": "postOp",
      "outputs": [],
      "stateMutability": "nonpayable",
      "type": "function"
    },
    {
      "inputs": [],
      "name": "register",
      "outputs": [],
      "stateMutability": "nonpayable",
      "type": "function"
    },
    {
      "inputs": [
        {
          "internalType": "address",
          "name": "_entryPoint",
          "type": "address"
        }
      ],
      "name": "setEntryPoint",
      "outputs": [],
      "stateMutability": "nonpayable",
      "type": "function"
    },
    {
      "inputs": [
        {
          "internalType": "uint256",
          "name": "_value",
          "type": "uint256"
        }
      ],
      "name": "setMinBalance",
      "outputs": [],
      "stateMutability": "nonpayable",
      "type": "function"
    },
    {
      "inputs": [
        {
          "internalType": "address payable",
          "name": "newDeveloper",
          "type": "address"
        }
      ],
      "name": "transferDeveloper",
      "outputs": [],
      "stateMutability": "nonpayable",
      "type": "function"
    },
    {
      "inputs": [],
      "name": "unlockEntryPointStake",
      "outputs": [],
      "stateMutability": "nonpayable",
      "type": "function"
    },
    {
      "inputs": [
        {
          "components": [
            {
              "internalType": "address",
              "name": "sender",
              "type": "address"
            },
            {
              "internalType": "uint256",
              "name": "nonce",
              "type": "uint256"
            },
            {
              "internalType": "bytes",
              "name": "initCode",
              "type": "bytes"
            },
            {
              "internalType": "bytes",
              "name": "callData",
              "type": "bytes"
            },
            {
              "internalType": "bytes32",
              "name": "accountGasLimits",
              "type": "bytes32"
            },
            {
              "internalType": "uint256",
              "name": "preVerificationGas",
              "type": "uint256"
            },
            {
              "internalType": "bytes32",
              "name": "gasFees",
              "type": "bytes32"
            },
            {
              "internalType": "bytes",
              "name": "paymasterAndData",
              "type": "bytes"
            },
            {
              "internalType": "bytes",
              "name": "signature",
              "type": "bytes"
            }
          ],
          "internalType": "struct PackedUserOperation",
          "name": "userOp",
          "type": "tuple"
        },
        {
          "internalType": "bytes32",
          "name": "",
          "type": "bytes32"
        },
        {
          "internalType": "uint256",
          "name": "",
          "type": "uint256"
        }
      ],
      "name": "validatePaymasterUserOp",
      "outputs": [
        {
          "internalType": "bytes",
          "name": "context",
          "type": "bytes"
        },
        {
          "internalType": "uint256",
          "name": "validationData",
          "type": "uint256"
        }
      ],
      "stateMutability": "view",
      "type": "function"
    },
    {
      "inputs": [
        {
          "internalType": "address payable",
          "name": "_to",
          "type": "address"
        },
        {
          "internalType": "uint256",
          "name": "_amount",
          "type": "uint256"
        }
      ],
      "name": "withdrawFromEntryPoint",
      "outputs": [],
      "stateMutability": "nonpayable",
      "type": "function"
    },
    {
      "inputs": [
        {
          "internalType": "address payable",
          "name": "withdrawAddress",
          "type": "address"
        }
      ],
      "name": "withdrawStakeFromEntryPoint",
      "outputs": [],
      "stateMutability": "nonpayable",
      "type": "function"
    }
  ],
  "bytecode": "0x60803460b957601f611a0638819003918201601f19168301916001600160401b0383118484101760bd5780849260809460405283398101031260b95760428160d1565b50604d6020820160d1565b906060605a6040830160d1565b910151600180546001600160a01b03199081166001600160a01b039485169081179092555f8054821690921790915560029190915560038054821693909216929092179055600580549091163317905560405161192190816100e58239f35b5f80fd5b634e487b7160e01b5f52604160045260245ffd5b51906001600160a01b038216820360b95756fe60806040526004361015610011575f80fd5b5f5f3560e01c80630e462b77146112585780631aa3a008146111ad5780631b3ba1011461103b57806344ab613f1461100b57806352b7512c14610def5780635777989414610d57578063584465f214610c9157806364cb4edb14610bdd57806375d0c0dc14610b885780637b76711c146109fd5780637c627b21146108335780638969e0f91461073c578063a0a8e46014610708578063c7d7630814610563578063c8d035c9146104ac578063c91d956c146102ee578063ca4b208b146102c5578063e4fae4e4146102a25763fb6e07f3146100eb575f80fd5b346102265780600319360112610226578054610138906020906001600160a01b0316610115611512565b906040518080958194630251382f60e31b83528660048401526024830190611479565b03915afa908115610229576024916020918491610275575b506040516317aa5fb760e11b815233600482015292839182906001600160a01b03165afa908115610229578291610237575b5015610226578061019161165d565b6001600160a01b03906101ac906101a6611697565b906117c9565b16803b156102345781809160046040518094819363bb9fe6bf60e01b83525af1801561022957610211575b506001600160a01b036101e933611790565b167f0ff6a05d9d8b711846deea777d4beb429d883b834ccbe23ddaff50e687300d848280a280f35b8161021b916114cd565b61022657805f6101d7565b80fd5b6040513d84823e3d90fd5b50fd5b90506020813d60201161026d575b81610252602093836114cd565b81010312610269576102639061155b565b5f610182565b5080fd5b3d9150610245565b6102959150823d841161029b575b61028d81836114cd565b81019061153c565b5f610150565b503d610283565b503461022657806003193601126102265760206102bd6116fb565b604051908152f35b50346102265780600319360112610226576005546040516001600160a01b039091168152602090f35b50346102265760203660031901126102265780546004359061031e906020906001600160a01b0316610115611512565b03915afa90811561048457602491602091859161048f575b506040516317aa5fb760e11b815233600482015292839182906001600160a01b03165afa90811561048457839161044a575b5015610269578161037761165d565b61037f6116d3565b6003546040516001600160a01b039091169260208201926103b49183916103a691866117b0565b03601f1981018352826114cd565b519020813b15610446578291604483926040519485938492637152429d60e11b845260048401528860248401525af1801561022957610431575b507f5e8e1f3aca8eaebb055543c975556d31229dae1870445967384dae285cded465905060206001600160a01b0361042533611790565b1692604051908152a280f35b8161043b916114cd565b61026957815f6103ee565b8280fd5b90506020813d60201161047c575b81610465602093836114cd565b81010312610446576104769061155b565b5f610368565b3d9150610458565b6040513d85823e3d90fd5b6104a69150823d841161029b5761028d81836114cd565b5f610336565b50346102265780600319360112610226576024906104d36104cb61165d565b6101a6611697565b60206104dd6116fb565b6040516370a0823160e01b815230600482015294909285919082906001600160a01b03165afa918215610557579161051e575b602092506040519111158152f35b90506020823d60201161054f575b81610539602093836114cd565b8101031261054b576020915190610510565b5f80fd5b3d915061052c565b604051903d90823e3d90fd5b50346102265760403660031901126102265761057d61144f565b81546024359061059b906020906001600160a01b0316610115611512565b03915afa9081156106e05760249160209186916106eb575b506040516317aa5fb760e11b815233600482015292839182906001600160a01b03165afa9081156106e05784916106a2575b501561044657826105f461165d565b6001600160a01b0390610609906101a6611697565b1692833b156102695781809160446040518094819363040b850f60e31b835260018060a01b0316988960048401528860248401525af180156102295761068d575b507fbf0b7006c5bc2caecf8e00d15d08bef86bda0fec1d1ca9b31723662d2ed2dfdb905060206001600160a01b0361068133611790565b1692604051908152a380f35b81610697916114cd565b61044657825f61064a565b90506020813d6020116106d8575b816106bd602093836114cd565b810103126106d4576106ce9061155b565b5f6105e5565b8380fd5b3d91506106b0565b6040513d86823e3d90fd5b6107029150823d841161029b5761028d81836114cd565b5f6105b3565b50346102265780600319360112610226576107386107246114ef565b604051918291602083526020830190611479565b0390f35b503461022657806003193601126102265780608060405161075c8161149d565b8281528260208201528260408201528260608201520152602460a061077f61165d565b610791600180841b03916101a6611697565b1660405192838092632943e70960e11b82523060048301525afa9081156102295760a09291610806575b5065ffffffffffff608060405192805184526020810151151560208501526001600160701b03604082015116604085015263ffffffff60608201511660608501520151166080820152f35b6108269150823d841161082c575b61081e81836114cd565b810190611568565b5f6107bb565b503d610814565b503461022657608036600319011261022657600360043510156102265760243567ffffffffffffffff8111610269573660238201121561026957806004013567ffffffffffffffff81116104465781013660248201116104465761089561165d565b6001600160a01b03906108aa906101a6611697565b1633036109ee576040908290031261026957806108e86108d960446108d26024809601611465565b9301611465565b916001600160a01b0316611790565b6108f36104cb61165d565b9160206108fe6116fb565b6040516370a0823160e01b815230600482015295909486919082906001600160a01b03165afa9384156109e35785946109af575b50604080516044358152602081018690526001600160a01b0392831693909216917f9e0cfd035db7f3355effe8a87c1a34ec8e696a1f126781c5a91bf0de22db1ef49190a38110610981575080f35b60207ffecf62bd60f09e10b15503b9fee87715f91b21579898e1eda78ad352110e1b5e91604051908152a180f35b9093506020813d6020116109db575b816109cb602093836114cd565b8101031261054b5751925f610932565b3d91506109be565b6040513d87823e3d90fd5b6306facdbd60e21b8352600483fd5b5060203660031901126102265760043563ffffffff8116809103610269578154610a35906020906001600160a01b0316610115611512565b03915afa908115610484576024916020918591610b6b575b506040516317aa5fb760e11b815233600482015292839182906001600160a01b03165afa908115610484578391610b31575b50156102695781610a8e61165d565b6001600160a01b0390610aa3906101a6611697565b16803b15610269578160249160405192838092621cb65b60e51b825287600483015234905af1801561022957610b1c575b507fc7f16079e78b3cbb9744e8af23d3db91cc620c482b2611f092c92010d7e6e2d5905060406001600160a01b03610b0b33611790565b16928151903482526020820152a280f35b81610b26916114cd565b61026957815f610ad4565b90506020813d602011610b63575b81610b4c602093836114cd565b8101031261044657610b5d9061155b565b5f610a7f565b3d9150610b3f565b610b829150823d841161029b5761028d81836114cd565b5f610a4d565b503461022657806003193601126102265750610738604051610bab6040826114cd565b601181527014185e5b585cdd195c90dbdb9d1c9858dd607a1b6020820152604051918291602083526020830190611479565b503461022657602036600319011261022657610bf761144f565b6005546001600160a01b03811691610c103384146115e3565b6001600160a01b0316918215610c575782907fd734ca01d7ec868e364f3c2cbda207212fa91c58040df183429252e85a48b2b18580a36001600160a01b0319161760055580f35b60405162461bcd60e51b815260206004820152601260248201527154686973206164647265737320697320302160701b6044820152606490fd5b503461022657602036600319011261022657806004356001600160a01b0381169081900361023457610cce60018060a01b036005541633146115e3565b610cd661165d565b90610cdf611697565b6003546040516001600160a01b03909116936020820192610d069183916103a691866117b0565b51902090823b15610d52576044849283604051958694859363ca446dd960e01b8552600485015260248401525af1801561022957610d415750f35b81610d4b916114cd565b6102265780f35b505050fd5b50346102265780600319360112610226576024906020610d7561165d565b6001600160a01b0390610d8a906101a6611697565b16604051938480926370a0823160e01b82523060048301525afa9081156105575790610dbc575b602090604051908152f35b506020813d602011610de7575b81610dd6602093836114cd565b8101031261054b5760209051610db1565b3d9150610dc9565b5034610226576060366003190112610226576004359067ffffffffffffffff8211610226576101208260040192600319903603011261022657610e3061165d565b6001600160a01b0390610e45906101a6611697565b163303610ffc578054610e66906020906001600160a01b0316610115611512565b03915afa908115610229578291610fdd575b506020610e84846116bf565b6040516307b9c93d60e11b81526001600160a01b0391821660048201529283916024918391165afa908115610229578291610fa3575b5015610f80576004919060206001600160a01b03610ed7846116bf565b1660405194858092638da5cb5b60e01b82525afa918215610f7357610f44938293610f4e575b50610f07906116bf565b604080516001600160a01b03928316602082015293909116838201528252610f306060836114cd565b604051928392604084526040840190611479565b9060208301520390f35b610f07919350610f6c9060203d60201161029b5761028d81836114cd565b9290610efd565b50604051903d90823e3d90fd5b610f8b6024926116bf565b63056fdc8960e31b82526001600160a01b0316600452fd5b90506020813d602011610fd5575b81610fbe602093836114cd565b8101031261026957610fcf9061155b565b5f610eba565b3d9150610fb1565b610ff6915060203d60201161029b5761028d81836114cd565b5f610e78565b6306facdbd60e21b8152600490fd5b503461022657806003193601126102265760206110296104cb61165d565b6040516001600160a01b039091168152f35b5080600319360112610226578054611061906020906001600160a01b0316610115611512565b03915afa908115610229576024916020918491611190575b506040516317aa5fb760e11b815233600482015292839182906001600160a01b03165afa908115610229578291611156575b501561022657806110ba61165d565b6001600160a01b03906110cf906101a6611697565b16803b1561023457816024916040519283809263b760faf960e01b825230600483015234905af1801561022957611141575b506001600160a01b0361111333611790565b167f9e2d0dc81eb38ff1d67af62923ffb2cbf68cbcc3235b24fe71e932fcff0c77d66020604051348152a280f35b8161114b916114cd565b61022657805f611101565b90506020813d602011611188575b81611171602093836114cd565b81010312610269576111829061155b565b5f6110ab565b3d9150611164565b6111a79150823d841161029b5761028d81836114cd565b5f611079565b50346102265780600319360112610226576111d360018060a01b036005541633146115e3565b805460025482916001600160a01b0316906111ec61162f565b906111f56114ef565b92803b1561125457849283611231936112436040519788968795869463163f5abb60e21b86526004860152606060248601526064850190611479565b83810360031901604485015290611479565b03925af1801561022957610d415750f35b8480fd5b503461054b57602036600319011261054b5761127261144f565b5f5461128c906020906001600160a01b0316610115611512565b03915afa9081156113cc576024916020915f91611432575b506040516317aa5fb760e11b815233600482015292839182906001600160a01b03165afa9081156113cc575f916113f8575b501561054b576112e461165d565b6001600160a01b03906112f9906101a6611697565b604051632943e70960e11b815230600482015291169160a082602481865afa9182156113cc575f926113d7575b50823b1561054b5760405163611d2e7560e11b81526001600160a01b0390911660048201819052925f908290602490829084905af180156113cc576113b7575b507f3a322f3a098691c133b39e4898859cb11d821fe42496ac2d61b242fb95bd177c60206001600160701b03604061139d33611790565b940151604051911681526001600160a01b0390931692a380f35b6113c49193505f906114cd565b5f915f611366565b6040513d5f823e3d90fd5b6113f191925060a03d60a01161082c5761081e81836114cd565b905f611326565b90506020813d60201161142a575b81611413602093836114cd565b8101031261054b576114249061155b565b5f6112d6565b3d9150611406565b6114499150823d841161029b5761028d81836114cd565b5f6112a4565b600435906001600160a01b038216820361054b57565b35906001600160a01b038216820361054b57565b805180835260209291819084018484015e5f828201840152601f01601f1916010190565b60a0810190811067ffffffffffffffff8211176114b957604052565b634e487b7160e01b5f52604160045260245ffd5b90601f8019910116810190811067ffffffffffffffff8211176114b957604052565b604051906114fe6040836114cd565b60058252640312e302e360dc1b6020830152565b604051906115216040836114cd565b600c82526b4f776e65724665617475726560a01b6020830152565b9081602091031261054b57516001600160a01b038116810361054b5790565b5190811515820361054b57565b908160a091031261054b57604051906115808261149d565b805182526115906020820161155b565b602083015260408101516001600160701b038116810361054b57604083015260608101519063ffffffff8216820361054b576080916060840152015165ffffffffffff8116810361054b57608082015290565b156115ea57565b60405162461bcd60e51b815260206004820152601b60248201527f4f6e6c792074686520446576656c6f70657220726571756972656400000000006044820152606490fd5b6040519061163e6040836114cd565b601082526f5061796d61737465724665617475726560801b6020830152565b61166561162f565b6040516116916020828180820195805191829101875e81015f838201520301601f1981018352826114cd565b51902090565b604051906116a66040836114cd565b600a825269195b9d1c9e541bda5b9d60b21b6020830152565b356001600160a01b038116810361054b5790565b604051906116e26040836114cd565b600a8252696d696e42616c616e636560b01b6020830152565b61170361165d565b602061170d6116d3565b6003546040516001600160a01b0390911693838201926117339183916103a691866117b0565b51902060246040518094819363bd02d0f560e01b835260048301525afa9081156113cc575f91611761575090565b90506020813d602011611788575b8161177c602093836114cd565b8101031261054b575190565b3d915061176f565b61179981611838565b6001600160a01b0381166117ab575090565b905090565b602092839282528051928391018483015e01015f815290565b6020906103a66117ee60018060a01b03600354169460405192839186830195866117b0565b5190206024604051809481936321f8a72160e01b835260048301525afa9081156113cc575f9161181c575090565b611835915060203d60201161029b5761028d81836114cd565b90565b803b156118d2575f80916040516020810190638da5cb5b60e01b8252600481526118636024826114cd565b51915afa3d156118e3573d9067ffffffffffffffff82116114b95760405191611896601f8201601f1916602001846114cd565b82523d5f602084013e5b1580156118d7575b6118d25760208180518101031261054b57602001516001600160a01b0381169081900361054b5790565b505f90565b506020815114156118a8565b6060906118a056fea264697066735822122028c2254619bddf8047625582fbc3b80bf00ec75716fd4a8644c16634ed5214bf64736f6c634300081c0033",
  "linkReferences": {},
  "deployedLinkReferences": {}
}