{
  "_format": "hh-sol-artifact-1",
  "contractName": "PaymasterContract",
  "sourceName": "contracts/account-abstraction/Paymaster.sol",
  "abi": [
    {
      "inputs": [
        {
          "internalType": "address",
          "name": "_entryPoint",
          "type": "address"
        },
        {
          "internalType": "address",
          "name": "_storage",
          "type": "address"
        },
        {
          "internalType": "address",
          "name": "_master",
          "type": "address"
        },
        {
          "internalType": "bytes32",
          "name": "_key",
          "type": "bytes32"
        }
      ],
      "stateMutability": "nonpayable",
      "type": "constructor"
    },
    {
      "inputs": [],
      "name": "NotActivePaymaster",
      "type": "error"
    },
    {
      "inputs": [
        {
          "internalType": "address",
          "name": "person",
          "type": "address"
        }
      ],
      "name": "NotAllowedPerson",
      "type": "error"
    },
    {
      "inputs": [],
      "name": "NotFromEntryPoint",
      "type": "error"
    },
    {
      "anonymous": false,
      "inputs": [
        {
          "indexed": true,
          "internalType": "address",
          "name": "previousDeveloper",
          "type": "address"
        },
        {
          "indexed": true,
          "internalType": "address",
          "name": "newDeveloper",
          "type": "address"
        }
      ],
      "name": "DeveloperTransferredEvent",
      "type": "event"
    },
    {
      "anonymous": false,
      "inputs": [
        {
          "indexed": true,
          "internalType": "address",
          "name": "from",
          "type": "address"
        },
        {
          "indexed": false,
          "internalType": "uint256",
          "name": "amount",
          "type": "uint256"
        },
        {
          "indexed": false,
          "internalType": "uint32",
          "name": "delay",
          "type": "uint32"
        }
      ],
      "name": "EntryPointAddStake",
      "type": "event"
    },
    {
      "anonymous": false,
      "inputs": [
        {
          "indexed": true,
          "internalType": "address",
          "name": "from",
          "type": "address"
        },
        {
          "indexed": false,
          "internalType": "uint256",
          "name": "amount",
          "type": "uint256"
        }
      ],
      "name": "EntryPointDeposit",
      "type": "event"
    },
    {
      "anonymous": false,
      "inputs": [
        {
          "indexed": true,
          "internalType": "address",
          "name": "from",
          "type": "address"
        }
      ],
      "name": "EntryPointUnlockStake",
      "type": "event"
    },
    {
      "anonymous": false,
      "inputs": [
        {
          "indexed": true,
          "internalType": "address",
          "name": "who",
          "type": "address"
        },
        {
          "indexed": true,
          "internalType": "address",
          "name": "to",
          "type": "address"
        },
        {
          "indexed": false,
          "internalType": "uint256",
          "name": "amount",
          "type": "uint256"
        }
      ],
      "name": "EntryPointWithdrawDeposit",
      "type": "event"
    },
    {
      "anonymous": false,
      "inputs": [
        {
          "indexed": true,
          "internalType": "address",
          "name": "who",
          "type": "address"
        },
        {
          "indexed": true,
          "internalType": "address",
          "name": "to",
          "type": "address"
        },
        {
          "indexed": false,
          "internalType": "uint112",
          "name": "amount",
          "type": "uint112"
        }
      ],
      "name": "EntryPointWithdrawStake",
      "type": "event"
    },
    {
      "anonymous": false,
      "inputs": [
        {
          "indexed": true,
          "internalType": "address",
          "name": "sender",
          "type": "address"
        },
        {
          "indexed": true,
          "internalType": "address",
          "name": "owner",
          "type": "address"
        },
        {
          "indexed": false,
          "internalType": "uint256",
          "name": "amount",
          "type": "uint256"
        },
        {
          "indexed": false,
          "internalType": "uint256",
          "name": "entryPointBalance",
          "type": "uint256"
        },
        {
          "indexed": true,
          "internalType": "address",
          "name": "masterContract",
          "type": "address"
        }
      ],
      "name": "GasPaidFor",
      "type": "event"
    },
    {
      "anonymous": false,
      "inputs": [
        {
          "indexed": false,
          "internalType": "uint256",
          "name": "balance",
          "type": "uint256"
        }
      ],
      "name": "LowBalanceDetected",
      "type": "event"
    },
    {
      "anonymous": false,
      "inputs": [
        {
          "indexed": true,
          "internalType": "address",
          "name": "who",
          "type": "address"
        },
        {
          "indexed": false,
          "internalType": "uint256",
          "name": "value",
          "type": "uint256"
        }
      ],
      "name": "MinBalanceSet",
      "type": "event"
    },
    {
      "anonymous": false,
      "inputs": [
        {
          "indexed": true,
          "internalType": "address",
          "name": "who",
          "type": "address"
        },
        {
          "indexed": false,
          "internalType": "bool",
          "name": "value",
          "type": "bool"
        }
      ],
      "name": "PaymasterActivation",
      "type": "event"
    },
    {
      "inputs": [
        {
          "internalType": "uint32",
          "name": "_unstakeDelaySec",
          "type": "uint32"
        }
      ],
      "name": "addStakeToEntryPoint",
      "outputs": [],
      "stateMutability": "payable",
      "type": "function"
    },
    {
      "inputs": [],
      "name": "contractName",
      "outputs": [
        {
          "internalType": "string",
          "name": "",
          "type": "string"
        }
      ],
      "stateMutability": "view",
      "type": "function"
    },
    {
      "inputs": [],
      "name": "contractVersion",
      "outputs": [
        {
          "internalType": "string",
          "name": "",
          "type": "string"
        }
      ],
      "stateMutability": "view",
      "type": "function"
    },
    {
      "inputs": [],
      "name": "depositToEntryPoint",
      "outputs": [],
      "stateMutability": "payable",
      "type": "function"
    },
    {
      "inputs": [],
      "name": "developer",
      "outputs": [
        {
          "internalType": "address payable",
          "name": "",
          "type": "address"
        }
      ],
      "stateMutability": "view",
      "type": "function"
    },
    {
      "inputs": [],
      "name": "entryPointBalance",
      "outputs": [
        {
          "internalType": "uint256",
          "name": "",
          "type": "uint256"
        }
      ],
      "stateMutability": "view",
      "type": "function"
    },
    {
      "inputs": [],
      "name": "getDepositInfo",
      "outputs": [
        {
          "components": [
            {
              "internalType": "uint256",
              "name": "deposit",
              "type": "uint256"
            },
            {
              "internalType": "bool",
              "name": "staked",
              "type": "bool"
            },
            {
              "internalType": "uint112",
              "name": "stake",
              "type": "uint112"
            },
            {
              "internalType": "uint32",
              "name": "unstakeDelaySec",
              "type": "uint32"
            },
            {
              "internalType": "uint48",
              "name": "withdrawTime",
              "type": "uint48"
            }
          ],
          "internalType": "struct IStakeManager.DepositInfo",
          "name": "info",
          "type": "tuple"
        }
      ],
      "stateMutability": "view",
      "type": "function"
    },
    {
      "inputs": [],
      "name": "getEntryPoint",
      "outputs": [
        {
          "internalType": "address",
          "name": "",
          "type": "address"
        }
      ],
      "stateMutability": "view",
      "type": "function"
    },
    {
      "inputs": [],
      "name": "getMinBalance",
      "outputs": [
        {
          "internalType": "uint256",
          "name": "",
          "type": "uint256"
        }
      ],
      "stateMutability": "view",
      "type": "function"
    },
    {
      "inputs": [],
      "name": "isActive",
      "outputs": [
        {
          "internalType": "bool",
          "name": "",
          "type": "bool"
        }
      ],
      "stateMutability": "view",
      "type": "function"
    },
    {
      "inputs": [],
      "name": "isLowBalance",
      "outputs": [
        {
          "internalType": "bool",
          "name": "",
          "type": "bool"
        }
      ],
      "stateMutability": "view",
      "type": "function"
    },
    {
      "inputs": [
        {
          "internalType": "enum IPaymaster.PostOpMode",
          "name": "",
          "type": "uint8"
        },
        {
          "internalType": "bytes",
          "name": "context",
          "type": "bytes"
        },
        {
          "internalType": "uint256",
          "name": "actualGasCost",
          "type": "uint256"
        },
        {
          "internalType": "uint256",
          "name": "",
          "type": "uint256"
        }
      ],
      "name": "postOp",
      "outputs": [],
      "stateMutability": "nonpayable",
      "type": "function"
    },
    {
      "inputs": [],
      "name": "register",
      "outputs": [],
      "stateMutability": "nonpayable",
      "type": "function"
    },
    {
      "inputs": [
        {
          "internalType": "address",
          "name": "_entryPoint",
          "type": "address"
        }
      ],
      "name": "setEntryPoint",
      "outputs": [],
      "stateMutability": "nonpayable",
      "type": "function"
    },
    {
      "inputs": [
        {
          "internalType": "bool",
          "name": "_value",
          "type": "bool"
        }
      ],
      "name": "setIsActive",
      "outputs": [],
      "stateMutability": "nonpayable",
      "type": "function"
    },
    {
      "inputs": [
        {
          "internalType": "uint256",
          "name": "_value",
          "type": "uint256"
        }
      ],
      "name": "setMinBalance",
      "outputs": [],
      "stateMutability": "nonpayable",
      "type": "function"
    },
    {
      "inputs": [
        {
          "internalType": "address payable",
          "name": "newDeveloper",
          "type": "address"
        }
      ],
      "name": "transferDeveloper",
      "outputs": [],
      "stateMutability": "nonpayable",
      "type": "function"
    },
    {
      "inputs": [],
      "name": "unlockEntryPointStake",
      "outputs": [],
      "stateMutability": "nonpayable",
      "type": "function"
    },
    {
      "inputs": [
        {
          "components": [
            {
              "internalType": "address",
              "name": "sender",
              "type": "address"
            },
            {
              "internalType": "uint256",
              "name": "nonce",
              "type": "uint256"
            },
            {
              "internalType": "bytes",
              "name": "initCode",
              "type": "bytes"
            },
            {
              "internalType": "bytes",
              "name": "callData",
              "type": "bytes"
            },
            {
              "internalType": "bytes32",
              "name": "accountGasLimits",
              "type": "bytes32"
            },
            {
              "internalType": "uint256",
              "name": "preVerificationGas",
              "type": "uint256"
            },
            {
              "internalType": "bytes32",
              "name": "gasFees",
              "type": "bytes32"
            },
            {
              "internalType": "bytes",
              "name": "paymasterAndData",
              "type": "bytes"
            },
            {
              "internalType": "bytes",
              "name": "signature",
              "type": "bytes"
            }
          ],
          "internalType": "struct PackedUserOperation",
          "name": "userOp",
          "type": "tuple"
        },
        {
          "internalType": "bytes32",
          "name": "",
          "type": "bytes32"
        },
        {
          "internalType": "uint256",
          "name": "",
          "type": "uint256"
        }
      ],
      "name": "validatePaymasterUserOp",
      "outputs": [
        {
          "internalType": "bytes",
          "name": "context",
          "type": "bytes"
        },
        {
          "internalType": "uint256",
          "name": "validationData",
          "type": "uint256"
        }
      ],
      "stateMutability": "view",
      "type": "function"
    },
    {
      "inputs": [
        {
          "internalType": "address payable",
          "name": "_to",
          "type": "address"
        },
        {
          "internalType": "uint256",
          "name": "_amount",
          "type": "uint256"
        }
      ],
      "name": "withdrawFromEntryPoint",
      "outputs": [],
      "stateMutability": "nonpayable",
      "type": "function"
    },
    {
      "inputs": [
        {
          "internalType": "address payable",
          "name": "withdrawAddress",
          "type": "address"
        }
      ],
      "name": "withdrawStakeFromEntryPoint",
      "outputs": [],
      "stateMutability": "nonpayable",
      "type": "function"
    }
  ],
  "bytecode": "0x60803460b957601f611ca838819003918201601f19168301916001600160401b0383118484101760bd5780849260809460405283398101031260b95760428160d1565b50604d6020820160d1565b906060605a6040830160d1565b910151600180546001600160a01b03199081166001600160a01b039485169081179092555f80548216909217909155600291909155600380548216939092169290921790556005805490911633179055604051611bc390816100e58239f35b5f80fd5b634e487b7160e01b5f52604160045260245ffd5b51906001600160a01b038216820360b95756fe60806040526004361015610011575f80fd5b5f5f3560e01c80630e462b77146114415780631aa3a008146113965780631b3ba1011461122457806322f3e2d4146111ff5780632750fc781461106157806344ab613f1461103157806352b7512c14610df95780635777989414610d61578063584465f214610c9b57806364cb4edb14610be757806375d0c0dc14610b925780637b76711c14610a075780637c627b21146108495780638969e0f914610752578063a0a8e4601461071e578063c7d7630814610579578063c8d035c9146104c2578063c91d956c14610304578063ca4b208b146102db578063e4fae4e4146102b85763fb6e07f314610101575f80fd5b3461023c578060031936011261023c57805461014e906020906001600160a01b031661012b6116fb565b906040518080958194630251382f60e31b83528660048401526024830190611662565b03915afa90811561023f57602491602091849161028b575b506040516317aa5fb760e11b815233600482015292839182906001600160a01b03165afa90811561023f57829161024d575b501561023c57806101a7611846565b6001600160a01b03906101c2906101bc611943565b90611a75565b16803b1561024a5781809160046040518094819363bb9fe6bf60e01b83525af1801561023f57610227575b506001600160a01b036101ff33611a3c565b167f0ff6a05d9d8b711846deea777d4beb429d883b834ccbe23ddaff50e687300d848280a280f35b81610231916116b6565b61023c57805f6101ed565b80fd5b6040513d84823e3d90fd5b50fd5b90506020813d602011610283575b81610268602093836116b6565b8101031261027f5761027990611744565b5f610198565b5080fd5b3d915061025b565b6102ab9150823d84116102b1575b6102a381836116b6565b810190611725565b5f610166565b503d610299565b503461023c578060031936011261023c5760206102d36119a7565b604051908152f35b503461023c578060031936011261023c576005546040516001600160a01b039091168152602090f35b503461023c57602036600319011261023c57805460043590610334906020906001600160a01b031661012b6116fb565b03915afa90811561049a5760249160209185916104a5575b506040516317aa5fb760e11b815233600482015292839182906001600160a01b03165afa90811561049a578391610460575b501561027f578161038d611846565b61039561197f565b6003546040516001600160a01b039091169260208201926103ca9183916103bc9186611a5c565b03601f1981018352826116b6565b519020813b1561045c578291604483926040519485938492637152429d60e11b845260048401528860248401525af1801561023f57610447575b507f5e8e1f3aca8eaebb055543c975556d31229dae1870445967384dae285cded465905060206001600160a01b0361043b33611a3c565b1692604051908152a280f35b81610451916116b6565b61027f57815f610404565b8280fd5b90506020813d602011610492575b8161047b602093836116b6565b8101031261045c5761048c90611744565b5f61037e565b3d915061046e565b6040513d85823e3d90fd5b6104bc9150823d84116102b1576102a381836116b6565b5f61034c565b503461023c578060031936011261023c576024906104e96104e1611846565b6101bc611943565b60206104f36119a7565b6040516370a0823160e01b815230600482015294909285919082906001600160a01b03165afa91821561056d5791610534575b602092506040519111158152f35b90506020823d602011610565575b8161054f602093836116b6565b81010312610561576020915190610526565b5f80fd5b3d9150610542565b604051903d90823e3d90fd5b503461023c57604036600319011261023c57610593611638565b8154602435906105b1906020906001600160a01b031661012b6116fb565b03915afa9081156106f6576024916020918691610701575b506040516317aa5fb760e11b815233600482015292839182906001600160a01b03165afa9081156106f65784916106b8575b501561045c578261060a611846565b6001600160a01b039061061f906101bc611943565b1692833b1561027f5781809160446040518094819363040b850f60e31b835260018060a01b0316988960048401528860248401525af1801561023f576106a3575b507fbf0b7006c5bc2caecf8e00d15d08bef86bda0fec1d1ca9b31723662d2ed2dfdb905060206001600160a01b0361069733611a3c565b1692604051908152a380f35b816106ad916116b6565b61045c57825f610660565b90506020813d6020116106ee575b816106d3602093836116b6565b810103126106ea576106e490611744565b5f6105fb565b8380fd5b3d91506106c6565b6040513d86823e3d90fd5b6107189150823d84116102b1576102a381836116b6565b5f6105c9565b503461023c578060031936011261023c5761074e61073a6116d8565b604051918291602083526020830190611662565b0390f35b503461023c578060031936011261023c5780608060405161077281611686565b8281528260208201528260408201528260608201520152602460a0610795611846565b6107a7600180841b03916101bc611943565b1660405192838092632943e70960e11b82523060048301525afa90811561023f5760a0929161081c575b5065ffffffffffff608060405192805184526020810151151560208501526001600160701b03604082015116604085015263ffffffff60608201511660608501520151166080820152f35b61083c9150823d8411610842575b61083481836116b6565b810190611751565b5f6107d1565b503d61082a565b503461023c57608036600319011261023c576003600435101561023c5760243567ffffffffffffffff811161027f573660238201121561027f57806004013567ffffffffffffffff811161045c57810136602482011161045c576108ab611846565b6001600160a01b03906108c0906101bc611943565b1633036109f8576040908290031261027f57806108ec60446108e5602480950161164e565b920161164e565b6108f76104e1611846565b9160206109026119a7565b6040516370a0823160e01b815230600482015295909486919082906001600160a01b03165afa9384156109ed5785946109b9575b50600154604080516044358152602081018790526001600160a01b0392831694831693909216917f69bfc8bd15bada07ea62d066e1da2fa450b9a15735a76f992084ce3542b085399190a4811061098b575080f35b60207ffecf62bd60f09e10b15503b9fee87715f91b21579898e1eda78ad352110e1b5e91604051908152a180f35b9093506020813d6020116109e5575b816109d5602093836116b6565b810103126105615751925f610936565b3d91506109c8565b6040513d87823e3d90fd5b6306facdbd60e21b8352600483fd5b50602036600319011261023c5760043563ffffffff811680910361027f578154610a3f906020906001600160a01b031661012b6116fb565b03915afa90811561049a576024916020918591610b75575b506040516317aa5fb760e11b815233600482015292839182906001600160a01b03165afa90811561049a578391610b3b575b501561027f5781610a98611846565b6001600160a01b0390610aad906101bc611943565b16803b1561027f578160249160405192838092621cb65b60e51b825287600483015234905af1801561023f57610b26575b507fc7f16079e78b3cbb9744e8af23d3db91cc620c482b2611f092c92010d7e6e2d5905060406001600160a01b03610b1533611a3c565b16928151903482526020820152a280f35b81610b30916116b6565b61027f57815f610ade565b90506020813d602011610b6d575b81610b56602093836116b6565b8101031261045c57610b6790611744565b5f610a89565b3d9150610b49565b610b8c9150823d84116102b1576102a381836116b6565b5f610a57565b503461023c578060031936011261023c575061074e604051610bb56040826116b6565b601181527014185e5b585cdd195c90dbdb9d1c9858dd607a1b6020820152604051918291602083526020830190611662565b503461023c57602036600319011261023c57610c01611638565b6005546001600160a01b03811691610c1a3384146117cc565b6001600160a01b0316918215610c615782907fd734ca01d7ec868e364f3c2cbda207212fa91c58040df183429252e85a48b2b18580a36001600160a01b0319161760055580f35b60405162461bcd60e51b815260206004820152601260248201527154686973206164647265737320697320302160701b6044820152606490fd5b503461023c57602036600319011261023c57806004356001600160a01b0381169081900361024a57610cd860018060a01b036005541633146117cc565b610ce0611846565b90610ce9611943565b6003546040516001600160a01b03909116936020820192610d109183916103bc9186611a5c565b51902090823b15610d5c576044849283604051958694859363ca446dd960e01b8552600485015260248401525af1801561023f57610d4b5750f35b81610d55916116b6565b61023c5780f35b505050fd5b503461023c578060031936011261023c576024906020610d7f611846565b6001600160a01b0390610d94906101bc611943565b16604051938480926370a0823160e01b82523060048301525afa90811561056d5790610dc6575b602090604051908152f35b506020813d602011610df1575b81610de0602093836116b6565b810103126105615760209051610dbb565b3d9150610dd3565b503461023c57606036600319011261023c576004359067ffffffffffffffff821161023c576101208260040192600319903603011261023c57610e3a611846565b6001600160a01b0390610e4f906101bc611943565b16330361102257610e5e6118a6565b15611013578054610e7d906020906001600160a01b031661012b6116fb565b03915afa90811561023f578291610ff4575b506020610e9b8461196b565b6040516307b9c93d60e11b81526001600160a01b0391821660048201529283916024918391165afa90811561023f578291610fba575b5015610f97576004919060206001600160a01b03610eee8461196b565b1660405194858092638da5cb5b60e01b82525afa918215610f8a57610f5b938293610f65575b50610f1e9061196b565b604080516001600160a01b03928316602082015293909116838201528252610f476060836116b6565b604051928392604084526040840190611662565b9060208301520390f35b610f1e919350610f839060203d6020116102b1576102a381836116b6565b9290610f14565b50604051903d90823e3d90fd5b610fa260249261196b565b63056fdc8960e31b82526001600160a01b0316600452fd5b90506020813d602011610fec575b81610fd5602093836116b6565b8101031261027f57610fe690611744565b5f610ed1565b3d9150610fc8565b61100d915060203d6020116102b1576102a381836116b6565b5f610e8f565b631bf22ddf60e31b8152600490fd5b6306facdbd60e21b8152600490fd5b503461023c578060031936011261023c57602061104f6104e1611846565b6040516001600160a01b039091168152f35b503461023c57602036600319011261023c5760043580151580910361027f57815461109a906020906001600160a01b031661012b6116fb565b03915afa90811561049a5760249160209185916111e2575b506040516317aa5fb760e11b815233600482015292839182906001600160a01b03165afa90811561049a5783916111a8575b501561027f57816110f3611846565b6110fb611880565b6003546040516001600160a01b039091169260208201926111229183916103bc9186611a5c565b519020813b1561045c57829160448392604051948593849263abfdcced60e01b845260048401528860248401525af1801561023f57611193575b507f847504f37e3f9387d6f66296f20ee14043f5573707bb91a941b23a615e77bd6b905060206001600160a01b0361043b33611a3c565b8161119d916116b6565b61027f57815f61115c565b90506020813d6020116111da575b816111c3602093836116b6565b8101031261045c576111d490611744565b5f6110e4565b3d91506111b6565b6111f99150823d84116102b1576102a381836116b6565b5f6110b2565b503461023c578060031936011261023c57602061121a6118a6565b6040519015158152f35b508060031936011261023c57805461124a906020906001600160a01b031661012b6116fb565b03915afa90811561023f576024916020918491611379575b506040516317aa5fb760e11b815233600482015292839182906001600160a01b03165afa90811561023f57829161133f575b501561023c57806112a3611846565b6001600160a01b03906112b8906101bc611943565b16803b1561024a57816024916040519283809263b760faf960e01b825230600483015234905af1801561023f5761132a575b506001600160a01b036112fc33611a3c565b167f9e2d0dc81eb38ff1d67af62923ffb2cbf68cbcc3235b24fe71e932fcff0c77d66020604051348152a280f35b81611334916116b6565b61023c57805f6112ea565b90506020813d602011611371575b8161135a602093836116b6565b8101031261027f5761136b90611744565b5f611294565b3d915061134d565b6113909150823d84116102b1576102a381836116b6565b5f611262565b503461023c578060031936011261023c576113bc60018060a01b036005541633146117cc565b805460025482916001600160a01b0316906113d5611818565b906113de6116d8565b92803b1561143d5784928361141a9361142c6040519788968795869463163f5abb60e21b86526004860152606060248601526064850190611662565b83810360031901604485015290611662565b03925af1801561023f57610d4b5750f35b8480fd5b50346105615760203660031901126105615761145b611638565b5f54611475906020906001600160a01b031661012b6116fb565b03915afa9081156115b5576024916020915f9161161b575b506040516317aa5fb760e11b815233600482015292839182906001600160a01b03165afa9081156115b5575f916115e1575b5015610561576114cd611846565b6001600160a01b03906114e2906101bc611943565b604051632943e70960e11b815230600482015291169160a082602481865afa9182156115b5575f926115c0575b50823b156105615760405163611d2e7560e11b81526001600160a01b0390911660048201819052925f908290602490829084905af180156115b5576115a0575b507f3a322f3a098691c133b39e4898859cb11d821fe42496ac2d61b242fb95bd177c60206001600160701b03604061158633611a3c565b940151604051911681526001600160a01b0390931692a380f35b6115ad9193505f906116b6565b5f915f61154f565b6040513d5f823e3d90fd5b6115da91925060a03d60a0116108425761083481836116b6565b905f61150f565b90506020813d602011611613575b816115fc602093836116b6565b810103126105615761160d90611744565b5f6114bf565b3d91506115ef565b6116329150823d84116102b1576102a381836116b6565b5f61148d565b600435906001600160a01b038216820361056157565b35906001600160a01b038216820361056157565b805180835260209291819084018484015e5f828201840152601f01601f1916010190565b60a0810190811067ffffffffffffffff8211176116a257604052565b634e487b7160e01b5f52604160045260245ffd5b90601f8019910116810190811067ffffffffffffffff8211176116a257604052565b604051906116e76040836116b6565b60058252640312e302e360dc1b6020830152565b6040519061170a6040836116b6565b600c82526b4f776e65724665617475726560a01b6020830152565b9081602091031261056157516001600160a01b03811681036105615790565b5190811515820361056157565b908160a0910312610561576040519061176982611686565b8051825261177960208201611744565b602083015260408101516001600160701b038116810361056157604083015260608101519063ffffffff82168203610561576080916060840152015165ffffffffffff8116810361056157608082015290565b156117d357565b60405162461bcd60e51b815260206004820152601b60248201527f4f6e6c792074686520446576656c6f70657220726571756972656400000000006044820152606490fd5b604051906118276040836116b6565b601082526f5061796d61737465724665617475726560801b6020830152565b61184e611818565b60405161187a6020828180820195805191829101875e81015f838201520301601f1981018352826116b6565b51902090565b6040519061188f6040836116b6565b6008825267697341637469766560c01b6020830152565b6118ae611846565b60206118b8611880565b6003546040516001600160a01b0390911693838201926118de9183916103bc9186611a5c565b519020602460405180948193633d70e7e560e11b835260048301525afa9081156115b5575f9161190c575090565b90506020813d60201161193b575b81611927602093836116b6565b810103126105615761193890611744565b90565b3d915061191a565b604051906119526040836116b6565b600a825269195b9d1c9e541bda5b9d60b21b6020830152565b356001600160a01b03811681036105615790565b6040519061198e6040836116b6565b600a8252696d696e42616c616e636560b01b6020830152565b6119af611846565b60206119b961197f565b6003546040516001600160a01b0390911693838201926119df9183916103bc9186611a5c565b51902060246040518094819363bd02d0f560e01b835260048301525afa9081156115b5575f91611a0d575090565b90506020813d602011611a34575b81611a28602093836116b6565b81010312610561575190565b3d9150611a1b565b611a4581611ae1565b6001600160a01b038116611a57575090565b905090565b602092839282528051928391018483015e01015f815290565b6020906103bc611a9a60018060a01b0360035416946040519283918683019586611a5c565b5190206024604051809481936321f8a72160e01b835260048301525afa9081156115b5575f91611ac8575090565b611938915060203d6020116102b1576102a381836116b6565b5f80916040516020810190638da5cb5b60e01b825260048152611b056024826116b6565b51915afa3d15611b85573d9067ffffffffffffffff82116116a25760405191611b38601f8201601f1916602001846116b6565b82523d5f602084013e5b158015611b79575b611b745760208180518101031261056157602001516001600160a01b038116908190036105615790565b505f90565b50602081511415611b4a565b606090611b4256fea2646970667358221220a2a3bad00a84cdd295493cde62e4d3fe1b28b9b8942718f94dd8611b4f125c7f64736f6c634300081c0033",
  "linkReferences": {},
  "deployedLinkReferences": {}
}