{
  "_format": "hh-sol-artifact-1",
  "contractName": "PaymasterContract",
  "sourceName": "contracts/account-abstraction/Paymaster.sol",
  "abi": [
    {
      "inputs": [
        {
          "internalType": "address",
          "name": "_entryPoint",
          "type": "address"
        },
        {
          "internalType": "address",
          "name": "_storage",
          "type": "address"
        },
        {
          "internalType": "address",
          "name": "_master",
          "type": "address"
        },
        {
          "internalType": "bytes32",
          "name": "_key",
          "type": "bytes32"
        }
      ],
      "stateMutability": "nonpayable",
      "type": "constructor"
    },
    {
      "inputs": [
        {
          "internalType": "address",
          "name": "person",
          "type": "address"
        }
      ],
      "name": "NotAllowedPerson",
      "type": "error"
    },
    {
      "inputs": [],
      "name": "NotFromEntryPoint",
      "type": "error"
    },
    {
      "anonymous": false,
      "inputs": [
        {
          "indexed": true,
          "internalType": "address",
          "name": "previousDeveloper",
          "type": "address"
        },
        {
          "indexed": true,
          "internalType": "address",
          "name": "newDeveloper",
          "type": "address"
        }
      ],
      "name": "DeveloperTransferredEvent",
      "type": "event"
    },
    {
      "anonymous": false,
      "inputs": [
        {
          "indexed": true,
          "internalType": "address",
          "name": "from",
          "type": "address"
        },
        {
          "indexed": false,
          "internalType": "uint256",
          "name": "amount",
          "type": "uint256"
        }
      ],
      "name": "EntryPointDeposit",
      "type": "event"
    },
    {
      "anonymous": false,
      "inputs": [
        {
          "indexed": true,
          "internalType": "address",
          "name": "to",
          "type": "address"
        },
        {
          "indexed": false,
          "internalType": "uint256",
          "name": "amount",
          "type": "uint256"
        }
      ],
      "name": "EntryPointWithdraw",
      "type": "event"
    },
    {
      "anonymous": false,
      "inputs": [
        {
          "indexed": true,
          "internalType": "address",
          "name": "sender",
          "type": "address"
        },
        {
          "indexed": true,
          "internalType": "address",
          "name": "owner",
          "type": "address"
        },
        {
          "indexed": false,
          "internalType": "uint256",
          "name": "amount",
          "type": "uint256"
        },
        {
          "indexed": false,
          "internalType": "uint256",
          "name": "entryPointBalance",
          "type": "uint256"
        }
      ],
      "name": "GasPaidFor",
      "type": "event"
    },
    {
      "anonymous": false,
      "inputs": [
        {
          "indexed": false,
          "internalType": "uint256",
          "name": "balance",
          "type": "uint256"
        }
      ],
      "name": "LowBalanceDetected",
      "type": "event"
    },
    {
      "anonymous": false,
      "inputs": [
        {
          "indexed": false,
          "internalType": "uint256",
          "name": "value",
          "type": "uint256"
        }
      ],
      "name": "MinBalanceSet",
      "type": "event"
    },
    {
      "inputs": [],
      "name": "contractName",
      "outputs": [
        {
          "internalType": "string",
          "name": "",
          "type": "string"
        }
      ],
      "stateMutability": "view",
      "type": "function"
    },
    {
      "inputs": [],
      "name": "contractVersion",
      "outputs": [
        {
          "internalType": "string",
          "name": "",
          "type": "string"
        }
      ],
      "stateMutability": "view",
      "type": "function"
    },
    {
      "inputs": [],
      "name": "depositToEntryPoint",
      "outputs": [],
      "stateMutability": "payable",
      "type": "function"
    },
    {
      "inputs": [],
      "name": "developer",
      "outputs": [
        {
          "internalType": "address payable",
          "name": "",
          "type": "address"
        }
      ],
      "stateMutability": "view",
      "type": "function"
    },
    {
      "inputs": [],
      "name": "entryPointBalance",
      "outputs": [
        {
          "internalType": "uint256",
          "name": "",
          "type": "uint256"
        }
      ],
      "stateMutability": "view",
      "type": "function"
    },
    {
      "inputs": [],
      "name": "getEntryPoint",
      "outputs": [
        {
          "internalType": "address",
          "name": "",
          "type": "address"
        }
      ],
      "stateMutability": "view",
      "type": "function"
    },
    {
      "inputs": [],
      "name": "getMinBalance",
      "outputs": [
        {
          "internalType": "uint256",
          "name": "",
          "type": "uint256"
        }
      ],
      "stateMutability": "view",
      "type": "function"
    },
    {
      "inputs": [],
      "name": "isLowBalance",
      "outputs": [
        {
          "internalType": "bool",
          "name": "",
          "type": "bool"
        }
      ],
      "stateMutability": "view",
      "type": "function"
    },
    {
      "inputs": [
        {
          "internalType": "enum IPaymaster.PostOpMode",
          "name": "",
          "type": "uint8"
        },
        {
          "internalType": "bytes",
          "name": "context",
          "type": "bytes"
        },
        {
          "internalType": "uint256",
          "name": "actualGasCost",
          "type": "uint256"
        },
        {
          "internalType": "uint256",
          "name": "",
          "type": "uint256"
        }
      ],
      "name": "postOp",
      "outputs": [],
      "stateMutability": "nonpayable",
      "type": "function"
    },
    {
      "inputs": [],
      "name": "register",
      "outputs": [],
      "stateMutability": "nonpayable",
      "type": "function"
    },
    {
      "inputs": [
        {
          "internalType": "address",
          "name": "_entryPoint",
          "type": "address"
        }
      ],
      "name": "setEntryPoint",
      "outputs": [],
      "stateMutability": "nonpayable",
      "type": "function"
    },
    {
      "inputs": [
        {
          "internalType": "uint256",
          "name": "_value",
          "type": "uint256"
        }
      ],
      "name": "setMinBalance",
      "outputs": [],
      "stateMutability": "nonpayable",
      "type": "function"
    },
    {
      "inputs": [
        {
          "internalType": "address payable",
          "name": "newDeveloper",
          "type": "address"
        }
      ],
      "name": "transferDeveloper",
      "outputs": [],
      "stateMutability": "nonpayable",
      "type": "function"
    },
    {
      "inputs": [
        {
          "components": [
            {
              "internalType": "address",
              "name": "sender",
              "type": "address"
            },
            {
              "internalType": "uint256",
              "name": "nonce",
              "type": "uint256"
            },
            {
              "internalType": "bytes",
              "name": "initCode",
              "type": "bytes"
            },
            {
              "internalType": "bytes",
              "name": "callData",
              "type": "bytes"
            },
            {
              "internalType": "bytes32",
              "name": "accountGasLimits",
              "type": "bytes32"
            },
            {
              "internalType": "uint256",
              "name": "preVerificationGas",
              "type": "uint256"
            },
            {
              "internalType": "bytes32",
              "name": "gasFees",
              "type": "bytes32"
            },
            {
              "internalType": "bytes",
              "name": "paymasterAndData",
              "type": "bytes"
            },
            {
              "internalType": "bytes",
              "name": "signature",
              "type": "bytes"
            }
          ],
          "internalType": "struct PackedUserOperation",
          "name": "userOp",
          "type": "tuple"
        },
        {
          "internalType": "bytes32",
          "name": "",
          "type": "bytes32"
        },
        {
          "internalType": "uint256",
          "name": "",
          "type": "uint256"
        }
      ],
      "name": "validatePaymasterUserOp",
      "outputs": [
        {
          "internalType": "bytes",
          "name": "context",
          "type": "bytes"
        },
        {
          "internalType": "uint256",
          "name": "validationData",
          "type": "uint256"
        }
      ],
      "stateMutability": "view",
      "type": "function"
    },
    {
      "inputs": [
        {
          "internalType": "address payable",
          "name": "_to",
          "type": "address"
        },
        {
          "internalType": "uint256",
          "name": "_amount",
          "type": "uint256"
        }
      ],
      "name": "withdrawFromEntryPoint",
      "outputs": [],
      "stateMutability": "nonpayable",
      "type": "function"
    }
  ],
  "bytecode": "0x60803460b957601f61104f38819003918201601f19168301916001600160401b0383118484101760bd5780849260809460405283398101031260b95760428160d1565b50604d6020820160d1565b906060605a6040830160d1565b910151600180546001600160a01b03199081166001600160a01b039485169081179092555f80548216909217909155600291909155600380548216939092169290921790556005805490911633179055604051610f6a90816100e58239f35b5f80fd5b634e487b7160e01b5f52604160045260245ffd5b51906001600160a01b038216820360b95756fe60806040526004361015610011575f80fd5b5f5f3560e01c80631aa3a00814610b725780631b3ba10114610ac957806344ab613f14610a9c57806352b7512c1461083557806357779894146107aa578063584465f2146106c957806364cb4edb1461061557806375d0c0dc146105c05780637c627b21146103e9578063a0a8e4601461039d578063c7d76308146102d4578063c8d035c914610228578063c91d956c1461010d578063ca4b208b146100e45763e4fae4e4146100bf575f80fd5b346100e157806003193601126100e15760206100d9610e01565b604051908152f35b80fd5b50346100e157806003193601126100e1576005546040516001600160a01b039091168152602090f35b50346100e15760203660031901126100e15760043561013760018060a01b03600554163314610cee565b81610140610d3a565b6040519061014f604083610cb8565b600a8252696d696e42616c616e636560b01b602083015261018961019760018060a01b036003541693604051928391602083019586610eaf565b03601f198101835282610cb8565b519020813b15610224578291604483926040519485938492637152429d60e11b845260048401528860248401525af1801561021957610200575b507fc9ac0b9c6116d44b14ac8198e0802802d07cf6956054e7542f0460a4d3423b3a602083604051908152a180f35b8161020a91610cb8565b61021557815f6101d1565b5080fd5b6040513d84823e3d90fd5b8280fd5b50346100e157806003193601126100e157602490610244610d95565b602061024e610e01565b6040516370a0823160e01b815230600482015294909285919082906001600160a01b03165afa9182156102c8579161028f575b602092506040519111158152f35b90506020823d6020116102c0575b816102aa60209383610cb8565b810103126102bc576020915190610281565b5f80fd5b3d915061029d565b604051903d90823e3d90fd5b50346100e15760403660031901126100e1576102ee610c8e565b60243561030660018060a01b03600554163314610cee565b826001600160a01b03610317610d95565b1692833b156102155781809160446040518094819363040b850f60e31b835260018060a01b0316988960048401528860248401525af1801561021957610388575b505060207f9c16e513cf59286b248f64635c49ab69e4907d26ebfbc4a26ab222d612c86f6491604051908152a280f35b8161039291610cb8565b61022457825f610358565b50346100e157806003193601126100e1576103e56040516103bf604082610cb8565b60058152640312e302e360dc1b6020820152604051918291602083526020830190610c6a565b0390f35b50346100e15760803660031901126100e157600360043510156100e15760243567ffffffffffffffff8111610215573660238201121561021557806004013567ffffffffffffffff81116102245781013660248201116102245761044b610d3a565b61048160405161045c604082610cb8565b600a815269195b9d1c9e541bda5b9d60b21b60208201526001600160a01b0392610ec8565b1633036105b1576040908290031261021557806104ad60446104a66024809501610ca4565b9201610ca4565b906104b6610d95565b9160206104c1610e01565b6040516370a0823160e01b815230600482015295909486919082906001600160a01b03165afa9384156105a6578594610572575b50604080516044358152602081018690526001600160a01b0392831693909216917f9e0cfd035db7f3355effe8a87c1a34ec8e696a1f126781c5a91bf0de22db1ef49190a38110610544575080f35b60207ffecf62bd60f09e10b15503b9fee87715f91b21579898e1eda78ad352110e1b5e91604051908152a180f35b9093506020813d60201161059e575b8161058e60209383610cb8565b810103126102bc5751925f6104f5565b3d9150610581565b6040513d87823e3d90fd5b6306facdbd60e21b8352600483fd5b50346100e157806003193601126100e157506103e56040516105e3604082610cb8565b601181527014185e5b585cdd195c90dbdb9d1c9858dd607a1b6020820152604051918291602083526020830190610c6a565b50346100e15760203660031901126100e15761062f610c8e565b6005546001600160a01b03811691610648338414610cee565b6001600160a01b031691821561068f5782907fd734ca01d7ec868e364f3c2cbda207212fa91c58040df183429252e85a48b2b18580a36001600160a01b0319161760055580f35b60405162461bcd60e51b815260206004820152601260248201527154686973206164647265737320697320302160701b6044820152606490fd5b50346100e15760203660031901126100e157806004356001600160a01b038116908190036107a75761070660018060a01b03600554163314610cee565b61070e610d3a565b906040519161071e604084610cb8565b600a835269195b9d1c9e541bda5b9d60b21b602084015261018961075860018060a01b036003541694604051928391602083019586610eaf565b51902090823b156107a4576044849283604051958694859363ca446dd960e01b8552600485015260248401525af18015610219576107935750f35b8161079d91610cb8565b6100e15780f35b50505b50fd5b50346100e157806003193601126100e15760249060206001600160a01b036107d0610d95565b16604051938480926370a0823160e01b82523060048301525afa9081156102c85790610802575b602090604051908152f35b506020813d60201161082d575b8161081c60209383610cb8565b810103126102bc57602090516107f7565b3d915061080f565b50346100e15760603660031901126100e1576004359067ffffffffffffffff82116100e157610120826004019260031990360301126100e157610876610d3a565b61088760405161045c604082610cb8565b163303610a8d576108e6602060018060a01b03835416604051906108ac604083610cb8565b600c82526b4f776e65724665617475726560a01b838301526040518080958194630251382f60e31b83528660048401526024830190610c6a565b03915afa908115610219578291610a6e575b50602061090484610ded565b6040516307b9c93d60e11b81526001600160a01b0391821660048201529283916024918391165afa908115610219578291610a33575b5015610a10576004919060206001600160a01b0361095784610ded565b1660405194858092638da5cb5b60e01b82525afa918215610a03576109c49382936109ce575b5061098790610ded565b604080516001600160a01b039283166020820152939091168382015282526109b0606083610cb8565b604051928392604084526040840190610c6a565b9060208301520390f35b6109879193506109f59060203d6020116109fc575b6109ed8183610cb8565b810190610dce565b929061097d565b503d6109e3565b50604051903d90823e3d90fd5b610a1b602492610ded565b63056fdc8960e31b82526001600160a01b0316600452fd5b90506020813d602011610a66575b81610a4e60209383610cb8565b8101031261021557518015158103610215575f61093a565b3d9150610a41565b610a87915060203d6020116109fc576109ed8183610cb8565b5f6108f8565b6306facdbd60e21b8152600490fd5b50346100e157806003193601126100e1576020610ab7610d95565b6040516001600160a01b039091168152f35b50806003193601126100e157610aea60018060a01b03600554163314610cee565b806001600160a01b03610afb610d95565b16803b156107a757816024916040519283809263b760faf960e01b825230600483015234905af1801561021957610b5d575b506040513481527f9e2d0dc81eb38ff1d67af62923ffb2cbf68cbcc3235b24fe71e932fcff0c77d660203392a280f35b81610b6791610cb8565b6100e157805f610b2d565b50346102bc575f3660031901126102bc57610b9860018060a01b03600554163314610cee565b60018060a01b035f541660025460405190610bb4604083610cb8565b601082526f5061796d61737465724665617475726560801b602083015260405192610be0604085610cb8565b60058452640312e302e360dc1b6020850152803b156102bc575f9283610c2d93610c3f6040519788968795869463163f5abb60e21b86526004860152606060248601526064850190610c6a565b83810360031901604485015290610c6a565b03925af18015610c5f57610c51575080f35b610c5d91505f90610cb8565b005b6040513d5f823e3d90fd5b805180835260209291819084018484015e5f828201840152601f01601f1916010190565b600435906001600160a01b03821682036102bc57565b35906001600160a01b03821682036102bc57565b90601f8019910116810190811067ffffffffffffffff821117610cda57604052565b634e487b7160e01b5f52604160045260245ffd5b15610cf557565b60405162461bcd60e51b815260206004820152601b60248201527f4f6e6c792074686520446576656c6f70657220726571756972656400000000006044820152606490fd5b604051610d48604082610cb8565b60108152602081016f5061796d61737465724665617475726560801b8152610d8f6020604051809382820195518091875e81015f838201520301601f198101835282610cb8565b51902090565b610dcb610da0610d3a565b60405190610daf604083610cb8565b600a825269195b9d1c9e541bda5b9d60b21b6020830152610ec8565b90565b908160209103126102bc57516001600160a01b03811681036102bc5790565b356001600160a01b03811681036102bc5790565b610e09610d3a565b602060405191610e1a604084610cb8565b600a8352696d696e42616c616e636560b01b82840152610189610e5260018060a01b0360035416946040519283918683019586610eaf565b51902060246040518094819363bd02d0f560e01b835260048301525afa908115610c5f575f91610e80575090565b90506020813d602011610ea7575b81610e9b60209383610cb8565b810103126102bc575190565b3d9150610e8e565b602092839282528051928391018483015e01015f815290565b602090610189610eed60018060a01b0360035416946040519283918683019586610eaf565b5190206024604051809481936321f8a72160e01b835260048301525afa908115610c5f575f91610f1b575090565b610dcb915060203d6020116109fc576109ed8183610cb856fea26469706673582212204765d902d9c3ce020bcb054ce6be82a295c967deeb68b14044a8042c2bfdae0e64736f6c634300081c0033",
  "linkReferences": {},
  "deployedLinkReferences": {}
}