{
  "_format": "hh-sol-artifact-1",
  "contractName": "TokenContract",
  "sourceName": "contracts/subcontract/TokenContract.sol",
  "abi": [
    {
      "inputs": [
        {
          "internalType": "address",
          "name": "_storage",
          "type": "address"
        },
        {
          "internalType": "address",
          "name": "_master",
          "type": "address"
        },
        {
          "internalType": "bytes32",
          "name": "_key",
          "type": "bytes32"
        }
      ],
      "stateMutability": "nonpayable",
      "type": "constructor"
    },
    {
      "anonymous": false,
      "inputs": [
        {
          "indexed": true,
          "internalType": "address",
          "name": "previousDeveloper",
          "type": "address"
        },
        {
          "indexed": true,
          "internalType": "address",
          "name": "newDeveloper",
          "type": "address"
        }
      ],
      "name": "DeveloperTransferredEvent",
      "type": "event"
    },
    {
      "anonymous": false,
      "inputs": [
        {
          "indexed": true,
          "internalType": "address",
          "name": "from",
          "type": "address"
        },
        {
          "indexed": true,
          "internalType": "address",
          "name": "to",
          "type": "address"
        },
        {
          "indexed": false,
          "internalType": "uint256",
          "name": "tokens",
          "type": "uint256"
        },
        {
          "indexed": false,
          "internalType": "uint256",
          "name": "mode",
          "type": "uint256"
        }
      ],
      "name": "Transfer",
      "type": "event"
    },
    {
      "inputs": [
        {
          "internalType": "address",
          "name": "_addr",
          "type": "address"
        }
      ],
      "name": "balanceOf",
      "outputs": [
        {
          "internalType": "uint256",
          "name": "",
          "type": "uint256"
        }
      ],
      "stateMutability": "view",
      "type": "function"
    },
    {
      "inputs": [],
      "name": "contractName",
      "outputs": [
        {
          "internalType": "string",
          "name": "",
          "type": "string"
        }
      ],
      "stateMutability": "view",
      "type": "function"
    },
    {
      "inputs": [],
      "name": "contractVersion",
      "outputs": [
        {
          "internalType": "string",
          "name": "",
          "type": "string"
        }
      ],
      "stateMutability": "view",
      "type": "function"
    },
    {
      "inputs": [
        {
          "internalType": "address",
          "name": "_addr",
          "type": "address"
        },
        {
          "internalType": "uint256",
          "name": "_amount",
          "type": "uint256"
        }
      ],
      "name": "decFreezedToken",
      "outputs": [],
      "stateMutability": "nonpayable",
      "type": "function"
    },
    {
      "inputs": [],
      "name": "decimals",
      "outputs": [
        {
          "internalType": "uint8",
          "name": "",
          "type": "uint8"
        }
      ],
      "stateMutability": "pure",
      "type": "function"
    },
    {
      "inputs": [],
      "name": "developer",
      "outputs": [
        {
          "internalType": "address payable",
          "name": "",
          "type": "address"
        }
      ],
      "stateMutability": "view",
      "type": "function"
    },
    {
      "inputs": [
        {
          "internalType": "address",
          "name": "_addr",
          "type": "address"
        }
      ],
      "name": "freezedOf",
      "outputs": [
        {
          "internalType": "uint256",
          "name": "",
          "type": "uint256"
        }
      ],
      "stateMutability": "view",
      "type": "function"
    },
    {
      "inputs": [
        {
          "internalType": "uint256",
          "name": "_id",
          "type": "uint256"
        }
      ],
      "name": "getTransfer",
      "outputs": [
        {
          "internalType": "uint256",
          "name": "id",
          "type": "uint256"
        },
        {
          "internalType": "address",
          "name": "from",
          "type": "address"
        },
        {
          "internalType": "address",
          "name": "to",
          "type": "address"
        },
        {
          "internalType": "uint256",
          "name": "beforesender",
          "type": "uint256"
        },
        {
          "internalType": "uint256",
          "name": "beforereceiver",
          "type": "uint256"
        },
        {
          "internalType": "uint256",
          "name": "value",
          "type": "uint256"
        },
        {
          "internalType": "uint256",
          "name": "time",
          "type": "uint256"
        },
        {
          "internalType": "uint256",
          "name": "mode",
          "type": "uint256"
        },
        {
          "internalType": "uint256",
          "name": "resultTime",
          "type": "uint256"
        },
        {
          "internalType": "uint256",
          "name": "status",
          "type": "uint256"
        }
      ],
      "stateMutability": "view",
      "type": "function"
    },
    {
      "inputs": [],
      "name": "getTransferCount",
      "outputs": [
        {
          "internalType": "uint256",
          "name": "",
          "type": "uint256"
        }
      ],
      "stateMutability": "view",
      "type": "function"
    },
    {
      "inputs": [],
      "name": "getTreasuryAddress",
      "outputs": [
        {
          "internalType": "address",
          "name": "",
          "type": "address"
        }
      ],
      "stateMutability": "view",
      "type": "function"
    },
    {
      "inputs": [],
      "name": "getTreasuryToken",
      "outputs": [
        {
          "internalType": "uint256",
          "name": "",
          "type": "uint256"
        }
      ],
      "stateMutability": "view",
      "type": "function"
    },
    {
      "inputs": [
        {
          "internalType": "address",
          "name": "_addr",
          "type": "address"
        },
        {
          "internalType": "uint256",
          "name": "_amount",
          "type": "uint256"
        }
      ],
      "name": "incFreezedToken",
      "outputs": [],
      "stateMutability": "nonpayable",
      "type": "function"
    },
    {
      "inputs": [
        {
          "internalType": "address",
          "name": "addr",
          "type": "address"
        },
        {
          "internalType": "uint256",
          "name": "value",
          "type": "uint256"
        },
        {
          "internalType": "address",
          "name": "who",
          "type": "address"
        }
      ],
      "name": "initTreasuryWallet",
      "outputs": [
        {
          "internalType": "bool",
          "name": "",
          "type": "bool"
        }
      ],
      "stateMutability": "nonpayable",
      "type": "function"
    },
    {
      "inputs": [
        {
          "internalType": "address",
          "name": "_addr",
          "type": "address"
        }
      ],
      "name": "initiateFirstOwnerBalance",
      "outputs": [],
      "stateMutability": "nonpayable",
      "type": "function"
    },
    {
      "inputs": [
        {
          "internalType": "string",
          "name": "_n",
          "type": "string"
        },
        {
          "internalType": "string",
          "name": "_s",
          "type": "string"
        },
        {
          "internalType": "uint256",
          "name": "_ts",
          "type": "uint256"
        },
        {
          "internalType": "uint256",
          "name": "_vp",
          "type": "uint256"
        }
      ],
      "name": "initiateParameters",
      "outputs": [],
      "stateMutability": "nonpayable",
      "type": "function"
    },
    {
      "inputs": [],
      "name": "isInitiatedToken",
      "outputs": [
        {
          "internalType": "bool",
          "name": "",
          "type": "bool"
        }
      ],
      "stateMutability": "view",
      "type": "function"
    },
    {
      "inputs": [
        {
          "internalType": "address",
          "name": "_addr",
          "type": "address"
        },
        {
          "internalType": "uint256",
          "name": "_amount",
          "type": "uint256"
        }
      ],
      "name": "isPossibleTransfer",
      "outputs": [
        {
          "internalType": "bool",
          "name": "",
          "type": "bool"
        }
      ],
      "stateMutability": "view",
      "type": "function"
    },
    {
      "inputs": [],
      "name": "name",
      "outputs": [
        {
          "internalType": "string",
          "name": "",
          "type": "string"
        }
      ],
      "stateMutability": "view",
      "type": "function"
    },
    {
      "inputs": [],
      "name": "register",
      "outputs": [],
      "stateMutability": "nonpayable",
      "type": "function"
    },
    {
      "inputs": [
        {
          "internalType": "address",
          "name": "from",
          "type": "address"
        },
        {
          "internalType": "address",
          "name": "to",
          "type": "address"
        }
      ],
      "name": "sendOneToken",
      "outputs": [
        {
          "internalType": "bool",
          "name": "",
          "type": "bool"
        }
      ],
      "stateMutability": "nonpayable",
      "type": "function"
    },
    {
      "inputs": [],
      "name": "symbol",
      "outputs": [
        {
          "internalType": "string",
          "name": "",
          "type": "string"
        }
      ],
      "stateMutability": "view",
      "type": "function"
    },
    {
      "inputs": [
        {
          "internalType": "address",
          "name": "from",
          "type": "address"
        },
        {
          "internalType": "address",
          "name": "to",
          "type": "address"
        },
        {
          "internalType": "uint256",
          "name": "amount",
          "type": "uint256"
        },
        {
          "internalType": "uint256",
          "name": "mode",
          "type": "uint256"
        }
      ],
      "name": "tokenTransfer",
      "outputs": [
        {
          "internalType": "uint256",
          "name": "transferId",
          "type": "uint256"
        }
      ],
      "stateMutability": "nonpayable",
      "type": "function"
    },
    {
      "inputs": [],
      "name": "totalSupply",
      "outputs": [
        {
          "internalType": "uint256",
          "name": "",
          "type": "uint256"
        }
      ],
      "stateMutability": "view",
      "type": "function"
    },
    {
      "inputs": [
        {
          "internalType": "address",
          "name": "to",
          "type": "address"
        },
        {
          "internalType": "uint256",
          "name": "amount",
          "type": "uint256"
        }
      ],
      "name": "transfer",
      "outputs": [
        {
          "internalType": "bool",
          "name": "",
          "type": "bool"
        }
      ],
      "stateMutability": "payable",
      "type": "function"
    },
    {
      "inputs": [
        {
          "internalType": "address payable",
          "name": "newDeveloper",
          "type": "address"
        }
      ],
      "name": "transferDeveloper",
      "outputs": [],
      "stateMutability": "nonpayable",
      "type": "function"
    },
    {
      "stateMutability": "payable",
      "type": "receive"
    }
  ],
  "bytecode": "0x60803460b357601f6134ba38819003918201601f19168301916001600160401b0383118484101760b75780849260609460405283398101031260b35760428160cb565b906040604f6020830160cb565b910151600180546001600160a01b03199081166001600160a01b039485169081179092555f8054821690921790915560029190915560038054821693909216929092179055600580549091163317905560e66006556040516133db90816100df8239f35b5f80fd5b634e487b7160e01b5f52604160045260245ffd5b51906001600160a01b038216820360b35756fe6080604052600436101561001a575b3615610018575f80fd5b005b5f5f3560e01c8063040e55f514611d4a57806306fdde0314611d245780630ad63a1e14611c7a57806318160ddd14611c555780631aa3a00814611b9a578063313ce56714611b7e57806334ce482614611b635780634127231714611b3f5780634854637f146117e45780634ee8635014610fb957806357cba98814610f9757806364cb4edb14610ee15780636c8dc91214610d8557806370a0823114610d4b57806375d0c0dc14610cfb5780638891c77c14610c5757806395d89b4114610c2a5780639859abb314610a8b578063a0a8e46014610a57578063a9059cbb1461050e578063ac24bcdf146104dc578063c16fe90714610320578063ca4b208b146102f7578063e0024604146102bf5763ebcaeda514610138575061000e565b3461027357606036600319011261027357610151611d8b565b604435916001600160a01b03831683036102735780546101a2906020906001600160a01b031661017f611f69565b906040518080958194630251382f60e31b83528660048401526024830190611d67565b03915afa9081156102b4578291610276575b506001600160a01b0316330361027357506101cd611e7f565b6001600160a01b03906101e8906101e2612266565b9061313f565b16610220576101fe61021592826024359161299c565b50610207611e7f565b61020f612266565b906131c6565b602060405160018152f35b60405162461bcd60e51b815260206004820152602560248201527f54726561737572792057616c6c657420616c72656164792068617320696e69746044820152641a585d195960da1b6064820152608490fd5b80fd5b90506020813d6020116102ac575b8161029160209383611de4565b810103126102a8576102a290611f94565b5f6101b4565b5080fd5b3d9150610284565b6040513d84823e3d90fd5b503461027357806003193601126102735760206102e56102dd611e7f565b6101e2612266565b6040516001600160a01b039091168152f35b50346102735780600319360112610273576005546040516001600160a01b039091168152602090f35b503461027357602036600319011261027357610140600435610340612f6d565b906103528161034d611ed2565b613385565b908252610366610360612fcf565b8261313f565b6001600160a01b03166020830190815291610388610382612ff1565b8361313f565b6001600160a01b031660408201908152916103aa6103a4613011565b82612298565b606083019081526103c26103bc61303b565b83612298565b608084019081526103da6103d4613067565b84612298565b60a085019081526103f26103ec61308a565b85612298565b9160c0860192835261040b6104056130ac565b86612298565b9360e0870194855261042461041e6130ce565b87612298565b96610100810197885260e661045a61044361043d6130f2565b8a612298565b986101208401998a5261045461311a565b90612298565b808d8401528751156104d3575b106104c6575b51985197519051915192519351945195519651604080519a8b526001600160a01b03998a1660208c015291909816908901526060880152608087015260a086015260c085015260e0840152610100830152610120820152f35b845187526003885261046d565b60018852610467565b50346102735760403660031901126102735760206105046104fb611d8b565b60243590612242565b6040519015158152f35b50604036600319011261027357610523611d8b565b815460243592916001600160a01b039091169061056460206105436120d0565b60405180938192630251382f60e31b83528460048401526024830190611d67565b0381865afa9081156107b5578491610a18575b506040516307b9c93d60e11b81526001600160a01b038381166004830152909160209183916024918391165afa9081156107b55784916109f9575b50156109b4576105fa906105ce6105c833612f20565b91612f20565b9260206105d9612f40565b60405180958192630251382f60e31b83528460048401526024830190611d67565b0381845afa9283156108ab578593610978575b50604051630b93f0f960e31b81526001600160a01b0383811660048301819052602483018990529460209183916044918391165afa90811561096d578691610937575b5034036108f95760206106659161017f612173565b03915afa9081156108ab5785916108b6575b50604051639f9a1f4560e01b815290602090829060049082906001600160a01b03165afa9081156108ab57859161088c575b50156107c0575082546106ca906020906001600160a01b031661017f612173565b03915afa9081156107b557849161076e575b50604051636ec526c560e11b815260048101929092526001600160a01b039283166024830152604482019490945292602091849160649183913491165af19081156107625750610733575b50602060405160018152f35b6107549060203d60201161075b575b61074c8183611de4565b8101906120fa565b505f610727565b503d610742565b604051903d90823e3d90fd5b90506020813d6020116107ad575b8161078960209383611de4565b810103126107a957602092916107a0606492611f94565b915091926106dc565b8380fd5b3d915061077c565b6040513d86823e3d90fd5b916107ce929491939461299c565b50815482906107eb906020906001600160a01b031661017f612f40565b03915afa9081156102b4578291610852575b506001600160a01b031691823b156102a857602460405180948193635d06805160e01b8352600483015234905af180156102b45761083d575b5050610215565b610848828092611de4565b6102735780610836565b90506020813d602011610884575b8161086d60209383611de4565b810103126102a85761087e90611f94565b5f6107fd565b3d9150610860565b6108a5915060203d60201161075b5761074c8183611de4565b5f6106a9565b6040513d87823e3d90fd5b90506020813d6020116108f1575b816108d160209383611de4565b810103126108ed5760206108e6600492611f94565b9150610677565b8480fd5b3d91506108c4565b60405162461bcd60e51b815260206004820152601660248201527550726f7669646564206665652069732077726f6e672160501b6044820152606490fd5b90506020813d602011610965575b8161095260209383611de4565b8101031261096157515f610650565b5f80fd5b3d9150610945565b6040513d88823e3d90fd5b9092506020813d6020116109ac575b8161099460209383611de4565b810103126108ed576109a590611f94565b915f61060d565b3d9150610987565b60405162461bcd60e51b815260206004820152601760248201527f5265636569766572206973206e6f7420616c6c6f7765640000000000000000006044820152606490fd5b610a12915060203d60201161075b5761074c8183611de4565b5f6105b2565b90506020813d602011610a4f575b81610a3360209383611de4565b810103126107a9576020610a48602492611f94565b9150610577565b3d9150610a26565b5034610273578060031936011261027357610a87610a73611e34565b604051918291602083526020830190611d67565b0390f35b503461027357604036600319011261027357610aa5611d8b565b8154610adf906001600160a01b03166020610abe612148565b60405180948192630251382f60e31b83528460048401526024830190611d67565b0381845afa9182156107b5578492610bea575b50906020610b2592610b02612173565b906040518080968194630251382f60e31b83528660048401526024830190611d67565b03915afa9182156107b5578492610bae575b506001600160a01b03163314908115610b9b575b50156102a85780610b66610b9892610b61611e7f565b612e1f565b90610b92610b7e610b7561219e565b92610b61611e7f565b610b8d6024359161045461219e565b612221565b91612ebc565b80f35b6001600160a01b0316331490505f610b4b565b9091506020813d602011610be2575b81610bca60209383611de4565b810103126107a957610bdb90611f94565b905f610b37565b3d9150610bbd565b91506020823d602011610c22575b81610c0560209383611de4565b810103126107a9576020610c1b610b2593611f94565b9250610af2565b3d9150610bf8565b5034610273578060031936011261027357610a87610a73610c49611e7f565b610c516121f8565b9061231a565b503461027357604036600319011261027357610c71611d8b565b610c79611da1565b90610c91602060018060a01b0385541661017f611f69565b03915afa9081156107b5578491610cc1575b506001600160a01b03163303610cbd5761072792506123f0565b8280fd5b90506020813d602011610cf3575b81610cdc60209383611de4565b810103126107a957610ced90611f94565b5f610ca3565b3d9150610ccf565b5034610273578060031936011261027357610a87604051610d1d604082611de4565b600d81526c151bdad95b90dbdb9d1c9858dd609a1b6020820152604051918291602083526020830190611d67565b5034610273576020366003190112610273576020610d7d610d75610d6d611d8b565b610b61611e7f565b6104546121ce565b604051908152f35b503461027357604036600319011261027357610d9f611d8b565b815460243590610dbc906001600160a01b03166020610abe612148565b0381845afa9182156108ab578592610ea1575b50906020610ddf92610b02612173565b03915afa9182156108ab578592610e65575b506001600160a01b03163314908115610e52575b5015610cbd57610e158183612242565b15610cbd5781610b92610e2d610b9894610b61611e7f565b92610e4d610e45610e3c61219e565b94610b61611e7f565b61045461219e565b6123e3565b6001600160a01b0316331490505f610e05565b9091506020813d602011610e99575b81610e8160209383611de4565b810103126108ed57610e9290611f94565b905f610df1565b3d9150610e74565b91506020823d602011610ed9575b81610ebc60209383611de4565b810103126108ed576020610ed2610ddf93611f94565b9250610dcf565b3d9150610eaf565b5034610273576020366003190112610273576004356001600160a01b038116908190036102a8576005546001600160a01b038116610f20338214611fd6565b8215610f5d5782907fd734ca01d7ec868e364f3c2cbda207212fa91c58040df183429252e85a48b2b18580a36001600160a01b0319161760055580f35b60405162461bcd60e51b815260206004820152601260248201527154686973206164647265737320697320302160701b6044820152606490fd5b5034610273576020366003190112610273576020610d7d610e45610d6d611d8b565b503461027357608036600319011261027357610fd3611d8b565b610fdb611da1565b8254606435929160443591610ffd906001600160a01b03166020610abe612148565b0381845afa9182156116d95787926117a4575b5090602061102092610b02612173565b03915afa9182156116d9578792611768575b506001600160a01b03163314908115611755575b50156108ed5783151580611743575b80611733575b156108ed5761106f610d7584610b61611e7f565b9361107f610d7583610b61611e7f565b906110b061109685610b8d610d7589610b61611e7f565b6110a287610b61611e7f565b6110aa6121ce565b90612ebc565b6110d26110c685610e4d610d7587610b61611e7f565b6110a285610b61611e7f565b6110da612f6d565b926110ee6110e6611ed2565b610454611f1d565b90818552602085019660018060a01b031696878152604086019160018060a01b03169485835260608701908a82526080880190815260a088019189835260c089019342855260e08a0195888752600654976101408c019889526001810180911161171e578d999661122a61125c976112198f986112087f9ed053bb818ff08b8353cd46f78db1f0799f31c9e4458fdb425c10eccd2efc449e996111f760409f999a61124c9b6111c16111de9f6111b161123b9d6111a9611ed2565b6110aa611f1d565b6111b9611ed2565b905190613385565b9e8f926111cc612fcf565b90516001600160a01b031690846131c6565b6111e6612ff1565b90516001600160a01b0316916131c6565b6111ff613011565b9051908c612ebc565b61121061303b565b9051908a612ebc565b611221613067565b90519088612ebc565b61123261308a565b90519086612ebc565b6112436130ac565b90519084612ebc565b61125461311a565b905191612ebc565b8151908782526020820152a351926112768461034d611ed2565b6112816103a46130ce565b6115cf576112a49061129a6112946130ce565b82612e52565b42906110aa6130f2565b84546112be906020906001600160a01b031661017f6120d0565b03915afa90811561096d5786916116e4575b506040516317aa5fb760e11b8152600481018590526001600160a01b0391909116929091602083602481875afa9283156116d95787936116b8575b50826116a6575b5050611324575b602083604051908152f35b6040516340acac2160e11b8152849190602081600481855afa9081156114c957839161166f575b5060010361161e57505082546001600160a01b031691611370908460206105d9611f69565b0381885afa80156116115781906115d7575b604051639eab525360e01b81529350839060049082906001600160a01b03165afa9182156108ab578592611513575b506001600160a01b036113c3836132ad565b5116926113d5610d7585610b61611e7f565b9360015b845181101561143857611404610d756001600160a01b036113fa84896132ce565b5116610b61611e7f565b868111611415575b506001016113d9565b909550905060016001600160a01b0361142e87876132ce565b511691959061140c565b509194602091945061144d9350610b026120d0565b03915afa9182156108ab5785926114d4575b5060405163f00d4b5d60e01b815260048101939093526001600160a01b039081166024840152602091839160449183918891165af180156114c957602093506114ac575b505b5f80611319565b6114c290833d851161075b5761074c8183611de4565b505f6114a3565b6040513d85823e3d90fd5b91506020823d60201161150b575b816114ef60209383611de4565b810103126108ed576044611504602093611f94565b925061145f565b3d91506114e2565b9091503d8086833e6115258183611de4565b8101906020818303126115cf578051906001600160401b0382116115d357019080601f830112156115cf578151916001600160401b0383116115bb578260051b90604051936115776020840186611de4565b84526020808501928201019283116115b757602001905b82821061159f57505050905f6113b1565b602080916115ac84611f94565b81520191019061158e565b8780fd5b634e487b7160e01b87526041600452602487fd5b8580fd5b8680fd5b506020833d602011611609575b816115f160209383611de4565b8101031261027357611604600493611f94565b611382565b3d91506115e4565b50604051903d90823e3d90fd5b60246020929360405194859384926302abc93d60e11b845260048401525af180156114c95760209350611652575b506114a5565b61166890833d851161075b5761074c8183611de4565b505f61164c565b9250506020823d60201161169e575b8161168b60209383611de4565b810103126109615760018592519061134b565b3d915061167e565b6116b09250612221565b155f80611312565b6116d291935060203d60201161075b5761074c8183611de4565b915f61130b565b6040513d89823e3d90fd5b90506020813d602011611716575b816116ff60209383611de4565b810103126115cf5761171090611f94565b5f6112d0565b3d91506116f2565b50634e487b7160e01b8f52601160045260248ffd5b5061173e8284612242565b61105b565b506001600160a01b0381161515611055565b6001600160a01b0316331490505f611046565b9091506020813d60201161179c575b8161178460209383611de4565b810103126115d35761179590611f94565b905f611032565b3d9150611777565b91506020823d6020116117dc575b816117bf60209383611de4565b810103126115d35760206117d561102093611f94565b9250611010565b3d91506117b2565b503461027357608036600319011261027357806004356001600160401b038111611aa957611816903690600401611db7565b906024356001600160401b038111611aac57611836903690600401611db7565b916044359160643594611856602060018060a01b0389541661017f6120d0565b03915afa908115611af5578891611b00575b506040516317aa5fb760e11b815233600482015290602090829060249082906001600160a01b03165afa908115611af5578891611ad6575b50156115d35780151580611acd575b80611ac4575b80611abc575b80611ab1575b156115d3576118dd926118d5913691612112565b933691612112565b916118e661204e565b6108ed5761192b9261190b61191b926118fd611e7f565b611905611f42565b90613238565b611913611e7f565b6119056121f8565b611923611e7f565b6110aa611fa8565b611933611e7f565b61193b612022565b6003546040516001600160a01b039091169260208201926119709183916119629186611eb9565b03601f198101835282611de4565b519020813b15611aac57839160448392604051948593849263abfdcced60e01b84526004840152600160248401525af19081156114c9578391611a94575b50508154604051630251382f60e31b8152602060048201819052600d60248301526c566f74696e674665617475726560981b60448301529091829060649082906001600160a01b03165afa9081156114c9578391611a5a575b506001600160a01b031690813b15611a56578291602483926040519485938492631db81c2560e21b845260048401525af180156102b457611a455750f35b81611a4f91611de4565b6102735780f35b5050fd5b90506020813d602011611a8c575b81611a7560209383611de4565b81010312611a5657611a8690611f94565b5f611a07565b3d9150611a68565b81611a9e91611de4565b611aa957815f6119ae565b50fd5b505050fd5b5060648611156118c1565b5060016118bb565b508315156118b5565b508415156118af565b611aef915060203d60201161075b5761074c8183611de4565b5f6118a0565b6040513d8a823e3d90fd5b90506020813d602011611b37575b81611b1b60209383611de4565b810103126115b7576020611b30602492611f94565b9150611868565b3d9150611b0e565b50346102735780600319360112610273576020610d7d610d75610d6d6102dd611e7f565b5034610273578060031936011261027357602061050461204e565b5034610273578060031936011261027357602090604051908152f35b5034610961575f36600319011261096157611bc060018060a01b03600554163314611fd6565b60018060a01b035f5416600254611bd5611e55565b90611bde611e34565b92803b15610961575f9283611c1a93611c2c6040519788968795869463163f5abb60e21b86526004860152606060248601526064850190611d67565b83810360031901604485015290611d67565b03925af18015611c4a57611c3e575080f35b61001891505f90611de4565b6040513d5f823e3d90fd5b34610961575f366003190112610961576020610d7d611c72611e7f565b610454611fa8565b3461096157602036600319011261096157611c93611d8b565b5f54611cad906020906001600160a01b031661017f611f69565b03915afa908115611c4a575f91611cea575b506001600160a01b0316330361096157610018906110a2611ce1611c72611e7f565b91610b61611e7f565b90506020813d602011611d1c575b81611d0560209383611de4565b8101031261096157611d1690611f94565b82611cbf565b3d9150611cf8565b34610961575f36600319011261096157610a87610a73611d42611e7f565b610c51611f42565b34610961575f366003190112610961576020610d7d6110e6611ed2565b805180835260209291819084018484015e5f828201840152601f01601f1916010190565b600435906001600160a01b038216820361096157565b602435906001600160a01b038216820361096157565b9181601f84011215610961578235916001600160401b038311610961576020838186019501011161096157565b90601f801991011681019081106001600160401b03821117611e0557604052565b634e487b7160e01b5f52604160045260245ffd5b6001600160401b038111611e0557601f01601f191660200190565b60405190611e43604083611de4565b600382526219171b60e91b6020830152565b60405190611e64604083611de4565b600c82526b546f6b656e4665617475726560a01b6020830152565b611e87611e55565b604051611eb36020828180820195805191829101875e81015f838201520301601f198101835282611de4565b51902090565b602092839282528051928391018483015e01015f815290565b611eda611e7f565b611962611eb3604051611eee604082611de4565b6011815270546f6b656e5472616e736665724461746160781b6020820152604051928391602083019586611eb9565b60405190611f2c604083611de4565b600782526631b7bab73a32b960c91b6020830152565b60405190611f51604083611de4565b6009825268546f6b656e4e616d6560b81b6020830152565b60405190611f78604083611de4565b600d82526c4d656d6265724665617475726560981b6020830152565b51906001600160a01b038216820361096157565b60405190611fb7604083611de4565b601082526f546f6b656e546f74616c537570706c7960801b6020830152565b15611fdd57565b60405162461bcd60e51b815260206004820152601b60248201527f4f6e6c792074686520446576656c6f70657220726571756972656400000000006044820152606490fd5b60405190612031604083611de4565b600e82526d24b734ba34b0ba32b22a37b5b2b760911b6020830152565b612056611e7f565b6020612060612022565b6003546040516001600160a01b0390911693838201926120869183916119629186611eb9565b519020602460405180948193633d70e7e560e11b835260048301525afa908115611c4a575f916120b4575090565b6120cd915060203d60201161075b5761074c8183611de4565b90565b604051906120df604083611de4565b600c82526b4f776e65724665617475726560a01b6020830152565b90816020910312610961575180151581036109615790565b92919261211e82611e19565b9161212c6040519384611de4565b829481845281830111610961578281602093845f960137010152565b60405190612157604083611de4565b600d82526c4d61726b65744665617475726560981b6020830152565b60405190612182604083611de4565b600d82526c457363726f774665617475726560981b6020830152565b604051906121ad604083611de4565b6012825271151bdad95b919c99595e9959105b5bdd5b9d60721b6020830152565b604051906121dd604083611de4565b600c82526b546f6b656e42616c616e636560a01b6020830152565b60405190612207604083611de4565b600b82526a151bdad95b94de5b589bdb60aa1b6020830152565b9190820391821161222e57565b634e487b7160e01b5f52601160045260245ffd5b6122619061225b610e45610b75610d7584610b61611e7f565b90612221565b101590565b60405190612275604083611de4565b6014825273546f6b656e54726561737572794164647265737360601b6020830152565b6020906119626122bd60018060a01b0360035416946040519283918683019586611eb9565b51902060246040518094819363bd02d0f560e01b835260048301525afa908115611c4a575f916122eb575090565b90506020813d602011612312575b8161230660209383611de4565b81010312610961575190565b3d91506122f9565b5f9061196261233f60018060a01b036003541694604051928391602083019586611eb9565b519020602460405180948193634c373c8d60e11b835260048301525afa908115611c4a575f9161236d575090565b90503d805f833e61237e8183611de4565b810190602081830312610961578051906001600160401b038211610961570181601f82011215610961578051906123b482611e19565b926123c26040519485611de4565b8284526020838301011161096157815f9260208093018386015e8301015290565b9190820180921161222e57565b6001600160a01b03821692919083151580612971575b156109615761241a610d7582610b61611e7f565b9361242a610d7584610b61611e7f565b9261243a610d7584610b61611e7f565b5f19810190811161222e57612455906110a285610b61611e7f565b612464610d7582610b61611e7f565b6001810180911161222e576110a261247e92610b61611e7f565b612486612f6d565b916124926110e6611ed2565b93848452602084019160018060a01b031694858352604085019084825260608601918983526080870193845260a08701926001845260c0880142815260e089019260018452600654956101408b019687526001860180961161222e576112196111de9861120861123b966111f78f9d61122a9761251c9f6111c1906111b161124c9f6111a9611ed2565b827f9ed053bb818ff08b8353cd46f78db1f0799f31c9e4458fdb425c10eccd2efc44604080516001815260016020820152a3519261255c8461034d611ed2565b6125676103a46130ce565b6109615761257a9061129a6112946130ce565b5f54612594906020906001600160a01b031661017f6120d0565b03915afa908115611c4a575f91612937575b506040516317aa5fb760e11b8152600481018490526001600160a01b039190911691602082602481865afa918215611c4a575f92612916575b5081612903575b506125ef575050565b6040516340acac2160e11b8152602081600481855afa8015611c4a575f906128d0575b6001141590506128a357505f546001600160a01b031691612637906020610abe611f69565b0381875afa918215611c4a575f92612865575b50604051639eab525360e01b8152915f90839060049082906001600160a01b03165afa918215611c4a575f926127c1575b506001600160a01b0361268d836132ad565b51169261269f610d7585610b61611e7f565b9360015b84518110156126f8576126c4610d756001600160a01b036113fa84896132ce565b8681116126d5575b506001016126a3565b909550905060016001600160a01b036126ee87876132ce565b51169195906126cc565b509194602091945061270d9350610b026120d0565b03915afa918215611c4a575f92612782575b5060405163f00d4b5d60e01b815260048101939093526001600160a01b039081166024840152602091839160449183915f91165af18015611c4a57612763575b505b565b61277b9060203d60201161075b5761074c8183611de4565b505f61275f565b91506020823d6020116127b9575b8161279d60209383611de4565b810103126109615760446127b2602093611f94565b925061271f565b3d9150612790565b9091503d805f833e6127d38183611de4565b810190602081830312610961578051906001600160401b03821161096157019080601f83011215610961578151916001600160401b038311611e05578260051b90604051936128256020840186611de4565b845260208085019282010192831161096157602001905b82821061284d57505050905f61267b565b6020809161285a84611f94565b81520191019061283c565b91506020823d60201161289b575b8161288060209383611de4565b81010312610961575f612894600493611f94565b925061264a565b3d9150612873565b60209060245f9360405194859384926302abc93d60e11b845260048401525af18015611c4a576127635750565b506020813d6020116128fb575b816128ea60209383611de4565b810103126109615760019051612612565b3d91506128dd565b5f1981019150811161222e57155f6125e6565b61293091925060203d60201161075b5761074c8183611de4565b905f6125df565b90506020813d602011612969575b8161295260209383611de4565b810103126109615761296390611f94565b5f6125a6565b3d9150612945565b506001612995612986610d7584610b61611e7f565b61225b610e4585610b61611e7f565b1015612406565b6001600160a01b03821693929084151580612e0f575b15610961576129c6610d7582610b61611e7f565b94612a126129d9610d7586610b61611e7f565b946129fc6129f086610b8d610d7588610b61611e7f565b6110a286610b61611e7f565b6110a2611ce186610e4d610d7585610b61611e7f565b612a1a612f6d565b91612a266110e6611ed2565b94858452602084019160018060a01b031695868352604085019084825260608601918a83526080870193845260a087019288845260c0880142815260e089019260018452600654956101408b019687526001860180961161222e576112196111de9861120861123b966111f78f9d61122a97612aaf9f6111c1906111b161124c9f6111a9611ed2565b837f9ed053bb818ff08b8353cd46f78db1f0799f31c9e4458fdb425c10eccd2efc446040805186815260016020820152a35193612aee8561034d611ed2565b612af96103a46130ce565b61096157612b0c9061129a6112946130ce565b5f54612b26906020906001600160a01b031661017f6120d0565b03915afa908115611c4a575f91612dd5575b506040516317aa5fb760e11b8152600481018590526001600160a01b0391909116929091602083602481875afa928315611c4a575f93612db4575b5082612da2575b5050612b84575050565b6040516340acac2160e11b8152602081600481855afa8015611c4a575f90612d6f575b6001141590506128a357505f546001600160a01b031691612bcc906020610abe611f69565b0381875afa918215611c4a575f92612d31575b50604051639eab525360e01b8152915f90839060049082906001600160a01b03165afa918215611c4a575f92612c8d575b506001600160a01b03612c22836132ad565b511692612c34610d7585610b61611e7f565b9360015b84518110156126f857612c59610d756001600160a01b036113fa84896132ce565b868111612c6a575b50600101612c38565b909550905060016001600160a01b03612c8387876132ce565b5116919590612c61565b9091503d805f833e612c9f8183611de4565b810190602081830312610961578051906001600160401b03821161096157019080601f83011215610961578151916001600160401b038311611e05578260051b9060405193612cf16020840186611de4565b845260208085019282010192831161096157602001905b828210612d1957505050905f612c10565b60208091612d2684611f94565b815201910190612d08565b91506020823d602011612d67575b81612d4c60209383611de4565b81010312610961575f612d60600493611f94565b9250612bdf565b3d9150612d3f565b506020813d602011612d9a575b81612d8960209383611de4565b810103126109615760019051612ba7565b3d9150612d7c565b612dac9250612221565b155f80612b7a565b612dce91935060203d60201161075b5761074c8183611de4565b915f612b73565b90506020813d602011612e07575b81612df060209383611de4565b8101031261096157612e0190611f94565b5f612b38565b3d9150612de3565b50612e1a8282612242565b6129b2565b9060405190602082019283526bffffffffffffffffffffffff199060601b16604082015260348152611eb3605482611de4565b611962612e7560035460018060a01b031693604051928391602083019586611eb9565b519020813b15610961575f91604483926040519485938492637152429d60e11b84526004840152600360248401525af18015611c4a57612eb25750565b5f61276191611de4565b6003546040516001600160a01b0390911693926020820192612ee5918391611962919086611eb9565b51902090823b156109615760445f92836040519586948593637152429d60e11b8552600485015260248401525af18015611c4a57612eb25750565b612f29816132e2565b6001600160a01b038116612f3b575090565b905090565b60405190612f4f604083611de4565b600f82526e4f7261636c697a654665617475726560881b6020830152565b6040519061016082018281106001600160401b03821117611e05576040525f610140838281528260208201528260408201528260608201528260808201528260a08201528260c08201528260e082015282610100820152826101208201520152565b60405190612fde604083611de4565b600482526366726f6d60e01b6020830152565b60405190613000604083611de4565b6002825261746f60f01b6020830152565b60405190613020604083611de4565b600c82526b3132b337b932b9b2b73232b960a11b6020830152565b6040519061304a604083611de4565b600e82526d3132b337b932b932b1b2b4bb32b960911b6020830152565b60405190613076604083611de4565b600582526476616c756560d81b6020830152565b60405190613099604083611de4565b600482526374696d6560e01b6020830152565b604051906130bb604083611de4565b60048252636d6f646560e01b6020830152565b604051906130dd604083611de4565b600682526573746174757360d01b6020830152565b60405190613101604083611de4565b600a825269726573756c7454696d6560b01b6020830152565b60405190613129604083611de4565b60078252663b32b939b4b7b760c91b6020830152565b60209061196261316460018060a01b0360035416946040519283918683019586611eb9565b5190206024604051809481936321f8a72160e01b835260048301525afa908115611c4a575f91613192575090565b90506020813d6020116131be575b816131ad60209383611de4565b81010312610961576120cd90611f94565b3d91506131a0565b6003546040516001600160a01b03909116939260208201926131ef918391611962919086611eb9565b51902090823b156109615760405163ca446dd960e01b815260048101929092526001600160a01b03166024820152905f908290604490829084905af18015611c4a57612eb25750565b6003546040516001600160a01b0390911693926020820192613261918391611962919086611eb9565b51902090823b156109615761329c925f92836040518096819582946306e8995560e41b84526004840152604060248401526044830190611d67565b03925af18015611c4a57612eb25750565b8051156132ba5760200190565b634e487b7160e01b5f52603260045260245ffd5b80518210156132ba5760209160051b010190565b803b1561336c575f80916040516020810190638da5cb5b60e01b82526004815261330d602482611de4565b51915afa3d1561337d573d9061332282611e19565b916133306040519384611de4565b82523d5f602084013e5b158015613371575b61336c5760208180518101031261096157602001516001600160a01b038116908190036109615790565b505f90565b50602081511415613342565b60609061333a565b906040519060208201928352604082015260408152611eb3606082611de456fea26469706673582212201fdba36d7f4627d7dafd2aa23dc0179ca54e55a600c57ddd60266cdb3e4cdfc664736f6c634300081c0033",
  "linkReferences": {},
  "deployedLinkReferences": {}
}