{
  "_format": "hh-sol-artifact-1",
  "contractName": "TokenBContract",
  "sourceName": "contracts/subcontract/TokenBContract.sol",
  "abi": [
    {
      "inputs": [
        {
          "internalType": "address",
          "name": "_storage",
          "type": "address"
        },
        {
          "internalType": "address",
          "name": "_master",
          "type": "address"
        },
        {
          "internalType": "bytes32",
          "name": "_key",
          "type": "bytes32"
        }
      ],
      "stateMutability": "nonpayable",
      "type": "constructor"
    },
    {
      "inputs": [],
      "name": "ECDSAInvalidSignature",
      "type": "error"
    },
    {
      "inputs": [
        {
          "internalType": "uint256",
          "name": "length",
          "type": "uint256"
        }
      ],
      "name": "ECDSAInvalidSignatureLength",
      "type": "error"
    },
    {
      "inputs": [
        {
          "internalType": "bytes32",
          "name": "s",
          "type": "bytes32"
        }
      ],
      "name": "ECDSAInvalidSignatureS",
      "type": "error"
    },
    {
      "inputs": [
        {
          "internalType": "address",
          "name": "spender",
          "type": "address"
        },
        {
          "internalType": "uint256",
          "name": "allowance",
          "type": "uint256"
        },
        {
          "internalType": "uint256",
          "name": "needed",
          "type": "uint256"
        }
      ],
      "name": "ERC20InsufficientAllowance",
      "type": "error"
    },
    {
      "inputs": [
        {
          "internalType": "address",
          "name": "sender",
          "type": "address"
        },
        {
          "internalType": "uint256",
          "name": "balance",
          "type": "uint256"
        },
        {
          "internalType": "uint256",
          "name": "needed",
          "type": "uint256"
        }
      ],
      "name": "ERC20InsufficientBalance",
      "type": "error"
    },
    {
      "inputs": [
        {
          "internalType": "address",
          "name": "approver",
          "type": "address"
        }
      ],
      "name": "ERC20InvalidApprover",
      "type": "error"
    },
    {
      "inputs": [
        {
          "internalType": "address",
          "name": "receiver",
          "type": "address"
        }
      ],
      "name": "ERC20InvalidReceiver",
      "type": "error"
    },
    {
      "inputs": [
        {
          "internalType": "address",
          "name": "sender",
          "type": "address"
        }
      ],
      "name": "ERC20InvalidSender",
      "type": "error"
    },
    {
      "inputs": [
        {
          "internalType": "address",
          "name": "spender",
          "type": "address"
        }
      ],
      "name": "ERC20InvalidSpender",
      "type": "error"
    },
    {
      "inputs": [],
      "name": "EnforcedPause",
      "type": "error"
    },
    {
      "inputs": [],
      "name": "ExpectedPause",
      "type": "error"
    },
    {
      "inputs": [],
      "name": "InvalidShortString",
      "type": "error"
    },
    {
      "inputs": [
        {
          "internalType": "string",
          "name": "str",
          "type": "string"
        }
      ],
      "name": "StringTooLong",
      "type": "error"
    },
    {
      "anonymous": false,
      "inputs": [
        {
          "indexed": true,
          "internalType": "address",
          "name": "owner",
          "type": "address"
        },
        {
          "indexed": true,
          "internalType": "address",
          "name": "spender",
          "type": "address"
        },
        {
          "indexed": false,
          "internalType": "uint256",
          "name": "value",
          "type": "uint256"
        }
      ],
      "name": "Approval",
      "type": "event"
    },
    {
      "anonymous": false,
      "inputs": [
        {
          "indexed": true,
          "internalType": "address",
          "name": "previousDeveloper",
          "type": "address"
        },
        {
          "indexed": true,
          "internalType": "address",
          "name": "newDeveloper",
          "type": "address"
        }
      ],
      "name": "DeveloperTransferredEvent",
      "type": "event"
    },
    {
      "anonymous": false,
      "inputs": [],
      "name": "EIP712DomainChanged",
      "type": "event"
    },
    {
      "anonymous": false,
      "inputs": [
        {
          "indexed": false,
          "internalType": "address",
          "name": "account",
          "type": "address"
        }
      ],
      "name": "Paused",
      "type": "event"
    },
    {
      "anonymous": false,
      "inputs": [
        {
          "indexed": true,
          "internalType": "address",
          "name": "from",
          "type": "address"
        },
        {
          "indexed": true,
          "internalType": "address",
          "name": "to",
          "type": "address"
        },
        {
          "indexed": false,
          "internalType": "uint256",
          "name": "value",
          "type": "uint256"
        }
      ],
      "name": "Transfer",
      "type": "event"
    },
    {
      "anonymous": false,
      "inputs": [
        {
          "indexed": false,
          "internalType": "address",
          "name": "account",
          "type": "address"
        }
      ],
      "name": "Unpaused",
      "type": "event"
    },
    {
      "inputs": [],
      "name": "DOMAIN_SEPARATOR",
      "outputs": [
        {
          "internalType": "bytes32",
          "name": "",
          "type": "bytes32"
        }
      ],
      "stateMutability": "view",
      "type": "function"
    },
    {
      "inputs": [
        {
          "internalType": "address",
          "name": "owner",
          "type": "address"
        },
        {
          "internalType": "address",
          "name": "spender",
          "type": "address"
        }
      ],
      "name": "allowance",
      "outputs": [
        {
          "internalType": "uint256",
          "name": "",
          "type": "uint256"
        }
      ],
      "stateMutability": "view",
      "type": "function"
    },
    {
      "inputs": [
        {
          "internalType": "address",
          "name": "spender",
          "type": "address"
        },
        {
          "internalType": "uint256",
          "name": "value",
          "type": "uint256"
        }
      ],
      "name": "approve",
      "outputs": [
        {
          "internalType": "bool",
          "name": "",
          "type": "bool"
        }
      ],
      "stateMutability": "nonpayable",
      "type": "function"
    },
    {
      "inputs": [
        {
          "internalType": "address",
          "name": "_addr",
          "type": "address"
        }
      ],
      "name": "balanceOf",
      "outputs": [
        {
          "internalType": "uint256",
          "name": "",
          "type": "uint256"
        }
      ],
      "stateMutability": "view",
      "type": "function"
    },
    {
      "inputs": [
        {
          "internalType": "address",
          "name": "from",
          "type": "address"
        },
        {
          "internalType": "uint256",
          "name": "amount",
          "type": "uint256"
        }
      ],
      "name": "burn",
      "outputs": [],
      "stateMutability": "nonpayable",
      "type": "function"
    },
    {
      "inputs": [],
      "name": "contractName",
      "outputs": [
        {
          "internalType": "string",
          "name": "",
          "type": "string"
        }
      ],
      "stateMutability": "view",
      "type": "function"
    },
    {
      "inputs": [],
      "name": "contractVersion",
      "outputs": [
        {
          "internalType": "string",
          "name": "",
          "type": "string"
        }
      ],
      "stateMutability": "view",
      "type": "function"
    },
    {
      "inputs": [],
      "name": "decimals",
      "outputs": [
        {
          "internalType": "uint8",
          "name": "",
          "type": "uint8"
        }
      ],
      "stateMutability": "view",
      "type": "function"
    },
    {
      "inputs": [],
      "name": "developer",
      "outputs": [
        {
          "internalType": "address payable",
          "name": "",
          "type": "address"
        }
      ],
      "stateMutability": "view",
      "type": "function"
    },
    {
      "inputs": [],
      "name": "eip712Domain",
      "outputs": [
        {
          "internalType": "bytes1",
          "name": "fields",
          "type": "bytes1"
        },
        {
          "internalType": "string",
          "name": "name",
          "type": "string"
        },
        {
          "internalType": "string",
          "name": "version",
          "type": "string"
        },
        {
          "internalType": "uint256",
          "name": "chainId",
          "type": "uint256"
        },
        {
          "internalType": "address",
          "name": "verifyingContract",
          "type": "address"
        },
        {
          "internalType": "bytes32",
          "name": "salt",
          "type": "bytes32"
        },
        {
          "internalType": "uint256[]",
          "name": "extensions",
          "type": "uint256[]"
        }
      ],
      "stateMutability": "view",
      "type": "function"
    },
    {
      "inputs": [
        {
          "internalType": "string",
          "name": "_n",
          "type": "string"
        },
        {
          "internalType": "string",
          "name": "_s",
          "type": "string"
        },
        {
          "internalType": "uint8",
          "name": "_d",
          "type": "uint8"
        }
      ],
      "name": "initiateParameters",
      "outputs": [],
      "stateMutability": "nonpayable",
      "type": "function"
    },
    {
      "inputs": [],
      "name": "isInitiatedToken",
      "outputs": [
        {
          "internalType": "bool",
          "name": "",
          "type": "bool"
        }
      ],
      "stateMutability": "view",
      "type": "function"
    },
    {
      "inputs": [
        {
          "internalType": "address",
          "name": "to",
          "type": "address"
        },
        {
          "internalType": "uint256",
          "name": "amount",
          "type": "uint256"
        }
      ],
      "name": "mint",
      "outputs": [],
      "stateMutability": "nonpayable",
      "type": "function"
    },
    {
      "inputs": [],
      "name": "name",
      "outputs": [
        {
          "internalType": "string",
          "name": "",
          "type": "string"
        }
      ],
      "stateMutability": "view",
      "type": "function"
    },
    {
      "inputs": [
        {
          "internalType": "address",
          "name": "owner",
          "type": "address"
        }
      ],
      "name": "nonces",
      "outputs": [
        {
          "internalType": "uint256",
          "name": "",
          "type": "uint256"
        }
      ],
      "stateMutability": "view",
      "type": "function"
    },
    {
      "inputs": [],
      "name": "pause",
      "outputs": [],
      "stateMutability": "nonpayable",
      "type": "function"
    },
    {
      "inputs": [],
      "name": "paused",
      "outputs": [
        {
          "internalType": "bool",
          "name": "",
          "type": "bool"
        }
      ],
      "stateMutability": "view",
      "type": "function"
    },
    {
      "inputs": [
        {
          "internalType": "address",
          "name": "owner",
          "type": "address"
        },
        {
          "internalType": "address",
          "name": "spender",
          "type": "address"
        },
        {
          "internalType": "uint256",
          "name": "value",
          "type": "uint256"
        },
        {
          "internalType": "uint256",
          "name": "deadline",
          "type": "uint256"
        },
        {
          "internalType": "uint8",
          "name": "v",
          "type": "uint8"
        },
        {
          "internalType": "bytes32",
          "name": "r",
          "type": "bytes32"
        },
        {
          "internalType": "bytes32",
          "name": "s",
          "type": "bytes32"
        }
      ],
      "name": "permit",
      "outputs": [],
      "stateMutability": "nonpayable",
      "type": "function"
    },
    {
      "inputs": [],
      "name": "register",
      "outputs": [],
      "stateMutability": "nonpayable",
      "type": "function"
    },
    {
      "inputs": [],
      "name": "symbol",
      "outputs": [
        {
          "internalType": "string",
          "name": "",
          "type": "string"
        }
      ],
      "stateMutability": "view",
      "type": "function"
    },
    {
      "inputs": [],
      "name": "totalSupply",
      "outputs": [
        {
          "internalType": "uint256",
          "name": "",
          "type": "uint256"
        }
      ],
      "stateMutability": "view",
      "type": "function"
    },
    {
      "inputs": [
        {
          "internalType": "address",
          "name": "to",
          "type": "address"
        },
        {
          "internalType": "uint256",
          "name": "value",
          "type": "uint256"
        }
      ],
      "name": "transfer",
      "outputs": [
        {
          "internalType": "bool",
          "name": "",
          "type": "bool"
        }
      ],
      "stateMutability": "nonpayable",
      "type": "function"
    },
    {
      "inputs": [
        {
          "internalType": "address payable",
          "name": "newDeveloper",
          "type": "address"
        }
      ],
      "name": "transferDeveloper",
      "outputs": [],
      "stateMutability": "nonpayable",
      "type": "function"
    },
    {
      "inputs": [
        {
          "internalType": "address",
          "name": "from",
          "type": "address"
        },
        {
          "internalType": "address",
          "name": "to",
          "type": "address"
        },
        {
          "internalType": "uint256",
          "name": "value",
          "type": "uint256"
        }
      ],
      "name": "transferFrom",
      "outputs": [
        {
          "internalType": "bool",
          "name": "",
          "type": "bool"
        }
      ],
      "stateMutability": "nonpayable",
      "type": "function"
    },
    {
      "inputs": [],
      "name": "unpause",
      "outputs": [],
      "stateMutability": "nonpayable",
      "type": "function"
    },
    {
      "stateMutability": "payable",
      "type": "receive"
    }
  ],
  "bytecode": "0x61016080604052346101de5760608161219a803803809161002082856101e2565b8339810103126101de5761003381610219565b90604061004260208301610219565b910151906040516100546040826101e2565b600e815260208101906d151bdad95b9090dbdb9d1c9858dd60921b8252604051916100806040846101e2565b600583526020830191640312e302e360dc1b835261009d8161022d565b610120526100aa846103c3565b61014052519020918260e05251902080610100524660a0526040519060208201927f8b73c3c69bb8fe3d512ecc4cf759cc79239f7b179b0ffacaa9a75d522b39400f8452604083015260608201524660808201523060a082015260a0815261011360c0826101e2565b5190206080523060c052600380546001600160a01b03199081166001600160a01b039384169081179092556002805482169092179091556004929092556005805490921692169190911790556006805460ff60a01b19908116909155600780546001600160a81b0319163390921691909117600960a11b179055604051611c9e90816104fc823960805181611600015260a051816116b7015260c051816115ca015260e0518161164f015261010051816116750152610120518161084a015261014051816108740152f35b5f80fd5b601f909101601f19168101906001600160401b0382119082101761020557604052565b634e487b7160e01b5f52604160045260245ffd5b51906001600160a01b03821682036101de57565b908151602081105f146102a7575090601f815111610267576020815191015160208210610258571790565b5f198260200360031b1b161790565b604460209160405192839163305a27a960e01b83528160048401528051918291826024860152018484015e5f828201840152601f01601f19168101030190fd5b6001600160401b038111610205575f54600181811c911680156103b9575b60208210146103a557601f8111610373575b50602092601f821160011461031457928192935f92610309575b50508160011b915f199060031b1c1916175f5560ff90565b015190505f806102f1565b601f198216935f8052805f20915f5b86811061035b5750836001959610610343575b505050811b015f5560ff90565b01515f1960f88460031b161c191690555f8080610336565b91926020600181928685015181550194019201610323565b5f8052601f60205f20910160051c810190601f830160051c015b81811061039a57506102d7565b5f815560010161038d565b634e487b7160e01b5f52602260045260245ffd5b90607f16906102c5565b908151602081105f146103ee575090601f815111610267576020815191015160208210610258571790565b6001600160401b03811161020557600154600181811c911680156104f1575b60208210146103a557601f81116104be575b50602092601f821160011461045d57928192935f92610452575b50508160011b915f199060031b1c19161760015560ff90565b015190505f80610439565b601f1982169360015f52805f20915f5b8681106104a6575083600195961061048e575b505050811b0160015560ff90565b01515f1960f88460031b161c191690555f8080610480565b9192602060018192868501518155019401920161046d565b60015f52601f60205f20910160051c810190601f830160051c015b8181106104e6575061041f565b5f81556001016104d9565b90607f169061040d56fe6080604052600436101561001a575b3615610018575f80fd5b005b5f5f3560e01c806306fdde0314610f3c578063095ea7b314610f0e57806318160ddd14610ef15780631aa3a00814610e3157806323b872dd14610d50578063313ce56714610d1f57806334ce482614610cfa5780633644e51514610cdf5780633f4ba83a14610c4b57806340c10f1914610b325780635c975abb14610b0c57806364cb4edb14610a5657806370a0823114610a3457806375d0c0dc146109e35780637ecebe00146109b95780638456cb591461092c57806384b0196e1461083057806395d89b411461080357806398c42aee146105c85780639dc29fac1461042b578063a0a8e460146103f7578063a9059cbb146103bd578063ca4b208b14610394578063d505accf146101905763dd62ed3e14610138575061000e565b3461018d57604036600319011261018d576020610185610177610159610f86565b610161610f9c565b9061016a61143b565b610172611080565b6117de565b61017f61132b565b90611545565b604051908152f35b80fd5b503461018d5760e036600319011261018d576101aa610f86565b906101b3610f9c565b6044359060643560843560ff81168103610390576101cf61143b565b81421161034b5761029461029d916101f96101f1896101ec611080565b61177a565b61017f6112d7565b9360405160208101917f6e71edae12b1b97f4d1f60370fef10105fa2faae0126114a169c64845d6126c9835260018060a01b038b169687604084015260018060a01b038916606084015289608084015260a083015260c082015260c0815261026260e082610fb2565b51902061026d6115c7565b906040519161190160f01b83526002830152602282015260c43591604260a4359220611b72565b90929192611bf4565b6001600160a01b031603610306576102ba6101f1856101ec611080565b936102c7816101ec611080565b6102cf6112d7565b90600187018097116102f257956102ea916102ef9697611b0e565b61181f565b80f35b634e487b7160e01b86526011600452602486fd5b60405162461bcd60e51b815260206004820152601e60248201527f45524332305065726d69743a20696e76616c6964207369676e617475726500006044820152606490fd5b60405162461bcd60e51b815260206004820152601d60248201527f45524332305065726d69743a206578706972656420646561646c696e650000006044820152606490fd5b8480fd5b503461018d578060031936011261018d576007546040516001600160a01b039091168152602090f35b503461018d57604036600319011261018d576103ec6103da610f86565b6103e261143b565b6024359033611488565b602060405160018152f35b503461018d578060031936011261018d57610427610413611032565b604051918291602083526020830190610f62565b0390f35b503461018d57604036600319011261018d57610445610f86565b9060243561045161143b565b60025461048f906020906001600160a01b031661046c61124e565b906040518080958194630251382f60e31b83528660048401526024830190610f62565b03915afa9081156105bd57906104b791849161058e575b506001600160a01b03163314611298565b6001600160a01b03831692831561057a576104df6104d7826101ec611080565b61017f61174f565b90828210610561578261052f7fddf252ad1be2c89b69c2b068fc378daa952ba7f163c4a11628f55a4df523b3ef9386979561051e6020956101ec611080565b91039061052961174f565b90611b0e565b6105578161054661053e611080565b61017f611459565b0361054f611080565b610529611459565b604051908152a380f35b5060649363391434e360e21b8452600452602452604452fd5b634b637e8f60e11b83526004839052602483fd5b6105b0915060203d6020116105b6575b6105a88183610fb2565b810190611279565b5f6104a6565b503d61059e565b6040513d85823e3d90fd5b503461018d57606036600319011261018d5760043567ffffffffffffffff81116107ff576105fa903690600401611004565b9060243567ffffffffffffffff81116107fb5761061b903690600401611004565b91906044359260ff84168094036107f75761063461143b565b841515806107ee575b806107dc575b1561078d57610650611187565b61074857610681610695936106a59661067b61066a611080565b926106736110ba565b9236916117a8565b91611a99565b61067b61068c611080565b92610673611301565b61069d611080565b61052961112e565b806106ae611080565b6106b661115a565b6005546040516001600160a01b039091169260208201926106eb9183916106dd9186611358565b03601f198101835282610fb2565b519020813b1561074457829160448392604051948593849263abfdcced60e01b84526004840152600160248401525af18015610739576107285750f35b8161073291610fb2565b61018d5780f35b6040513d84823e3d90fd5b5050fd5b60405162461bcd60e51b815260206004820152601c60248201527f546f6b656e20697320616c726561647920696e697469616c697a6564000000006044820152606490fd5b60405162461bcd60e51b815260206004820152602160248201527f496e76616c696420696e697469616c697a6174696f6e20706172616d657465726044820152607360f81b6064820152608490fd5b5060ff60075460a01c16841115610643565b5080151561063d565b8580fd5b8380fd5b5080fd5b503461018d578060031936011261018d57610427610413610822611080565b61082a611301565b90611371565b503461018d578060031936011261018d576108d09061086e7f00000000000000000000000000000000000000000000000000000000000000006118a3565b906108987f00000000000000000000000000000000000000000000000000000000000000006119c9565b9060206108de604051936108ac8386610fb2565b8385525f368137604051968796600f60f81b885260e08589015260e0880190610f62565b908682036040880152610f62565b904660608601523060808601528260a086015284820360c08601528080855193848152019401925b82811061091557505050500390f35b835185528695509381019392810192600101610906565b503461018d578060031936011261018d5761095260018060a01b036007541633146110e2565b61095a61143b565b6102ef600160a01b60ff60a01b196006541617806006557f62e78cea01bee320cd4e420270b5ea74000d11b0c9f74754ebdbfc544b05a2586020604051338152a16109a3611080565b9060ff6109ae611225565b9160a01c16916116dd565b503461018d57602036600319011261018d5760206101856101f16109db610f86565b6101ec611080565b503461018d578060031936011261018d57610427604051610a05604082610fb2565b600e81526d151bdad95b9090dbdb9d1c9858dd60921b6020820152604051918291602083526020830190610f62565b503461018d57602036600319011261018d5760206101856104d76109db610f86565b503461018d57602036600319011261018d576004356001600160a01b038116908190036107ff576007546001600160a01b038116610a953382146110e2565b8215610ad25782907fd734ca01d7ec868e364f3c2cbda207212fa91c58040df183429252e85a48b2b18580a36001600160a01b0319161760075580f35b60405162461bcd60e51b815260206004820152601260248201527154686973206164647265737320697320302160701b6044820152606490fd5b503461018d578060031936011261018d57602060ff60065460a01c166040519015158152f35b503461018d57604036600319011261018d57610b4c610f86565b602435610b5761143b565b600254610b72906020906001600160a01b031661046c61124e565b03915afa8015610c4057610b9791859161058e57506001600160a01b03163314611298565b6001600160a01b038216918215610c2c57610bb361053e611080565b90828201809211610c18578492610557602092610bf37fddf252ad1be2c89b69c2b068fc378daa952ba7f163c4a11628f55a4df523b3ef9561054f611080565b610c1083610c066104d7846101ec611080565b01916101ec611080565b61052961174f565b634e487b7160e01b5f52601160045260245ffd5b63ec442f0560e01b84526004849052602484fd5b6040513d86823e3d90fd5b503461018d578060031936011261018d57610c7160018060a01b036007541633146110e2565b60065460ff8160a01c1615610cd05760ff60a01b19166006556040513381527f5db9ee0a495bf2e6ff9c91a7834c1ba4fdd244a5e8aa4e537bd38aeae4b073aa90602090a16102ef81610cc2611080565b610cca611225565b906116dd565b638dfc202b60e01b8252600482fd5b503461018d578060031936011261018d5760206101856115c7565b503461018d578060031936011261018d576020610d15611187565b6040519015158152f35b503461018d578060031936011261018d57602060ff610d47610d3f611080565b61017f61112e565b16604051908152f35b503461018d57606036600319011261018d57610d6a610f86565b610d72610f9c565b60443591610d7e61143b565b610d8661143b565b610d966101773383610172611080565b935f198510610dab575b506103ec9350611488565b838510610e16576001600160a01b03821615610e02573315610dee5750610de86103ec9484610ddd3385610172611080565b91039061052961132b565b5f610da0565b634a1406b160e11b81526004819052602490fd5b63e602df0560e01b81526004819052602490fd5b6064908486637dc7a0d960e11b835233600452602452604452fd5b5034610eed575f366003190112610eed57610e5760018060a01b036007541633146110e2565b60018060a01b0360025416600454610e6d611055565b90610e76611032565b92803b15610eed575f9283610eb293610ec46040519788968795869463163f5abb60e21b86526004860152606060248601526064850190610f62565b83810360031901604485015290610f62565b03925af18015610ee257610ed6575080f35b61001891505f90610fb2565b6040513d5f823e3d90fd5b5f80fd5b34610eed575f366003190112610eed57602061018561053e611080565b34610eed576040366003190112610eed576103ec610f2a610f86565b610f3261143b565b602435903361181f565b34610eed575f366003190112610eed57610427610413610f5a611080565b61082a6110ba565b805180835260209291819084018484015e5f828201840152601f01601f1916010190565b600435906001600160a01b0382168203610eed57565b602435906001600160a01b0382168203610eed57565b90601f8019910116810190811067ffffffffffffffff821117610fd457604052565b634e487b7160e01b5f52604160045260245ffd5b67ffffffffffffffff8111610fd457601f01601f191660200190565b9181601f84011215610eed5782359167ffffffffffffffff8311610eed5760208381860195010111610eed57565b60405190611041604083610fb2565b60058252640312e302e360dc1b6020830152565b60405190611064604083610fb2565b600d82526c546f6b656e424665617475726560981b6020830152565b611088611055565b6040516110b46020828180820195805191829101875e81015f838201520301601f198101835282610fb2565b51902090565b604051906110c9604083610fb2565b600a825269546f6b656e424e616d6560b01b6020830152565b156110e957565b60405162461bcd60e51b815260206004820152601b60248201527f4f6e6c792074686520446576656c6f70657220726571756972656400000000006044820152606490fd5b6040519061113d604083610fb2565b600e82526d546f6b656e42446563696d616c7360901b6020830152565b60405190611169604083610fb2565b600f82526e24b734ba34b0ba32b22a37b5b2b72160891b6020830152565b61118f611080565b602061119961115a565b6005546040516001600160a01b0390911693838201926111bf9183916106dd9186611358565b519020602460405180948193633d70e7e560e11b835260048301525afa908115610ee2575f916111ed575090565b90506020813d60201161121d575b8161120860209383610fb2565b81010312610eed57518015158103610eed5790565b3d91506111fb565b60405190611234604083610fb2565b600b82526a546f6b656e42506175736560a81b6020830152565b6040519061125d604083610fb2565b600d82526c566f74696e674665617475726560981b6020830152565b90816020910312610eed57516001600160a01b0381168103610eed5790565b1561129f57565b60405162461bcd60e51b815260206004820152601060248201526f24b731b7b93932b1ba1031b0b63632b960811b6044820152606490fd5b604051906112e6604083610fb2565b600c82526b546f6b656e424e6f6e63657360a01b6020830152565b60405190611310604083610fb2565b600c82526b151bdad95b9094de5b589bdb60a21b6020830152565b6040519061133a604083610fb2565b600f82526e546f6b656e42416c6c6f77616e636560881b6020830152565b602092839282528051928391018483015e01015f815290565b5f906106dd61139660018060a01b036005541694604051928391602083019586611358565b519020602460405180948193634c373c8d60e11b835260048301525afa908115610ee2575f916113c4575090565b90503d805f833e6113d58183610fb2565b810190602081830312610eed5780519067ffffffffffffffff8211610eed570181601f82011215610eed5780519061140c82610fe8565b9261141a6040519485610fb2565b82845260208383010111610eed57815f9260208093018386015e8301015290565b60ff60065460a01c1661144a57565b63d93c066560e01b5f5260045ffd5b60405190611468604083610fb2565b6011825270546f6b656e42546f74616c537570706c7960781b6020830152565b916001600160a01b038316918215611532576001600160a01b03811693841561151f576114ba6104d7826101ec611080565b9083821061150457602092610bf385937fddf252ad1be2c89b69c2b068fc378daa952ba7f163c4a11628f55a4df523b3ef9661051e6114fb956101ec611080565b604051908152a3565b83828663391434e360e21b5f5260045260245260445260645ffd5b63ec442f0560e01b5f525f60045260245ffd5b634b637e8f60e11b5f525f60045260245ffd5b6020906106dd61156a60018060a01b0360055416946040519283918683019586611358565b51902060246040518094819363bd02d0f560e01b835260048301525afa908115610ee2575f91611598575090565b90506020813d6020116115bf575b816115b360209383610fb2565b81010312610eed575190565b3d91506115a6565b307f00000000000000000000000000000000000000000000000000000000000000006001600160a01b031614806116b4575b15611622577f000000000000000000000000000000000000000000000000000000000000000090565b60405160208101907f8b73c3c69bb8fe3d512ecc4cf759cc79239f7b179b0ffacaa9a75d522b39400f82527f000000000000000000000000000000000000000000000000000000000000000060408201527f000000000000000000000000000000000000000000000000000000000000000060608201524660808201523060a082015260a081526110b460c082610fb2565b507f000000000000000000000000000000000000000000000000000000000000000046146115f9565b6005546040516001600160a01b03909116939260208201926117069183916106dd919086611358565b51902090823b15610eed5760445f9283604051958694859363abfdcced60e01b85526004850152151560248401525af18015610ee2576117435750565b5f61174d91610fb2565b565b6040519061175e604083610fb2565b600d82526c546f6b656e4242616c616e636560981b6020830152565b9060405190602082019283526001600160601b03199060601b166040820152603481526110b4605482610fb2565b9291926117b482610fe8565b916117c26040519384610fb2565b829481845281830111610eed578281602093845f960137010152565b9160405191602083019384526001600160601b03199060601b1660408301526001600160601b03199060601b166054820152604881526110b4606882610fb2565b6001600160a01b038116918215611890576001600160a01b03811693841561187d576114fb816118756020947f8c5be1e5ebec7d5bd14f71427d1e84f3dd0314c0f7b2291e5b200ac8c7c3b92596610172611080565b61052961132b565b634a1406b160e11b5f525f60045260245ffd5b63e602df0560e01b5f525f60045260245ffd5b60ff81146118e95760ff811690601f82116118da57604051916118c7604084610fb2565b6020808452838101919036833783525290565b632cd44ac360e21b5f5260045ffd5b506040515f5f548060011c91600182169182156119bf575b6020841083146119ab57838552849290811561198c575060011461192f575b61192c92500382610fb2565b90565b505f80805290917f290decd9548b62a8d60345a988386fc84ba6bc95484008f6362f93160ef3e5635b81831061197057505090602061192c92820101611920565b6020919350806001915483858801015201910190918392611958565b6020925061192c94915060ff191682840152151560051b820101611920565b634e487b7160e01b5f52602260045260245ffd5b92607f1692611901565b60ff81146119ed5760ff811690601f82116118da57604051916118c7604084610fb2565b506040515f6001548060011c9160018216918215611a8f575b6020841083146119ab57838552849290811561198c5750600114611a305761192c92500382610fb2565b5060015f90815290917fb10e2d527612073b26eecdfd717e6a320cf44b4afac2b0732d9fcbe2b7fa0cf65b818310611a7357505090602061192c92820101611920565b6020919350806001915483858801015201910190918392611a5b565b92607f1692611a06565b6005546040516001600160a01b0390911693926020820192611ac29183916106dd919086611358565b51902090823b15610eed57611afd925f92836040518096819582946306e8995560e41b84526004840152604060248401526044830190610f62565b03925af18015610ee2576117435750565b6005546040516001600160a01b0390911693926020820192611b379183916106dd919086611358565b51902090823b15610eed5760445f92836040519586948593637152429d60e11b8552600485015260248401525af18015610ee2576117435750565b91907f7fffffffffffffffffffffffffffffff5d576e7357a4501ddfe92f46681b20a08411611be9579160209360809260ff5f9560405194855216868401526040830152606082015282805260015afa15610ee2575f516001600160a01b03811615611bdf57905f905f90565b505f906001905f90565b5050505f9160039190565b6004811015611c545780611c06575050565b60018103611c1d5763f645eedf60e01b5f5260045ffd5b60028103611c38575063fce698f760e01b5f5260045260245ffd5b600314611c425750565b6335e2f38360e21b5f5260045260245ffd5b634e487b7160e01b5f52602160045260245ffdfea26469706673582212205d1406604ebb1011d020794554f139b73f928dfbf6fe1223ffeff496309b414d64736f6c634300081c0033",
  "linkReferences": {},
  "deployedLinkReferences": {}
}