{
  "_format": "hh-sol-artifact-1",
  "contractName": "VotingContract",
  "sourceName": "contracts/subcontract/VotingContract.sol",
  "abi": [
    {
      "inputs": [
        {
          "internalType": "address",
          "name": "_storage",
          "type": "address"
        },
        {
          "internalType": "address",
          "name": "_master",
          "type": "address"
        },
        {
          "internalType": "bytes32",
          "name": "_key",
          "type": "bytes32"
        }
      ],
      "stateMutability": "nonpayable",
      "type": "constructor"
    },
    {
      "anonymous": false,
      "inputs": [
        {
          "indexed": true,
          "internalType": "address",
          "name": "previousDeveloper",
          "type": "address"
        },
        {
          "indexed": true,
          "internalType": "address",
          "name": "newDeveloper",
          "type": "address"
        }
      ],
      "name": "DeveloperTransferredEvent",
      "type": "event"
    },
    {
      "anonymous": false,
      "inputs": [
        {
          "indexed": false,
          "internalType": "uint256",
          "name": "voteId",
          "type": "uint256"
        },
        {
          "indexed": true,
          "internalType": "address",
          "name": "addr",
          "type": "address"
        },
        {
          "indexed": true,
          "internalType": "uint256",
          "name": "votingId",
          "type": "uint256"
        },
        {
          "indexed": false,
          "internalType": "string",
          "name": "eventText",
          "type": "string"
        }
      ],
      "name": "VoteEvent",
      "type": "event"
    },
    {
      "anonymous": false,
      "inputs": [
        {
          "indexed": false,
          "internalType": "uint256",
          "name": "votingId",
          "type": "uint256"
        },
        {
          "indexed": false,
          "internalType": "string",
          "name": "eventText",
          "type": "string"
        }
      ],
      "name": "VotingEvent",
      "type": "event"
    },
    {
      "inputs": [],
      "name": "V_BURN_SUBJECT",
      "outputs": [
        {
          "internalType": "string",
          "name": "",
          "type": "string"
        }
      ],
      "stateMutability": "view",
      "type": "function"
    },
    {
      "inputs": [],
      "name": "V_MINT_SUBJECT",
      "outputs": [
        {
          "internalType": "string",
          "name": "",
          "type": "string"
        }
      ],
      "stateMutability": "view",
      "type": "function"
    },
    {
      "inputs": [],
      "name": "contractName",
      "outputs": [
        {
          "internalType": "string",
          "name": "",
          "type": "string"
        }
      ],
      "stateMutability": "view",
      "type": "function"
    },
    {
      "inputs": [],
      "name": "contractVersion",
      "outputs": [
        {
          "internalType": "string",
          "name": "",
          "type": "string"
        }
      ],
      "stateMutability": "view",
      "type": "function"
    },
    {
      "inputs": [
        {
          "internalType": "string",
          "name": "_sb",
          "type": "string"
        },
        {
          "internalType": "string",
          "name": "_dc",
          "type": "string"
        },
        {
          "internalType": "uint256",
          "name": "_dl",
          "type": "uint256"
        },
        {
          "internalType": "uint256",
          "name": "_da",
          "type": "uint256"
        }
      ],
      "name": "createVoting",
      "outputs": [
        {
          "internalType": "bool",
          "name": "",
          "type": "bool"
        }
      ],
      "stateMutability": "nonpayable",
      "type": "function"
    },
    {
      "inputs": [],
      "name": "developer",
      "outputs": [
        {
          "internalType": "address payable",
          "name": "",
          "type": "address"
        }
      ],
      "stateMutability": "view",
      "type": "function"
    },
    {
      "inputs": [],
      "name": "getPercentsForAccept",
      "outputs": [
        {
          "internalType": "uint256",
          "name": "",
          "type": "uint256"
        }
      ],
      "stateMutability": "view",
      "type": "function"
    },
    {
      "inputs": [
        {
          "internalType": "uint256",
          "name": "_vote",
          "type": "uint256"
        }
      ],
      "name": "getVote",
      "outputs": [
        {
          "internalType": "address",
          "name": "_voter",
          "type": "address"
        },
        {
          "internalType": "uint256",
          "name": "_voting",
          "type": "uint256"
        },
        {
          "internalType": "int256",
          "name": "_balance",
          "type": "int256"
        },
        {
          "internalType": "uint256",
          "name": "_time",
          "type": "uint256"
        }
      ],
      "stateMutability": "view",
      "type": "function"
    },
    {
      "inputs": [],
      "name": "getVoteCounter",
      "outputs": [
        {
          "internalType": "uint256",
          "name": "",
          "type": "uint256"
        }
      ],
      "stateMutability": "view",
      "type": "function"
    },
    {
      "inputs": [],
      "name": "getVotes",
      "outputs": [
        {
          "internalType": "uint256[]",
          "name": "",
          "type": "uint256[]"
        }
      ],
      "stateMutability": "view",
      "type": "function"
    },
    {
      "inputs": [
        {
          "internalType": "uint256",
          "name": "_voting",
          "type": "uint256"
        }
      ],
      "name": "getVoting",
      "outputs": [
        {
          "internalType": "string",
          "name": "_sb",
          "type": "string"
        },
        {
          "internalType": "string",
          "name": "_dc",
          "type": "string"
        },
        {
          "internalType": "uint256",
          "name": "_da",
          "type": "uint256"
        },
        {
          "internalType": "address",
          "name": "_cr",
          "type": "address"
        },
        {
          "internalType": "uint256",
          "name": "_ct",
          "type": "uint256"
        },
        {
          "internalType": "uint256",
          "name": "_dl",
          "type": "uint256"
        },
        {
          "internalType": "uint256",
          "name": "_rt",
          "type": "uint256"
        },
        {
          "internalType": "bool",
          "name": "_pd",
          "type": "bool"
        },
        {
          "internalType": "int256",
          "name": "_vs",
          "type": "int256"
        },
        {
          "internalType": "address",
          "name": "_ra",
          "type": "address"
        }
      ],
      "stateMutability": "view",
      "type": "function"
    },
    {
      "inputs": [],
      "name": "getVotingCounter",
      "outputs": [
        {
          "internalType": "uint256",
          "name": "",
          "type": "uint256"
        }
      ],
      "stateMutability": "view",
      "type": "function"
    },
    {
      "inputs": [
        {
          "internalType": "uint256",
          "name": "votingId",
          "type": "uint256"
        }
      ],
      "name": "getVotingVotes",
      "outputs": [
        {
          "internalType": "uint256[]",
          "name": "",
          "type": "uint256[]"
        }
      ],
      "stateMutability": "view",
      "type": "function"
    },
    {
      "inputs": [
        {
          "internalType": "uint256",
          "name": "_percent",
          "type": "uint256"
        }
      ],
      "name": "initPercents",
      "outputs": [],
      "stateMutability": "nonpayable",
      "type": "function"
    },
    {
      "inputs": [
        {
          "internalType": "address",
          "name": "addr",
          "type": "address"
        },
        {
          "internalType": "uint256",
          "name": "votingId",
          "type": "uint256"
        }
      ],
      "name": "isVoted",
      "outputs": [
        {
          "internalType": "bool",
          "name": "",
          "type": "bool"
        }
      ],
      "stateMutability": "view",
      "type": "function"
    },
    {
      "inputs": [],
      "name": "register",
      "outputs": [],
      "stateMutability": "nonpayable",
      "type": "function"
    },
    {
      "inputs": [
        {
          "internalType": "uint256",
          "name": "id",
          "type": "uint256"
        }
      ],
      "name": "resolveVoting",
      "outputs": [
        {
          "internalType": "bool",
          "name": "",
          "type": "bool"
        }
      ],
      "stateMutability": "nonpayable",
      "type": "function"
    },
    {
      "inputs": [
        {
          "internalType": "address payable",
          "name": "newDeveloper",
          "type": "address"
        }
      ],
      "name": "transferDeveloper",
      "outputs": [],
      "stateMutability": "nonpayable",
      "type": "function"
    },
    {
      "inputs": [
        {
          "internalType": "uint256",
          "name": "votingId",
          "type": "uint256"
        },
        {
          "internalType": "bool",
          "name": "verdict",
          "type": "bool"
        }
      ],
      "name": "vote",
      "outputs": [
        {
          "internalType": "bool",
          "name": "",
          "type": "bool"
        }
      ],
      "stateMutability": "nonpayable",
      "type": "function"
    },
    {
      "stateMutability": "payable",
      "type": "receive"
    }
  ],
  "bytecode": "0x60803460bd57601f61293b38819003918201601f19168301916001600160401b0383118484101760c15780849260609460405283398101031260bd5760428160d5565b906040604f6020830160d5565b910151600180546001600160a01b03199081166001600160a01b039485169081179092555f805482169092179091556002919091556003805490911692909116919091179055600580546001600160a81b0319163360ff60a01b191617905560405161285290816100e98239f35b5f80fd5b634e487b7160e01b5f52604160045260245ffd5b51906001600160a01b038216820360bd5756fe6080604052600436101561001a575b3615610018575f80fd5b005b5f5f3560e01c80630ccb3c6614611b885780630dc96015146119e55780631aa3a0081461192a578063245ab01d146117b15780633afc7282146115f55780634cb98f5914610fcd5780635a55c1f014610e7257806364cb4edb14610dbc57806373da75f914610d9e57806375d0c0dc14610d4d57806376e0709414610c425780638271453b14610c245780638382355714610bf65780638ee36f0514610bb85780638f0f79df14610b9c578063a0a8e46014610b68578063adc2496514610710578063c9d27afe146101215763ca4b208b146100f6575061000e565b3461011e578060031936011261011e576005546040516001600160a01b039091168152602090f35b80fd5b503461011e57604036600319011261011e576004356024359182159283150361011e5760055460ff8160a01c1661060c5760ff60a01b1916600160a01b1760055561016b33612277565b81546001600160a01b031693906101a7906020610186612216565b60405180948192630251382f60e31b83528460048401526024830190611c1f565b0381895afa91821561070557906101ec929185926106e4575b5060206101cb6120ee565b60405180958192630251382f60e31b83528460048401526024830190611c1f565b03818a5afa9283156106b75790602493929186936106c2575b5060405163288c314960e21b81526001600160a01b0391821660048201819052909490926020928692918391165afa9283156106b7578593610686575b5082610610575b50501561060c5761025933612277565b6102638482612199565b6105c75761027884610273611f29565b612297565b61029b61028c610286612024565b8361234d565b9161029561204e565b9061234d565b1590816105bc575b50156105b85760206102db94956102b86120ee565b906040518080988194630251382f60e31b83528660048401526024830190611c1f565b03915afa938415610578578394610583575b506040516370a0823160e01b81526001600160a01b039182166004820181905294909160209183916024918391165afa908115610578578391610542575b508091610519575b5061034761033f611dbb565b610295612142565b9160405160a0810181811067ffffffffffffffff8211176105055760405283815260208101908582526040810187815260608201908582526080830192428452600188018089116104f15761040d926103eb6103d061041d989796946103c06103fc956103b2611dbb565b6103ba612142565b90612558565b6103c8611dbb565b905190612297565b966103d9611de9565b90516001600160a01b0316908861262e565b6103f3611f05565b90519086612558565b610404612118565b905190846127b8565b610415611ffb565b905191612558565b61043a61042c86610273611f29565b61043461209c565b90612505565b8183820193841291129080158216911516176104dd57507faf6e0a0dc9ebcee3f7fc2f70b37e384b590128136cd26be68f6a7ead6c9c64809161049360809261048587610273611f29565b61048d61209c565b906127b8565b604051908152604060208201526013604082015272151a1a5cc81d9bdd19481a185cc81d9bdd1959606a1b6060820152a36005805460ff60a01b1916905560405160018152602090f35b634e487b7160e01b81526011600452602490fd5b634e487b7160e01b87526011600452602487fd5b634e487b7160e01b83526041600452602483fd5b9050600160ff1b811461052e5781035f610333565b634e487b7160e01b82526011600452602482fd5b90506020813d602011610570575b8161055d60209383611ba3565b8101031261056c57515f61032b565b5f80fd5b3d9150610550565b6040513d85823e3d90fd5b60249194506105a9602091823d84116105b1575b6105a18183611ba3565b810190611d1f565b9491506102ed565b503d610597565b8280fd5b90504211155f6102a3565b60405162461bcd60e51b815260206004820152601b60248201527f5468697320766f746520616c72656164792068617320766f74656400000000006044820152606490fd5b5080fd5b6040516370a0823160e01b815260048101919091529150602090829060249082906001600160a01b03165afa908115610578578391610654575b5015155f80610249565b90506020813d60201161067e575b8161066f60209383611ba3565b8101031261056c57515f61064a565b3d9150610662565b6106a991935060203d6020116106b0575b6106a18183611ba3565b810190611d3e565b915f610242565b503d610697565b6040513d87823e3d90fd5b60209193506106dd90823d84116105b1576105a18183611ba3565b9290610205565b6106fe91925060203d6020116105b1576105a18183611ba3565b905f6101c0565b6040513d86823e3d90fd5b503461011e57608036600319011261011e5760043567ffffffffffffffff811161060c57610742903690600401611cc7565b60249291923567ffffffffffffffff81116105b857610765903690600401611cc7565b91909361078961077433612277565b85546001600160a01b031660206101cb612216565b0381845afa928315610b1957906107d29392918893610b46575b506020906107af6120ee565b906040518080978194630251382f60e31b83528660048401526024830190611c1f565b03915afa928315610b19579060249392918893610b24575b5060405163288c314960e21b81526001600160a01b0391821660048201819052909490926020928692918391165afa928315610b19578793610af8575b5082610a82575b505015610a7e5761083e33612277565b9260405195610160870187811067ffffffffffffffff821117610a6a579187939187959360405285855260208501966060885260408601606081526060870191888352608088019389855260a08901958a875260c08a01978b895260e08b01998c8b526101008c019b8d8d528d61012082015261014081019d8e526108c1611f29565b6108c9612142565b6108d29161234d565b905236906108df92612241565b8c5236906108ec92612241565b82526001600160a01b0316825242835260443584528985528986528987526064358852610917611f29565b8b5161092291612297565b9861092b611f59565b9051610937918b612743565b61093f611f7e565b905161094b918a612743565b610953611fd6565b905161096b916001600160a01b03909116908961262e565b610973611ffb565b905161097f9188612558565b610987612024565b90516109939187612558565b61099b61204e565b90516109a79186612558565b6109af612078565b905115156109bd91856125c8565b6109c561209c565b90516109d191846127b8565b6109d9611fa7565b9051906109e592612558565b815190600182018092116104dd577f0573042e3b536372ac3efde8376ed369c652127080e746551e5d0f137a113f55608084610a23856103b2611f29565b5160405190815260406020820152601760408201527f5468697320766f74696e672068617320637265617465640000000000000000006060820152a1602060405160018152f35b634e487b7160e01b87526041600452602487fd5b8380fd5b6040516370a0823160e01b815260048101919091529150602090829060249082906001600160a01b03165afa9081156106b7578591610ac6575b5015155f8061082e565b90506020813d602011610af0575b81610ae160209383611ba3565b8101031261056c57515f610abc565b3d9150610ad4565b610b1291935060203d6020116106b0576106a18183611ba3565b915f610827565b6040513d89823e3d90fd5b6020919350610b3f90823d84116105b1576105a18183611ba3565b92906107ea565b6020919350610b6190823d84116105b1576105a18183611ba3565b92906107a3565b503461011e578060031936011261011e57610b98610b84611ca6565b604051918291602083526020830190611c1f565b0390f35b503461011e578060031936011261011e57610b98610b84611c7c565b503461011e57604036600319011261011e57600435906001600160a01b038216820361011e576020610bec60243584612199565b6040519015158152f35b503461011e578060031936011261011e576020610c1c610c14611d81565b61029561216d565b604051908152f35b503461011e578060031936011261011e576020610c1c61033f611dbb565b503461011e57602036600319011261011e578054610c91906020906001600160a01b0316610c6e6120ee565b906040518080958194630251382f60e31b83528660048401526024830190611c1f565b03915afa908115610d42578291610d23575b50336001600160a01b0390911603610ccf57610ccc610cc0611d81565b600435906103ba61216d565b80f35b60405162461bcd60e51b815260206004820152602660248201527f4f6e6c79206120546f6b656e46656174757265206164647265737320697320616044820152651b1b1bddd95960d21b6064820152608490fd5b610d3c915060203d6020116105b1576105a18183611ba3565b5f610ca3565b6040513d84823e3d90fd5b503461011e578060031936011261011e57610b98604051610d6f604082611ba3565b600e81526d159bdd1a5b99d0dbdb9d1c9858dd60921b6020820152604051918291602083526020830190611c1f565b503461011e578060031936011261011e576020610c1c61033f611f29565b503461011e57602036600319011261011e576004356001600160a01b0381169081900361060c576005546001600160a01b038116610dfb338214611eb9565b8215610e385782907fd734ca01d7ec868e364f3c2cbda207212fa91c58040df183429252e85a48b2b18580a36001600160a01b0319161760055580f35b60405162461bcd60e51b815260206004820152601260248201527154686973206164647265737320697320302160701b6044820152606490fd5b503461011e57602036600319011261011e57610ec9610e9033612277565b82546020906001600160a01b0316610ea6611cf5565b906040518080968194630251382f60e31b83528660048401526024830190611c1f565b03915afa918215610578578392610fab575b5060405163e5f93e9760e01b81526001600160a01b0391821660048201529160209183916024918391165afa908115610d42578291610f8c575b501561011e576080610f2b600435610273611dbb565b610f3c610f36611de9565b826122d0565b90610f4e610f48611f05565b8261234d565b90610f6c610f63610f5d612118565b83612505565b91610295611ffb565b916040519360018060a01b03168452602084015260408301526060820152f35b610fa5915060203d6020116106b0576106a18183611ba3565b5f610f15565b6020919250610fc690823d84116105b1576105a18183611ba3565b9190610edb565b503461011e57602036600319011261011e5760043560055460ff8160a01c166105b85760ff60a01b1916600160a01b1760055561100933612277565b9161101682610273611f29565b9261102861102261204e565b8561234d565b611039611033612024565b8661234d565b42106105b85761060c57815461105d906020906001600160a01b0316610c6e6120ee565b03915afa9081156105785783916115d6575b506040516318160ddd60e01b815294906001600160a01b0316602086600481845afa9586156107055784966115a1575b50602060049160405192838092634127231760e01b82525afa90811561070557849161156f575b506110e26001916110dc61042c88610273611f29565b97611e78565b956110ee610c14611d81565b8781029790868212600160ff1b8214166104f157818905149015171561155b576064611150959697051215611554575b611142906111344261112e61204e565b85612558565b61113c612078565b836125c8565b61114a6120c1565b9061262e565b61115c82610273611f29565b9061116e611168611f59565b836123cf565b61118b61118261117c612078565b85612499565b93610295611fa7565b82546001600160a01b0316939091906111a89060206101866120ee565b0381895afa9182156106b7579061120f9392918692611533575b5060206040978851906111d58a83611ba3565b600d82526c546f6b656e424665617475726560981b8383015289518080988194630251382f60e31b83528660048401526024830190611c1f565b03915afa938415611529578694611505575b501515600114806114fc575b806114ea575b806114d8575b6112b0575b6020867f0573042e3b536372ac3efde8376ed369c652127080e746551e5d0f137a113f5560808a835190815283858201526018848201527f5468697320766f74696e6720686173207265736f6c76656400000000000000006060820152a16005805460ff60a01b191690555160018152f35b8551633800918160e21b8152929190602090849060049082906001600160a01b03165afa9283156114ce5785936114ad575b50855160208101825191611310602082818701958087875e81018b838201520301601f198101835282611ba3565b51902061131b611bf5565b88516113466020828180820195805191829101875e81018c838201520301601f198101835282611ba3565b51902014611430575b61137760208851809382820195518091875e810189838201520301601f198101835282611ba3565b519020611382611c7c565b86516113ad6020828180820195805191829101875e81018a838201520301601f198101835282611ba3565b519020146113bc575b8061123e565b6001600160a01b031690813b15610a7e578451632770a7eb60e21b81526001600160a01b03919091166004820152602481019290925282908290604490829084905af1801561142657611411575b80806113b6565b61141c828092611ba3565b61011e578061140a565b83513d84823e3d90fd5b6001600160a01b038316803b156114a95787516340c10f1960e01b81526001600160a01b0386166004820152602481018790529087908290604490829084905af1801561149f57908791611486575b505061134f565b8161149091611ba3565b61149b57855f61147f565b8580fd5b88513d89823e3d90fd5b8680fd5b6114c791935060203d6020116105b1576105a18183611ba3565b915f6112e2565b86513d87823e3d90fd5b506001600160a01b0383161515611239565b506001600160a01b0381161515611233565b5083151561122d565b60019194506115229060203d6020116105b1576105a18183611ba3565b9390611221565b87513d88823e3d90fd5b61154d91925060203d6020116105b1576105a18183611ba3565b905f6111c2565b508361111e565b634e487b7160e01b85526011600452602485fd5b90506020813d602011611599575b8161158a60209383611ba3565b8101031261056c57515f6110c6565b3d915061157d565b9095506020813d6020116115ce575b816115bd60209383611ba3565b8101031261056c575194602061109f565b3d91506115b0565b6115ef915060203d6020116105b1576105a18183611ba3565b5f61106f565b503461011e57602036600319011261011e57611613610e9033612277565b03915afa91821561057857839261178f575b5060405163e5f93e9760e01b81526001600160a01b0391821660048201529160209183916024918391165afa908115610d42578291611770575b501561011e57611721611676600435610273611f29565b611687611681611f59565b826123cf565b90611693611681611f7e565b61169e610286611fa7565b916116aa610f36611fd6565b6116b5610286611ffb565b6116c66116c0612024565b8461234d565b6116d161102261204e565b916116e36116dd612078565b86612499565b9361172f61170a6116fb6116f561209c565b89612505565b976117046120c1565b906122d0565b976040519b8c9b6101408d526101408d0190611c1f565b908b820360208d0152611c1f565b9760408a015260018060a01b03166060890152608088015260a087015260c0860152151560e085015261010084015260018060a01b03166101208301520390f35b611789915060203d6020116106b0576106a18183611ba3565b5f61165f565b60209192506117aa90823d84116105b1576105a18183611ba3565b9190611625565b503461011e57602036600319011261011e57600435906117d3610e9033612277565b03915afa918215610578578392611908575b5060405163e5f93e9760e01b81526001600160a01b0391821660048201529160209183916024918391165afa908115610d425782916118e9575b501561011e5780815b61183361033f611dbb565b811015611874578361185261184a83610273611dbb565b610295611f05565b14611860575b600101611828565b9061186c600191611e0c565b919050611858565b509061187f82611e46565b905b61188c61033f611dbb565b8110156118db57836118a361184a83610273611dbb565b146118b1575b600101611881565b916118d381846118cd6118c76001958751611e78565b86611e85565b52611ead565b9290506118a9565b60405180610b988482611c43565b611902915060203d6020116106b0576106a18183611ba3565b5f61181f565b602091925061192390823d84116105b1576105a18183611ba3565b91906117e5565b503461056c575f36600319011261056c5761195060018060a01b03600554163314611eb9565b60018060a01b035f5416600254611965611d56565b9061196e611ca6565b92803b1561056c575f92836119aa936119bc6040519788968795869463163f5abb60e21b86526004860152606060248601526064850190611c1f565b83810360031901604485015290611c1f565b03925af180156119da576119ce575080f35b61001891505f90611ba3565b6040513d5f823e3d90fd5b3461056c575f36600319011261056c57611a17611a0133612277565b5f546020906001600160a01b0316610ea6611cf5565b03915afa9182156119da575f92611b66575b5060405163e5f93e9760e01b81526001600160a01b0391821660048201529160209183916024918391165afa9081156119da575f91611b47575b501561056c575f5f5b611a7761033f611dbb565b811015611ac457611a8a81610273611dbb565b33906001600160a01b0390611aa190611704611de9565b1614611ab0575b600101611a6c565b90611abc600191611e0c565b919050611aa8565b50611ace81611e46565b905f5b611adc61033f611dbb565b811015611b3957611aef81610273611dbb565b33906001600160a01b0390611b0690611704611de9565b1614611b15575b600101611ad1565b90611b3181836118cd611b2b6001958851611e78565b87611e85565b919050611b0d565b60405180610b988582611c43565b611b60915060203d6020116106b0576106a18183611ba3565b81611a63565b6020919250611b8190823d84116105b1576105a18183611ba3565b9190611a29565b3461056c575f36600319011261056c57610b98610b84611bf5565b90601f8019910116810190811067ffffffffffffffff821117611bc557604052565b634e487b7160e01b5f52604160045260245ffd5b67ffffffffffffffff8111611bc557601f01601f191660200190565b60405190611c04604083611ba3565b600c82526b26b4b73a103a37b5b2b7102160a11b6020830152565b805180835260209291819084018484015e5f828201840152601f01601f1916010190565b60206040818301928281528451809452019201905f5b818110611c665750505090565b8251845260209384019390920191600101611c59565b60405190611c8b604083611ba3565b600c82526b213ab937103a37b5b2b7102160a11b6020830152565b60405190611cb5604083611ba3565b600382526219171b60e91b6020830152565b9181601f8401121561056c5782359167ffffffffffffffff831161056c576020838186019501011161056c57565b60405190611d04604083611ba3565b600c82526b4f776e65724665617475726560a01b6020830152565b9081602091031261056c57516001600160a01b038116810361056c5790565b9081602091031261056c5751801515810361056c5790565b60405190611d65604083611ba3565b600d82526c566f74696e674665617475726560981b6020830152565b611d89611d56565b604051611db56020828180820195805191829101875e81015f838201520301601f198101835282611ba3565b51902090565b611dc3611d81565b6040516020810191825263566f746560e01b604082015260248152611db5604482611ba3565b60405190611df8604083611ba3565b60058252643b37ba32b960d91b6020830152565b5f198114611e1a5760010190565b634e487b7160e01b5f52601160045260245ffd5b67ffffffffffffffff8111611bc55760051b60200190565b90611e5082611e2e565b611e5d6040519182611ba3565b8281528092611e6e601f1991611e2e565b0190602036910137565b91908203918211611e1a57565b8051821015611e995760209160051b010190565b634e487b7160e01b5f52603260045260245ffd5b8015611e1a575f190190565b15611ec057565b60405162461bcd60e51b815260206004820152601b60248201527f4f6e6c792074686520446576656c6f70657220726571756972656400000000006044820152606490fd5b60405190611f14604083611ba3565b6006825265766f74696e6760d01b6020830152565b611f31611d81565b6040516020810191825265566f74696e6760d01b604082015260268152611db5604682611ba3565b60405190611f68604083611ba3565b60078252661cdd589a9958dd60ca1b6020830152565b60405190611f8d604083611ba3565b600b82526a3232b9b1b934b83a34b7b760a91b6020830152565b60405190611fb6604083611ba3565b601182527019195cd8dc9a5c1d1a5bdb905b5bdd5b9d607a1b6020830152565b60405190611fe5604083611ba3565b600782526631b932b0ba37b960c91b6020830152565b6040519061200a604083611ba3565b600b82526a6372656174656454696d6560a81b6020830152565b60405190612033604083611ba3565b600c82526b646561646c696e6554696d6560a01b6020830152565b6040519061205d604083611ba3565b600c82526b7265736f6c76656454696d6560a01b6020830152565b60405190612087604083611ba3565b60068252651c185cdcd95960d21b6020830152565b604051906120ab604083611ba3565b6007825266766f746553756d60c81b6020830152565b604051906120d0604083611ba3565b600f82526e7265736f6c7665644164647265737360881b6020830152565b604051906120fd604083611ba3565b600c82526b546f6b656e4665617475726560a01b6020830152565b60405190612127604083611ba3565b600c82526b766f74657242616c616e636560a01b6020830152565b60405190612151604083611ba3565b600d82526c29ba393ab1ba21b7bab73a32b960991b6020830152565b6040519061217c604083611ba3565b600e82526d566f74696e6750657263656e747360901b6020830152565b5f5b6121a661033f611dbb565b81101561220f576121b981610273611dbb565b836121d76121ce6121c8611de9565b846122d0565b92610295611f05565b6001600160a01b038581169316929092149182612205575b50506121fd5760010161219b565b505050600190565b149050835f6121ef565b5050505f90565b60405190612225604083611ba3565b600d82526c4d656d6265724665617475726560981b6020830152565b92919261224d82611bd9565b9161225b6040519384611ba3565b82948184528183011161056c578281602093845f960137010152565b612280816126a0565b6001600160a01b038116612292575090565b905090565b906040519060208201928352604082015260408152611db5606082611ba3565b602092839282528051928391018483015e01015f815290565b6020906122f561230360018060a01b03600354169460405192839186830195866122b7565b03601f198101835282611ba3565b5190206024604051809481936321f8a72160e01b835260048301525afa9081156119da575f91612331575090565b61234a915060203d6020116105b1576105a18183611ba3565b90565b6020906122f561237260018060a01b03600354169460405192839186830195866122b7565b51902060246040518094819363bd02d0f560e01b835260048301525afa9081156119da575f916123a0575090565b90506020813d6020116123c7575b816123bb60209383611ba3565b8101031261056c575190565b3d91506123ae565b5f906122f56123f460018060a01b0360035416946040519283916020830195866122b7565b519020602460405180948193634c373c8d60e11b835260048301525afa9081156119da575f91612422575090565b90503d805f833e6124338183611ba3565b81019060208183031261056c5780519067ffffffffffffffff821161056c570181601f8201121561056c5780519061246a82611bd9565b926124786040519485611ba3565b8284526020838301011161056c57815f9260208093018386015e8301015290565b6020906122f56124be60018060a01b03600354169460405192839186830195866122b7565b519020602460405180948193633d70e7e560e11b835260048301525afa9081156119da575f916124ec575090565b61234a915060203d6020116106b0576106a18183611ba3565b6020906122f561252a60018060a01b03600354169460405192839186830195866122b7565b519020602460405180948193636e4becb160e11b835260048301525afa9081156119da575f916123a0575090565b6003546040516001600160a01b03909116939260208201926125819183916122f59190866122b7565b51902090823b1561056c5760445f92836040519586948593637152429d60e11b8552600485015260248401525af180156119da576125bc5750565b5f6125c691611ba3565b565b6003546040516001600160a01b03909116939260208201926125f19183916122f59190866122b7565b51902090823b1561056c5760445f9283604051958694859363abfdcced60e01b85526004850152151560248401525af180156119da576125bc5750565b6003546040516001600160a01b03909116939260208201926126579183916122f59190866122b7565b51902090823b1561056c5760405163ca446dd960e01b815260048101929092526001600160a01b03166024820152905f908290604490829084905af180156119da576125bc5750565b803b1561272a575f80916040516020810190638da5cb5b60e01b8252600481526126cb602482611ba3565b51915afa3d1561273b573d906126e082611bd9565b916126ee6040519384611ba3565b82523d5f602084013e5b15801561272f575b61272a5760208180518101031261056c57602001516001600160a01b0381169081900361056c5790565b505f90565b50602081511415612700565b6060906126f8565b6003546040516001600160a01b039091169392602082019261276c9183916122f59190866122b7565b51902090823b1561056c576127a7925f92836040518096819582946306e8995560e41b84526004840152604060248401526044830190611c1f565b03925af180156119da576125bc5750565b6003546040516001600160a01b03909116939260208201926127e19183916122f59190866122b7565b51902090823b1561056c5760445f928360405195869485936303e49bed60e41b8552600485015260248401525af180156119da576125bc575056fea26469706673582212203ae65b2da2912c4941cd92d762e6a7e695dfaa5942fb59f36c25cbd5de98860764736f6c634300081c0033",
  "linkReferences": {},
  "deployedLinkReferences": {}
}